{
    "_format": "hh3-artifact-1",
    "contractName": "DiceGame",
    "sourceName": "contracts/newGames/DiceGame.sol",
    "abi": [
        {
            "inputs": [
                {
                    "internalType": "address",
                    "name": "_treasury",
                    "type": "address"
                }
            ],
            "stateMutability": "nonpayable",
            "type": "constructor"
        },
        {
            "inputs": [],
            "name": "BetAmountOutOfRange",
            "type": "error"
        },
        {
            "inputs": [],
            "name": "BetDoesNotExist",
            "type": "error"
        },
        {
            "inputs": [],
            "name": "BetNotPending",
            "type": "error"
        },
        {
            "inputs": [],
            "name": "GameNotLive",
            "type": "error"
        },
        {
            "inputs": [],
            "name": "InsufficientBalance",
            "type": "error"
        },
        {
            "inputs": [],
            "name": "InvalidBetCount",
            "type": "error"
        },
        {
            "inputs": [],
            "name": "InvalidBetType",
            "type": "error"
        },
        {
            "inputs": [],
            "name": "InvalidDoubleValue",
            "type": "error"
        },
        {
            "inputs": [],
            "name": "InvalidExactSum",
            "type": "error"
        },
        {
            "inputs": [],
            "name": "NotAuthorizedCaller",
            "type": "error"
        },
        {
            "inputs": [
                {
                    "internalType": "address",
                    "name": "owner",
                    "type": "address"
                }
            ],
            "name": "OwnableInvalidOwner",
            "type": "error"
        },
        {
            "inputs": [
                {
                    "internalType": "address",
                    "name": "account",
                    "type": "address"
                }
            ],
            "name": "OwnableUnauthorizedAccount",
            "type": "error"
        },
        {
            "inputs": [],
            "name": "PlayerHasPendingBet",
            "type": "error"
        },
        {
            "inputs": [],
            "name": "RefundTooEarly",
            "type": "error"
        },
        {
            "inputs": [],
            "name": "TokenNotConfigured",
            "type": "error"
        },
        {
            "anonymous": false,
            "inputs": [
                {
                    "indexed": true,
                    "internalType": "uint256",
                    "name": "betId",
                    "type": "uint256"
                },
                {
                    "indexed": true,
                    "internalType": "address",
                    "name": "player",
                    "type": "address"
                },
                {
                    "indexed": false,
                    "internalType": "address",
                    "name": "token",
                    "type": "address"
                },
                {
                    "indexed": false,
                    "internalType": "uint256",
                    "name": "amount",
                    "type": "uint256"
                },
                {
                    "indexed": false,
                    "internalType": "uint16",
                    "name": "betCount",
                    "type": "uint16"
                },
                {
                    "indexed": false,
                    "internalType": "bytes",
                    "name": "gameChoice",
                    "type": "bytes"
                }
            ],
            "name": "BetPlaced",
            "type": "event"
        },
        {
            "anonymous": false,
            "inputs": [
                {
                    "indexed": true,
                    "internalType": "uint256",
                    "name": "betId",
                    "type": "uint256"
                },
                {
                    "indexed": true,
                    "internalType": "address",
                    "name": "player",
                    "type": "address"
                },
                {
                    "indexed": false,
                    "internalType": "uint256",
                    "name": "amount",
                    "type": "uint256"
                },
                {
                    "indexed": false,
                    "internalType": "address",
                    "name": "token",
                    "type": "address"
                }
            ],
            "name": "BetRefunded",
            "type": "event"
        },
        {
            "anonymous": false,
            "inputs": [
                {
                    "indexed": true,
                    "internalType": "uint256",
                    "name": "betId",
                    "type": "uint256"
                },
                {
                    "indexed": true,
                    "internalType": "address",
                    "name": "player",
                    "type": "address"
                },
                {
                    "indexed": false,
                    "internalType": "address",
                    "name": "token",
                    "type": "address"
                },
                {
                    "indexed": false,
                    "internalType": "uint256",
                    "name": "totalBetAmount",
                    "type": "uint256"
                },
                {
                    "indexed": false,
                    "internalType": "uint256",
                    "name": "payout",
                    "type": "uint256"
                },
                {
                    "indexed": false,
                    "internalType": "uint256[]",
                    "name": "outcomes",
                    "type": "uint256[]"
                }
            ],
            "name": "BetSettled",
            "type": "event"
        },
        {
            "anonymous": false,
            "inputs": [
                {
                    "indexed": true,
                    "internalType": "uint256",
                    "name": "betId",
                    "type": "uint256"
                },
                {
                    "indexed": false,
                    "internalType": "uint8",
                    "name": "betType",
                    "type": "uint8"
                },
                {
                    "indexed": false,
                    "internalType": "uint8",
                    "name": "betData",
                    "type": "uint8"
                },
                {
                    "indexed": false,
                    "internalType": "uint256[]",
                    "name": "outcomes",
                    "type": "uint256[]"
                },
                {
                    "indexed": false,
                    "internalType": "uint256",
                    "name": "payout",
                    "type": "uint256"
                }
            ],
            "name": "DiceRoll",
            "type": "event"
        },
        {
            "anonymous": false,
            "inputs": [
                {
                    "indexed": true,
                    "internalType": "address",
                    "name": "player",
                    "type": "address"
                },
                {
                    "indexed": true,
                    "internalType": "address",
                    "name": "game",
                    "type": "address"
                },
                {
                    "indexed": true,
                    "internalType": "address",
                    "name": "currency",
                    "type": "address"
                },
                {
                    "indexed": false,
                    "internalType": "uint256",
                    "name": "gameIdentifier",
                    "type": "uint256"
                },
                {
                    "indexed": false,
                    "internalType": "uint256",
                    "name": "payout",
                    "type": "uint256"
                }
            ],
            "name": "LivePayout",
            "type": "event"
        },
        {
            "anonymous": false,
            "inputs": [
                {
                    "indexed": true,
                    "internalType": "address",
                    "name": "previousOwner",
                    "type": "address"
                },
                {
                    "indexed": true,
                    "internalType": "address",
                    "name": "newOwner",
                    "type": "address"
                }
            ],
            "name": "OwnershipTransferred",
            "type": "event"
        },
        {
            "inputs": [],
            "name": "BET_ANY_DOUBLE",
            "outputs": [
                {
                    "internalType": "uint8",
                    "name": "",
                    "type": "uint8"
                }
            ],
            "stateMutability": "view",
            "type": "function"
        },
        {
            "inputs": [],
            "name": "BET_EVEN",
            "outputs": [
                {
                    "internalType": "uint8",
                    "name": "",
                    "type": "uint8"
                }
            ],
            "stateMutability": "view",
            "type": "function"
        },
        {
            "inputs": [],
            "name": "BET_EXACT_DOUBLE",
            "outputs": [
                {
                    "internalType": "uint8",
                    "name": "",
                    "type": "uint8"
                }
            ],
            "stateMutability": "view",
            "type": "function"
        },
        {
            "inputs": [],
            "name": "BET_EXACT_SUM",
            "outputs": [
                {
                    "internalType": "uint8",
                    "name": "",
                    "type": "uint8"
                }
            ],
            "stateMutability": "view",
            "type": "function"
        },
        {
            "inputs": [],
            "name": "BET_HIGH",
            "outputs": [
                {
                    "internalType": "uint8",
                    "name": "",
                    "type": "uint8"
                }
            ],
            "stateMutability": "view",
            "type": "function"
        },
        {
            "inputs": [],
            "name": "BET_LOW",
            "outputs": [
                {
                    "internalType": "uint8",
                    "name": "",
                    "type": "uint8"
                }
            ],
            "stateMutability": "view",
            "type": "function"
        },
        {
            "inputs": [],
            "name": "BET_ODD",
            "outputs": [
                {
                    "internalType": "uint8",
                    "name": "",
                    "type": "uint8"
                }
            ],
            "stateMutability": "view",
            "type": "function"
        },
        {
            "inputs": [
                {
                    "internalType": "uint256",
                    "name": "",
                    "type": "uint256"
                }
            ],
            "name": "baseBets",
            "outputs": [
                {
                    "internalType": "address",
                    "name": "player",
                    "type": "address"
                },
                {
                    "internalType": "address",
                    "name": "token",
                    "type": "address"
                },
                {
                    "internalType": "uint256",
                    "name": "amount",
                    "type": "uint256"
                },
                {
                    "internalType": "uint16",
                    "name": "betCount",
                    "type": "uint16"
                },
                {
                    "internalType": "uint176",
                    "name": "placeBlockNumber",
                    "type": "uint176"
                },
                {
                    "internalType": "bool",
                    "name": "resolved",
                    "type": "bool"
                },
                {
                    "internalType": "bool",
                    "name": "isCreditBet",
                    "type": "bool"
                },
                {
                    "internalType": "uint256",
                    "name": "payout",
                    "type": "uint256"
                }
            ],
            "stateMutability": "view",
            "type": "function"
        },
        {
            "inputs": [
                {
                    "internalType": "address",
                    "name": "",
                    "type": "address"
                }
            ],
            "name": "callers",
            "outputs": [
                {
                    "internalType": "bool",
                    "name": "",
                    "type": "bool"
                }
            ],
            "stateMutability": "view",
            "type": "function"
        },
        {
            "inputs": [
                {
                    "internalType": "uint256",
                    "name": "",
                    "type": "uint256"
                }
            ],
            "name": "diceBets",
            "outputs": [
                {
                    "internalType": "uint8",
                    "name": "betType",
                    "type": "uint8"
                },
                {
                    "internalType": "uint8",
                    "name": "betData",
                    "type": "uint8"
                }
            ],
            "stateMutability": "view",
            "type": "function"
        },
        {
            "inputs": [
                {
                    "internalType": "uint8",
                    "name": "betType",
                    "type": "uint8"
                },
                {
                    "internalType": "uint8",
                    "name": "betData",
                    "type": "uint8"
                },
                {
                    "internalType": "uint16",
                    "name": "betCount",
                    "type": "uint16"
                }
            ],
            "name": "encodeGameChoice",
            "outputs": [
                {
                    "internalType": "bytes",
                    "name": "",
                    "type": "bytes"
                }
            ],
            "stateMutability": "pure",
            "type": "function"
        },
        {
            "inputs": [
                {
                    "internalType": "uint256",
                    "name": "",
                    "type": "uint256"
                }
            ],
            "name": "exactSumPayouts",
            "outputs": [
                {
                    "internalType": "uint16",
                    "name": "",
                    "type": "uint16"
                }
            ],
            "stateMutability": "view",
            "type": "function"
        },
        {
            "inputs": [],
            "name": "explosionRate",
            "outputs": [
                {
                    "internalType": "uint256",
                    "name": "",
                    "type": "uint256"
                }
            ],
            "stateMutability": "view",
            "type": "function"
        },
        {
            "inputs": [],
            "name": "gameCredits",
            "outputs": [
                {
                    "internalType": "contract GameCredits",
                    "name": "",
                    "type": "address"
                }
            ],
            "stateMutability": "view",
            "type": "function"
        },
        {
            "inputs": [],
            "name": "gameIsLive",
            "outputs": [
                {
                    "internalType": "bool",
                    "name": "",
                    "type": "bool"
                }
            ],
            "stateMutability": "view",
            "type": "function"
        },
        {
            "inputs": [
                {
                    "internalType": "uint256",
                    "name": "betId",
                    "type": "uint256"
                }
            ],
            "name": "getDiceBet",
            "outputs": [
                {
                    "components": [
                        {
                            "internalType": "uint8",
                            "name": "betType",
                            "type": "uint8"
                        },
                        {
                            "internalType": "uint8",
                            "name": "betData",
                            "type": "uint8"
                        }
                    ],
                    "internalType": "struct DiceGame.DiceBet",
                    "name": "",
                    "type": "tuple"
                }
            ],
            "stateMutability": "view",
            "type": "function"
        },
        {
            "inputs": [
                {
                    "internalType": "address",
                    "name": "player",
                    "type": "address"
                }
            ],
            "name": "getPlayerInfo",
            "outputs": [
                {
                    "components": [
                        {
                            "internalType": "uint32",
                            "name": "totalBets",
                            "type": "uint32"
                        },
                        {
                            "internalType": "uint32",
                            "name": "totalWins",
                            "type": "uint32"
                        },
                        {
                            "internalType": "uint256",
                            "name": "totalInValue",
                            "type": "uint256"
                        },
                        {
                            "internalType": "uint256",
                            "name": "totalOutValue",
                            "type": "uint256"
                        },
                        {
                            "internalType": "uint256[20]",
                            "name": "lastBetIds",
                            "type": "uint256[20]"
                        },
                        {
                            "internalType": "uint8",
                            "name": "lastBetIdx",
                            "type": "uint8"
                        }
                    ],
                    "internalType": "struct BaseGame.PlayerInfo",
                    "name": "",
                    "type": "tuple"
                }
            ],
            "stateMutability": "view",
            "type": "function"
        },
        {
            "inputs": [
                {
                    "internalType": "address",
                    "name": "player",
                    "type": "address"
                }
            ],
            "name": "lastBets",
            "outputs": [
                {
                    "internalType": "uint256[20]",
                    "name": "ids",
                    "type": "uint256[20]"
                },
                {
                    "internalType": "uint8",
                    "name": "idx",
                    "type": "uint8"
                }
            ],
            "stateMutability": "view",
            "type": "function"
        },
        {
            "inputs": [],
            "name": "nextBetId",
            "outputs": [
                {
                    "internalType": "uint256",
                    "name": "",
                    "type": "uint256"
                }
            ],
            "stateMutability": "view",
            "type": "function"
        },
        {
            "inputs": [],
            "name": "owner",
            "outputs": [
                {
                    "internalType": "address",
                    "name": "",
                    "type": "address"
                }
            ],
            "stateMutability": "view",
            "type": "function"
        },
        {
            "inputs": [],
            "name": "payoutAnyDouble",
            "outputs": [
                {
                    "internalType": "uint16",
                    "name": "",
                    "type": "uint16"
                }
            ],
            "stateMutability": "view",
            "type": "function"
        },
        {
            "inputs": [],
            "name": "payoutEven",
            "outputs": [
                {
                    "internalType": "uint16",
                    "name": "",
                    "type": "uint16"
                }
            ],
            "stateMutability": "view",
            "type": "function"
        },
        {
            "inputs": [],
            "name": "payoutExactDouble",
            "outputs": [
                {
                    "internalType": "uint16",
                    "name": "",
                    "type": "uint16"
                }
            ],
            "stateMutability": "view",
            "type": "function"
        },
        {
            "inputs": [],
            "name": "payoutHigh",
            "outputs": [
                {
                    "internalType": "uint16",
                    "name": "",
                    "type": "uint16"
                }
            ],
            "stateMutability": "view",
            "type": "function"
        },
        {
            "inputs": [],
            "name": "payoutLow",
            "outputs": [
                {
                    "internalType": "uint16",
                    "name": "",
                    "type": "uint16"
                }
            ],
            "stateMutability": "view",
            "type": "function"
        },
        {
            "inputs": [],
            "name": "payoutOdd",
            "outputs": [
                {
                    "internalType": "uint16",
                    "name": "",
                    "type": "uint16"
                }
            ],
            "stateMutability": "view",
            "type": "function"
        },
        {
            "inputs": [
                {
                    "internalType": "address",
                    "name": "",
                    "type": "address"
                }
            ],
            "name": "pendingBetId",
            "outputs": [
                {
                    "internalType": "uint256",
                    "name": "",
                    "type": "uint256"
                }
            ],
            "stateMutability": "view",
            "type": "function"
        },
        {
            "inputs": [
                {
                    "components": [
                        {
                            "internalType": "address",
                            "name": "player",
                            "type": "address"
                        },
                        {
                            "internalType": "bytes",
                            "name": "gameChoice",
                            "type": "bytes"
                        },
                        {
                            "internalType": "address",
                            "name": "token",
                            "type": "address"
                        },
                        {
                            "internalType": "uint256",
                            "name": "amount",
                            "type": "uint256"
                        },
                        {
                            "internalType": "bool",
                            "name": "isCreditBet",
                            "type": "bool"
                        },
                        {
                            "internalType": "uint256",
                            "name": "seed",
                            "type": "uint256"
                        }
                    ],
                    "internalType": "struct IBaseGame.PlayParams",
                    "name": "params",
                    "type": "tuple"
                }
            ],
            "name": "playAndSettle",
            "outputs": [
                {
                    "internalType": "uint256",
                    "name": "betId",
                    "type": "uint256"
                },
                {
                    "internalType": "uint256",
                    "name": "payout",
                    "type": "uint256"
                }
            ],
            "stateMutability": "nonpayable",
            "type": "function"
        },
        {
            "inputs": [
                {
                    "internalType": "address",
                    "name": "player",
                    "type": "address"
                },
                {
                    "internalType": "bytes",
                    "name": "gameChoice",
                    "type": "bytes"
                },
                {
                    "internalType": "address",
                    "name": "token",
                    "type": "address"
                },
                {
                    "internalType": "uint256",
                    "name": "amount",
                    "type": "uint256"
                }
            ],
            "name": "playFromRouter",
            "outputs": [
                {
                    "internalType": "uint256",
                    "name": "betId",
                    "type": "uint256"
                }
            ],
            "stateMutability": "nonpayable",
            "type": "function"
        },
        {
            "inputs": [
                {
                    "internalType": "address",
                    "name": "player",
                    "type": "address"
                },
                {
                    "internalType": "bytes",
                    "name": "gameChoice",
                    "type": "bytes"
                },
                {
                    "internalType": "address",
                    "name": "token",
                    "type": "address"
                },
                {
                    "internalType": "uint256",
                    "name": "amount",
                    "type": "uint256"
                }
            ],
            "name": "playFromRouterWithCredits",
            "outputs": [
                {
                    "internalType": "uint256",
                    "name": "betId",
                    "type": "uint256"
                }
            ],
            "stateMutability": "nonpayable",
            "type": "function"
        },
        {
            "inputs": [
                {
                    "internalType": "address",
                    "name": "",
                    "type": "address"
                }
            ],
            "name": "playerInfo",
            "outputs": [
                {
                    "internalType": "uint32",
                    "name": "totalBets",
                    "type": "uint32"
                },
                {
                    "internalType": "uint32",
                    "name": "totalWins",
                    "type": "uint32"
                },
                {
                    "internalType": "uint256",
                    "name": "totalInValue",
                    "type": "uint256"
                },
                {
                    "internalType": "uint256",
                    "name": "totalOutValue",
                    "type": "uint256"
                },
                {
                    "internalType": "uint8",
                    "name": "lastBetIdx",
                    "type": "uint8"
                }
            ],
            "stateMutability": "view",
            "type": "function"
        },
        {
            "inputs": [
                {
                    "internalType": "address",
                    "name": "",
                    "type": "address"
                }
            ],
            "name": "playerSeeds",
            "outputs": [
                {
                    "internalType": "uint256",
                    "name": "",
                    "type": "uint256"
                }
            ],
            "stateMutability": "view",
            "type": "function"
        },
        {
            "inputs": [
                {
                    "internalType": "bytes",
                    "name": "gameChoice",
                    "type": "bytes"
                },
                {
                    "internalType": "address",
                    "name": "token",
                    "type": "address"
                },
                {
                    "internalType": "uint256",
                    "name": "amount",
                    "type": "uint256"
                },
                {
                    "internalType": "uint256",
                    "name": "seed",
                    "type": "uint256"
                }
            ],
            "name": "previewPlay",
            "outputs": [
                {
                    "internalType": "uint256",
                    "name": "payout",
                    "type": "uint256"
                },
                {
                    "internalType": "uint256[]",
                    "name": "outcomes",
                    "type": "uint256[]"
                }
            ],
            "stateMutability": "view",
            "type": "function"
        },
        {
            "inputs": [
                {
                    "internalType": "uint256",
                    "name": "betId",
                    "type": "uint256"
                }
            ],
            "name": "refundBet",
            "outputs": [],
            "stateMutability": "nonpayable",
            "type": "function"
        },
        {
            "inputs": [],
            "name": "renounceOwnership",
            "outputs": [],
            "stateMutability": "nonpayable",
            "type": "function"
        },
        {
            "inputs": [
                {
                    "internalType": "address",
                    "name": "_caller",
                    "type": "address"
                },
                {
                    "internalType": "bool",
                    "name": "_allowed",
                    "type": "bool"
                }
            ],
            "name": "setCaller",
            "outputs": [],
            "stateMutability": "nonpayable",
            "type": "function"
        },
        {
            "inputs": [
                {
                    "internalType": "uint8",
                    "name": "sum",
                    "type": "uint8"
                },
                {
                    "internalType": "uint16",
                    "name": "payout",
                    "type": "uint16"
                }
            ],
            "name": "setExactSumPayout",
            "outputs": [],
            "stateMutability": "nonpayable",
            "type": "function"
        },
        {
            "inputs": [
                {
                    "internalType": "uint256",
                    "name": "_explosionRate",
                    "type": "uint256"
                }
            ],
            "name": "setExplosionRate",
            "outputs": [],
            "stateMutability": "nonpayable",
            "type": "function"
        },
        {
            "inputs": [
                {
                    "internalType": "address",
                    "name": "_gameCredits",
                    "type": "address"
                }
            ],
            "name": "setGameCredits",
            "outputs": [],
            "stateMutability": "nonpayable",
            "type": "function"
        },
        {
            "inputs": [
                {
                    "internalType": "uint256",
                    "name": "newSeed",
                    "type": "uint256"
                }
            ],
            "name": "setPlayerSeed",
            "outputs": [],
            "stateMutability": "nonpayable",
            "type": "function"
        },
        {
            "inputs": [
                {
                    "internalType": "uint16",
                    "name": "_high",
                    "type": "uint16"
                },
                {
                    "internalType": "uint16",
                    "name": "_low",
                    "type": "uint16"
                },
                {
                    "internalType": "uint16",
                    "name": "_even",
                    "type": "uint16"
                },
                {
                    "internalType": "uint16",
                    "name": "_odd",
                    "type": "uint16"
                },
                {
                    "internalType": "uint16",
                    "name": "_anyDouble",
                    "type": "uint16"
                },
                {
                    "internalType": "uint16",
                    "name": "_exactDouble",
                    "type": "uint16"
                }
            ],
            "name": "setSimplePayouts",
            "outputs": [],
            "stateMutability": "nonpayable",
            "type": "function"
        },
        {
            "inputs": [
                {
                    "internalType": "address",
                    "name": "token",
                    "type": "address"
                },
                {
                    "internalType": "uint128",
                    "name": "minBet",
                    "type": "uint128"
                },
                {
                    "internalType": "uint128",
                    "name": "maxBet",
                    "type": "uint128"
                }
            ],
            "name": "setTokenConfig",
            "outputs": [],
            "stateMutability": "nonpayable",
            "type": "function"
        },
        {
            "inputs": [
                {
                    "internalType": "address",
                    "name": "_treasury",
                    "type": "address"
                }
            ],
            "name": "setTreasury",
            "outputs": [],
            "stateMutability": "nonpayable",
            "type": "function"
        },
        {
            "inputs": [
                {
                    "internalType": "uint256",
                    "name": "betId",
                    "type": "uint256"
                },
                {
                    "internalType": "uint256",
                    "name": "seed",
                    "type": "uint256"
                }
            ],
            "name": "settleBet",
            "outputs": [],
            "stateMutability": "nonpayable",
            "type": "function"
        },
        {
            "inputs": [
                {
                    "internalType": "address",
                    "name": "",
                    "type": "address"
                }
            ],
            "name": "supportedTokenInfo",
            "outputs": [
                {
                    "internalType": "uint128",
                    "name": "minBetAmount",
                    "type": "uint128"
                },
                {
                    "internalType": "uint128",
                    "name": "maxBetAmount",
                    "type": "uint128"
                }
            ],
            "stateMutability": "view",
            "type": "function"
        },
        {
            "inputs": [],
            "name": "toggleGameIsLive",
            "outputs": [],
            "stateMutability": "nonpayable",
            "type": "function"
        },
        {
            "inputs": [],
            "name": "totalBetsGlobal",
            "outputs": [
                {
                    "internalType": "uint256",
                    "name": "",
                    "type": "uint256"
                }
            ],
            "stateMutability": "view",
            "type": "function"
        },
        {
            "inputs": [],
            "name": "totalValueGlobal",
            "outputs": [
                {
                    "internalType": "uint256",
                    "name": "",
                    "type": "uint256"
                }
            ],
            "stateMutability": "view",
            "type": "function"
        },
        {
            "inputs": [
                {
                    "internalType": "address",
                    "name": "newOwner",
                    "type": "address"
                }
            ],
            "name": "transferOwnership",
            "outputs": [],
            "stateMutability": "nonpayable",
            "type": "function"
        },
        {
            "inputs": [],
            "name": "treasury",
            "outputs": [
                {
                    "internalType": "contract ITreasury",
                    "name": "",
                    "type": "address"
                }
            ],
            "stateMutability": "view",
            "type": "function"
        },
        {
            "inputs": [
                {
                    "internalType": "address",
                    "name": "beneficiary",
                    "type": "address"
                },
                {
                    "internalType": "uint256",
                    "name": "amount",
                    "type": "uint256"
                },
                {
                    "internalType": "address",
                    "name": "token",
                    "type": "address"
                }
            ],
            "name": "withdrawCustomTokenFunds",
            "outputs": [],
            "stateMutability": "nonpayable",
            "type": "function"
        }
    ],
    "bytecode": "0x6080604052346101cf57604051601f612de938819003918201601f19168301916001600160401b038311848410176101a8578084926020946040528339810103126101cf57516001600160a01b038116908190036101cf5733156101bc575f8054336001600160a01b0319821681178355916001600160a01b03909116907f8be0079c531659141344cd1fd0a4f28419497f9722a3daafe3b4186f6b6457e09080a3600180546001600160a01b03191691909117815560095560046003556040516101a081016001600160401b038111828210176101a8576040525f81525f6020820152610d8060408201526106c06060820152610480608082015261036060a08201526102b360c082015261024060e08201526102b36101008201526103606101208201526104806101408201526106c0610160820152610d806101808201525f905f5b600d811061018257600e839055600f80546001600160601b0319166b0d80024000c000c000e600e61790555f600355604051612c1590816101d48239f35b9091602060019161ffff8551169061ffff8560041b92831b921b19161793019101610144565b634e487b7160e01b5f52604160045260245ffd5b631e4fbdf760e01b5f525f60045260245ffd5b5f80fdfe6080806040526004361015610012575f80fd5b5f905f3560e01c908162a1fa9214611de05750806303abf75f146117bd578063043d51311461179957806307106f271461170d5780630d2cbe13146116c957806313358162146116ad578063145287d61461168f5780631aa60a3e1461166a5780632a69bf1d146116415780633476dcd81461161c5780633ebbf0b1146115f757806342258eca146115ab5780634b1146911461153b57806358ee9c43146114a5578063593284011461137957806361d027b3146113505780636a92b33c1461132b5780636ba30272146112525780636e156a3b146111d9578063715018a61461117f578063781355bf14610f825780637bbf4a3f14610f435780637eb316c714610f275780637f66fa6b14610f0b57806381c8ec1b14610eed5780638d0b42d814610ead5780638da5cb5b14610e8657806393f846b314610e6a57806399fac9f214610de45780639aca279214610dc65780639cae6eae14610d73578063a045a6fc14610d44578063a385cd4114610cac578063a40fc39614610c6f578063b14c800914610b37578063b7dc575214610b14578063bc688a6d14610af8578063c0ac4d2b14610ad6578063c2350a8714610a59578063cf1cfbef14610a3d578063d1f156d7146106fe578063d414d0c2146106db578063e1fdb4b41461046f578063e40e397014610453578063e695c25314610435578063e7138143146103eb578063ee33f9c4146103b2578063f0f4426014610372578063f2fde38b146102ec578063f4efd881146102b35763f5c9c5861461024e575f80fd5b346102b05760203660031901126102b05760408181926020835161027181611f74565b8281520152600435815260106020522060ff82519161028f83611f74565b5481602081831694858152019160081c168152835192835251166020820152f35b80fd5b50346102b05760203660031901126102b0576020906040906001600160a01b036102db611e01565b168152600783522054604051908152f35b50346102b05760203660031901126102b057610306611e01565b61030e612895565b6001600160a01b0316801561035e5781546001600160a01b03198116821783556001600160a01b03167f8be0079c531659141344cd1fd0a4f28419497f9722a3daafe3b4186f6b6457e08380a380f35b631e4fbdf760e01b82526004829052602482fd5b50346102b05760203660031901126102b05761038c611e01565b610394612895565b60018060a01b03166001600160601b0360a01b600154161760015580f35b50346102b05760203660031901126102b0576020906040906001600160a01b036103da611e01565b168152600883522054604051908152f35b50346102b05760203660031901126102b05760409081906001600160a01b03610412611e01565b168152600660205220548151906001600160801b038116825260801c6020820152f35b50346102b057806003193601126102b0576020600b54604051908152f35b50346102b057806003193601126102b057602060405160018152f35b50346102b05760203660031901126102b057600435808252600c60205260408220906002820154156106cc57600382019081549160ff8360c01c166106bd57601083901c6001600160b01b03908116610100019081116106a9576001600160b01b031643111561069a5760ff90828652600c6020526104ff6040872061ffff600360028301549201541690612005565b60c083901b19909416600160c01b1781556004850184905584546001600160a01b031686526007602052604086208690555460c81c161561061357600254835485916001600160a01b039182169116803b1561060f57604051637709a1a760e11b81526001600160a01b039290921660048301526024820185905282908290604490829084905af18015610604576105eb575b50506105e8925b805460019190910154604080518581526001600160a01b039283166020820152929091169183917fb27522330a91a6a320aeeac4733cad91c61b5384667c37acb1855ace8dc34e5091a3612766565b80f35b816105f591611fac565b61060057835f610592565b8380fd5b6040513d84823e3d90fd5b8280fd5b6001805490840154845486926001600160a01b039081169281169116823b1561060057604051639bc5c50960e01b81526001600160a01b03928316600482015260248101879052911660448201529082908290606490829084905af1801561060457610685575b50506105e892610599565b8161068f91611fac565b61060057835f61067a565b634a01daaf60e11b8552600485fd5b634e487b7160e01b86526011600452602486fd5b63433835b360e11b8552600485fd5b633f9b7dd560e11b8352600483fd5b50346102b057806003193601126102b057602060ff600454166040519015158152f35b50346102b05761070d36611e9a565b949091939294338252600560205260ff60408320541615610a2e5760ff6004541615610a1f5760018060a01b0383169283835260066020526040832054948560801c968715610a1057610760818a6128bb565b909261ffff8416998a15610a01576001600160801b036107808c89612543565b9a168a109081156109f7575b506109e8576001600160a01b0316808752600760205260408720549098906109d9576107b782612944565b866009549a8b809a6107c8826126d6565b6009558c84526007602052816040852055604051946107e686611f43565b8d86526020808701928352604080880192835260608801958652436001600160b01b03166080890190815260a0890188815260c0808b018a815260e08c018b815298909a52600c909452918f20985189546001600160a01b03199081166001600160a01b03928316178b55955160018b018054909716911617909455915160028801559351600387018054935192516001600160c81b031990941661ffff9092169190911760109290921b62010000600160c01b03169190911791151590931b60ff60c01b16178255915b51815460ff60c81b191690151560c81b60ff60c81b16179055516004909101556108db90876129f2565b868552600d6020526040852098895463ffffffff166108f990612083565b63ffffffff1663ffffffff198b5416178a5560018a018581549061091c91612076565b90558660178b019a8b5460ff169060030190610937916126e4565b610951929082549060031b91821b915f19901b1916179055565b895460ff1692601384145f149a60ff7f2796ecbf0b0464407570c503af31d0a181d0c00ac867a6c3d3c330267e93fa40986109c29660209e6109cd57505b1660ff198254161790556109a4600a546126d6565b600a556109b386600b54612076565b600b55604051958695866126f3565b0390a3604051908152f35b8291506001011661098f565b63f99d560d60e01b8752600487fd5b636e15e3d960e11b8752600487fd5b905089115f61078c565b63ef4c8b3560e01b8852600488fd5b631d8730d160e31b8552600485fd5b632f9107b560e01b8252600482fd5b637046c88d60e01b8252600482fd5b50346102b057806003193601126102b057602060405160048152f35b50346102b05760403660031901126102b057610a73611ef6565b610a7b611e17565b90610a84612895565b60ff811660028110908115610acb575b50610abc57610aa290611f14565b61ffff80839493549260031b9316831b921b191617905580f35b6368ef939d60e01b8352600483fd5b600c9150115f610a94565b50346102b057806003193601126102b057602061ffff600f5416604051908152f35b50346102b057806003193601126102b057602090604051908152f35b50346102b05760203660031901126102b057610b2e612895565b60043560035580f35b50346102b05760603660031901126102b057610b51611e01565b602435906044356001600160a01b038116919082900361060057610b73612895565b6040516370a0823160e01b8152306004820152602081602481865afa908115610c64578591610c2e575b508311610c1f5760405163a9059cbb60e01b81526001600160a01b0391909116600482015260248101929092526020908290604490829086905af1801561060457610be6575080f35b6020813d602011610c17575b81610bff60209383611fac565b81010312610c135751801515036102b05780f35b5080fd5b3d9150610bf2565b631e9acf1760e31b8452600484fd5b90506020813d602011610c5c575b81610c4960209383611fac565b81010312610c5857515f610b9d565b8480fd5b3d9150610c3c565b6040513d87823e3d90fd5b50346102b05760203660031901126102b05760043590600d8210156102b057602061ffff610c9c84611f14565b90549060031b1c16604051908152f35b50346102b05760203660031901126102b0576040610100916004358152600c6020522060018060a01b038154169060ff60018060a01b0360018301541691600281015460046003830154920154936040519586526020860152604085015261ffff8116606085015260018060b01b038160101c166080850152818160c01c16151560a085015260c81c16151560c083015260e0820152f35b50346102b057806003193601126102b057610d5d612895565b60045460ff80821615169060ff19161760045580f35b50346102b05760403660031901126102b057610d8d611e01565b6024359081151580920361060f57610da3612895565b60018060a01b031682526005602052604082209060ff8019835416911617905580f35b50346102b057806003193601126102b0576020600954604051908152f35b50346102b05760603660031901126102b057610dfe611ef6565b60243560ff811680910361060f5760409161ffff610e1a611e28565b84519360ff60208601941684528585015216606083015260608252610e40608083611fac565b8251938492602084525180928160208601528585015e828201840152601f01601f19168101030190f35b50346102b057806003193601126102b057602060405160058152f35b50346102b057806003193601126102b057546040516001600160a01b039091168152602090f35b50346102b05760203660031901126102b057610ec7611e01565b610ecf612895565b60018060a01b03166001600160601b0360a01b600254161760025580f35b50346102b057806003193601126102b0576020600354604051908152f35b50346102b057806003193601126102b057602060405160038152f35b50346102b057806003193601126102b057602060405160028152f35b50346102b05760203660031901126102b05760209060ff906040906001600160a01b03610f6e611e01565b168152600584522054166040519015158152f35b50346102b057610f9136611e9a565b949091939294338252600560205260ff60408320541615610a2e5760ff6004541615610a1f5760018060a01b0383169283835260066020526040832054948560801c968715610a1057610fe4818a6128bb565b909261ffff8416998a15610a01576001600160801b036110048c89612543565b9a168a10908115611175575b506109e8576001600160a01b0316808752600760205260408720549098906109d95761103b82612944565b866009549a8b809a61104c826126d6565b6009558c845260076020528160408520556040519461106a86611f43565b8d86526020860191825260408601908152606086019384526080860190600160b01b600190034316825260a087019286845260c08801946001865260e0890197808952528d600c6020526040902097600160a01b6001900390600160a01b60019003905116166001600160601b0360a01b895416178855600160a01b600190039051166001880190600160a01b60019003166001600160601b0360a01b82541617905551600287015560038601935161ffff1661ffff1661ffff1985541617845551835490600160c01b6201000090039060101b1690600160c01b62010000900319161783555115156108b190839081549060ff60c01b90151560c01b169060ff60c01b1916179055565b905089115f611010565b50346102b057806003193601126102b057611198612895565b80546001600160a01b03198116825581906001600160a01b03167f8be0079c531659141344cd1fd0a4f28419497f9722a3daafe3b4186f6b6457e08280a380f35b50346102b05760803660031901126102b05760043567ffffffffffffffff8111610c135761120b903690600401611e39565b906024356001600160a01b03811681036106005761123193506064359260443592612561565b9061124e6040519283928352604060208401526040830190611e67565b0390f35b50346102b05760c03660031901126102b05760043561ffff8116809103610c135761127b611e17565b90611284611e28565b60643561ffff81168103610c58576084359261ffff841684036113275760a43561ffff811681036113235769ffff00000000000000009365ffff0000000067ffff000000000000936112d4612895565b600f549361ffff60501b9060501b169863ffff000061ffff60501b199589199388199165ffffffffffff191617169160101b1617169160201b1617169160301b16179160401b161717600f5580f35b8680fd5b8580fd5b50346102b057806003193601126102b057602061ffff600f5460101c16604051908152f35b50346102b057806003193601126102b0576001546040516001600160a01b039091168152602090f35b50346102b05760203660031901126102b057611393611e01565b8160a06040516113a281611f90565b828152826020820152826040820152826060820152610280604051906113c88183611fac565b368237608082015201526001600160a01b03168152600d6020526040808220905190916113f482611f90565b82549263ffffffff8416835263ffffffff602084019460201c1684526001810154604084019081526002820154906060850191825263ffffffff60ff601761143e60038701611fce565b95608089019687520154169660a087019788528160405197511687525116602086015251604085015251606084015251608083019091905b6014821061148f576103208460ff875116610300820152f35b6020806001928551815201930191019091611476565b50346102b05760603660031901126102b0576114bf611e01565b602435906001600160801b03821680920361060f57604435906001600160801b038216809203610600576114f1612895565b604051926114fe84611f74565b83526020830191825260018060a01b0316835260066020526001600160801b0360408420925116906001600160801b0319905160801b1617905580f35b50346102b05760203660031901126102b05760a0906040906001600160a01b03611563611e01565b168152600d6020522080549060018101549060ff60176002830154920154169163ffffffff60405194818116865260201c166020850152604084015260608301526080820152f35b50346102b05760203660031901126102b057604061124e91600435815260106020522054604051918160ff80859460081c1691168390929160ff60209181604085019616845216910152565b50346102b057806003193601126102b057602061ffff600f5460301c16604051908152f35b50346102b057806003193601126102b057602061ffff600f5460501c16604051908152f35b50346102b057806003193601126102b0576002546040516001600160a01b039091168152602090f35b50346102b05760203660031901126102b0573381526008602052600435604082205580f35b50346102b057806003193601126102b0576020600a54604051908152f35b50346102b057806003193601126102b057602060405160068152f35b50346102b05760403660031901126102b057338152600560205260ff604082205416156116fe576105e86024356004356120c8565b637046c88d60e01b8152600490fd5b50346102b05760203660031901126102b057611727611e01565b61028090816040516117398282611fac565b3690376001600160a01b03168252600d60205260408220601781015460ff169061176590600301611fce565b9160405192839094905b601482106117835750506102a09350820152f35b602080600192885181520196019101909461176f565b50346102b057806003193601126102b057602061ffff600f54821c16604051908152f35b34611c56576020366003190112611c565760043567ffffffffffffffff8111611c5657806004019080360360c0600319820112611c5657335f52600560205260ff60405f20541615611dd15760ff6004541615611dc25760448201926001600160a01b0361182a85612737565b165f52600660205260405f20548060801c928315611db35760248501359060221901811215611c565784019360048501359467ffffffffffffffff8611611c56576024018536038113611c565761ffff95611884916128bb565b9516908115611da4576064810135946001600160801b036118a58488612543565b94168410908115611d9a575b50611d8b576118bf86612944565b600954956118cc876126d6565b6009556118d885612737565b906118e289612737565b91608484013592831515809403611c565789600491611a04956040519461190886611f43565b6001600160a01b039081168652918216602080870191825260408088018d8152606089018d8152436001600160b01b031660808b01908152600160a08c0181815260c0808e01998a525f60e08f018181529c8152600c909852959096209b518c546001600160a01b0319908116918b16919091178d559651908c0180549097169816979097179094555160028901559151600388018054955192516001600160c81b031990961661ffff929092169190911760109290921b62010000600160c01b03169190911793151590911b60ff60c01b1692909217825551815460ff60c81b191690151560c81b60ff60c81b1617905551910155876129f2565b5f905f194301438111611cb6576040519060a460208301930135835242604083015244606083015240608082015260808152611a4160a082611fac565b5190206003546064820611611cca5750505f516020612bc05f395f51905f52939291611aca91611a708761274b565b90875f9788945b5f838152600c6020526040902080546001909101546001600160a01b0391821695911691611aa59190612005565b90611ab786886040519485948561209a565b0390a3611ac48288612766565b866127c3565b5f848152600c602052604090206004018390556001600160a01b03611aee82612737565b165f52600d60205260405f2063ffffffff611b0b81835416612083565b1663ffffffff1982541617815560018101611b27848254612076565b90556009545f198101908111611cb657611b686017830191611b5060ff845416600386016126e4565b90919082549060031b91821b915f19901b1916179055565b805460ff1660138103611ca9575060ff5f5b1660ff198254161790558315159081611c5a575b50611bc1575b60408484611bb285611ba7600a546126d6565b600a55600b54612076565b600b5582519182526020820152f35b6001546001600160a01b031694611be190611bdb90612737565b91612737565b853b15611c5657604051639bc5c50960e01b81526001600160a01b0392831660048201526024810185905291166044820152935f908590606490829084905af1908115611c4b57604094611bb292611c3b575b5090611b94565b5f611c4591611fac565b5f611c34565b6040513d5f823e3d90fd5b5f80fd5b80611c95611c7363ffffffff6002945460201c16612083565b825467ffffffff00000000191660209190911b67ffffffff0000000016178255565b01611ca1858254612076565b905586611b8e565b60ff600181920116611b7a565b634e487b7160e01b5f52601160045260245ffd5b9096611cdb83949793969596612030565b945f5b61ffff811686811015611d685761ffff91600191611d5a611d53611d4d8e9f9d9e9b9c9d611d478c8c604051611d3c81611d2e8c60208301958690929161ffff6020916040840195845216910152565b03601f198101835282611fac565b5190209e8f9161282a565b90612076565b9a612868565b918c612062565b520116979695949897611cde565b50509490979593869250835f516020612bc05f395f51905f52611aca9599611a77565b636e15e3d960e11b5f5260045ffd5b90508311886118b1565b63ef4c8b3560e01b5f5260045ffd5b631d8730d160e31b5f5260045ffd5b632f9107b560e01b5f5260045ffd5b637046c88d60e01b5f5260045ffd5b34611c56575f366003190112611c565760209061ffff600f5460401c168152f35b600435906001600160a01b0382168203611c5657565b6024359061ffff82168203611c5657565b6044359061ffff82168203611c5657565b9181601f84011215611c565782359167ffffffffffffffff8311611c565760208381860195010111611c5657565b90602080835192838152019201905f5b818110611e845750505090565b8251845260209384019390920191600101611e77565b906080600319830112611c56576004356001600160a01b0381168103611c5657916024359067ffffffffffffffff8211611c5657611eda91600401611e39565b90916044356001600160a01b0381168103611c56579060643590565b6004359060ff82168203611c5657565b359060ff82168203611c5657565b90600d821015611f2f57601e8260041c600e019260011b1690565b634e487b7160e01b5f52603260045260245ffd5b610100810190811067ffffffffffffffff821117611f6057604052565b634e487b7160e01b5f52604160045260245ffd5b6040810190811067ffffffffffffffff821117611f6057604052565b60c0810190811067ffffffffffffffff821117611f6057604052565b90601f8019910116810190811067ffffffffffffffff821117611f6057604052565b60405191905f835b60148210611fef57505050611fed61028083611fac565b565b6001602081928554815201930191019091611fd6565b81810292918115918404141715611cb657565b67ffffffffffffffff8111611f605760051b60200190565b9061203a82612018565b6120476040519182611fac565b8281528092612058601f1991612018565b0190602036910137565b8051821015611f2f5760209160051b010190565b91908201809211611cb657565b63ffffffff1663ffffffff8114611cb65760010190565b90926080926120c5959460018060a01b03168352602083015260408201528160608201520190611e67565b90565b9190825f52600c60205260405f209260028401938454158015612532575b612523578054600382018054949092916001600160a01b031690601086901c6001600160b01b03166101008101808211611cb65743116124df57825f52600860205260405f20549081156124d7575b604051916020830193845260408301524260608301524460808301524060a082015260a0815261216660c082611fac565b519020946003546064870611156123805750508154955f959094869461ffff89169390929061219485612030565b955f9854995b61ffff8a168781101561221c576122128c61220c8161ffff958f6122068f91976122008f8f906121fa91611d2e6121ef60019e60405192839160208301958690929161ffff6020916040840195845216910152565b51902097889161282a565b95612868565b92612062565b52612076565b9b612076565b9a0116989761219a565b5060ff60c01b19909b16600160c01b179055600481018a905580546001600160a01b03165f90815260076020526040812055909895975094955092939092509050836122b0575b815f516020612bc05f395f51905f52611fed9660018060a01b03845416936001808060a01b039101541661229e87896040519485948561209a565b0390a36122ab8382612766565b6127c3565b60018060a01b038154165f52600d602052600260405f206122dd611c7363ffffffff835460201c16612083565b016122e9858254612076565b9055600180549082015482546001600160a01b03928316929182169116823b15611c5657604051639bc5c50960e01b81526001600160a01b0392831660048201526024810188905291166044820152905f908290606490829084905af18015611c4b57611fed9684925f516020612bc05f395f51905f5292612370575b5096505050612263565b5f61237a91611fac565b5f612366565b60ff60c01b1916600160c01b1783555f6004830181905590815260076020526040812055939491937f788779741c37ce098b49079861ff4da4728c48b6d46eb57d18bae24c7bfb6961935060ff9285905f516020612bc05f395f51905f52906124116123eb8461274b565b9561ffff60018060a01b03875416966001808060a01b0391015416935491541690612005565b60405191825260208201525f604082015260806060820152806124376080820187611e67565b0390a3835f52600c60205260405f2060018060a01b03815416906001808060a01b0391015416906040519064e8d4a50fff82525f60208301527f4018fd83a0e35efa249d6a65521926b6d539972216ff5ff37c83f1309b7c24fb60403093a4835f5260106020526124cc60405f205491604051938381869516855260081c166020840152608060408401526080830190611e67565b5f60608301520390a2565b839150612135565b606460405162461bcd60e51b815260206004820152602060248201527f426c6f636b6861736820657870697265642c2075736520726566756e644265746044820152fd5b63433835b360e11b5f5260045ffd5b5060ff600382015460c01c166120e6565b811561254d570490565b634e487b7160e01b5f52601260045260245ffd5b9492939190915f9160018060a01b03165f52600660205260405f2054958660801c908115611db35761ffff94612596916128bb565b9416958615611da4576125b1876001600160801b0392612543565b971687109081156126cc575b50611d8b576125cb83612944565b60405160208101918252602081526125e4604082611fac565b519020946003546064870611156126ba576125fe85612030565b955f925b61ffff841690878210156126b057604080516020810185815261ffff8816928201929092526126348160608101611d2e565b5190209161266360ff606461267561ffff61266e61265b8d60208082518301019101612923565b969099612a55565b999080978b92612a81565b1689612005565b04911692600a840293808504600a1490151715611cb6578b6122066126a79461220060019760ff61ffff9a1690612076565b94011692612602565b9796505050505050565b50505091506126c890612030565b5f91565b905086115f6125bd565b5f198114611cb65760010190565b6014821015611f2f5701905f90565b9390859360a0969361ffff926001808a1b03168752602087015216604085015260806060850152816080850152848401375f828201840152601f01601f1916010190565b356001600160a01b0381168103611c565790565b5f52600c6020526120c561ffff600360405f20015416612030565b5f52600c60205260405f209060018060a01b03825416916001808060a01b0391015416916040519164e8d4a50fff835260208301527f4018fd83a0e35efa249d6a65521926b6d539972216ff5ff37c83f1309b7c24fb60403093a4565b917f788779741c37ce098b49079861ff4da4728c48b6d46eb57d18bae24c7bfb69619160ff91845f52601060205261281f60405f205492604051948481879616865260081c166020850152608060408501526080840190611e67565b9060608301520390a2565b9061ffff61285d606494612864945f52601060205261284c60405f2091612a55565b915460ff808260081c169116612a81565b1690612005565b0490565b61287360ff91612a55565b9116600a810290808204600a1490151715611cb65760ff6120c5921690612076565b5f546001600160a01b031633036128a857565b63118cdaa760e01b5f523360045260245ffd5b91908260609181010312611c56576128d282611f06565b9160406128e160208301611f06565b91013561ffff81168103611c56576040805160ff958616602082015292909416938201939093526120c58160608101611d2e565b519060ff82168203611c5657565b9190826040910312611c56576120c5602061293d84612915565b9301612915565b61295960ff9160208082518301019101612923565b9116600681116129e3578015806129c1575b6129b257600614908161298f575b5061298057565b6322330e4360e11b5f5260045ffd5b60ff915016600181109081156129a7575b505f612979565b60069150115f6129a0565b6368ef939d60e01b5f5260045ffd5b5060ff8216600281109081156129d8575b5061296b565b600c9150115f6129d2565b6391c402a160e01b5f5260045ffd5b90612a069060208082518301019101612923565b909160ff60405193612a1785611f74565b16835260ff60208401921682525f52601060205260ff8060405f209351161660ff198354161782555161ff0082549160081b169061ff001916179055565b906006820660018101809111611cb65760ff600691169260101c0660018101809111611cb65760ff1690565b929160ff80911692168083019060ff8211611cb65783149360ff16908115612b905760018214612b745760028214612b555760038214612b395760048214612b1b575060058114612b0557600614612ada575050505f90565b82612af8575b505015612af45761ffff600f5460501c1690565b5f90565b60ff161490505f80612ae0565b5050505f14612af45761ffff600f5460401c1690565b600190811614159350612af4925050505761ffff600f5460301c1690565b60011615159350612af4925050505761ffff600f5460201c1690565b600660ff909116119350612af4925050505761ffff600f5460101c1690565b600860ff909116109350612af4925050505761ffff600f541690565b925050915060ff8083169116145f14612bba57612baf61ffff91611f14565b90549060031b1c1690565b505f9056fe7b2b1318c7e6cfd4bbeac6266cea2762a843a90f923acf58b837c8dbe846af08a2646970667358221220de25930c5808fd352f2b08eaaff5bcc918822da81244b26ae693b40338afc65764736f6c634300081c0033",
    "linkReferences": {},
    "deployedLinkReferences": {},
    "immutableReferences": {},
    "inputSourceName": "project/contracts/newGames/DiceGame.sol",
    "buildInfoId": "solc-0_8_28-a05d605f461730ae8683f88c0a20c2a01ddaf06c"
}