{
  "_format": "hh3-artifact-1",
  "contractName": "HiLoGame",
  "sourceName": "contracts/newGames/HiLoGame.sol",
  "abi": [
    {
      "inputs": [
        {
          "internalType": "address",
          "name": "_treasury",
          "type": "address"
        }
      ],
      "stateMutability": "nonpayable",
      "type": "constructor"
    },
    {
      "inputs": [],
      "name": "BetAmountOutOfRange",
      "type": "error"
    },
    {
      "inputs": [],
      "name": "BetDoesNotExist",
      "type": "error"
    },
    {
      "inputs": [],
      "name": "BetNotPending",
      "type": "error"
    },
    {
      "inputs": [],
      "name": "GameNotLive",
      "type": "error"
    },
    {
      "inputs": [],
      "name": "InsufficientBalance",
      "type": "error"
    },
    {
      "inputs": [],
      "name": "InvalidBetCount",
      "type": "error"
    },
    {
      "inputs": [],
      "name": "InvalidCard",
      "type": "error"
    },
    {
      "inputs": [],
      "name": "InvalidDirection",
      "type": "error"
    },
    {
      "inputs": [],
      "name": "NotAuthorizedCaller",
      "type": "error"
    },
    {
      "inputs": [
        {
          "internalType": "address",
          "name": "owner",
          "type": "address"
        }
      ],
      "name": "OwnableInvalidOwner",
      "type": "error"
    },
    {
      "inputs": [
        {
          "internalType": "address",
          "name": "account",
          "type": "address"
        }
      ],
      "name": "OwnableUnauthorizedAccount",
      "type": "error"
    },
    {
      "inputs": [],
      "name": "PlayerHasPendingBet",
      "type": "error"
    },
    {
      "inputs": [],
      "name": "RefundTooEarly",
      "type": "error"
    },
    {
      "inputs": [],
      "name": "TokenNotConfigured",
      "type": "error"
    },
    {
      "anonymous": false,
      "inputs": [
        {
          "indexed": true,
          "internalType": "uint256",
          "name": "betId",
          "type": "uint256"
        },
        {
          "indexed": true,
          "internalType": "address",
          "name": "player",
          "type": "address"
        },
        {
          "indexed": false,
          "internalType": "address",
          "name": "token",
          "type": "address"
        },
        {
          "indexed": false,
          "internalType": "uint256",
          "name": "amount",
          "type": "uint256"
        },
        {
          "indexed": false,
          "internalType": "uint16",
          "name": "betCount",
          "type": "uint16"
        },
        {
          "indexed": false,
          "internalType": "bytes",
          "name": "gameChoice",
          "type": "bytes"
        }
      ],
      "name": "BetPlaced",
      "type": "event"
    },
    {
      "anonymous": false,
      "inputs": [
        {
          "indexed": true,
          "internalType": "uint256",
          "name": "betId",
          "type": "uint256"
        },
        {
          "indexed": true,
          "internalType": "address",
          "name": "player",
          "type": "address"
        },
        {
          "indexed": false,
          "internalType": "uint256",
          "name": "amount",
          "type": "uint256"
        },
        {
          "indexed": false,
          "internalType": "address",
          "name": "token",
          "type": "address"
        }
      ],
      "name": "BetRefunded",
      "type": "event"
    },
    {
      "anonymous": false,
      "inputs": [
        {
          "indexed": true,
          "internalType": "uint256",
          "name": "betId",
          "type": "uint256"
        },
        {
          "indexed": true,
          "internalType": "address",
          "name": "player",
          "type": "address"
        },
        {
          "indexed": false,
          "internalType": "address",
          "name": "token",
          "type": "address"
        },
        {
          "indexed": false,
          "internalType": "uint256",
          "name": "totalBetAmount",
          "type": "uint256"
        },
        {
          "indexed": false,
          "internalType": "uint256",
          "name": "payout",
          "type": "uint256"
        },
        {
          "indexed": false,
          "internalType": "uint256[]",
          "name": "outcomes",
          "type": "uint256[]"
        }
      ],
      "name": "BetSettled",
      "type": "event"
    },
    {
      "anonymous": false,
      "inputs": [
        {
          "indexed": true,
          "internalType": "uint256",
          "name": "betId",
          "type": "uint256"
        },
        {
          "indexed": false,
          "internalType": "uint8",
          "name": "card",
          "type": "uint8"
        },
        {
          "indexed": false,
          "internalType": "uint8",
          "name": "direction",
          "type": "uint8"
        },
        {
          "indexed": false,
          "internalType": "uint256[]",
          "name": "outcomes",
          "type": "uint256[]"
        },
        {
          "indexed": false,
          "internalType": "uint256",
          "name": "payout",
          "type": "uint256"
        }
      ],
      "name": "HiLoRoll",
      "type": "event"
    },
    {
      "anonymous": false,
      "inputs": [
        {
          "indexed": true,
          "internalType": "address",
          "name": "player",
          "type": "address"
        },
        {
          "indexed": true,
          "internalType": "address",
          "name": "game",
          "type": "address"
        },
        {
          "indexed": true,
          "internalType": "address",
          "name": "currency",
          "type": "address"
        },
        {
          "indexed": false,
          "internalType": "uint256",
          "name": "gameIdentifier",
          "type": "uint256"
        },
        {
          "indexed": false,
          "internalType": "uint256",
          "name": "payout",
          "type": "uint256"
        }
      ],
      "name": "LivePayout",
      "type": "event"
    },
    {
      "anonymous": false,
      "inputs": [
        {
          "indexed": true,
          "internalType": "address",
          "name": "previousOwner",
          "type": "address"
        },
        {
          "indexed": true,
          "internalType": "address",
          "name": "newOwner",
          "type": "address"
        }
      ],
      "name": "OwnershipTransferred",
      "type": "event"
    },
    {
      "inputs": [],
      "name": "DIRECTION_HI",
      "outputs": [
        {
          "internalType": "uint8",
          "name": "",
          "type": "uint8"
        }
      ],
      "stateMutability": "view",
      "type": "function"
    },
    {
      "inputs": [],
      "name": "DIRECTION_LO",
      "outputs": [
        {
          "internalType": "uint8",
          "name": "",
          "type": "uint8"
        }
      ],
      "stateMutability": "view",
      "type": "function"
    },
    {
      "inputs": [
        {
          "internalType": "uint256",
          "name": "",
          "type": "uint256"
        }
      ],
      "name": "baseBets",
      "outputs": [
        {
          "internalType": "address",
          "name": "player",
          "type": "address"
        },
        {
          "internalType": "address",
          "name": "token",
          "type": "address"
        },
        {
          "internalType": "uint256",
          "name": "amount",
          "type": "uint256"
        },
        {
          "internalType": "uint16",
          "name": "betCount",
          "type": "uint16"
        },
        {
          "internalType": "uint176",
          "name": "placeBlockNumber",
          "type": "uint176"
        },
        {
          "internalType": "bool",
          "name": "resolved",
          "type": "bool"
        },
        {
          "internalType": "bool",
          "name": "isCreditBet",
          "type": "bool"
        },
        {
          "internalType": "uint256",
          "name": "payout",
          "type": "uint256"
        }
      ],
      "stateMutability": "view",
      "type": "function"
    },
    {
      "inputs": [
        {
          "internalType": "address",
          "name": "",
          "type": "address"
        }
      ],
      "name": "callers",
      "outputs": [
        {
          "internalType": "bool",
          "name": "",
          "type": "bool"
        }
      ],
      "stateMutability": "view",
      "type": "function"
    },
    {
      "inputs": [
        {
          "internalType": "uint8",
          "name": "card",
          "type": "uint8"
        },
        {
          "internalType": "uint8",
          "name": "direction",
          "type": "uint8"
        },
        {
          "internalType": "uint16",
          "name": "betCount",
          "type": "uint16"
        }
      ],
      "name": "encodeGameChoice",
      "outputs": [
        {
          "internalType": "bytes",
          "name": "",
          "type": "bytes"
        }
      ],
      "stateMutability": "pure",
      "type": "function"
    },
    {
      "inputs": [],
      "name": "explosionRate",
      "outputs": [
        {
          "internalType": "uint256",
          "name": "",
          "type": "uint256"
        }
      ],
      "stateMutability": "view",
      "type": "function"
    },
    {
      "inputs": [],
      "name": "gameCredits",
      "outputs": [
        {
          "internalType": "contract GameCredits",
          "name": "",
          "type": "address"
        }
      ],
      "stateMutability": "view",
      "type": "function"
    },
    {
      "inputs": [],
      "name": "gameIsLive",
      "outputs": [
        {
          "internalType": "bool",
          "name": "",
          "type": "bool"
        }
      ],
      "stateMutability": "view",
      "type": "function"
    },
    {
      "inputs": [
        {
          "internalType": "uint256",
          "name": "betId",
          "type": "uint256"
        }
      ],
      "name": "getHiLoBet",
      "outputs": [
        {
          "components": [
            {
              "internalType": "uint8",
              "name": "card",
              "type": "uint8"
            },
            {
              "internalType": "uint8",
              "name": "direction",
              "type": "uint8"
            }
          ],
          "internalType": "struct HiLoGame.HiLoBet",
          "name": "",
          "type": "tuple"
        }
      ],
      "stateMutability": "view",
      "type": "function"
    },
    {
      "inputs": [
        {
          "internalType": "address",
          "name": "player",
          "type": "address"
        }
      ],
      "name": "getPlayerInfo",
      "outputs": [
        {
          "components": [
            {
              "internalType": "uint32",
              "name": "totalBets",
              "type": "uint32"
            },
            {
              "internalType": "uint32",
              "name": "totalWins",
              "type": "uint32"
            },
            {
              "internalType": "uint256",
              "name": "totalInValue",
              "type": "uint256"
            },
            {
              "internalType": "uint256",
              "name": "totalOutValue",
              "type": "uint256"
            },
            {
              "internalType": "uint256[20]",
              "name": "lastBetIds",
              "type": "uint256[20]"
            },
            {
              "internalType": "uint8",
              "name": "lastBetIdx",
              "type": "uint8"
            }
          ],
          "internalType": "struct BaseGame.PlayerInfo",
          "name": "",
          "type": "tuple"
        }
      ],
      "stateMutability": "view",
      "type": "function"
    },
    {
      "inputs": [
        {
          "internalType": "uint256",
          "name": "",
          "type": "uint256"
        }
      ],
      "name": "hiPayouts",
      "outputs": [
        {
          "internalType": "uint16",
          "name": "",
          "type": "uint16"
        }
      ],
      "stateMutability": "view",
      "type": "function"
    },
    {
      "inputs": [
        {
          "internalType": "uint256",
          "name": "",
          "type": "uint256"
        }
      ],
      "name": "hiloBets",
      "outputs": [
        {
          "internalType": "uint8",
          "name": "card",
          "type": "uint8"
        },
        {
          "internalType": "uint8",
          "name": "direction",
          "type": "uint8"
        }
      ],
      "stateMutability": "view",
      "type": "function"
    },
    {
      "inputs": [
        {
          "internalType": "address",
          "name": "player",
          "type": "address"
        }
      ],
      "name": "lastBets",
      "outputs": [
        {
          "internalType": "uint256[20]",
          "name": "ids",
          "type": "uint256[20]"
        },
        {
          "internalType": "uint8",
          "name": "idx",
          "type": "uint8"
        }
      ],
      "stateMutability": "view",
      "type": "function"
    },
    {
      "inputs": [
        {
          "internalType": "uint256",
          "name": "",
          "type": "uint256"
        }
      ],
      "name": "loPayouts",
      "outputs": [
        {
          "internalType": "uint16",
          "name": "",
          "type": "uint16"
        }
      ],
      "stateMutability": "view",
      "type": "function"
    },
    {
      "inputs": [],
      "name": "nextBetId",
      "outputs": [
        {
          "internalType": "uint256",
          "name": "",
          "type": "uint256"
        }
      ],
      "stateMutability": "view",
      "type": "function"
    },
    {
      "inputs": [],
      "name": "owner",
      "outputs": [
        {
          "internalType": "address",
          "name": "",
          "type": "address"
        }
      ],
      "stateMutability": "view",
      "type": "function"
    },
    {
      "inputs": [
        {
          "internalType": "address",
          "name": "",
          "type": "address"
        }
      ],
      "name": "pendingBetId",
      "outputs": [
        {
          "internalType": "uint256",
          "name": "",
          "type": "uint256"
        }
      ],
      "stateMutability": "view",
      "type": "function"
    },
    {
      "inputs": [
        {
          "components": [
            {
              "internalType": "address",
              "name": "player",
              "type": "address"
            },
            {
              "internalType": "bytes",
              "name": "gameChoice",
              "type": "bytes"
            },
            {
              "internalType": "address",
              "name": "token",
              "type": "address"
            },
            {
              "internalType": "uint256",
              "name": "amount",
              "type": "uint256"
            },
            {
              "internalType": "bool",
              "name": "isCreditBet",
              "type": "bool"
            },
            {
              "internalType": "uint256",
              "name": "seed",
              "type": "uint256"
            }
          ],
          "internalType": "struct IBaseGame.PlayParams",
          "name": "params",
          "type": "tuple"
        }
      ],
      "name": "playAndSettle",
      "outputs": [
        {
          "internalType": "uint256",
          "name": "betId",
          "type": "uint256"
        },
        {
          "internalType": "uint256",
          "name": "payout",
          "type": "uint256"
        }
      ],
      "stateMutability": "nonpayable",
      "type": "function"
    },
    {
      "inputs": [
        {
          "internalType": "address",
          "name": "player",
          "type": "address"
        },
        {
          "internalType": "bytes",
          "name": "gameChoice",
          "type": "bytes"
        },
        {
          "internalType": "address",
          "name": "token",
          "type": "address"
        },
        {
          "internalType": "uint256",
          "name": "amount",
          "type": "uint256"
        }
      ],
      "name": "playFromRouter",
      "outputs": [
        {
          "internalType": "uint256",
          "name": "betId",
          "type": "uint256"
        }
      ],
      "stateMutability": "nonpayable",
      "type": "function"
    },
    {
      "inputs": [
        {
          "internalType": "address",
          "name": "player",
          "type": "address"
        },
        {
          "internalType": "bytes",
          "name": "gameChoice",
          "type": "bytes"
        },
        {
          "internalType": "address",
          "name": "token",
          "type": "address"
        },
        {
          "internalType": "uint256",
          "name": "amount",
          "type": "uint256"
        }
      ],
      "name": "playFromRouterWithCredits",
      "outputs": [
        {
          "internalType": "uint256",
          "name": "betId",
          "type": "uint256"
        }
      ],
      "stateMutability": "nonpayable",
      "type": "function"
    },
    {
      "inputs": [
        {
          "internalType": "address",
          "name": "",
          "type": "address"
        }
      ],
      "name": "playerInfo",
      "outputs": [
        {
          "internalType": "uint32",
          "name": "totalBets",
          "type": "uint32"
        },
        {
          "internalType": "uint32",
          "name": "totalWins",
          "type": "uint32"
        },
        {
          "internalType": "uint256",
          "name": "totalInValue",
          "type": "uint256"
        },
        {
          "internalType": "uint256",
          "name": "totalOutValue",
          "type": "uint256"
        },
        {
          "internalType": "uint8",
          "name": "lastBetIdx",
          "type": "uint8"
        }
      ],
      "stateMutability": "view",
      "type": "function"
    },
    {
      "inputs": [
        {
          "internalType": "address",
          "name": "",
          "type": "address"
        }
      ],
      "name": "playerSeeds",
      "outputs": [
        {
          "internalType": "uint256",
          "name": "",
          "type": "uint256"
        }
      ],
      "stateMutability": "view",
      "type": "function"
    },
    {
      "inputs": [
        {
          "internalType": "bytes",
          "name": "gameChoice",
          "type": "bytes"
        },
        {
          "internalType": "address",
          "name": "token",
          "type": "address"
        },
        {
          "internalType": "uint256",
          "name": "amount",
          "type": "uint256"
        },
        {
          "internalType": "uint256",
          "name": "seed",
          "type": "uint256"
        }
      ],
      "name": "previewPlay",
      "outputs": [
        {
          "internalType": "uint256",
          "name": "payout",
          "type": "uint256"
        },
        {
          "internalType": "uint256[]",
          "name": "outcomes",
          "type": "uint256[]"
        }
      ],
      "stateMutability": "view",
      "type": "function"
    },
    {
      "inputs": [
        {
          "internalType": "uint256",
          "name": "betId",
          "type": "uint256"
        }
      ],
      "name": "refundBet",
      "outputs": [],
      "stateMutability": "nonpayable",
      "type": "function"
    },
    {
      "inputs": [],
      "name": "renounceOwnership",
      "outputs": [],
      "stateMutability": "nonpayable",
      "type": "function"
    },
    {
      "inputs": [
        {
          "internalType": "address",
          "name": "_caller",
          "type": "address"
        },
        {
          "internalType": "bool",
          "name": "_allowed",
          "type": "bool"
        }
      ],
      "name": "setCaller",
      "outputs": [],
      "stateMutability": "nonpayable",
      "type": "function"
    },
    {
      "inputs": [
        {
          "internalType": "uint256",
          "name": "_explosionRate",
          "type": "uint256"
        }
      ],
      "name": "setExplosionRate",
      "outputs": [],
      "stateMutability": "nonpayable",
      "type": "function"
    },
    {
      "inputs": [
        {
          "internalType": "address",
          "name": "_gameCredits",
          "type": "address"
        }
      ],
      "name": "setGameCredits",
      "outputs": [],
      "stateMutability": "nonpayable",
      "type": "function"
    },
    {
      "inputs": [
        {
          "internalType": "uint8",
          "name": "card",
          "type": "uint8"
        },
        {
          "internalType": "uint16",
          "name": "payout",
          "type": "uint16"
        }
      ],
      "name": "setHiPayout",
      "outputs": [],
      "stateMutability": "nonpayable",
      "type": "function"
    },
    {
      "inputs": [
        {
          "internalType": "uint8",
          "name": "card",
          "type": "uint8"
        },
        {
          "internalType": "uint16",
          "name": "payout",
          "type": "uint16"
        }
      ],
      "name": "setLoPayout",
      "outputs": [],
      "stateMutability": "nonpayable",
      "type": "function"
    },
    {
      "inputs": [
        {
          "internalType": "uint256",
          "name": "newSeed",
          "type": "uint256"
        }
      ],
      "name": "setPlayerSeed",
      "outputs": [],
      "stateMutability": "nonpayable",
      "type": "function"
    },
    {
      "inputs": [
        {
          "internalType": "address",
          "name": "token",
          "type": "address"
        },
        {
          "internalType": "uint128",
          "name": "minBet",
          "type": "uint128"
        },
        {
          "internalType": "uint128",
          "name": "maxBet",
          "type": "uint128"
        }
      ],
      "name": "setTokenConfig",
      "outputs": [],
      "stateMutability": "nonpayable",
      "type": "function"
    },
    {
      "inputs": [
        {
          "internalType": "address",
          "name": "_treasury",
          "type": "address"
        }
      ],
      "name": "setTreasury",
      "outputs": [],
      "stateMutability": "nonpayable",
      "type": "function"
    },
    {
      "inputs": [
        {
          "internalType": "uint256",
          "name": "betId",
          "type": "uint256"
        },
        {
          "internalType": "uint256",
          "name": "seed",
          "type": "uint256"
        }
      ],
      "name": "settleBet",
      "outputs": [],
      "stateMutability": "nonpayable",
      "type": "function"
    },
    {
      "inputs": [
        {
          "internalType": "address",
          "name": "",
          "type": "address"
        }
      ],
      "name": "supportedTokenInfo",
      "outputs": [
        {
          "internalType": "uint128",
          "name": "minBetAmount",
          "type": "uint128"
        },
        {
          "internalType": "uint128",
          "name": "maxBetAmount",
          "type": "uint128"
        }
      ],
      "stateMutability": "view",
      "type": "function"
    },
    {
      "inputs": [],
      "name": "toggleGameIsLive",
      "outputs": [],
      "stateMutability": "nonpayable",
      "type": "function"
    },
    {
      "inputs": [],
      "name": "totalBetsGlobal",
      "outputs": [
        {
          "internalType": "uint256",
          "name": "",
          "type": "uint256"
        }
      ],
      "stateMutability": "view",
      "type": "function"
    },
    {
      "inputs": [],
      "name": "totalValueGlobal",
      "outputs": [
        {
          "internalType": "uint256",
          "name": "",
          "type": "uint256"
        }
      ],
      "stateMutability": "view",
      "type": "function"
    },
    {
      "inputs": [
        {
          "internalType": "address",
          "name": "newOwner",
          "type": "address"
        }
      ],
      "name": "transferOwnership",
      "outputs": [],
      "stateMutability": "nonpayable",
      "type": "function"
    },
    {
      "inputs": [],
      "name": "treasury",
      "outputs": [
        {
          "internalType": "contract ITreasury",
          "name": "",
          "type": "address"
        }
      ],
      "stateMutability": "view",
      "type": "function"
    },
    {
      "inputs": [
        {
          "internalType": "address",
          "name": "beneficiary",
          "type": "address"
        },
        {
          "internalType": "uint256",
          "name": "amount",
          "type": "uint256"
        },
        {
          "internalType": "address",
          "name": "token",
          "type": "address"
        }
      ],
      "name": "withdrawCustomTokenFunds",
      "outputs": [],
      "stateMutability": "nonpayable",
      "type": "function"
    }
  ],
  "bytecode": "0x60803461013157601f612a3138819003918201601f19168301916001600160401b038311848410176101355780849260209460405283398101031261013157516001600160a01b0381169081900361013157331561011e575f8054336001600160a01b0319821681178355916001600160a01b03909116907f8be0079c531659141344cd1fd0a4f28419497f9722a3daafe3b4186f6b6457e09080a3600180546001600160a01b0319169190911781556009555f600355600e805462010000600160e01b03199081167b04e004e0027001a0013800f900d000b2009c008a007c00710068000017909155600f80549091167a680071007c008a009c00b200d000f9013801a0027004e004e000001790556040516128e7908161014a8239f35b631e4fbdf760e01b5f525f60045260245ffd5b5f80fd5b634e487b7160e01b5f52604160045260245ffdfe6080806040526004361015610012575f80fd5b5f905f3560e01c908163012fa5d214611bbd5750806303abf75f1461159a57806307106f271461150e5780630d2cbe13146114ca578063145287d6146114ac5780631aa60a3e146114875780632a69bf1d1461145e5780634b114691146113ee578063530fcc94146113c157806358ee9c431461132b57806359328401146111ff57806361d027b3146111d65780636e156a3b14611161578063715018a614611107578063781355bf14610f175780637bbf4a3f14610ed857806381c8ec1b14610eba5780638d0b42d814610e7a5780638da5cb5b14610e5357806399fac9f214610dc95780639aca279214610dab5780639cae6eae14610d58578063a045a6fc14610d29578063a33fcc7314610cd9578063a385cd4114610c41578063b14c800914610b09578063b7dc575214610ae6578063cbe6e5ee14610a8e578063d1f156d71461074f578063d414d0c21461072c578063e17eac79146106ab578063e19302c61461066e578063e1fdb4b414610402578063e695c253146103e4578063e71381431461039a578063e8dfc90514610337578063ee33f9c4146102fe578063f0f44260146102be578063f107f534146102a2578063f2fde38b1461021c5763f4efd881146101e1575f80fd5b34610219576020366003190112610219576020906040906001600160a01b03610208611bd5565b168152600783522054604051908152f35b80fd5b503461021957602036600319011261021957610236611bd5565b61023e612721565b6001600160a01b0316801561028e5781546001600160a01b03198116821783556001600160a01b03167f8be0079c531659141344cd1fd0a4f28419497f9722a3daafe3b4186f6b6457e08380a380f35b631e4fbdf760e01b82526004829052602482fd5b5034610219578060031936011261021957602060405160018152f35b5034610219576020366003190112610219576102d8611bd5565b6102e0612721565b60018060a01b03166001600160601b0360a01b600154161760015580f35b5034610219576020366003190112610219576020906040906001600160a01b03610326611bd5565b168152600883522054604051908152f35b50346102195760203660031901126102195760408181926020835161035b81611d52565b8281520152600435815260106020522060ff82519161037983611d52565b5481602081831694858152019160081c168152835192835251166020820152f35b50346102195760203660031901126102195760409081906001600160a01b036103c1611bd5565b168152600660205220548151906001600160801b038116825260801c6020820152f35b50346102195780600319360112610219576020600b54604051908152f35b503461021957602036600319011261021957600435808252600c602052604082209060028201541561065f57600382019081549160ff8360c01c1661065057601083901c6001600160b01b039081166101000190811161063c576001600160b01b031643111561062d5760ff90828652600c6020526104926040872061ffff600360028301549201541690611de3565b60c083901b19909416600160c01b1781556004850184905584546001600160a01b031686526007602052604086208690555460c81c16156105a657600254835485916001600160a01b039182169116803b156105a257604051637709a1a760e11b81526001600160a01b039290921660048301526024820185905282908290604490829084905af180156105975761057e575b505061057b925b805460019190910154604080518581526001600160a01b039283166020820152929091169183917fb27522330a91a6a320aeeac4733cad91c61b5384667c37acb1855ace8dc34e5091a36125ab565b80f35b8161058891611d8a565b61059357835f610525565b8380fd5b6040513d84823e3d90fd5b8280fd5b6001805490840154845486926001600160a01b039081169281169116823b1561059357604051639bc5c50960e01b81526001600160a01b03928316600482015260248101879052911660448201529082908290606490829084905af1801561059757610618575b505061057b9261052c565b8161062291611d8a565b61059357835f61060d565b634a01daaf60e11b8552600485fd5b634e487b7160e01b86526011600452602486fd5b63433835b360e11b8552600485fd5b633f9b7dd560e11b8352600483fd5b50346102195760203660031901126102195760043590600e82101561021957602061ffff61069b84611c1a565b90549060031b1c16604051908152f35b5034610219576040366003190112610219576106c5611cf2565b6106cd611d10565b906106d6612721565b60ff811660018110908115610721575b5061071257906106f861057b92611beb565b90919061ffff8084549260031b9316831b921b1916179055565b630eefa23760e11b8352600483fd5b600d9150115f6106e6565b5034610219578060031936011261021957602060ff600454166040519015158152f35b50346102195761075e36611c96565b949091939294338252600560205260ff60408320541615610a7f5760ff6004541615610a705760018060a01b0383169283835260066020526040832054948560801c968715610a61576107b1818a612747565b909261ffff8416998a15610a52576001600160801b036107d18c89612321565b9a168a10908115610a48575b50610a39576001600160a01b031680875260076020526040872054909890610a2a57610808826127d0565b866009549a8b809a6108198261251b565b6009558c845260076020528160408520556040519461083786611d21565b8d86526020808701928352604080880192835260608801958652436001600160b01b03166080890190815260a0890188815260c0808b018a815260e08c018b815298909a52600c909452918f20985189546001600160a01b03199081166001600160a01b03928316178b55955160018b018054909716911617909455915160028801559351600387018054935192516001600160c81b031990941661ffff9092169190911760109290921b62010000600160c01b03169190911791151590931b60ff60c01b16178255915b51815460ff60c81b191690151560c81b60ff60c81b161790555160049091015561092c908761282e565b868552600d6020526040852098895463ffffffff1661094a90611e61565b63ffffffff1663ffffffff198b5416178a5560018a018581549061096d91611e54565b90558660178b019a8b5460ff16906003019061098891612529565b6109a2929082549060031b91821b915f19901b1916179055565b895460ff1692601384145f149a60ff7f2796ecbf0b0464407570c503af31d0a181d0c00ac867a6c3d3c330267e93fa4098610a139660209e610a1e57505b1660ff198254161790556109f5600a5461251b565b600a55610a0486600b54611e54565b600b5560405195869586612538565b0390a3604051908152f35b829150600101166109e0565b63f99d560d60e01b8752600487fd5b636e15e3d960e11b8752600487fd5b905089115f6107dd565b63ef4c8b3560e01b8852600488fd5b631d8730d160e31b8552600485fd5b632f9107b560e01b8252600482fd5b637046c88d60e01b8252600482fd5b503461021957604036600319011261021957610aa8611cf2565b610ab0611d10565b90610ab9612721565b60ff811660018110908115610adb575b5061071257906106f861057b92611c1a565b600d9150115f610ac9565b503461021957602036600319011261021957610b00612721565b60043560035580f35b503461021957606036600319011261021957610b23611bd5565b602435906044356001600160a01b038116919082900361059357610b45612721565b6040516370a0823160e01b8152306004820152602081602481865afa908115610c36578591610c00575b508311610bf15760405163a9059cbb60e01b81526001600160a01b0391909116600482015260248101929092526020908290604490829086905af1801561059757610bb8575080f35b6020813d602011610be9575b81610bd160209383611d8a565b81010312610be55751801515036102195780f35b5080fd5b3d9150610bc4565b631e9acf1760e31b8452600484fd5b90506020813d602011610c2e575b81610c1b60209383611d8a565b81010312610c2a57515f610b6f565b8480fd5b3d9150610c0e565b6040513d87823e3d90fd5b5034610219576020366003190112610219576040610100916004358152600c6020522060018060a01b038154169060ff60018060a01b0360018301541691600281015460046003830154920154936040519586526020860152604085015261ffff8116606085015260018060b01b038160101c166080850152818160c01c16151560a085015260c81c16151560c083015260e0820152f35b5034610219576020366003190112610219576040610d2591600435815260106020522054604051918160ff80859460081c1691168390929160ff60209181604085019616845216910152565b0390f35b5034610219578060031936011261021957610d42612721565b60045460ff80821615169060ff19161760045580f35b503461021957604036600319011261021957610d72611bd5565b602435908115158092036105a257610d88612721565b60018060a01b031682526005602052604082209060ff8019835416911617905580f35b50346102195780600319360112610219576020600954604051908152f35b503461021957606036600319011261021957610de3611cf2565b60243560ff81168091036105a2576044359161ffff83168093036105935760409283519260ff602085019316835284840152606083015260608252610e29608083611d8a565b8251938492602084525180928160208601528585015e828201840152601f01601f19168101030190f35b5034610219578060031936011261021957546040516001600160a01b039091168152602090f35b503461021957602036600319011261021957610e94611bd5565b610e9c612721565b60018060a01b03166001600160601b0360a01b600254161760025580f35b50346102195780600319360112610219576020600354604051908152f35b50346102195760203660031901126102195760209060ff906040906001600160a01b03610f03611bd5565b168152600584522054166040519015158152f35b503461021957610f2636611c96565b949091939294338252600560205260ff60408320541615610a7f5760ff6004541615610a705760018060a01b0383169283835260066020526040832054948560801c968715610a6157610f79818a612747565b909261ffff8416998a15610a52576001600160801b03610f998c89612321565b9a168a109081156110fd575b50610a39576001600160a01b031680875260076020526040872054909890610a2a57610fd0826127d0565b866009549a8b809a610fe18261251b565b6009558c8452600760205281604085205560405194610fff86611d21565b8d86526020860191825260408601908152606086019384526080860190600160b01b600190034316825260a087019286845260c08801946001865260e0890197808952528d600c6020526040902097600160a01b6001900390600160a01b60019003905116166001600160601b0360a01b895416178855600160a01b600190039051166001880190600160a01b60019003166001600160601b0360a01b82541617905551600287015560038601935161ffff16845491600160c01b620100009003905160101b169167ffffffffffffffff60c01b161717835551151561090290839081549060ff60c01b90151560c01b169060ff60c01b1916179055565b905089115f610fa5565b5034610219578060031936011261021957611120612721565b80546001600160a01b03198116825581906001600160a01b03167f8be0079c531659141344cd1fd0a4f28419497f9722a3daafe3b4186f6b6457e08280a380f35b50346102195760803660031901126102195760043567ffffffffffffffff8111610be557611193903690600401611c35565b906024356001600160a01b0381168103610593576111b99350606435926044359261233f565b90610d256040519283928352604060208401526040830190611c63565b50346102195780600319360112610219576001546040516001600160a01b039091168152602090f35b503461021957602036600319011261021957611219611bd5565b8160a060405161122881611d6e565b8281528260208201528260408201528260608201526102806040519061124e8183611d8a565b368237608082015201526001600160a01b03168152600d60205260408082209051909161127a82611d6e565b82549263ffffffff8416835263ffffffff602084019460201c1684526001810154604084019081526002820154906060850191825263ffffffff60ff60176112c460038701611dac565b95608089019687520154169660a087019788528160405197511687525116602086015251604085015251606084015251608083019091905b60148210611315576103208460ff875116610300820152f35b60208060019285518152019301910190916112fc565b503461021957606036600319011261021957611345611bd5565b602435906001600160801b0382168092036105a257604435906001600160801b03821680920361059357611377612721565b6040519261138484611d52565b83526020830191825260018060a01b0316835260066020526001600160801b0360408420925116906001600160801b0319905160801b1617905580f35b50346102195760203660031901126102195760043590600e82101561021957602061ffff61069b84611beb565b50346102195760203660031901126102195760a0906040906001600160a01b03611416611bd5565b168152600d6020522080549060018101549060ff60176002830154920154169163ffffffff60405194818116865260201c166020850152604084015260608301526080820152f35b50346102195780600319360112610219576002546040516001600160a01b039091168152602090f35b5034610219576020366003190112610219573381526008602052600435604082205580f35b50346102195780600319360112610219576020600a54604051908152f35b503461021957604036600319011261021957338152600560205260ff604082205416156114ff5761057b602435600435611ea6565b637046c88d60e01b8152600490fd5b503461021957602036600319011261021957611528611bd5565b610280908160405161153a8282611d8a565b3690376001600160a01b03168252600d60205260408220601781015460ff169061156690600301611dac565b9160405192839094905b601482106115845750506102a09350820152f35b6020806001928851815201960191019094611570565b34611a33576020366003190112611a335760043567ffffffffffffffff8111611a3357806004019080360360c0600319820112611a3357335f52600560205260ff60405f20541615611bae5760ff6004541615611b9f5760448201926001600160a01b036116078561257c565b165f52600660205260405f20548060801c928315611b905760248501359060221901811215611a335784019360048501359467ffffffffffffffff8611611a33576024018536038113611a335761ffff9561166191612747565b9516908115611b81576064810135946001600160801b036116828488612321565b94168410908115611b77575b50611b685761169c866127d0565b600954956116a98761251b565b6009556116b58561257c565b906116bf8961257c565b91608484013592831515809403611a3357896004916117e195604051946116e586611d21565b6001600160a01b039081168652918216602080870191825260408088018d8152606089018d8152436001600160b01b031660808b01908152600160a08c0181815260c0808e01998a525f60e08f018181529c8152600c909852959096209b518c546001600160a01b0319908116918b16919091178d559651908c0180549097169816979097179094555160028901559151600388018054955192516001600160c81b031990961661ffff929092169190911760109290921b62010000600160c01b03169190911793151590911b60ff60c01b1692909217825551815460ff60c81b191690151560c81b60ff60c81b16179055519101558761282e565b5f905f194301438111611a93576040519060a46020830193013583524260408301524460608301524060808201526080815261181e60a082611d8a565b5190206003546064820611611aa75750505f5160206128925f395f51905f529392916118a79161184d87612590565b90875f9788945b5f838152600c6020526040902080546001909101546001600160a01b03918216959116916118829190611de3565b90611894868860405194859485611e78565b0390a36118a182886125ab565b86612608565b5f848152600c602052604090206004018390556001600160a01b036118cb8261257c565b165f52600d60205260405f2063ffffffff6118e881835416611e61565b1663ffffffff1982541617815560018101611904848254611e54565b90556009545f198101908111611a9357611945601783019161192d60ff84541660038601612529565b90919082549060031b91821b915f19901b1916179055565b805460ff1660138103611a86575060ff5f5b1660ff198254161790558315159081611a37575b5061199e575b6040848461198f85611984600a5461251b565b600a55600b54611e54565b600b5582519182526020820152f35b6001546001600160a01b0316946119be906119b89061257c565b9161257c565b853b15611a3357604051639bc5c50960e01b81526001600160a01b0392831660048201526024810185905291166044820152935f908590606490829084905af1908115611a285760409461198f92611a18575b5090611971565b5f611a2291611d8a565b5f611a11565b6040513d5f823e3d90fd5b5f80fd5b80611a72611a5063ffffffff6002945460201c16611e61565b825467ffffffff00000000191660209190911b67ffffffff0000000016178255565b01611a7e858254611e54565b90558661196b565b60ff600181920116611957565b634e487b7160e01b5f52601160045260245ffd5b9096611ab883949793969596611e0e565b945f5b61ffff811686811015611b455761ffff91600191611b37611b30611b2a8e9f9d9e9b9c9d611b248c8c604051611b1981611b0b8c60208301958690929161ffff6020916040840195845216910152565b03601f198101835282611d8a565b5190209e8f9161266f565b90611e54565b9a61270f565b918c611e40565b520116979695949897611abb565b50509490979593869250835f5160206128925f395f51905f526118a79599611854565b636e15e3d960e11b5f5260045ffd5b905083118861168e565b63ef4c8b3560e01b5f5260045ffd5b631d8730d160e31b5f5260045ffd5b632f9107b560e01b5f5260045ffd5b637046c88d60e01b5f5260045ffd5b34611a33575f366003190112611a3357805f60209252f35b600435906001600160a01b0382168203611a3357565b90600e821015611c0657601e8260041c600e019260011b1690565b634e487b7160e01b5f52603260045260245ffd5b90600e821015611c0657601e8260041c600f019260011b1690565b9181601f84011215611a335782359167ffffffffffffffff8311611a335760208381860195010111611a3357565b90602080835192838152019201905f5b818110611c805750505090565b8251845260209384019390920191600101611c73565b906080600319830112611a33576004356001600160a01b0381168103611a3357916024359067ffffffffffffffff8211611a3357611cd691600401611c35565b90916044356001600160a01b0381168103611a33579060643590565b6004359060ff82168203611a3357565b359060ff82168203611a3357565b6024359061ffff82168203611a3357565b610100810190811067ffffffffffffffff821117611d3e57604052565b634e487b7160e01b5f52604160045260245ffd5b6040810190811067ffffffffffffffff821117611d3e57604052565b60c0810190811067ffffffffffffffff821117611d3e57604052565b90601f8019910116810190811067ffffffffffffffff821117611d3e57604052565b60405191905f835b60148210611dcd57505050611dcb61028083611d8a565b565b6001602081928554815201930191019091611db4565b81810292918115918404141715611a9357565b67ffffffffffffffff8111611d3e5760051b60200190565b90611e1882611df6565b611e256040519182611d8a565b8281528092611e36601f1991611df6565b0190602036910137565b8051821015611c065760209160051b010190565b91908201809211611a9357565b63ffffffff1663ffffffff8114611a935760010190565b9092608092611ea3959460018060a01b03168352602083015260408201528160608201520190611c63565b90565b9190825f52600c60205260405f209260028401938454158015612310575b612301578054600382018054949092916001600160a01b031690601086901c6001600160b01b03166101008101808211611a935743116122bd57825f52600860205260405f20549081156122b5575b604051916020830193845260408301524260608301524460808301524060a082015260a08152611f4460c082611d8a565b5190209460035460648706111561215e5750508154955f959094869461ffff891693909290611f7285611e0e565b955f9854995b61ffff8a1687811015611ffa57611ff08c611fea8161ffff958f611fe48f9197611fde8f8f90611fd891611b0b611fcd60019e60405192839160208301958690929161ffff6020916040840195845216910152565b51902097889161266f565b9561270f565b92611e40565b52611e54565b9b611e54565b9a01169897611f78565b5060ff60c01b19909b16600160c01b179055600481018a905580546001600160a01b03165f908152600760205260408120559098959750949550929390925090508361208e575b815f5160206128925f395f51905f52611dcb9660018060a01b03845416936001808060a01b039101541661207c878960405194859485611e78565b0390a361208983826125ab565b612608565b60018060a01b038154165f52600d602052600260405f206120bb611a5063ffffffff835460201c16611e61565b016120c7858254611e54565b9055600180549082015482546001600160a01b03928316929182169116823b15611a3357604051639bc5c50960e01b81526001600160a01b0392831660048201526024810188905291166044820152905f908290606490829084905af18015611a2857611dcb9684925f5160206128925f395f51905f529261214e575b5096505050612041565b5f61215891611d8a565b5f612144565b60ff60c01b1916600160c01b1783555f6004830181905590815260076020526040812055939491937fba696fb0a9cb5f77233d8f35750852be93fb0fd4f6fd2db7ed4a549c1cefd5ab935060ff9285905f5160206128925f395f51905f52906121ef6121c984612590565b9561ffff60018060a01b03875416966001808060a01b0391015416935491541690611de3565b60405191825260208201525f604082015260806060820152806122156080820187611c63565b0390a3835f52600c60205260405f2060018060a01b03815416906001808060a01b0391015416906040519064e8d4a50fff82525f60208301527f4018fd83a0e35efa249d6a65521926b6d539972216ff5ff37c83f1309b7c24fb60403093a4835f5260106020526122aa60405f205491604051938381869516855260081c166020840152608060408401526080830190611c63565b5f60608301520390a2565b839150611f13565b606460405162461bcd60e51b815260206004820152602060248201527f426c6f636b6861736820657870697265642c2075736520726566756e644265746044820152fd5b63433835b360e11b5f5260045ffd5b5060ff600382015460c01c16611ec4565b811561232b570490565b634e487b7160e01b5f52601260045260245ffd5b9492935f9260018060a01b03165f52600660205260405f2054958660801c908115611b905761ffff9361237191612747565b9316958615611b815761238c876001600160801b0392612321565b97168710908115612511575b50611b68576123a6826127d0565b60405160208101918252602081526123bf604082611d8a565b519020916003546064840611156124ff576123d985611e0e565b925f915b61ffff831690878210156124f557604080516020810185815261ffff871692820192909252600d9291906124148160608101611b0b565b519020905f9061242d602089518a010160208a016127af565b949093069360018501809511611a935761ffff958d61247a95600160ff80829a16951614805f146124db5760ff8216600d81036124d4578510155b612483575b505050611fe4908b611e40565b930116916123dd565b611fe49396509189806124b2936064955f146124be576124a290611beb565b90549060031b1c165b1690611de3565b049390508d5f8061246d565b6124c790611c1a565b90549060031b1c166124ab565b8511612468565b60ff82168981036124ee57851115612468565b8510612468565b9750505050509150565b505050915061250d90611e0e565b5f91565b905086115f612398565b5f198114611a935760010190565b6014821015611c065701905f90565b9390859360a0969361ffff926001808a1b03168752602087015216604085015260806060850152816080850152848401375f828201840152601f01601f1916010190565b356001600160a01b0381168103611a335790565b5f52600c602052611ea361ffff600360405f20015416611e0e565b5f52600c60205260405f209060018060a01b03825416916001808060a01b0391015416916040519164e8d4a50fff835260208301527f4018fd83a0e35efa249d6a65521926b6d539972216ff5ff37c83f1309b7c24fb60403093a4565b917fba696fb0a9cb5f77233d8f35750852be93fb0fd4f6fd2db7ed4a549c1cefd5ab9160ff91845f52601060205261266460405f205492604051948481879616865260081c166020850152608060408501526080840190611c63565b9060608301520390a2565b92915f935f526010602052600d60405f20910660018101809111611a935760ff16905490600160ff8360081c161490815f146126f55760ff831690600d82036126ef5710155b6126be57505050565b606493945061ffff6126df939281925f146126e35760ff6124a29116611beb565b0490565b60ff6124c79116611c1a565b116126b5565b60ff831690600182036127095711156126b5565b106126b5565b600d900660018101809111611a935790565b5f546001600160a01b0316330361273457565b63118cdaa760e01b5f523360045260245ffd5b91908260609181010312611a335761275e82611d02565b91604061276d60208301611d02565b91013561ffff81168103611a33576040805160ff95861660208201529290941693820193909352611ea38160608101611b0b565b519060ff82168203611a3357565b9190826040910312611a3357611ea360206127c9846127a1565b93016127a1565b6127e560ff91602080825183010191016127af565b911660018110908115612823575b506128145760ff600191161161280557565b63034b254960e21b5f5260045ffd5b630eefa23760e11b5f5260045ffd5b600d9150115f6127f3565b9061284290602080825183010191016127af565b909160ff6040519361285385611d52565b16835260ff60208401921682525f52601060205260ff8060405f209351161660ff198354161782555161ff0082549160081b169061ff00191617905556fe7b2b1318c7e6cfd4bbeac6266cea2762a843a90f923acf58b837c8dbe846af08a264697066735822122075be800579c9c0d82cfb2087f2274ef1eb3b07b2c85831d4a1f407bfefd4ed3364736f6c634300081c0033",
  "linkReferences": {},
  "deployedLinkReferences": {},
  "immutableReferences": {},
  "inputSourceName": "project/contracts/newGames/HiLoGame.sol",
  "buildInfoId": "solc-0_8_28-a05d605f461730ae8683f88c0a20c2a01ddaf06c"
}