{
  "_format": "hh3-artifact-1",
  "contractName": "KenoGame",
  "sourceName": "contracts/newGames/KenoGame.sol",
  "abi": [
    {
      "inputs": [
        {
          "internalType": "address",
          "name": "_treasury",
          "type": "address"
        }
      ],
      "stateMutability": "nonpayable",
      "type": "constructor"
    },
    {
      "inputs": [],
      "name": "BetAmountOutOfRange",
      "type": "error"
    },
    {
      "inputs": [],
      "name": "BetDoesNotExist",
      "type": "error"
    },
    {
      "inputs": [],
      "name": "BetNotPending",
      "type": "error"
    },
    {
      "inputs": [],
      "name": "GameNotLive",
      "type": "error"
    },
    {
      "inputs": [],
      "name": "InsufficientBalance",
      "type": "error"
    },
    {
      "inputs": [],
      "name": "InvalidBetCount",
      "type": "error"
    },
    {
      "inputs": [],
      "name": "InvalidConfig",
      "type": "error"
    },
    {
      "inputs": [],
      "name": "NoPicks",
      "type": "error"
    },
    {
      "inputs": [],
      "name": "NotAuthorizedCaller",
      "type": "error"
    },
    {
      "inputs": [
        {
          "internalType": "address",
          "name": "owner",
          "type": "address"
        }
      ],
      "name": "OwnableInvalidOwner",
      "type": "error"
    },
    {
      "inputs": [
        {
          "internalType": "address",
          "name": "account",
          "type": "address"
        }
      ],
      "name": "OwnableUnauthorizedAccount",
      "type": "error"
    },
    {
      "inputs": [],
      "name": "PlayerHasPendingBet",
      "type": "error"
    },
    {
      "inputs": [],
      "name": "RefundTooEarly",
      "type": "error"
    },
    {
      "inputs": [],
      "name": "TokenNotConfigured",
      "type": "error"
    },
    {
      "inputs": [],
      "name": "TooManyPicks",
      "type": "error"
    },
    {
      "anonymous": false,
      "inputs": [
        {
          "indexed": true,
          "internalType": "uint256",
          "name": "betId",
          "type": "uint256"
        },
        {
          "indexed": true,
          "internalType": "address",
          "name": "player",
          "type": "address"
        },
        {
          "indexed": false,
          "internalType": "address",
          "name": "token",
          "type": "address"
        },
        {
          "indexed": false,
          "internalType": "uint256",
          "name": "amount",
          "type": "uint256"
        },
        {
          "indexed": false,
          "internalType": "uint16",
          "name": "betCount",
          "type": "uint16"
        },
        {
          "indexed": false,
          "internalType": "bytes",
          "name": "gameChoice",
          "type": "bytes"
        }
      ],
      "name": "BetPlaced",
      "type": "event"
    },
    {
      "anonymous": false,
      "inputs": [
        {
          "indexed": true,
          "internalType": "uint256",
          "name": "betId",
          "type": "uint256"
        },
        {
          "indexed": true,
          "internalType": "address",
          "name": "player",
          "type": "address"
        },
        {
          "indexed": false,
          "internalType": "uint256",
          "name": "amount",
          "type": "uint256"
        },
        {
          "indexed": false,
          "internalType": "address",
          "name": "token",
          "type": "address"
        }
      ],
      "name": "BetRefunded",
      "type": "event"
    },
    {
      "anonymous": false,
      "inputs": [
        {
          "indexed": true,
          "internalType": "uint256",
          "name": "betId",
          "type": "uint256"
        },
        {
          "indexed": true,
          "internalType": "address",
          "name": "player",
          "type": "address"
        },
        {
          "indexed": false,
          "internalType": "address",
          "name": "token",
          "type": "address"
        },
        {
          "indexed": false,
          "internalType": "uint256",
          "name": "totalBetAmount",
          "type": "uint256"
        },
        {
          "indexed": false,
          "internalType": "uint256",
          "name": "payout",
          "type": "uint256"
        },
        {
          "indexed": false,
          "internalType": "uint256[]",
          "name": "outcomes",
          "type": "uint256[]"
        }
      ],
      "name": "BetSettled",
      "type": "event"
    },
    {
      "anonymous": false,
      "inputs": [
        {
          "indexed": true,
          "internalType": "uint256",
          "name": "betId",
          "type": "uint256"
        },
        {
          "indexed": false,
          "internalType": "uint40",
          "name": "picksMask",
          "type": "uint40"
        },
        {
          "indexed": false,
          "internalType": "uint8",
          "name": "numPicks",
          "type": "uint8"
        },
        {
          "indexed": false,
          "internalType": "uint256[]",
          "name": "outcomes",
          "type": "uint256[]"
        },
        {
          "indexed": false,
          "internalType": "uint256",
          "name": "payout",
          "type": "uint256"
        }
      ],
      "name": "KenoRoll",
      "type": "event"
    },
    {
      "anonymous": false,
      "inputs": [
        {
          "indexed": true,
          "internalType": "address",
          "name": "player",
          "type": "address"
        },
        {
          "indexed": true,
          "internalType": "address",
          "name": "game",
          "type": "address"
        },
        {
          "indexed": true,
          "internalType": "address",
          "name": "currency",
          "type": "address"
        },
        {
          "indexed": false,
          "internalType": "uint256",
          "name": "gameIdentifier",
          "type": "uint256"
        },
        {
          "indexed": false,
          "internalType": "uint256",
          "name": "payout",
          "type": "uint256"
        }
      ],
      "name": "LivePayout",
      "type": "event"
    },
    {
      "anonymous": false,
      "inputs": [
        {
          "indexed": true,
          "internalType": "address",
          "name": "previousOwner",
          "type": "address"
        },
        {
          "indexed": true,
          "internalType": "address",
          "name": "newOwner",
          "type": "address"
        }
      ],
      "name": "OwnershipTransferred",
      "type": "event"
    },
    {
      "inputs": [
        {
          "internalType": "uint256",
          "name": "",
          "type": "uint256"
        }
      ],
      "name": "baseBets",
      "outputs": [
        {
          "internalType": "address",
          "name": "player",
          "type": "address"
        },
        {
          "internalType": "address",
          "name": "token",
          "type": "address"
        },
        {
          "internalType": "uint256",
          "name": "amount",
          "type": "uint256"
        },
        {
          "internalType": "uint16",
          "name": "betCount",
          "type": "uint16"
        },
        {
          "internalType": "uint176",
          "name": "placeBlockNumber",
          "type": "uint176"
        },
        {
          "internalType": "bool",
          "name": "resolved",
          "type": "bool"
        },
        {
          "internalType": "bool",
          "name": "isCreditBet",
          "type": "bool"
        },
        {
          "internalType": "uint256",
          "name": "payout",
          "type": "uint256"
        }
      ],
      "stateMutability": "view",
      "type": "function"
    },
    {
      "inputs": [
        {
          "internalType": "address",
          "name": "",
          "type": "address"
        }
      ],
      "name": "callers",
      "outputs": [
        {
          "internalType": "bool",
          "name": "",
          "type": "bool"
        }
      ],
      "stateMutability": "view",
      "type": "function"
    },
    {
      "inputs": [
        {
          "internalType": "uint40",
          "name": "mask",
          "type": "uint40"
        }
      ],
      "name": "decodeMask",
      "outputs": [
        {
          "internalType": "uint8[]",
          "name": "numbers",
          "type": "uint8[]"
        }
      ],
      "stateMutability": "pure",
      "type": "function"
    },
    {
      "inputs": [
        {
          "internalType": "uint8[]",
          "name": "picks",
          "type": "uint8[]"
        },
        {
          "internalType": "uint16",
          "name": "betCount",
          "type": "uint16"
        }
      ],
      "name": "encodeGameChoice",
      "outputs": [
        {
          "internalType": "bytes",
          "name": "",
          "type": "bytes"
        }
      ],
      "stateMutability": "pure",
      "type": "function"
    },
    {
      "inputs": [],
      "name": "explosionRate",
      "outputs": [
        {
          "internalType": "uint256",
          "name": "",
          "type": "uint256"
        }
      ],
      "stateMutability": "view",
      "type": "function"
    },
    {
      "inputs": [],
      "name": "gameCredits",
      "outputs": [
        {
          "internalType": "contract GameCredits",
          "name": "",
          "type": "address"
        }
      ],
      "stateMutability": "view",
      "type": "function"
    },
    {
      "inputs": [],
      "name": "gameIsLive",
      "outputs": [
        {
          "internalType": "bool",
          "name": "",
          "type": "bool"
        }
      ],
      "stateMutability": "view",
      "type": "function"
    },
    {
      "inputs": [
        {
          "internalType": "uint256",
          "name": "betId",
          "type": "uint256"
        }
      ],
      "name": "getKenoBet",
      "outputs": [
        {
          "components": [
            {
              "internalType": "uint40",
              "name": "picksMask",
              "type": "uint40"
            },
            {
              "internalType": "uint8",
              "name": "numPicks",
              "type": "uint8"
            }
          ],
          "internalType": "struct KenoGame.KenoBet",
          "name": "",
          "type": "tuple"
        }
      ],
      "stateMutability": "view",
      "type": "function"
    },
    {
      "inputs": [
        {
          "internalType": "address",
          "name": "player",
          "type": "address"
        }
      ],
      "name": "getPlayerInfo",
      "outputs": [
        {
          "components": [
            {
              "internalType": "uint32",
              "name": "totalBets",
              "type": "uint32"
            },
            {
              "internalType": "uint32",
              "name": "totalWins",
              "type": "uint32"
            },
            {
              "internalType": "uint256",
              "name": "totalInValue",
              "type": "uint256"
            },
            {
              "internalType": "uint256",
              "name": "totalOutValue",
              "type": "uint256"
            },
            {
              "internalType": "uint256[20]",
              "name": "lastBetIds",
              "type": "uint256[20]"
            },
            {
              "internalType": "uint8",
              "name": "lastBetIdx",
              "type": "uint8"
            }
          ],
          "internalType": "struct BaseGame.PlayerInfo",
          "name": "",
          "type": "tuple"
        }
      ],
      "stateMutability": "view",
      "type": "function"
    },
    {
      "inputs": [
        {
          "internalType": "uint256",
          "name": "",
          "type": "uint256"
        }
      ],
      "name": "kenoBets",
      "outputs": [
        {
          "internalType": "uint40",
          "name": "picksMask",
          "type": "uint40"
        },
        {
          "internalType": "uint8",
          "name": "numPicks",
          "type": "uint8"
        }
      ],
      "stateMutability": "view",
      "type": "function"
    },
    {
      "inputs": [
        {
          "internalType": "address",
          "name": "player",
          "type": "address"
        }
      ],
      "name": "lastBets",
      "outputs": [
        {
          "internalType": "uint256[20]",
          "name": "ids",
          "type": "uint256[20]"
        },
        {
          "internalType": "uint8",
          "name": "idx",
          "type": "uint8"
        }
      ],
      "stateMutability": "view",
      "type": "function"
    },
    {
      "inputs": [],
      "name": "maxPicks",
      "outputs": [
        {
          "internalType": "uint8",
          "name": "",
          "type": "uint8"
        }
      ],
      "stateMutability": "view",
      "type": "function"
    },
    {
      "inputs": [],
      "name": "nextBetId",
      "outputs": [
        {
          "internalType": "uint256",
          "name": "",
          "type": "uint256"
        }
      ],
      "stateMutability": "view",
      "type": "function"
    },
    {
      "inputs": [],
      "name": "owner",
      "outputs": [
        {
          "internalType": "address",
          "name": "",
          "type": "address"
        }
      ],
      "stateMutability": "view",
      "type": "function"
    },
    {
      "inputs": [
        {
          "internalType": "uint8",
          "name": "",
          "type": "uint8"
        },
        {
          "internalType": "uint8",
          "name": "",
          "type": "uint8"
        }
      ],
      "name": "payoutTable",
      "outputs": [
        {
          "internalType": "uint32",
          "name": "",
          "type": "uint32"
        }
      ],
      "stateMutability": "view",
      "type": "function"
    },
    {
      "inputs": [
        {
          "internalType": "address",
          "name": "",
          "type": "address"
        }
      ],
      "name": "pendingBetId",
      "outputs": [
        {
          "internalType": "uint256",
          "name": "",
          "type": "uint256"
        }
      ],
      "stateMutability": "view",
      "type": "function"
    },
    {
      "inputs": [
        {
          "components": [
            {
              "internalType": "address",
              "name": "player",
              "type": "address"
            },
            {
              "internalType": "bytes",
              "name": "gameChoice",
              "type": "bytes"
            },
            {
              "internalType": "address",
              "name": "token",
              "type": "address"
            },
            {
              "internalType": "uint256",
              "name": "amount",
              "type": "uint256"
            },
            {
              "internalType": "bool",
              "name": "isCreditBet",
              "type": "bool"
            },
            {
              "internalType": "uint256",
              "name": "seed",
              "type": "uint256"
            }
          ],
          "internalType": "struct IBaseGame.PlayParams",
          "name": "params",
          "type": "tuple"
        }
      ],
      "name": "playAndSettle",
      "outputs": [
        {
          "internalType": "uint256",
          "name": "betId",
          "type": "uint256"
        },
        {
          "internalType": "uint256",
          "name": "payout",
          "type": "uint256"
        }
      ],
      "stateMutability": "nonpayable",
      "type": "function"
    },
    {
      "inputs": [
        {
          "internalType": "address",
          "name": "player",
          "type": "address"
        },
        {
          "internalType": "bytes",
          "name": "gameChoice",
          "type": "bytes"
        },
        {
          "internalType": "address",
          "name": "token",
          "type": "address"
        },
        {
          "internalType": "uint256",
          "name": "amount",
          "type": "uint256"
        }
      ],
      "name": "playFromRouter",
      "outputs": [
        {
          "internalType": "uint256",
          "name": "betId",
          "type": "uint256"
        }
      ],
      "stateMutability": "nonpayable",
      "type": "function"
    },
    {
      "inputs": [
        {
          "internalType": "address",
          "name": "player",
          "type": "address"
        },
        {
          "internalType": "bytes",
          "name": "gameChoice",
          "type": "bytes"
        },
        {
          "internalType": "address",
          "name": "token",
          "type": "address"
        },
        {
          "internalType": "uint256",
          "name": "amount",
          "type": "uint256"
        }
      ],
      "name": "playFromRouterWithCredits",
      "outputs": [
        {
          "internalType": "uint256",
          "name": "betId",
          "type": "uint256"
        }
      ],
      "stateMutability": "nonpayable",
      "type": "function"
    },
    {
      "inputs": [
        {
          "internalType": "address",
          "name": "",
          "type": "address"
        }
      ],
      "name": "playerInfo",
      "outputs": [
        {
          "internalType": "uint32",
          "name": "totalBets",
          "type": "uint32"
        },
        {
          "internalType": "uint32",
          "name": "totalWins",
          "type": "uint32"
        },
        {
          "internalType": "uint256",
          "name": "totalInValue",
          "type": "uint256"
        },
        {
          "internalType": "uint256",
          "name": "totalOutValue",
          "type": "uint256"
        },
        {
          "internalType": "uint8",
          "name": "lastBetIdx",
          "type": "uint8"
        }
      ],
      "stateMutability": "view",
      "type": "function"
    },
    {
      "inputs": [
        {
          "internalType": "address",
          "name": "",
          "type": "address"
        }
      ],
      "name": "playerSeeds",
      "outputs": [
        {
          "internalType": "uint256",
          "name": "",
          "type": "uint256"
        }
      ],
      "stateMutability": "view",
      "type": "function"
    },
    {
      "inputs": [
        {
          "internalType": "bytes",
          "name": "gameChoice",
          "type": "bytes"
        },
        {
          "internalType": "address",
          "name": "token",
          "type": "address"
        },
        {
          "internalType": "uint256",
          "name": "amount",
          "type": "uint256"
        },
        {
          "internalType": "uint256",
          "name": "seed",
          "type": "uint256"
        }
      ],
      "name": "previewPlay",
      "outputs": [
        {
          "internalType": "uint256",
          "name": "payout",
          "type": "uint256"
        },
        {
          "internalType": "uint256[]",
          "name": "outcomes",
          "type": "uint256[]"
        }
      ],
      "stateMutability": "view",
      "type": "function"
    },
    {
      "inputs": [
        {
          "internalType": "uint256",
          "name": "betId",
          "type": "uint256"
        }
      ],
      "name": "refundBet",
      "outputs": [],
      "stateMutability": "nonpayable",
      "type": "function"
    },
    {
      "inputs": [],
      "name": "renounceOwnership",
      "outputs": [],
      "stateMutability": "nonpayable",
      "type": "function"
    },
    {
      "inputs": [
        {
          "internalType": "address",
          "name": "_caller",
          "type": "address"
        },
        {
          "internalType": "bool",
          "name": "_allowed",
          "type": "bool"
        }
      ],
      "name": "setCaller",
      "outputs": [],
      "stateMutability": "nonpayable",
      "type": "function"
    },
    {
      "inputs": [
        {
          "internalType": "uint256",
          "name": "_explosionRate",
          "type": "uint256"
        }
      ],
      "name": "setExplosionRate",
      "outputs": [],
      "stateMutability": "nonpayable",
      "type": "function"
    },
    {
      "inputs": [
        {
          "internalType": "address",
          "name": "_gameCredits",
          "type": "address"
        }
      ],
      "name": "setGameCredits",
      "outputs": [],
      "stateMutability": "nonpayable",
      "type": "function"
    },
    {
      "inputs": [
        {
          "internalType": "uint8",
          "name": "_max",
          "type": "uint8"
        }
      ],
      "name": "setMaxPicks",
      "outputs": [],
      "stateMutability": "nonpayable",
      "type": "function"
    },
    {
      "inputs": [
        {
          "internalType": "uint8",
          "name": "numPicks",
          "type": "uint8"
        },
        {
          "internalType": "uint8",
          "name": "hits",
          "type": "uint8"
        },
        {
          "internalType": "uint32",
          "name": "mult",
          "type": "uint32"
        }
      ],
      "name": "setPayout",
      "outputs": [],
      "stateMutability": "nonpayable",
      "type": "function"
    },
    {
      "inputs": [
        {
          "internalType": "uint256",
          "name": "newSeed",
          "type": "uint256"
        }
      ],
      "name": "setPlayerSeed",
      "outputs": [],
      "stateMutability": "nonpayable",
      "type": "function"
    },
    {
      "inputs": [
        {
          "internalType": "address",
          "name": "token",
          "type": "address"
        },
        {
          "internalType": "uint128",
          "name": "minBet",
          "type": "uint128"
        },
        {
          "internalType": "uint128",
          "name": "maxBet",
          "type": "uint128"
        }
      ],
      "name": "setTokenConfig",
      "outputs": [],
      "stateMutability": "nonpayable",
      "type": "function"
    },
    {
      "inputs": [
        {
          "internalType": "address",
          "name": "_treasury",
          "type": "address"
        }
      ],
      "name": "setTreasury",
      "outputs": [],
      "stateMutability": "nonpayable",
      "type": "function"
    },
    {
      "inputs": [
        {
          "internalType": "uint256",
          "name": "betId",
          "type": "uint256"
        },
        {
          "internalType": "uint256",
          "name": "seed",
          "type": "uint256"
        }
      ],
      "name": "settleBet",
      "outputs": [],
      "stateMutability": "nonpayable",
      "type": "function"
    },
    {
      "inputs": [
        {
          "internalType": "address",
          "name": "",
          "type": "address"
        }
      ],
      "name": "supportedTokenInfo",
      "outputs": [
        {
          "internalType": "uint128",
          "name": "minBetAmount",
          "type": "uint128"
        },
        {
          "internalType": "uint128",
          "name": "maxBetAmount",
          "type": "uint128"
        }
      ],
      "stateMutability": "view",
      "type": "function"
    },
    {
      "inputs": [],
      "name": "toggleGameIsLive",
      "outputs": [],
      "stateMutability": "nonpayable",
      "type": "function"
    },
    {
      "inputs": [],
      "name": "totalBetsGlobal",
      "outputs": [
        {
          "internalType": "uint256",
          "name": "",
          "type": "uint256"
        }
      ],
      "stateMutability": "view",
      "type": "function"
    },
    {
      "inputs": [],
      "name": "totalValueGlobal",
      "outputs": [
        {
          "internalType": "uint256",
          "name": "",
          "type": "uint256"
        }
      ],
      "stateMutability": "view",
      "type": "function"
    },
    {
      "inputs": [
        {
          "internalType": "address",
          "name": "newOwner",
          "type": "address"
        }
      ],
      "name": "transferOwnership",
      "outputs": [],
      "stateMutability": "nonpayable",
      "type": "function"
    },
    {
      "inputs": [],
      "name": "treasury",
      "outputs": [
        {
          "internalType": "contract ITreasury",
          "name": "",
          "type": "address"
        }
      ],
      "stateMutability": "view",
      "type": "function"
    },
    {
      "inputs": [
        {
          "internalType": "address",
          "name": "beneficiary",
          "type": "address"
        },
        {
          "internalType": "uint256",
          "name": "amount",
          "type": "uint256"
        },
        {
          "internalType": "address",
          "name": "token",
          "type": "address"
        }
      ],
      "name": "withdrawCustomTokenFunds",
      "outputs": [],
      "stateMutability": "nonpayable",
      "type": "function"
    }
  ],
  "bytecode": "0x6080346106bd57601f6131e538819003918201601f19168301916001600160401b038311848410176106c1578084926020946040528339810103126106bd57516001600160a01b038116908190036106bd5733156106aa575f8054336001600160a01b0319821681178355604051939290916001600160a01b0316907f8be0079c531659141344cd1fd0a4f28419497f9722a3daafe3b4186f6b6457e09080a3600180546001600160a01b031916919091178155600955600e805460ff1916600a9081179091555f60038190557f8f895f4cf6023ed73f604873cf8090551faf17e981a928a5a90185f3db462228805463ffffffff1990811661010c179091557fe78758a361d412fca21c5fce41618762e8091aeba7566cbe1214cce71110654e805482166104809081179091557f07f069ab7c7bb08e87777be8af5a8a78c31e02a416cba3085873b194a899e8d68054831660c09081179091557f294a607b2c47f9501d57d11f505acffd2a71595e67011e03a92ff4849caf8584805484166111401790557fd4ccc6523976aaf9fff71c6c7ff459d0c7adbdeda907dac0dae238e3b225c1db8054841660601790557fa2b34b1044ae493926e731667b8414c1b0c7a4399ad78acb6fa743d25f330d73805484166101e09081179091557fe1edeb9be663e3a929d60707fa1017223fe73a4ae0b00e4ea7385047f19db8f9805485166125809081179091557f680d0c647612d1c75191f5b29e064921461ec90b4826f7adaa49e9e4bf47ddca805486166101209081179091557f2f85b90836ed54c6c3327ea2012a7b819c882ce146bc7aa2a8f11fdfeaaedc2f805487169095179094557f95e9c17380482260c8564dddaecb43079b4b46448083e6e31ef871c72713e7228054861661bb809081179091557fd93926647dbed8075eafa7d37e517da7627dbb8988f134dba363b7c6537f5e2680548716851790557f87bf2ff287a213e9ebe6dae5d659186789f39c35899ef127e1c80636d0b21734805487166102a01790557fbb9e5372f6971f3a268abe524d6b51e1e304121208c5670ac5e0b144b82ebf2f80548716831790557f21574fe313b21d6677a5121de87f9f08008835c8e456d2ee2c6020d85670fd7f805487166202ee009081179091557ff441b9734d3925e744b8d9dbd8c1725d99a9744b1f40cb4353b4927527a93397805488169096179095557f94b6b74e87bf8ff1f1d1e158dc65b4d9324c04540f94c78b8fb01c4f1d3c1342805487166107809081179091557f33c13ff7d54308fd87580d19bfdcbbdf37360f1d098865787e1c609a2987e9eb805488166196001790557f14ffad67adb4b6b7a18f11d3711204d7bc59984a8517dd1bbd7f34316c91ba2e80548816620a41001790557fffc14625ba6c6c6c769cdc937b7f5ac63cb41b319aa5476ddadaf2753a52f230805488166103c01790557f3f56e1ea0ae7203860904e9d6241759a7a19d487bb444441864e3cabbae9cbe2805488169093179092557ff894d7ebce3b819c2303bd79fbcb4ab877820974dda5cb0e5118cc58e114776480548716861790557fbb11dc5b2788129b63e446ecdc9b7c4a675d77921afed24c8d355981d94b705280548716621d4c009081179091557fe77f1344c401c8628398d831e27d68c494749e515bf4e82ef14ec8442a539482805488169094179093557fe89de7b9470bb39eb6d629b2cc0358f103d01bc94bb18eddf6c83531bfda6cf2805487166112c01790557fd0daf24c107ba84908fb40d5ad62a22b0ccf7958ba83d6a4a4a9bfdc269895728054871690911790557f9a86e6e49b739295cd8c9f56a9ecd98e8a9e446156390cb3e5f634ddc492dadf80548616620753001790557fb28f62d16e4a68f28f6dbeb3a1176cbf1c41c0779014528243a2d36ef6ad32d08054861662493e001790557f8ffe2272a803b7f40b0d166b2b38a810ddb410b84d3df64282cc3e45299eec8c805486169093179092557fe960255e27943b64ff6f4280bb1e9c32a5df350e6ddcaf6ad52400cc07984f66805485169092179091557fc49fa32f92b141da1078c08ca073a9ecc8873fa95f32faa4f0e02f1f3b21ff4280548416614b001790557fc1b6297e9d450af4e1cce8a70a933dc7c0d1711193cc17fde92211770738f689805484169092179091557faff60b71c461cbb30ca1d2572587a7235bc4939e095b7abf60442e3fa16d47068054831690911790559190527fa13a7a52a9cbb6a90f40d40fbf35f68146be73226e0f48ff16963183fd5684ad6020527f955062b0078894e47660239a3151b7f1d4c46dad2b1a36c0c800972fd0c3da1e805490911662927c00179055612b0f90816106d68239f35b631e4fbdf760e01b5f525f60045260245ffd5b5f80fd5b634e487b7160e01b5f52604160045260245ffdfe60806040526004361015610011575f80fd5b5f5f3560e01c806303abf75f1461179857806307106f271461170c5780630d2cbe13146116c85780630f20f1be14611660578063145287d6146116425780631aa60a3e1461161d5780632a69bf1d146115f45780634b114691146115845780635123cd671461147857806358ee9c43146113e257806359328401146112b657806361d027b31461128d5780636e156a3b146112155780636ec438d11461116f578063715018a614611115578063781355bf14610f265780637bbf4a3f14610ee757806381c8ec1b14610ec957806382c9267b14610ea8578063872ea6fb14610e6c5780638d0b42d814610e2c5780638da5cb5b14610e055780639aca279214610de75780639cae6eae14610d94578063a045a6fc14610d65578063a385cd4114610ccd578063b14c800914610b99578063b7dc575214610b76578063becd4ae0146109e9578063cf94f4b71461099b578063d1f156d71461065c578063d414d0c214610639578063da103c7e146105e0578063e1fdb4b414610374578063e695c25314610356578063e71381431461030c578063ee33f9c4146102d3578063f0f4426014610293578063f2fde38b1461020d5763f4efd881146101d2575f80fd5b3461020a57602036600319011261020a576020906040906001600160a01b036101f9611d9e565b168152600783522054604051908152f35b80fd5b503461020a57602036600319011261020a57610227611d9e565b61022f61285f565b6001600160a01b0316801561027f5781546001600160a01b03198116821783556001600160a01b03167f8be0079c531659141344cd1fd0a4f28419497f9722a3daafe3b4186f6b6457e08380a380f35b631e4fbdf760e01b82526004829052602482fd5b503461020a57602036600319011261020a576102ad611d9e565b6102b561285f565b60018060a01b03166001600160601b0360a01b600154161760015580f35b503461020a57602036600319011261020a576020906040906001600160a01b036102fb611d9e565b168152600883522054604051908152f35b503461020a57602036600319011261020a5760409081906001600160a01b03610333611d9e565b168152600660205220548151906001600160801b038116825260801c6020820152f35b503461020a578060031936011261020a576020600b54604051908152f35b503461020a57602036600319011261020a57600435808252600c60205260408220906002820154156105d157600382019081549160ff8360c01c166105c257601083901c6001600160b01b03908116610100019081116105ae576001600160b01b031643111561059f5760ff90828652600c6020526104046040872061ffff600360028301549201541690611f4d565b60c083901b19909416600160c01b1781556004850184905584546001600160a01b031686526007602052604086208690555460c81c161561051857600254835485916001600160a01b039182169116803b1561051457604051637709a1a760e11b81526001600160a01b039290921660048301526024820185905282908290604490829084905af18015610509576104f0575b50506104ed925b805460019190910154604080518581526001600160a01b039283166020820152929091169183917fb27522330a91a6a320aeeac4733cad91c61b5384667c37acb1855ace8dc34e5091a3612709565b80f35b816104fa91611ef5565b61050557835f610497565b8380fd5b6040513d84823e3d90fd5b8280fd5b6001805490840154845486926001600160a01b039081169281169116823b1561050557604051639bc5c50960e01b81526001600160a01b03928316600482015260248101879052911660448201529082908290606490829084905af180156105095761058a575b50506104ed9261049e565b8161059491611ef5565b61050557835f61057f565b634a01daaf60e11b8552600485fd5b634e487b7160e01b86526011600452602486fd5b63433835b360e11b8552600485fd5b633f9b7dd560e11b8352600483fd5b503461020a57602036600319011261020a5760ff6105fc611e14565b61060461285f565b168015801561062f575b6106205760ff19600e541617600e5580f35b6306b7c75960e31b8252600482fd5b50600a811161060e565b503461020a578060031936011261020a57602060ff600454166040519015158152f35b503461020a5761066b36611e34565b949091939294338252600560205260ff6040832054161561098c5760ff600454161561097d5760018060a01b0383169283835260066020526040832054948560801c96871561096e576106be818a612885565b909261ffff8416998a1561095f576001600160801b036106de8c896124b5565b9a168a10908115610955575b50610946576001600160a01b03168087526007602052604087205490989061093757610715826128ea565b866009549a8b809a6107268261265b565b6009558c845260076020528160408520556040519461074486611e8f565b8d86526020808701928352604080880192835260608801958652436001600160b01b03166080890190815260a0890188815260c0808b018a815260e08c018b815298909a52600c909452918f20985189546001600160a01b03199081166001600160a01b03928316178b55955160018b018054909716911617909455915160028801559351600387018054935192516001600160c81b031990941661ffff9092169190911760109290921b62010000600160c01b03169190911791151590931b60ff60c01b16178255915b51815460ff60c81b191690151560c81b60ff60c81b16179055516004909101556108399087612941565b868552600d6020526040852098895463ffffffff1661085790611fde565b63ffffffff1663ffffffff198b5416178a5560018a018581549061087a91611fd1565b90558660178b019a8b5460ff16906003019061089591612669565b6108af929082549060031b91821b915f19901b1916179055565b895460ff1692601384145f149a60ff7f2796ecbf0b0464407570c503af31d0a181d0c00ac867a6c3d3c330267e93fa40986109209660209e61092b57505b1660ff19825416179055610902600a5461265b565b600a5561091186600b54611fd1565b600b5560405195869586612678565b0390a3604051908152f35b829150600101166108ed565b63f99d560d60e01b8752600487fd5b636e15e3d960e11b8752600487fd5b905089115f6106ea565b63ef4c8b3560e01b8852600488fd5b631d8730d160e31b8552600485fd5b632f9107b560e01b8252600482fd5b637046c88d60e01b8252600482fd5b503461020a57604036600319011261020a5760ff60406109b9611e14565b92826109c3611e24565b94168152600f6020522091165f52602052602063ffffffff60405f205416604051908152f35b503461020a57604036600319011261020a576004356001600160401b038111610b725736602382011215610b72578060040135906001600160401b038211610514576024810190602436918460051b010111610514576024359061ffff821680920361050557839084905b848210610aae5750506040809350519164ffffffffff602084019216825283830152828252610a84606083611ef5565b8251938492602084525180928160208601528585015e828201840152601f01601f19168101030190f35b9091600160ff610ac7610ac28689876126bc565b6126cc565b16101580610b57575b15610b1e575f1960ff610ae7610ac28689876126bc565b160160ff8111610b0a579064ffffffffff600160ff8194161b1617920190610a54565b634e487b7160e01b87526011600452602487fd5b60405162461bcd60e51b81526020600482015260116024820152705069636b206f7574206f662072616e676560781b6044820152606490fd5b50602860ff610b6a610ac28689876126bc565b161115610ad0565b5080fd5b503461020a57602036600319011261020a57610b9061285f565b60043560035580f35b503461020a57606036600319011261020a57610bb3611d9e565b602435906044356001600160a01b038116919082900361050557610bd561285f565b6040516370a0823160e01b8152306004820152602081602481865afa908115610cc2578591610c8c575b508311610c7d5760405163a9059cbb60e01b81526001600160a01b0391909116600482015260248101929092526020908290604490829086905af1801561050957610c48575080f35b6020813d602011610c75575b81610c6160209383611ef5565b81010312610b7257518015150361020a5780f35b3d9150610c54565b631e9acf1760e31b8452600484fd5b90506020813d602011610cba575b81610ca760209383611ef5565b81010312610cb657515f610bff565b8480fd5b3d9150610c9a565b6040513d87823e3d90fd5b503461020a57602036600319011261020a576040610100916004358152600c6020522060018060a01b038154169060ff60018060a01b0360018301541691600281015460046003830154920154936040519586526020860152604085015261ffff8116606085015260018060b01b038160101c166080850152818160c01c16151560a085015260c81c16151560c083015260e0820152f35b503461020a578060031936011261020a57610d7e61285f565b60045460ff80821615169060ff19161760045580f35b503461020a57604036600319011261020a57610dae611d9e565b6024359081151580920361051457610dc461285f565b60018060a01b031682526005602052604082209060ff8019835416911617905580f35b503461020a578060031936011261020a576020600954604051908152f35b503461020a578060031936011261020a57546040516001600160a01b039091168152602090f35b503461020a57602036600319011261020a57610e46611d9e565b610e4e61285f565b60018060a01b03166001600160601b0360a01b600254161760025580f35b503461020a57602036600319011261020a576040809160043581526010602052205460ff82519164ffffffffff8116835260281c166020820152f35b503461020a578060031936011261020a57602060ff600e5416604051908152f35b503461020a578060031936011261020a576020600354604051908152f35b503461020a57602036600319011261020a5760209060ff906040906001600160a01b03610f12611d9e565b168152600584522054166040519015158152f35b503461020a57610f3536611e34565b949091939294338252600560205260ff6040832054161561098c5760ff600454161561097d5760018060a01b0383169283835260066020526040832054948560801c96871561096e57610f88818a612885565b909261ffff8416998a1561095f576001600160801b03610fa88c896124b5565b9a168a1090811561110b575b50610946576001600160a01b03168087526007602052604087205490989061093757610fdf826128ea565b866009549a8b809a610ff08261265b565b6009558c845260076020528160408520556040519461100e86611e8f565b8d86526020860191825260408601908152606086019384526080860190600160b01b600190034316825260a087019286845260c08801946001865260e0890197808952528d600c6020526040902097600160a01b6001900390600160a01b60019003905116166001600160601b0360a01b895416178855600160a01b600190039051166001880190600160a01b60019003166001600160601b0360a01b82541617905551600287015560038601935161ffff16845491600160c01b620100009003905160101b16916001600160401b0360c01b161717835551151561080f90839081549060ff60c01b90151560c01b169060ff60c01b1916179055565b905089115f610fb4565b503461020a578060031936011261020a5761112e61285f565b80546001600160a01b03198116825581906001600160a01b03167f8be0079c531659141344cd1fd0a4f28419497f9722a3daafe3b4186f6b6457e08280a380f35b503461020a57606036600319011261020a57611189611e14565b611191611e24565b6044359163ffffffff831683036105055760ff906111ad61285f565b168015801561120b575b80156111ff575b6111f0578352600f60205260ff6040842091165f5260205263ffffffff60405f20911663ffffffff1982541617905580f35b6306b7c75960e31b8452600484fd5b508060ff8316116111be565b50600a81116111b7565b503461020a57608036600319011261020a576004356001600160401b038111610b7257611246903690600401611db4565b906024356001600160a01b03811681036105055761126c935060643592604435926124d3565b906112896040519283928352604060208401526040830190611de1565b0390f35b503461020a578060031936011261020a576001546040516001600160a01b039091168152602090f35b503461020a57602036600319011261020a576112d0611d9e565b8160a06040516112df81611eda565b828152826020820152826040820152826060820152610280604051906113058183611ef5565b368237608082015201526001600160a01b03168152600d60205260408082209051909161133182611eda565b82549263ffffffff8416835263ffffffff602084019460201c1684526001810154604084019081526002820154906060850191825263ffffffff60ff601761137b60038701611f16565b95608089019687520154169660a087019788528160405197511687525116602086015251604085015251606084015251608083019091905b601482106113cc576103208460ff875116610300820152f35b60208060019285518152019301910190916113b3565b503461020a57606036600319011261020a576113fc611d9e565b602435906001600160801b03821680920361051457604435906001600160801b0382168092036105055761142e61285f565b6040519261143b84611ebf565b83526020830191825260018060a01b0316835260066020526001600160801b0360408420925116906001600160801b0319905160801b1617905580f35b503461020a57602036600319011261020a576004359064ffffffffff8216820361020a5760ff6114a783612832565b166114ca6114b482611f60565b916114c26040519384611ef5565b808352611f60565b6020820190601f19013682378290835b60ff8116602881101561153d5764ffffffffff6001821b881616611505575b5060010160ff166114da565b60010160ff81116105ae5760ff841660ff8114610b0a579160019160ff6115328185819701981689611fa9565b9116905291506114f9565b858584604051928392602084019060208552518091526040840192915b818110611568575050500390f35b825160ff1684528594506020938401939092019160010161155a565b503461020a57602036600319011261020a5760a0906040906001600160a01b036115ac611d9e565b168152600d6020522080549060018101549060ff60176002830154920154169163ffffffff60405194818116865260201c166020850152604084015260608301526080820152f35b503461020a578060031936011261020a576002546040516001600160a01b039091168152602090f35b503461020a57602036600319011261020a573381526008602052600435604082205580f35b503461020a578060031936011261020a576020600a54604051908152f35b503461020a57602036600319011261020a5760408181926020835161168481611ebf565b8281520152600435815260106020522060ff8251916116a283611ebf565b5481602064ffffffffff831694858152019160281c168152835192835251166020820152f35b503461020a57604036600319011261020a57338152600560205260ff604082205416156116fd576104ed602435600435612023565b637046c88d60e01b8152600490fd5b503461020a57602036600319011261020a57611726611d9e565b61028090816040516117388282611ef5565b3690376001600160a01b03168252600d60205260408220601781015460ff169061176490600301611f16565b9160405192839094905b601482106117825750506102a09350820152f35b602080600192885181520196019101909461176e565b34611c2f576020366003190112611c2f576004356001600160401b038111611c2f57806004019080360360c0600319820112611c2f57335f52600560205260ff60405f20541615611d8f5760ff6004541615611d805760448201926001600160a01b03611804856126da565b165f52600660205260405f20548060801c928315611d715760248501359060221901811215611c2f578401936004850135946001600160401b038611611c2f576024018536038113611c2f5761ffff9561185d91612885565b9516908115611d62576064810135946001600160801b0361187e84886124b5565b94168410908115611d58575b50611d4957611898866128ea565b600954956118a58761265b565b6009556118b1856126da565b906118bb896126da565b91608484013592831515809403611c2f57896004916119dd95604051946118e186611e8f565b6001600160a01b039081168652918216602080870191825260408088018d8152606089018d8152436001600160b01b031660808b01908152600160a08c0181815260c0808e01998a525f60e08f018181529c8152600c909852959096209b518c546001600160a01b0319908116918b16919091178d559651908c0180549097169816979097179094555160028901559151600388018054955192516001600160c81b031990961661ffff929092169190911760109290921b62010000600160c01b03169190911793151590911b60ff60c01b1692909217825551815460ff60c81b191690151560c81b60ff60c81b161790555191015587612941565b5f905f194301438111611c8f576040519060a460208301930135835242604083015244606083015240608082015260808152611a1a60a082611ef5565b5190206003546064820611611ca35750505f516020612aba5f395f51905f52939291611aa391611a49876126ee565b90875f9788945b5f838152600c6020526040902080546001909101546001600160a01b0391821695911691611a7e9190611f4d565b90611a90868860405194859485611ff5565b0390a3611a9d8288612709565b86612766565b5f848152600c602052604090206004018390556001600160a01b03611ac7826126da565b165f52600d60205260405f2063ffffffff611ae481835416611fde565b1663ffffffff1982541617815560018101611b00848254611fd1565b90556009545f198101908111611c8f57611b416017830191611b2960ff84541660038601612669565b90919082549060031b91821b915f19901b1916179055565b805460ff1660138103611c82575060ff5f5b1660ff198254161790558315159081611c33575b50611b9a575b60408484611b8b85611b80600a5461265b565b600a55600b54611fd1565b600b5582519182526020820152f35b6001546001600160a01b031694611bba90611bb4906126da565b916126da565b853b15611c2f57604051639bc5c50960e01b81526001600160a01b0392831660048201526024810185905291166044820152935f908590606490829084905af1908115611c2457604094611b8b92611c14575b5090611b6d565b5f611c1e91611ef5565b5f611c0d565b6040513d5f823e3d90fd5b5f80fd5b80611c6e611c4c63ffffffff6002945460201c16611fde565b825467ffffffff00000000191660209190911b67ffffffff0000000016178255565b01611c7a858254611fd1565b905586611b67565b60ff600181920116611b53565b634e487b7160e01b5f52601160045260245ffd5b909296611cb283959793611f77565b955f5b61ffff811687811015611d2557604080516020810187815261ffff851682840152918152611ce4606082611ef5565b51902096611cf3888d896127d2565b611cfc91611fd1565b96611d06906129c4565b64ffffffffff1690611d18908a611fa9565b5260010161ffff16611cb5565b505094849691988498959350935f516020612aba5f395f51905f52611aa395611a50565b636e15e3d960e11b5f5260045ffd5b905083118861188a565b63ef4c8b3560e01b5f5260045ffd5b631d8730d160e31b5f5260045ffd5b632f9107b560e01b5f5260045ffd5b637046c88d60e01b5f5260045ffd5b600435906001600160a01b0382168203611c2f57565b9181601f84011215611c2f578235916001600160401b038311611c2f5760208381860195010111611c2f57565b90602080835192838152019201905f5b818110611dfe5750505090565b8251845260209384019390920191600101611df1565b6004359060ff82168203611c2f57565b6024359060ff82168203611c2f57565b906080600319830112611c2f576004356001600160a01b0381168103611c2f5791602435906001600160401b038211611c2f57611e7391600401611db4565b90916044356001600160a01b0381168103611c2f579060643590565b61010081019081106001600160401b03821117611eab57604052565b634e487b7160e01b5f52604160045260245ffd5b604081019081106001600160401b03821117611eab57604052565b60c081019081106001600160401b03821117611eab57604052565b90601f801991011681019081106001600160401b03821117611eab57604052565b60405191905f835b60148210611f3757505050611f3561028083611ef5565b565b6001602081928554815201930191019091611f1e565b81810292918115918404141715611c8f57565b6001600160401b038111611eab5760051b60200190565b90611f8182611f60565b611f8e6040519182611ef5565b8281528092611f9f601f1991611f60565b0190602036910137565b8051821015611fbd5760209160051b010190565b634e487b7160e01b5f52603260045260245ffd5b91908201809211611c8f57565b63ffffffff1663ffffffff8114611c8f5760010190565b9092608092612020959460018060a01b03168352602083015260408201528160608201520190611de1565b90565b90815f52600c60205260405f2091600283019283541580156124a4575b612495578054600382018054949092916001600160a01b031690601086901c6001600160b01b03166101008101808211611c8f57431161245157825f52600860205260405f2054908115612449575b604051916020830193845260408301524260608301524460808301524060a082015260a081526120c060c082611ef5565b519020946003546064870611156122ee57505081545f96909594879461ffff8816939092906120ee85611f77565b955f98549a5b61ffff8a168781101561218b576121818d61217b8161ffff958f6121758f919764ffffffffff8f8f61216e916121689161214f61215d60019f60405192839160208301958690929161ffff6020916040840195845216910152565b03601f198101835282611ef5565b5190209889916127d2565b966129c4565b1692611fa9565b52611fd1565b9b611fd1565b9a011698976120f4565b5060ff60c01b19909a16600160c01b1790556004810189905580546001600160a01b03165f9081526007602052604081205590985094969550929390925090508361221e575b815f516020612aba5f395f51905f52611f359660018060a01b03845416936001808060a01b039101541661220c878960405194859485611ff5565b0390a36122198382612709565b612766565b60018060a01b038154165f52600d602052600260405f2061224b611c4c63ffffffff835460201c16611fde565b01612257858254611fd1565b9055600180549082015482546001600160a01b03928316929182169116823b15611c2f57604051639bc5c50960e01b81526001600160a01b0392831660048201526024810188905291166044820152905f908290606490829084905af18015611c2457611f359684925f516020612aba5f395f51905f52926122de575b50965050506121d1565b5f6122e891611ef5565b5f6122d4565b60ff60c01b1916600160c01b1783555f600483018190559081526007602052604081205591937f609ea74e5ddf8f8d3460de60acebb06ba96a1e4b916a86428c3c6802825c09e6935060ff929085905f516020612aba5f395f51905f529061237e612358846126ee565b9561ffff60018060a01b03875416966001808060a01b0391015416935491541690611f4d565b60405191825260208201525f604082015260806060820152806123a46080820187611de1565b0390a3835f52600c60205260405f2060018060a01b03815416906001808060a01b0391015416906040519064e8d4a50fff82525f60208301527f4018fd83a0e35efa249d6a65521926b6d539972216ff5ff37c83f1309b7c24fb60403093a4835f52601060205261243e60405f205491604051938364ffffffffff869516855260281c166020840152608060408401526080830190611de1565b5f60608301520390a2565b83915061208f565b606460405162461bcd60e51b815260206004820152602060248201527f426c6f636b6861736820657870697265642c2075736520726566756e644265746044820152fd5b63433835b360e11b5f5260045ffd5b5060ff600382015460c01c16612040565b81156124bf570490565b634e487b7160e01b5f52601260045260245ffd5b9194939290925f9560018060a01b03165f52600660205260405f2054928360801c908115611d715761ffff9561250891612885565b9516928315611d6257612523846001600160801b03926124b5565b94168410908115612651575b50611d495761253d846128ea565b6040516020810191825260208152612556604082611ef5565b5190209160035460648406111561263e5761257082611f77565b925f965b61ffff881690848210156126335761262a61ffff926001928b6040516125b48161214f60208201948b8690929161ffff6020916040840195845216910152565b519020916125cb60208c518d010160208d016128cd565b9260ff6125eb6125e36125dd87612832565b936129c4565b809616612832565b91165f52600f60205260ff60405f2091165f5260205261217564ffffffffff606461262063ffffffff60405f2054168c611f4d565b049416918b611fa9565b98011696612574565b975050505050919050565b5091505061264d919250611f77565b5f91565b905083115f61252f565b5f198114611c8f5760010190565b6014821015611fbd5701905f90565b9390859360a0969361ffff926001808a1b03168752602087015216604085015260806060850152816080850152848401375f828201840152601f01601f1916010190565b9190811015611fbd5760051b0190565b3560ff81168103611c2f5790565b356001600160a01b0381168103611c2f5790565b5f52600c60205261202061ffff600360405f20015416611f77565b5f52600c60205260405f209060018060a01b03825416916001808060a01b0391015416916040519164e8d4a50fff835260208301527f4018fd83a0e35efa249d6a65521926b6d539972216ff5ff37c83f1309b7c24fb60403093a4565b917f609ea74e5ddf8f8d3460de60acebb06ba96a1e4b916a86428c3c6802825c09e69160ff91845f5260106020526127c760405f205492604051948464ffffffffff879616865260281c166020850152608060408501526080840190611de1565b9060608301520390a2565b9060649261282e925f52601060205260ff61280464ffffffffff6127f960405f20946129c4565b935493841616612832565b9160281c165f52600f60205260ff60405f2091165f5260205263ffffffff60405f20541690611f4d565b0490565b905f915b64ffffffffff81166128455750565b600164ffffffffff60ff925f198101161693011691612836565b5f546001600160a01b0316330361287257565b63118cdaa760e01b5f523360045260245ffd5b91908260409181010312611c2f5781359164ffffffffff8316809303611c2f576020013561ffff81168103611c2f579160405190602082015260208152612020604082611ef5565b90816020910312611c2f575164ffffffffff81168103611c2f5790565b6128fd90602080825183010191016128cd565b64ffffffffff8116156129325761291390612832565b60ff80600e541691161161292357565b630c8913ad60e31b5f5260045ffd5b63713bde7360e01b5f5260045ffd5b9061295590602080825183010191016128cd565b9061295f82612832565b9064ffffffffff6040519361297385611ebf565b16835260ff60208401921682525f52601060205264ffffffffff60405f2092511665ff00000000008354925160281b169165ffffffffffff191617179055565b906028811015611fbd5760051b0190565b905f9161050091604051926129d98185611ef5565b3684375f5b60ff81166028811015612a085781600191612a0060ff848196011691886129b3565b5201166129de565b5050925f905b60ff8216926014841015612ab1576040516020810191825284604082015260408152612a3b606082611ef5565b5190209260ff83602803169182156124bf5764ffffffffff600160ff819489828080998c06168a0116612a8884612a7f8582612a7786886129b3565b5116956129b3565b5116918d6129b3565b52612a93828c6129b3565b5281612aa15f19928c6129b3565b511601161b161792011690612a0e565b50939250505056fe7b2b1318c7e6cfd4bbeac6266cea2762a843a90f923acf58b837c8dbe846af08a264697066735822122077a36fd6eff40c8650e2ab4e4f4179e6b9b39db077f4cd0ba2ee2cea80af0b8864736f6c634300081c0033",
  "linkReferences": {},
  "deployedLinkReferences": {},
  "immutableReferences": {},
  "inputSourceName": "project/contracts/newGames/KenoGame.sol",
  "buildInfoId": "solc-0_8_28-a05d605f461730ae8683f88c0a20c2a01ddaf06c"
}