{
  "_format": "hh3-artifact-1",
  "contractName": "CrashGame",
  "sourceName": "contracts/crash/CrashGame.sol",
  "abi": [
    {
      "inputs": [
        {
          "internalType": "address",
          "name": "_treasury",
          "type": "address"
        }
      ],
      "stateMutability": "nonpayable",
      "type": "constructor"
    },
    {
      "inputs": [],
      "name": "BetAmountOutOfRange",
      "type": "error"
    },
    {
      "inputs": [],
      "name": "BetDoesNotExist",
      "type": "error"
    },
    {
      "inputs": [],
      "name": "BetNotPending",
      "type": "error"
    },
    {
      "inputs": [],
      "name": "GameNotLive",
      "type": "error"
    },
    {
      "inputs": [],
      "name": "InsufficientBalance",
      "type": "error"
    },
    {
      "inputs": [],
      "name": "InvalidBetCount",
      "type": "error"
    },
    {
      "inputs": [],
      "name": "MultiplierNotInRange",
      "type": "error"
    },
    {
      "inputs": [],
      "name": "NotAuthorizedCaller",
      "type": "error"
    },
    {
      "inputs": [
        {
          "internalType": "address",
          "name": "owner",
          "type": "address"
        }
      ],
      "name": "OwnableInvalidOwner",
      "type": "error"
    },
    {
      "inputs": [
        {
          "internalType": "address",
          "name": "account",
          "type": "address"
        }
      ],
      "name": "OwnableUnauthorizedAccount",
      "type": "error"
    },
    {
      "inputs": [],
      "name": "PlayerHasPendingBet",
      "type": "error"
    },
    {
      "inputs": [],
      "name": "RefundTooEarly",
      "type": "error"
    },
    {
      "inputs": [],
      "name": "TokenNotConfigured",
      "type": "error"
    },
    {
      "anonymous": false,
      "inputs": [
        {
          "indexed": true,
          "internalType": "uint256",
          "name": "betId",
          "type": "uint256"
        },
        {
          "indexed": true,
          "internalType": "address",
          "name": "player",
          "type": "address"
        },
        {
          "indexed": false,
          "internalType": "address",
          "name": "token",
          "type": "address"
        },
        {
          "indexed": false,
          "internalType": "uint256",
          "name": "amount",
          "type": "uint256"
        },
        {
          "indexed": false,
          "internalType": "uint16",
          "name": "betCount",
          "type": "uint16"
        },
        {
          "indexed": false,
          "internalType": "bytes",
          "name": "gameChoice",
          "type": "bytes"
        }
      ],
      "name": "BetPlaced",
      "type": "event"
    },
    {
      "anonymous": false,
      "inputs": [
        {
          "indexed": true,
          "internalType": "uint256",
          "name": "betId",
          "type": "uint256"
        },
        {
          "indexed": true,
          "internalType": "address",
          "name": "player",
          "type": "address"
        },
        {
          "indexed": false,
          "internalType": "uint256",
          "name": "amount",
          "type": "uint256"
        },
        {
          "indexed": false,
          "internalType": "address",
          "name": "token",
          "type": "address"
        }
      ],
      "name": "BetRefunded",
      "type": "event"
    },
    {
      "anonymous": false,
      "inputs": [
        {
          "indexed": true,
          "internalType": "uint256",
          "name": "betId",
          "type": "uint256"
        },
        {
          "indexed": true,
          "internalType": "address",
          "name": "player",
          "type": "address"
        },
        {
          "indexed": false,
          "internalType": "address",
          "name": "token",
          "type": "address"
        },
        {
          "indexed": false,
          "internalType": "uint256",
          "name": "totalBetAmount",
          "type": "uint256"
        },
        {
          "indexed": false,
          "internalType": "uint256",
          "name": "payout",
          "type": "uint256"
        },
        {
          "indexed": false,
          "internalType": "uint256[]",
          "name": "outcomes",
          "type": "uint256[]"
        }
      ],
      "name": "BetSettled",
      "type": "event"
    },
    {
      "anonymous": false,
      "inputs": [
        {
          "indexed": true,
          "internalType": "uint256",
          "name": "betId",
          "type": "uint256"
        },
        {
          "indexed": false,
          "internalType": "uint40",
          "name": "multiplierChoice",
          "type": "uint40"
        },
        {
          "indexed": false,
          "internalType": "uint256[]",
          "name": "outcomes",
          "type": "uint256[]"
        },
        {
          "indexed": false,
          "internalType": "uint256",
          "name": "payout",
          "type": "uint256"
        }
      ],
      "name": "CrashRoll",
      "type": "event"
    },
    {
      "anonymous": false,
      "inputs": [
        {
          "indexed": true,
          "internalType": "address",
          "name": "player",
          "type": "address"
        },
        {
          "indexed": true,
          "internalType": "address",
          "name": "game",
          "type": "address"
        },
        {
          "indexed": true,
          "internalType": "address",
          "name": "currency",
          "type": "address"
        },
        {
          "indexed": false,
          "internalType": "uint256",
          "name": "gameIdentifier",
          "type": "uint256"
        },
        {
          "indexed": false,
          "internalType": "uint256",
          "name": "payout",
          "type": "uint256"
        }
      ],
      "name": "LivePayout",
      "type": "event"
    },
    {
      "anonymous": false,
      "inputs": [
        {
          "indexed": true,
          "internalType": "address",
          "name": "previousOwner",
          "type": "address"
        },
        {
          "indexed": true,
          "internalType": "address",
          "name": "newOwner",
          "type": "address"
        }
      ],
      "name": "OwnershipTransferred",
      "type": "event"
    },
    {
      "inputs": [
        {
          "internalType": "uint256",
          "name": "",
          "type": "uint256"
        }
      ],
      "name": "baseBets",
      "outputs": [
        {
          "internalType": "address",
          "name": "player",
          "type": "address"
        },
        {
          "internalType": "address",
          "name": "token",
          "type": "address"
        },
        {
          "internalType": "uint256",
          "name": "amount",
          "type": "uint256"
        },
        {
          "internalType": "uint16",
          "name": "betCount",
          "type": "uint16"
        },
        {
          "internalType": "uint176",
          "name": "placeBlockNumber",
          "type": "uint176"
        },
        {
          "internalType": "bool",
          "name": "resolved",
          "type": "bool"
        },
        {
          "internalType": "bool",
          "name": "isCreditBet",
          "type": "bool"
        },
        {
          "internalType": "uint256",
          "name": "payout",
          "type": "uint256"
        }
      ],
      "stateMutability": "view",
      "type": "function"
    },
    {
      "inputs": [
        {
          "internalType": "address",
          "name": "",
          "type": "address"
        }
      ],
      "name": "callers",
      "outputs": [
        {
          "internalType": "bool",
          "name": "",
          "type": "bool"
        }
      ],
      "stateMutability": "view",
      "type": "function"
    },
    {
      "inputs": [
        {
          "internalType": "uint256",
          "name": "",
          "type": "uint256"
        }
      ],
      "name": "crashBets",
      "outputs": [
        {
          "internalType": "uint40",
          "name": "multiplierChoice",
          "type": "uint40"
        }
      ],
      "stateMutability": "view",
      "type": "function"
    },
    {
      "inputs": [
        {
          "internalType": "uint256",
          "name": "multiplierChoice",
          "type": "uint256"
        },
        {
          "internalType": "uint16",
          "name": "betCount",
          "type": "uint16"
        }
      ],
      "name": "encodeGameChoice",
      "outputs": [
        {
          "internalType": "bytes",
          "name": "",
          "type": "bytes"
        }
      ],
      "stateMutability": "pure",
      "type": "function"
    },
    {
      "inputs": [],
      "name": "explosionRate",
      "outputs": [
        {
          "internalType": "uint256",
          "name": "",
          "type": "uint256"
        }
      ],
      "stateMutability": "view",
      "type": "function"
    },
    {
      "inputs": [],
      "name": "gameCredits",
      "outputs": [
        {
          "internalType": "contract GameCredits",
          "name": "",
          "type": "address"
        }
      ],
      "stateMutability": "view",
      "type": "function"
    },
    {
      "inputs": [],
      "name": "gameIsLive",
      "outputs": [
        {
          "internalType": "bool",
          "name": "",
          "type": "bool"
        }
      ],
      "stateMutability": "view",
      "type": "function"
    },
    {
      "inputs": [
        {
          "internalType": "uint256",
          "name": "betId",
          "type": "uint256"
        }
      ],
      "name": "getCrashBet",
      "outputs": [
        {
          "components": [
            {
              "internalType": "uint40",
              "name": "multiplierChoice",
              "type": "uint40"
            }
          ],
          "internalType": "struct CrashGame.CrashBet",
          "name": "",
          "type": "tuple"
        }
      ],
      "stateMutability": "view",
      "type": "function"
    },
    {
      "inputs": [
        {
          "internalType": "address",
          "name": "player",
          "type": "address"
        }
      ],
      "name": "getPlayerInfo",
      "outputs": [
        {
          "components": [
            {
              "internalType": "uint32",
              "name": "totalBets",
              "type": "uint32"
            },
            {
              "internalType": "uint32",
              "name": "totalWins",
              "type": "uint32"
            },
            {
              "internalType": "uint256",
              "name": "totalInValue",
              "type": "uint256"
            },
            {
              "internalType": "uint256",
              "name": "totalOutValue",
              "type": "uint256"
            },
            {
              "internalType": "uint256[20]",
              "name": "lastBetIds",
              "type": "uint256[20]"
            },
            {
              "internalType": "uint8",
              "name": "lastBetIdx",
              "type": "uint8"
            }
          ],
          "internalType": "struct BaseGame.PlayerInfo",
          "name": "",
          "type": "tuple"
        }
      ],
      "stateMutability": "view",
      "type": "function"
    },
    {
      "inputs": [
        {
          "internalType": "address",
          "name": "player",
          "type": "address"
        }
      ],
      "name": "lastBets",
      "outputs": [
        {
          "internalType": "uint256[20]",
          "name": "ids",
          "type": "uint256[20]"
        },
        {
          "internalType": "uint8",
          "name": "idx",
          "type": "uint8"
        }
      ],
      "stateMutability": "view",
      "type": "function"
    },
    {
      "inputs": [],
      "name": "maxMultiplier",
      "outputs": [
        {
          "internalType": "uint256",
          "name": "",
          "type": "uint256"
        }
      ],
      "stateMutability": "view",
      "type": "function"
    },
    {
      "inputs": [],
      "name": "minMultiplier",
      "outputs": [
        {
          "internalType": "uint256",
          "name": "",
          "type": "uint256"
        }
      ],
      "stateMutability": "view",
      "type": "function"
    },
    {
      "inputs": [],
      "name": "nextBetId",
      "outputs": [
        {
          "internalType": "uint256",
          "name": "",
          "type": "uint256"
        }
      ],
      "stateMutability": "view",
      "type": "function"
    },
    {
      "inputs": [],
      "name": "owner",
      "outputs": [
        {
          "internalType": "address",
          "name": "",
          "type": "address"
        }
      ],
      "stateMutability": "view",
      "type": "function"
    },
    {
      "inputs": [
        {
          "internalType": "address",
          "name": "",
          "type": "address"
        }
      ],
      "name": "pendingBetId",
      "outputs": [
        {
          "internalType": "uint256",
          "name": "",
          "type": "uint256"
        }
      ],
      "stateMutability": "view",
      "type": "function"
    },
    {
      "inputs": [
        {
          "components": [
            {
              "internalType": "address",
              "name": "player",
              "type": "address"
            },
            {
              "internalType": "bytes",
              "name": "gameChoice",
              "type": "bytes"
            },
            {
              "internalType": "address",
              "name": "token",
              "type": "address"
            },
            {
              "internalType": "uint256",
              "name": "amount",
              "type": "uint256"
            },
            {
              "internalType": "bool",
              "name": "isCreditBet",
              "type": "bool"
            },
            {
              "internalType": "uint256",
              "name": "seed",
              "type": "uint256"
            }
          ],
          "internalType": "struct IBaseGame.PlayParams",
          "name": "params",
          "type": "tuple"
        }
      ],
      "name": "playAndSettle",
      "outputs": [
        {
          "internalType": "uint256",
          "name": "betId",
          "type": "uint256"
        },
        {
          "internalType": "uint256",
          "name": "payout",
          "type": "uint256"
        }
      ],
      "stateMutability": "nonpayable",
      "type": "function"
    },
    {
      "inputs": [
        {
          "internalType": "address",
          "name": "player",
          "type": "address"
        },
        {
          "internalType": "bytes",
          "name": "gameChoice",
          "type": "bytes"
        },
        {
          "internalType": "address",
          "name": "token",
          "type": "address"
        },
        {
          "internalType": "uint256",
          "name": "amount",
          "type": "uint256"
        }
      ],
      "name": "playFromRouter",
      "outputs": [
        {
          "internalType": "uint256",
          "name": "betId",
          "type": "uint256"
        }
      ],
      "stateMutability": "nonpayable",
      "type": "function"
    },
    {
      "inputs": [
        {
          "internalType": "address",
          "name": "player",
          "type": "address"
        },
        {
          "internalType": "bytes",
          "name": "gameChoice",
          "type": "bytes"
        },
        {
          "internalType": "address",
          "name": "token",
          "type": "address"
        },
        {
          "internalType": "uint256",
          "name": "amount",
          "type": "uint256"
        }
      ],
      "name": "playFromRouterWithCredits",
      "outputs": [
        {
          "internalType": "uint256",
          "name": "betId",
          "type": "uint256"
        }
      ],
      "stateMutability": "nonpayable",
      "type": "function"
    },
    {
      "inputs": [
        {
          "internalType": "address",
          "name": "",
          "type": "address"
        }
      ],
      "name": "playerInfo",
      "outputs": [
        {
          "internalType": "uint32",
          "name": "totalBets",
          "type": "uint32"
        },
        {
          "internalType": "uint32",
          "name": "totalWins",
          "type": "uint32"
        },
        {
          "internalType": "uint256",
          "name": "totalInValue",
          "type": "uint256"
        },
        {
          "internalType": "uint256",
          "name": "totalOutValue",
          "type": "uint256"
        },
        {
          "internalType": "uint8",
          "name": "lastBetIdx",
          "type": "uint8"
        }
      ],
      "stateMutability": "view",
      "type": "function"
    },
    {
      "inputs": [
        {
          "internalType": "address",
          "name": "",
          "type": "address"
        }
      ],
      "name": "playerSeeds",
      "outputs": [
        {
          "internalType": "uint256",
          "name": "",
          "type": "uint256"
        }
      ],
      "stateMutability": "view",
      "type": "function"
    },
    {
      "inputs": [
        {
          "internalType": "bytes",
          "name": "gameChoice",
          "type": "bytes"
        },
        {
          "internalType": "address",
          "name": "token",
          "type": "address"
        },
        {
          "internalType": "uint256",
          "name": "amount",
          "type": "uint256"
        },
        {
          "internalType": "uint256",
          "name": "seed",
          "type": "uint256"
        }
      ],
      "name": "previewPlay",
      "outputs": [
        {
          "internalType": "uint256",
          "name": "payout",
          "type": "uint256"
        },
        {
          "internalType": "uint256[]",
          "name": "outcomes",
          "type": "uint256[]"
        }
      ],
      "stateMutability": "view",
      "type": "function"
    },
    {
      "inputs": [
        {
          "internalType": "uint256",
          "name": "betId",
          "type": "uint256"
        }
      ],
      "name": "refundBet",
      "outputs": [],
      "stateMutability": "nonpayable",
      "type": "function"
    },
    {
      "inputs": [],
      "name": "renounceOwnership",
      "outputs": [],
      "stateMutability": "nonpayable",
      "type": "function"
    },
    {
      "inputs": [
        {
          "internalType": "address",
          "name": "_caller",
          "type": "address"
        },
        {
          "internalType": "bool",
          "name": "_allowed",
          "type": "bool"
        }
      ],
      "name": "setCaller",
      "outputs": [],
      "stateMutability": "nonpayable",
      "type": "function"
    },
    {
      "inputs": [
        {
          "internalType": "uint256",
          "name": "_explosionRate",
          "type": "uint256"
        }
      ],
      "name": "setExplosionRate",
      "outputs": [],
      "stateMutability": "nonpayable",
      "type": "function"
    },
    {
      "inputs": [
        {
          "internalType": "address",
          "name": "_gameCredits",
          "type": "address"
        }
      ],
      "name": "setGameCredits",
      "outputs": [],
      "stateMutability": "nonpayable",
      "type": "function"
    },
    {
      "inputs": [
        {
          "internalType": "uint256",
          "name": "_maxMultiplier",
          "type": "uint256"
        }
      ],
      "name": "setMaxMultiplier",
      "outputs": [],
      "stateMutability": "nonpayable",
      "type": "function"
    },
    {
      "inputs": [
        {
          "internalType": "uint256",
          "name": "_minMultiplier",
          "type": "uint256"
        }
      ],
      "name": "setMinMultiplier",
      "outputs": [],
      "stateMutability": "nonpayable",
      "type": "function"
    },
    {
      "inputs": [
        {
          "internalType": "uint256",
          "name": "newSeed",
          "type": "uint256"
        }
      ],
      "name": "setPlayerSeed",
      "outputs": [],
      "stateMutability": "nonpayable",
      "type": "function"
    },
    {
      "inputs": [
        {
          "internalType": "address",
          "name": "token",
          "type": "address"
        },
        {
          "internalType": "uint128",
          "name": "minBet",
          "type": "uint128"
        },
        {
          "internalType": "uint128",
          "name": "maxBet",
          "type": "uint128"
        }
      ],
      "name": "setTokenConfig",
      "outputs": [],
      "stateMutability": "nonpayable",
      "type": "function"
    },
    {
      "inputs": [
        {
          "internalType": "address",
          "name": "_treasury",
          "type": "address"
        }
      ],
      "name": "setTreasury",
      "outputs": [],
      "stateMutability": "nonpayable",
      "type": "function"
    },
    {
      "inputs": [
        {
          "internalType": "uint256",
          "name": "betId",
          "type": "uint256"
        },
        {
          "internalType": "uint256",
          "name": "seed",
          "type": "uint256"
        }
      ],
      "name": "settleBet",
      "outputs": [],
      "stateMutability": "nonpayable",
      "type": "function"
    },
    {
      "inputs": [
        {
          "internalType": "address",
          "name": "",
          "type": "address"
        }
      ],
      "name": "supportedTokenInfo",
      "outputs": [
        {
          "internalType": "uint128",
          "name": "minBetAmount",
          "type": "uint128"
        },
        {
          "internalType": "uint128",
          "name": "maxBetAmount",
          "type": "uint128"
        }
      ],
      "stateMutability": "view",
      "type": "function"
    },
    {
      "inputs": [],
      "name": "toggleGameIsLive",
      "outputs": [],
      "stateMutability": "nonpayable",
      "type": "function"
    },
    {
      "inputs": [],
      "name": "totalBetsGlobal",
      "outputs": [
        {
          "internalType": "uint256",
          "name": "",
          "type": "uint256"
        }
      ],
      "stateMutability": "view",
      "type": "function"
    },
    {
      "inputs": [],
      "name": "totalValueGlobal",
      "outputs": [
        {
          "internalType": "uint256",
          "name": "",
          "type": "uint256"
        }
      ],
      "stateMutability": "view",
      "type": "function"
    },
    {
      "inputs": [
        {
          "internalType": "address",
          "name": "newOwner",
          "type": "address"
        }
      ],
      "name": "transferOwnership",
      "outputs": [],
      "stateMutability": "nonpayable",
      "type": "function"
    },
    {
      "inputs": [],
      "name": "treasury",
      "outputs": [
        {
          "internalType": "contract ITreasury",
          "name": "",
          "type": "address"
        }
      ],
      "stateMutability": "view",
      "type": "function"
    },
    {
      "inputs": [
        {
          "internalType": "address",
          "name": "beneficiary",
          "type": "address"
        },
        {
          "internalType": "uint256",
          "name": "amount",
          "type": "uint256"
        },
        {
          "internalType": "address",
          "name": "token",
          "type": "address"
        }
      ],
      "name": "withdrawCustomTokenFunds",
      "outputs": [],
      "stateMutability": "nonpayable",
      "type": "function"
    }
  ],
  "bytecode": "0x6080346100e557601f61264838819003918201601f19168301916001600160401b038311848410176100e9578084926020946040528339810103126100e557516001600160a01b038116908190036100e55733156100d2575f8054336001600160a01b0319821681178355604051939290916001600160a01b0316907f8be0079c531659141344cd1fd0a4f28419497f9722a3daafe3b4186f6b6457e09080a3600180546001600160a01b03191691909117815560095560046003556064600e55612710600f5561254a90816100fe8239f35b631e4fbdf760e01b5f525f60045260245ffd5b5f80fd5b634e487b7160e01b5f52604160045260245ffdfe60806040526004361015610011575f80fd5b5f5f3560e01c806301526a4314611a695780630187aea014611a4c57806303abf75f1461143f57806307106f27146113b35780630d2cbe131461136f578063145287d6146113515780631aa60a3e1461132c5780632a69bf1d146113035780634b1146911461129357806358ee9c43146111d857806359328401146110ac57806361d027b3146110835780636e156a3b1461100a5780636eb38bdc14610f98578063715018a614610f3e578063751d19d714610f0d578063772dec3014610ebf578063781355bf14610ccf5780637bbf4a3f14610c9057806381c8ec1b14610c725780638d0b42d814610c325780638da5cb5b14610c0b5780639aca279214610bed5780639cae6eae14610b9a5780639fd751c714610b77578063a045a6fc14610b48578063a24e0d8714610b2a578063a385cd4114610a92578063b14c80091461095a578063b7dc575214610937578063d1f156d7146105f8578063d414d0c2146105d5578063e1fdb4b414610369578063e695c2531461034b578063e713814314610301578063ee33f9c4146102c8578063f0f4426014610288578063f2fde38b146102025763f4efd881146101c7575f80fd5b346101ff5760203660031901126101ff576020906040906001600160a01b036101ee611a8a565b168152600783522054604051908152f35b80fd5b50346101ff5760203660031901126101ff5761021c611a8a565b6102246122ef565b6001600160a01b031680156102745781546001600160a01b03198116821783556001600160a01b03167f8be0079c531659141344cd1fd0a4f28419497f9722a3daafe3b4186f6b6457e08380a380f35b631e4fbdf760e01b82526004829052602482fd5b50346101ff5760203660031901126101ff576102a2611a8a565b6102aa6122ef565b60018060a01b03166001600160601b0360a01b600154161760015580f35b50346101ff5760203660031901126101ff576020906040906001600160a01b036102f0611a8a565b168152600883522054604051908152f35b50346101ff5760203660031901126101ff5760409081906001600160a01b03610328611a8a565b168152600660205220548151906001600160801b038116825260801c6020820152f35b50346101ff57806003193601126101ff576020600b54604051908152f35b50346101ff5760203660031901126101ff57600435808252600c60205260408220906002820154156105c657600382019081549160ff8360c01c166105b757601083901c6001600160b01b03908116610100019081116105a3576001600160b01b03164311156105945760ff90828652600c6020526103f96040872061ffff600360028301549201541690611c1f565b60c083901b19909416600160c01b1781556004850184905584546001600160a01b031686526007602052604086208690555460c81c161561050d57600254835485916001600160a01b039182169116803b1561050957604051637709a1a760e11b81526001600160a01b039290921660048301526024820185905282908290604490829084905af180156104fe576104e5575b50506104e2925b805460019190910154604080518581526001600160a01b039283166020820152929091169183917fb27522330a91a6a320aeeac4733cad91c61b5384667c37acb1855ace8dc34e5091a3612344565b80f35b816104ef91611bc6565b6104fa57835f61048c565b8380fd5b6040513d84823e3d90fd5b8280fd5b6001805490840154845486926001600160a01b039081169281169116823b156104fa57604051639bc5c50960e01b81526001600160a01b03928316600482015260248101879052911660448201529082908290606490829084905af180156104fe5761057f575b50506104e292610493565b8161058991611bc6565b6104fa57835f610574565b634a01daaf60e11b8552600485fd5b634e487b7160e01b86526011600452602486fd5b63433835b360e11b8552600485fd5b633f9b7dd560e11b8352600483fd5b50346101ff57806003193601126101ff57602060ff600454166040519015158152f35b50346101ff5761060736611b01565b949091939294338252600560205260ff604083205416156109285760ff60045416156109195760018060a01b0383169283835260066020526040832054948560801c96871561090a5761065a818a6123e2565b909261ffff8416998a156108fb576001600160801b0361067a8c89612109565b9a168a109081156108f1575b506108e2576001600160a01b0316808752600760205260408720549098906108d3576106b18261241b565b866009549a8b809a6106c28261228e565b6009558c84526007602052816040852055604051946106e086611b5d565b8d86526020808701928352604080880192835260608801958652436001600160b01b03166080890190815260a0890188815260c0808b018a815260e08c018b815298909a52600c909452918f20985189546001600160a01b03199081166001600160a01b03928316178b55955160018b018054909716911617909455915160028801559351600387018054935192516001600160c81b031990941661ffff9092169190911760109290921b62010000600160c01b03169190911791151590931b60ff60c01b16178255915b51815460ff60c81b191690151560c81b60ff60c81b16179055516004909101556107d59087612460565b868552600d6020526040852098895463ffffffff166107f390611cb1565b63ffffffff1663ffffffff198b5416178a5560018a018581549061081691611ca4565b90558660178b019a8b5460ff1690600301906108319161229c565b61084b929082549060031b91821b915f19901b1916179055565b895460ff1692601384145f149a60ff7f2796ecbf0b0464407570c503af31d0a181d0c00ac867a6c3d3c330267e93fa40986108bc9660209e6108c757505b1660ff1982541617905561089e600a5461228e565b600a556108ad86600b54611ca4565b600b55604051958695866122ab565b0390a3604051908152f35b82915060010116610889565b63f99d560d60e01b8752600487fd5b636e15e3d960e11b8752600487fd5b905089115f610686565b63ef4c8b3560e01b8852600488fd5b631d8730d160e31b8552600485fd5b632f9107b560e01b8252600482fd5b637046c88d60e01b8252600482fd5b50346101ff5760203660031901126101ff576109516122ef565b60043560035580f35b50346101ff5760603660031901126101ff57610974611a8a565b602435906044356001600160a01b03811691908290036104fa576109966122ef565b6040516370a0823160e01b8152306004820152602081602481865afa908115610a87578591610a51575b508311610a425760405163a9059cbb60e01b81526001600160a01b0391909116600482015260248101929092526020908290604490829086905af180156104fe57610a09575080f35b6020813d602011610a3a575b81610a2260209383611bc6565b81010312610a365751801515036101ff5780f35b5080fd5b3d9150610a15565b631e9acf1760e31b8452600484fd5b90506020813d602011610a7f575b81610a6c60209383611bc6565b81010312610a7b57515f6109c0565b5f80fd5b3d9150610a5f565b6040513d87823e3d90fd5b50346101ff5760203660031901126101ff576040610100916004358152600c6020522060018060a01b038154169060ff60018060a01b0360018301541691600281015460046003830154920154936040519586526020860152604085015261ffff8116606085015260018060b01b038160101c166080850152818160c01c16151560a085015260c81c16151560c083015260e0820152f35b50346101ff57806003193601126101ff576020600e54604051908152f35b50346101ff57806003193601126101ff57610b616122ef565b60045460ff80821615169060ff19161760045580f35b50346101ff5760203660031901126101ff57610b916122ef565b600435600e5580f35b50346101ff5760403660031901126101ff57610bb4611a8a565b6024359081151580920361050957610bca6122ef565b60018060a01b031682526005602052604082209060ff8019835416911617905580f35b50346101ff57806003193601126101ff576020600954604051908152f35b50346101ff57806003193601126101ff57546040516001600160a01b039091168152602090f35b50346101ff5760203660031901126101ff57610c4c611a8a565b610c546122ef565b60018060a01b03166001600160601b0360a01b600254161760025580f35b50346101ff57806003193601126101ff576020600354604051908152f35b50346101ff5760203660031901126101ff5760209060ff906040906001600160a01b03610cbb611a8a565b168152600584522054166040519015158152f35b50346101ff57610cde36611b01565b949091939294338252600560205260ff604083205416156109285760ff60045416156109195760018060a01b0383169283835260066020526040832054948560801c96871561090a57610d31818a6123e2565b909261ffff8416998a156108fb576001600160801b03610d518c89612109565b9a168a10908115610eb5575b506108e2576001600160a01b0316808752600760205260408720549098906108d357610d888261241b565b866009549a8b809a610d998261228e565b6009558c8452600760205281604085205560405194610db786611b5d565b8d86526020860191825260408601908152606086019384526080860190600160b01b600190034316825260a087019286845260c08801946001865260e0890197808952528d600c6020526040902097600160a01b6001900390600160a01b60019003905116166001600160601b0360a01b895416178855600160a01b600190039051166001880190600160a01b60019003166001600160601b0360a01b82541617905551600287015560038601935161ffff16845491600160c01b620100009003905160101b169167ffffffffffffffff60c01b16171783555115156107ab90839081549060ff60c01b90151560c01b169060ff60c01b1916179055565b905089115f610d5d565b50346101ff5760203660031901126101ff576040816020928251610ee281611baa565b526004358152601083522064ffffffffff60405191610f0083611baa565b5416809152604051908152f35b50346101ff5760203660031901126101ff5764ffffffffff6040602092600435815260108452205416604051908152f35b50346101ff57806003193601126101ff57610f576122ef565b80546001600160a01b03198116825581906001600160a01b03167f8be0079c531659141344cd1fd0a4f28419497f9722a3daafe3b4186f6b6457e08280a380f35b50346101ff5760403660031901126101ff5760043560243561ffff8116810361050957604080516020810193845261ffff929092168282015280825291610fe0606083611bc6565b8251938492602084525180928160208601528585015e828201840152601f01601f19168101030190f35b50346101ff5760803660031901126101ff5760043567ffffffffffffffff8111610a365761103c903690600401611aa0565b906024356001600160a01b03811681036104fa5761106293506064359260443592612127565b9061107f6040519283928352604060208401526040830190611ace565b0390f35b50346101ff57806003193601126101ff576001546040516001600160a01b039091168152602090f35b50346101ff5760203660031901126101ff576110c6611a8a565b8160a06040516110d581611b8e565b828152826020820152826040820152826060820152610280604051906110fb8183611bc6565b368237608082015201526001600160a01b03168152600d60205260408082209051909161112782611b8e565b82549263ffffffff8416835263ffffffff602084019460201c1684526001810154604084019081526002820154906060850191825263ffffffff60ff601761117160038701611be8565b95608089019687520154169660a087019788528160405197511687525116602086015251604085015251606084015251608083019091905b601482106111c2576103208460ff875116610300820152f35b60208060019285518152019301910190916111a9565b50346101ff5760603660031901126101ff576111f2611a8a565b602435906001600160801b03821680920361050957604435906001600160801b0382168092036104fa576112246122ef565b604051926040840184811067ffffffffffffffff82111761127f5760405283526020830191825260018060a01b0316835260066020526001600160801b0360408420925116906001600160801b0319905160801b1617905580f35b634e487b7160e01b86526041600452602486fd5b50346101ff5760203660031901126101ff5760a0906040906001600160a01b036112bb611a8a565b168152600d6020522080549060018101549060ff60176002830154920154169163ffffffff60405194818116865260201c166020850152604084015260608301526080820152f35b50346101ff57806003193601126101ff576002546040516001600160a01b039091168152602090f35b50346101ff5760203660031901126101ff573381526008602052600435604082205580f35b50346101ff57806003193601126101ff576020600a54604051908152f35b50346101ff5760403660031901126101ff57338152600560205260ff604082205416156113a4576104e2602435600435611cf6565b637046c88d60e01b8152600490fd5b50346101ff5760203660031901126101ff576113cd611a8a565b61028090816040516113df8282611bc6565b3690376001600160a01b03168252600d60205260408220601781015460ff169061140b90600301611be8565b9160405192839094905b601482106114295750506102a09350820152f35b6020806001928851815201960191019094611415565b34610a7b576020366003190112610a7b5760043567ffffffffffffffff8111610a7b5736819003906004810160c0600319840112610a7b57335f52600560205260ff60405f20541615611a3d5760ff6004541615611a2e5760448201926001600160a01b036114ad85612315565b165f52600660205260405f2054918260801c918215611a1f5760248501359060221901811215610a7b5784019360048501359467ffffffffffffffff8611610a7b576024018536038113610a7b5761ffff95611508916123e2565b9516908115611a10576064810135936001600160801b036115298487612109565b96168610908115611a06575b506119f7576115438661241b565b600954956115508761228e565b60095561155c84612315565b9061156689612315565b91608484013592831515809403610a7b5789600491611688956040519461158c86611b5d565b6001600160a01b039081168652918216602080870191825260408088018f8152606089018d8152436001600160b01b031660808b01908152600160a08c0181815260c0808e01998a525f60e08f018181529c8152600c909852959096209b518c546001600160a01b0319908116918b16919091178d559651908c0180549097169816979097179094555160028901559151600388018054955192516001600160c81b031990961661ffff929092169190911760109290921b62010000600160c01b03169190911793151590911b60ff60c01b1692909217825551815460ff60c81b191690151560c81b60ff60c81b161790555191015587612460565b5f905f194301438111611928576040519060a4602083019301358352426040830152446060830152406080820152608081526116c560a082611bc6565b519020600354909190606483061161193c575050845f5160206124f55f395f51905f526116f182612329565b5f965b5f848152600c6020526040902080546001909101546001600160a01b03918216969116916117339161172591611c1f565b928960405194859485611cc8565b0390a36117408385612344565b5f848152600c602052604090206004018390556001600160a01b0361176482612315565b165f52600d60205260405f2063ffffffff61178181835416611cb1565b1663ffffffff198254161781556001810161179d848254611ca4565b90556009545f198101908111611928576117de60178301916117c660ff8454166003860161229c565b90919082549060031b91821b915f19901b1916179055565b805460ff166013810361191b575060ff5f5b1660ff1982541617905583151590816118cc575b50611837575b604084846118288561181d600a5461228e565b600a55600b54611ca4565b600b5582519182526020820152f35b6001546001600160a01b0316946118579061185190612315565b91612315565b853b15610a7b57604051639bc5c50960e01b81526001600160a01b0392831660048201526024810185905291166044820152935f908590606490829084905af19081156118c157604094611828926118b1575b509061180a565b5f6118bb91611bc6565b5f6118aa565b6040513d5f823e3d90fd5b806119076118e563ffffffff6002945460201c16611cb1565b825467ffffffff00000000191660209190911b67ffffffff0000000016178255565b01611913858254611ca4565b905586611804565b60ff6001819201166117f0565b634e487b7160e01b5f52601160045260245ffd5b9661194c83949693979297611c4a565b945f5b61ffff8116868110156119d95761ffff916001916119ca6119c36119bd8e9f8b9c9d9e9f6119b7906040516119ac8161199e8b60208301958690929161ffff6020916040840195845216910152565b03601f198101835282611bc6565b519020809d8d6123a1565b90611ca4565b996124b0565b918c611c7c565b5201169796959493989761194f565b5050948297505f5160206124f55f395f51905f5291989694936116f4565b636e15e3d960e11b5f5260045ffd5b9050851188611535565b63ef4c8b3560e01b5f5260045ffd5b631d8730d160e31b5f5260045ffd5b632f9107b560e01b5f5260045ffd5b637046c88d60e01b5f5260045ffd5b34610a7b575f366003190112610a7b576020600f54604051908152f35b34610a7b576020366003190112610a7b57611a826122ef565b600435600f55005b600435906001600160a01b0382168203610a7b57565b9181601f84011215610a7b5782359167ffffffffffffffff8311610a7b5760208381860195010111610a7b57565b90602080835192838152019201905f5b818110611aeb5750505090565b8251845260209384019390920191600101611ade565b906080600319830112610a7b576004356001600160a01b0381168103610a7b57916024359067ffffffffffffffff8211610a7b57611b4191600401611aa0565b90916044356001600160a01b0381168103610a7b579060643590565b610100810190811067ffffffffffffffff821117611b7a57604052565b634e487b7160e01b5f52604160045260245ffd5b60c0810190811067ffffffffffffffff821117611b7a57604052565b6020810190811067ffffffffffffffff821117611b7a57604052565b90601f8019910116810190811067ffffffffffffffff821117611b7a57604052565b60405191905f835b60148210611c0957505050611c0761028083611bc6565b565b6001602081928554815201930191019091611bf0565b8181029291811591840414171561192857565b67ffffffffffffffff8111611b7a5760051b60200190565b90611c5482611c32565b611c616040519182611bc6565b8281528092611c72601f1991611c32565b0190602036910137565b8051821015611c905760209160051b010190565b634e487b7160e01b5f52603260045260245ffd5b9190820180921161192857565b63ffffffff1663ffffffff81146119285760010190565b9092608092611cf3959460018060a01b03168352602083015260408201528160608201520190611ace565b90565b9190825f52600c60205260405f2092600284019384541580156120f8575b6120e9578054600382018054949092916001600160a01b031690601086901c6001600160b01b031661010081018082116119285743116120a557825f52600860205260405f205490811561209d575b604051916020830193845260408301524260608301524460808301524060a082015260a08152611d9460c082611bc6565b51902094600354606487061115611fa75750508154955f959094869461ffff891693909290611dc285611c4a565b955f9854995b61ffff8a1687811015611e4a57611e408c611e3a8161ffff958f611e348f9197611e2e8f8f90611e289161199e611e1d60019e60405192839160208301958690929161ffff6020916040840195845216910152565b5190209788916123a1565b956124b0565b92611c7c565b52611ca4565b9b611ca4565b9a01169897611dc8565b5060ff60c01b19909b16600160c01b179055600481018a905580546001600160a01b03165f90815260076020526040812055909894975093955090939150849050611ed4575b5f5160206124f55f395f51905f528391611c0796611ecc60018060a01b03865416956001808060a01b0391015416918860405194859485611cc8565b0390a3612344565b60018060a01b038254165f52600d602052600260405f20611f016118e563ffffffff835460201c16611cb1565b01611f0d858254611ca4565b9055600180549083015483546001600160a01b0392831693929182169116833b15610a7b57604051639bc5c50960e01b81526001600160a01b0392831660048201526024810188905291166044820152915f908390606490829084905af19081156118c157611c079685935f5160206124f55f395f51905f5293611f97575b509650915050611e90565b5f611fa191611bc6565b5f611f8c565b60ff60c01b1916600160c01b1783555f600483018190559081526007602052604081205593949193925083915f5160206124f55f395f51905f52919061203d612018611ff286612329565b9361ffff60018060a01b03895416986001808060a01b0391015416945491541690611c1f565b92604051938493845260208401525f6040840152608060608401526080830190611ace565b0390a35f52600c60205260405f2060018060a01b03815416906001808060a01b0391015416906040519064e8d4a50fff82525f60208301527f4018fd83a0e35efa249d6a65521926b6d539972216ff5ff37c83f1309b7c24fb60403093a4565b839150611d63565b606460405162461bcd60e51b815260206004820152602060248201527f426c6f636b6861736820657870697265642c2075736520726566756e644265746044820152fd5b63433835b360e11b5f5260045ffd5b5060ff600382015460c01c16611d14565b8115612113570490565b634e487b7160e01b5f52601260045260245ffd5b9394929091945f9560018060a01b03165f52600660205260405f2054948560801c908115611a1f5761ffff9461215c916123e2565b9416928315611a1057612177846001600160801b0392612109565b96168610908115612284575b506119f7576121918361241b565b60405160208101918252602081526121aa604082611bc6565b51902094600354606487061115612271576121c482611c4a565b955f915b61ffff8316848110156122675760408051602081810186815261ffff88169383019390935291906121fc816060810161199e565b519020925f90828951818b019485918c01010312610a7b578a6001948d61ffff9761222b6122419751916124b0565b938482111561224a575b505090611e3491611c7c565b930116916121c8565b611e349392965060649161225d91611c1f565b049490918e612235565b5096955050505050565b50919350506122809150611c4a565b5f91565b905085115f612183565b5f1981146119285760010190565b6014821015611c905701905f90565b9390859360a0969361ffff926001808a1b03168752602087015216604085015260806060850152816080850152848401375f828201840152601f01601f1916010190565b5f546001600160a01b0316330361230257565b63118cdaa760e01b5f523360045260245ffd5b356001600160a01b0381168103610a7b5790565b5f52600c602052611cf361ffff600360405f20015416611c4a565b5f52600c60205260405f209060018060a01b03825416916001808060a01b0391015416916040519164e8d4a50fff835260208301527f4018fd83a0e35efa249d6a65521926b6d539972216ff5ff37c83f1309b7c24fb60403093a4565b9291905f935f52601060205264ffffffffff6123c060405f20936124b0565b925416918211156123cf575050565b6064929350906123de91611c1f565b0490565b91908260409181010312610a7b576020823592013561ffff81168103610a7b579160405190602082015260208152611cf3604082611bc6565b60208151918180820193849201010312610a7b5751600e54811190811591612454575b5061244557565b639c3043df60e01b5f5260045ffd5b9050600f54105f61243e565b9060208151918180820193849201010312610a7b57519064ffffffffff6040519261248a84611baa565b1682525f52601060205264ffffffffff60405f2091511664ffffffffff19825416179055565b620f4240900680620f42400390620f4240821161192857620f424014612113576305f5e10004600e548082106124ef5750600f548082116124ef575090565b90509056fe7b2b1318c7e6cfd4bbeac6266cea2762a843a90f923acf58b837c8dbe846af08a264697066735822122083b653438f9bc48e647f5a6f741ee539248416b491c1a108abfca0eecb8e233864736f6c634300081c0033",
  "linkReferences": {},
  "deployedLinkReferences": {},
  "immutableReferences": {},
  "inputSourceName": "project/contracts/crash/CrashGame.sol",
  "buildInfoId": "solc-0_8_28-9f339717e33f0d48e14ec649ba841d3d686ed930"
}