{
  "_format": "hh3-artifact-1",
  "contractName": "FlipGame",
  "sourceName": "contracts/flip/FlipGame.sol",
  "abi": [
    {
      "inputs": [
        {
          "internalType": "address",
          "name": "_treasury",
          "type": "address"
        }
      ],
      "stateMutability": "nonpayable",
      "type": "constructor"
    },
    {
      "inputs": [],
      "name": "BetAmountOutOfRange",
      "type": "error"
    },
    {
      "inputs": [],
      "name": "BetDoesNotExist",
      "type": "error"
    },
    {
      "inputs": [],
      "name": "BetNotPending",
      "type": "error"
    },
    {
      "inputs": [],
      "name": "GameNotLive",
      "type": "error"
    },
    {
      "inputs": [],
      "name": "InsufficientBalance",
      "type": "error"
    },
    {
      "inputs": [],
      "name": "InvalidBetCount",
      "type": "error"
    },
    {
      "inputs": [],
      "name": "InvalidSide",
      "type": "error"
    },
    {
      "inputs": [],
      "name": "NotAuthorizedCaller",
      "type": "error"
    },
    {
      "inputs": [
        {
          "internalType": "address",
          "name": "owner",
          "type": "address"
        }
      ],
      "name": "OwnableInvalidOwner",
      "type": "error"
    },
    {
      "inputs": [
        {
          "internalType": "address",
          "name": "account",
          "type": "address"
        }
      ],
      "name": "OwnableUnauthorizedAccount",
      "type": "error"
    },
    {
      "inputs": [],
      "name": "PlayerHasPendingBet",
      "type": "error"
    },
    {
      "inputs": [],
      "name": "RefundTooEarly",
      "type": "error"
    },
    {
      "inputs": [],
      "name": "TokenNotConfigured",
      "type": "error"
    },
    {
      "anonymous": false,
      "inputs": [
        {
          "indexed": true,
          "internalType": "uint256",
          "name": "betId",
          "type": "uint256"
        },
        {
          "indexed": true,
          "internalType": "address",
          "name": "player",
          "type": "address"
        },
        {
          "indexed": false,
          "internalType": "address",
          "name": "token",
          "type": "address"
        },
        {
          "indexed": false,
          "internalType": "uint256",
          "name": "amount",
          "type": "uint256"
        },
        {
          "indexed": false,
          "internalType": "uint16",
          "name": "betCount",
          "type": "uint16"
        },
        {
          "indexed": false,
          "internalType": "bytes",
          "name": "gameChoice",
          "type": "bytes"
        }
      ],
      "name": "BetPlaced",
      "type": "event"
    },
    {
      "anonymous": false,
      "inputs": [
        {
          "indexed": true,
          "internalType": "uint256",
          "name": "betId",
          "type": "uint256"
        },
        {
          "indexed": true,
          "internalType": "address",
          "name": "player",
          "type": "address"
        },
        {
          "indexed": false,
          "internalType": "uint256",
          "name": "amount",
          "type": "uint256"
        },
        {
          "indexed": false,
          "internalType": "address",
          "name": "token",
          "type": "address"
        }
      ],
      "name": "BetRefunded",
      "type": "event"
    },
    {
      "anonymous": false,
      "inputs": [
        {
          "indexed": true,
          "internalType": "uint256",
          "name": "betId",
          "type": "uint256"
        },
        {
          "indexed": true,
          "internalType": "address",
          "name": "player",
          "type": "address"
        },
        {
          "indexed": false,
          "internalType": "address",
          "name": "token",
          "type": "address"
        },
        {
          "indexed": false,
          "internalType": "uint256",
          "name": "totalBetAmount",
          "type": "uint256"
        },
        {
          "indexed": false,
          "internalType": "uint256",
          "name": "payout",
          "type": "uint256"
        },
        {
          "indexed": false,
          "internalType": "uint256[]",
          "name": "outcomes",
          "type": "uint256[]"
        }
      ],
      "name": "BetSettled",
      "type": "event"
    },
    {
      "anonymous": false,
      "inputs": [
        {
          "indexed": true,
          "internalType": "uint256",
          "name": "betId",
          "type": "uint256"
        },
        {
          "indexed": false,
          "internalType": "bool",
          "name": "choice",
          "type": "bool"
        },
        {
          "indexed": false,
          "internalType": "uint256[]",
          "name": "outcomes",
          "type": "uint256[]"
        },
        {
          "indexed": false,
          "internalType": "uint256",
          "name": "payout",
          "type": "uint256"
        }
      ],
      "name": "FlipRoll",
      "type": "event"
    },
    {
      "anonymous": false,
      "inputs": [
        {
          "indexed": true,
          "internalType": "address",
          "name": "player",
          "type": "address"
        },
        {
          "indexed": true,
          "internalType": "address",
          "name": "game",
          "type": "address"
        },
        {
          "indexed": true,
          "internalType": "address",
          "name": "currency",
          "type": "address"
        },
        {
          "indexed": false,
          "internalType": "uint256",
          "name": "gameIdentifier",
          "type": "uint256"
        },
        {
          "indexed": false,
          "internalType": "uint256",
          "name": "payout",
          "type": "uint256"
        }
      ],
      "name": "LivePayout",
      "type": "event"
    },
    {
      "anonymous": false,
      "inputs": [
        {
          "indexed": true,
          "internalType": "address",
          "name": "previousOwner",
          "type": "address"
        },
        {
          "indexed": true,
          "internalType": "address",
          "name": "newOwner",
          "type": "address"
        }
      ],
      "name": "OwnershipTransferred",
      "type": "event"
    },
    {
      "inputs": [
        {
          "internalType": "uint256",
          "name": "",
          "type": "uint256"
        }
      ],
      "name": "baseBets",
      "outputs": [
        {
          "internalType": "address",
          "name": "player",
          "type": "address"
        },
        {
          "internalType": "address",
          "name": "token",
          "type": "address"
        },
        {
          "internalType": "uint256",
          "name": "amount",
          "type": "uint256"
        },
        {
          "internalType": "uint16",
          "name": "betCount",
          "type": "uint16"
        },
        {
          "internalType": "uint176",
          "name": "placeBlockNumber",
          "type": "uint176"
        },
        {
          "internalType": "bool",
          "name": "resolved",
          "type": "bool"
        },
        {
          "internalType": "bool",
          "name": "isCreditBet",
          "type": "bool"
        },
        {
          "internalType": "uint256",
          "name": "payout",
          "type": "uint256"
        }
      ],
      "stateMutability": "view",
      "type": "function"
    },
    {
      "inputs": [
        {
          "internalType": "address",
          "name": "",
          "type": "address"
        }
      ],
      "name": "callers",
      "outputs": [
        {
          "internalType": "bool",
          "name": "",
          "type": "bool"
        }
      ],
      "stateMutability": "view",
      "type": "function"
    },
    {
      "inputs": [
        {
          "internalType": "uint8",
          "name": "side",
          "type": "uint8"
        },
        {
          "internalType": "uint16",
          "name": "betCount",
          "type": "uint16"
        }
      ],
      "name": "encodeGameChoice",
      "outputs": [
        {
          "internalType": "bytes",
          "name": "",
          "type": "bytes"
        }
      ],
      "stateMutability": "pure",
      "type": "function"
    },
    {
      "inputs": [],
      "name": "explosionRate",
      "outputs": [
        {
          "internalType": "uint256",
          "name": "",
          "type": "uint256"
        }
      ],
      "stateMutability": "view",
      "type": "function"
    },
    {
      "inputs": [
        {
          "internalType": "uint256",
          "name": "",
          "type": "uint256"
        }
      ],
      "name": "flipBets",
      "outputs": [
        {
          "internalType": "bool",
          "name": "choice",
          "type": "bool"
        }
      ],
      "stateMutability": "view",
      "type": "function"
    },
    {
      "inputs": [],
      "name": "gameCredits",
      "outputs": [
        {
          "internalType": "contract GameCredits",
          "name": "",
          "type": "address"
        }
      ],
      "stateMutability": "view",
      "type": "function"
    },
    {
      "inputs": [],
      "name": "gameIsLive",
      "outputs": [
        {
          "internalType": "bool",
          "name": "",
          "type": "bool"
        }
      ],
      "stateMutability": "view",
      "type": "function"
    },
    {
      "inputs": [
        {
          "internalType": "uint256",
          "name": "betId",
          "type": "uint256"
        }
      ],
      "name": "getFlipBet",
      "outputs": [
        {
          "components": [
            {
              "internalType": "bool",
              "name": "choice",
              "type": "bool"
            }
          ],
          "internalType": "struct FlipGame.FlipBet",
          "name": "",
          "type": "tuple"
        }
      ],
      "stateMutability": "view",
      "type": "function"
    },
    {
      "inputs": [
        {
          "internalType": "address",
          "name": "player",
          "type": "address"
        }
      ],
      "name": "getPlayerInfo",
      "outputs": [
        {
          "components": [
            {
              "internalType": "uint32",
              "name": "totalBets",
              "type": "uint32"
            },
            {
              "internalType": "uint32",
              "name": "totalWins",
              "type": "uint32"
            },
            {
              "internalType": "uint256",
              "name": "totalInValue",
              "type": "uint256"
            },
            {
              "internalType": "uint256",
              "name": "totalOutValue",
              "type": "uint256"
            },
            {
              "internalType": "uint256[20]",
              "name": "lastBetIds",
              "type": "uint256[20]"
            },
            {
              "internalType": "uint8",
              "name": "lastBetIdx",
              "type": "uint8"
            }
          ],
          "internalType": "struct BaseGame.PlayerInfo",
          "name": "",
          "type": "tuple"
        }
      ],
      "stateMutability": "view",
      "type": "function"
    },
    {
      "inputs": [
        {
          "internalType": "address",
          "name": "player",
          "type": "address"
        }
      ],
      "name": "lastBets",
      "outputs": [
        {
          "internalType": "uint256[20]",
          "name": "ids",
          "type": "uint256[20]"
        },
        {
          "internalType": "uint8",
          "name": "idx",
          "type": "uint8"
        }
      ],
      "stateMutability": "view",
      "type": "function"
    },
    {
      "inputs": [],
      "name": "nextBetId",
      "outputs": [
        {
          "internalType": "uint256",
          "name": "",
          "type": "uint256"
        }
      ],
      "stateMutability": "view",
      "type": "function"
    },
    {
      "inputs": [],
      "name": "owner",
      "outputs": [
        {
          "internalType": "address",
          "name": "",
          "type": "address"
        }
      ],
      "stateMutability": "view",
      "type": "function"
    },
    {
      "inputs": [
        {
          "internalType": "address",
          "name": "",
          "type": "address"
        }
      ],
      "name": "pendingBetId",
      "outputs": [
        {
          "internalType": "uint256",
          "name": "",
          "type": "uint256"
        }
      ],
      "stateMutability": "view",
      "type": "function"
    },
    {
      "inputs": [
        {
          "components": [
            {
              "internalType": "address",
              "name": "player",
              "type": "address"
            },
            {
              "internalType": "bytes",
              "name": "gameChoice",
              "type": "bytes"
            },
            {
              "internalType": "address",
              "name": "token",
              "type": "address"
            },
            {
              "internalType": "uint256",
              "name": "amount",
              "type": "uint256"
            },
            {
              "internalType": "bool",
              "name": "isCreditBet",
              "type": "bool"
            },
            {
              "internalType": "uint256",
              "name": "seed",
              "type": "uint256"
            }
          ],
          "internalType": "struct IBaseGame.PlayParams",
          "name": "params",
          "type": "tuple"
        }
      ],
      "name": "playAndSettle",
      "outputs": [
        {
          "internalType": "uint256",
          "name": "betId",
          "type": "uint256"
        },
        {
          "internalType": "uint256",
          "name": "payout",
          "type": "uint256"
        }
      ],
      "stateMutability": "nonpayable",
      "type": "function"
    },
    {
      "inputs": [
        {
          "internalType": "address",
          "name": "player",
          "type": "address"
        },
        {
          "internalType": "bytes",
          "name": "gameChoice",
          "type": "bytes"
        },
        {
          "internalType": "address",
          "name": "token",
          "type": "address"
        },
        {
          "internalType": "uint256",
          "name": "amount",
          "type": "uint256"
        }
      ],
      "name": "playFromRouter",
      "outputs": [
        {
          "internalType": "uint256",
          "name": "betId",
          "type": "uint256"
        }
      ],
      "stateMutability": "nonpayable",
      "type": "function"
    },
    {
      "inputs": [
        {
          "internalType": "address",
          "name": "player",
          "type": "address"
        },
        {
          "internalType": "bytes",
          "name": "gameChoice",
          "type": "bytes"
        },
        {
          "internalType": "address",
          "name": "token",
          "type": "address"
        },
        {
          "internalType": "uint256",
          "name": "amount",
          "type": "uint256"
        }
      ],
      "name": "playFromRouterWithCredits",
      "outputs": [
        {
          "internalType": "uint256",
          "name": "betId",
          "type": "uint256"
        }
      ],
      "stateMutability": "nonpayable",
      "type": "function"
    },
    {
      "inputs": [
        {
          "internalType": "address",
          "name": "",
          "type": "address"
        }
      ],
      "name": "playerInfo",
      "outputs": [
        {
          "internalType": "uint32",
          "name": "totalBets",
          "type": "uint32"
        },
        {
          "internalType": "uint32",
          "name": "totalWins",
          "type": "uint32"
        },
        {
          "internalType": "uint256",
          "name": "totalInValue",
          "type": "uint256"
        },
        {
          "internalType": "uint256",
          "name": "totalOutValue",
          "type": "uint256"
        },
        {
          "internalType": "uint8",
          "name": "lastBetIdx",
          "type": "uint8"
        }
      ],
      "stateMutability": "view",
      "type": "function"
    },
    {
      "inputs": [
        {
          "internalType": "address",
          "name": "",
          "type": "address"
        }
      ],
      "name": "playerSeeds",
      "outputs": [
        {
          "internalType": "uint256",
          "name": "",
          "type": "uint256"
        }
      ],
      "stateMutability": "view",
      "type": "function"
    },
    {
      "inputs": [
        {
          "internalType": "bytes",
          "name": "gameChoice",
          "type": "bytes"
        },
        {
          "internalType": "address",
          "name": "token",
          "type": "address"
        },
        {
          "internalType": "uint256",
          "name": "amount",
          "type": "uint256"
        },
        {
          "internalType": "uint256",
          "name": "seed",
          "type": "uint256"
        }
      ],
      "name": "previewPlay",
      "outputs": [
        {
          "internalType": "uint256",
          "name": "payout",
          "type": "uint256"
        },
        {
          "internalType": "uint256[]",
          "name": "outcomes",
          "type": "uint256[]"
        }
      ],
      "stateMutability": "view",
      "type": "function"
    },
    {
      "inputs": [
        {
          "internalType": "uint256",
          "name": "betId",
          "type": "uint256"
        }
      ],
      "name": "refundBet",
      "outputs": [],
      "stateMutability": "nonpayable",
      "type": "function"
    },
    {
      "inputs": [],
      "name": "renounceOwnership",
      "outputs": [],
      "stateMutability": "nonpayable",
      "type": "function"
    },
    {
      "inputs": [
        {
          "internalType": "address",
          "name": "_caller",
          "type": "address"
        },
        {
          "internalType": "bool",
          "name": "_allowed",
          "type": "bool"
        }
      ],
      "name": "setCaller",
      "outputs": [],
      "stateMutability": "nonpayable",
      "type": "function"
    },
    {
      "inputs": [
        {
          "internalType": "uint256",
          "name": "_explosionRate",
          "type": "uint256"
        }
      ],
      "name": "setExplosionRate",
      "outputs": [],
      "stateMutability": "nonpayable",
      "type": "function"
    },
    {
      "inputs": [
        {
          "internalType": "address",
          "name": "_gameCredits",
          "type": "address"
        }
      ],
      "name": "setGameCredits",
      "outputs": [],
      "stateMutability": "nonpayable",
      "type": "function"
    },
    {
      "inputs": [
        {
          "internalType": "uint256",
          "name": "newSeed",
          "type": "uint256"
        }
      ],
      "name": "setPlayerSeed",
      "outputs": [],
      "stateMutability": "nonpayable",
      "type": "function"
    },
    {
      "inputs": [
        {
          "internalType": "address",
          "name": "token",
          "type": "address"
        },
        {
          "internalType": "uint128",
          "name": "minBet",
          "type": "uint128"
        },
        {
          "internalType": "uint128",
          "name": "maxBet",
          "type": "uint128"
        }
      ],
      "name": "setTokenConfig",
      "outputs": [],
      "stateMutability": "nonpayable",
      "type": "function"
    },
    {
      "inputs": [
        {
          "internalType": "address",
          "name": "_treasury",
          "type": "address"
        }
      ],
      "name": "setTreasury",
      "outputs": [],
      "stateMutability": "nonpayable",
      "type": "function"
    },
    {
      "inputs": [
        {
          "internalType": "uint256",
          "name": "betId",
          "type": "uint256"
        },
        {
          "internalType": "uint256",
          "name": "seed",
          "type": "uint256"
        }
      ],
      "name": "settleBet",
      "outputs": [],
      "stateMutability": "nonpayable",
      "type": "function"
    },
    {
      "inputs": [
        {
          "internalType": "address",
          "name": "",
          "type": "address"
        }
      ],
      "name": "supportedTokenInfo",
      "outputs": [
        {
          "internalType": "uint128",
          "name": "minBetAmount",
          "type": "uint128"
        },
        {
          "internalType": "uint128",
          "name": "maxBetAmount",
          "type": "uint128"
        }
      ],
      "stateMutability": "view",
      "type": "function"
    },
    {
      "inputs": [],
      "name": "toggleGameIsLive",
      "outputs": [],
      "stateMutability": "nonpayable",
      "type": "function"
    },
    {
      "inputs": [],
      "name": "totalBetsGlobal",
      "outputs": [
        {
          "internalType": "uint256",
          "name": "",
          "type": "uint256"
        }
      ],
      "stateMutability": "view",
      "type": "function"
    },
    {
      "inputs": [],
      "name": "totalValueGlobal",
      "outputs": [
        {
          "internalType": "uint256",
          "name": "",
          "type": "uint256"
        }
      ],
      "stateMutability": "view",
      "type": "function"
    },
    {
      "inputs": [
        {
          "internalType": "address",
          "name": "newOwner",
          "type": "address"
        }
      ],
      "name": "transferOwnership",
      "outputs": [],
      "stateMutability": "nonpayable",
      "type": "function"
    },
    {
      "inputs": [],
      "name": "treasury",
      "outputs": [
        {
          "internalType": "contract ITreasury",
          "name": "",
          "type": "address"
        }
      ],
      "stateMutability": "view",
      "type": "function"
    },
    {
      "inputs": [
        {
          "internalType": "address",
          "name": "beneficiary",
          "type": "address"
        },
        {
          "internalType": "uint256",
          "name": "amount",
          "type": "uint256"
        },
        {
          "internalType": "address",
          "name": "token",
          "type": "address"
        }
      ],
      "name": "withdrawCustomTokenFunds",
      "outputs": [],
      "stateMutability": "nonpayable",
      "type": "function"
    }
  ],
  "bytecode": "0x60803460d557601f61263738819003918201601f19168301916001600160401b0383118484101760d95780849260209460405283398101031260d557516001600160a01b0381169081900360d557331560c2575f8054336001600160a01b0319821681178355604051939290916001600160a01b0316907f8be0079c531659141344cd1fd0a4f28419497f9722a3daafe3b4186f6b6457e09080a3600180546001600160a01b031916919091178155600955600460035561254990816100ee8239f35b631e4fbdf760e01b5f525f60045260245ffd5b5f80fd5b634e487b7160e01b5f52604160045260245ffdfe60806040526004361015610011575f80fd5b5f5f3560e01c806303abf75f146113dc57806307106f271461135057806308af99f4146113045780630d2cbe13146112c0578063145287d6146112a25780631aa60a3e1461127d5780632a69bf1d146112545780634b114691146111e457806358ee9c43146111295780635932840114610ffd5780635da2a08614610fce57806361d027b314610fa55780636e156a3b14610f2c578063715018a614610ed2578063781355bf14610ce25780637bbf4a3f14610ca357806381c8ec1b14610c855780638d0b42d814610c455780638da5cb5b14610c1e5780639aca279214610c005780639cae6eae14610baa578063a045a6fc14610b7b578063a385cd4114610ae3578063b14c8009146109ab578063b7dc575214610988578063c61a153f1461090b578063d1f156d7146105cc578063d414d0c2146105a9578063e1fdb4b41461033d578063e695c2531461031f578063e7138143146102d5578063ee33f9c41461029c578063f0f442601461025c578063f2fde38b146101d65763f4efd8811461019b575f80fd5b346101d35760203660031901126101d3576020906040906001600160a01b036101c26119ed565b168152600783522054604051908152f35b80fd5b50346101d35760203660031901126101d3576101f06119ed565b6101f86123f5565b6001600160a01b031680156102485781546001600160a01b03198116821783556001600160a01b03167f8be0079c531659141344cd1fd0a4f28419497f9722a3daafe3b4186f6b6457e08380a380f35b631e4fbdf760e01b82526004829052602482fd5b50346101d35760203660031901126101d3576102766119ed565b61027e6123f5565b60018060a01b03166001600160601b0360a01b600154161760015580f35b50346101d35760203660031901126101d3576020906040906001600160a01b036102c46119ed565b168152600883522054604051908152f35b50346101d35760203660031901126101d35760409081906001600160a01b036102fc6119ed565b168152600660205220548151906001600160801b038116825260801c6020820152f35b50346101d357806003193601126101d3576020600b54604051908152f35b50346101d35760203660031901126101d357600435808252600c602052604082209060028201541561059a57600382019081549160ff8360c01c1661058b57601083901c6001600160b01b0390811661010001908111610577576001600160b01b03164311156105685760ff90828652600c6020526103cd6040872061ffff600360028301549201541690611b82565b60c083901b19909416600160c01b1781556004850184905584546001600160a01b031686526007602052604086208690555460c81c16156104e157600254835485916001600160a01b039182169116803b156104dd57604051637709a1a760e11b81526001600160a01b039290921660048301526024820185905282908290604490829084905af180156104d2576104b9575b50506104b6925b805460019190910154604080518581526001600160a01b039283166020820152929091169183917fb27522330a91a6a320aeeac4733cad91c61b5384667c37acb1855ace8dc34e5091a3612345565b80f35b816104c391611b29565b6104ce57835f610460565b8380fd5b6040513d84823e3d90fd5b8280fd5b6001805490840154845486926001600160a01b039081169281169116823b156104ce57604051639bc5c50960e01b81526001600160a01b03928316600482015260248101879052911660448201529082908290606490829084905af180156104d257610553575b50506104b692610467565b8161055d91611b29565b6104ce57835f610548565b634a01daaf60e11b8552600485fd5b634e487b7160e01b86526011600452602486fd5b63433835b360e11b8552600485fd5b633f9b7dd560e11b8352600483fd5b50346101d357806003193601126101d357602060ff600454166040519015158152f35b50346101d3576105db36611a64565b949091939294338252600560205260ff604083205416156108fc5760ff60045416156108ed5760018060a01b0383169283835260066020526040832054948560801c9687156108de5761062e818a61241b565b909261ffff8416998a156108cf576001600160801b0361064e8c8961206c565b9a168a109081156108c5575b506108b6576001600160a01b0316808752600760205260408720549098906108a7576106858261247a565b866009549a8b809a6106968261225f565b6009558c84526007602052816040852055604051946106b486611ac0565b8d86526020808701928352604080880192835260608801958652436001600160b01b03166080890190815260a0890188815260c0808b018a815260e08c018b815298909a52600c909452918f20985189546001600160a01b03199081166001600160a01b03928316178b55955160018b018054909716911617909455915160028801559351600387018054935192516001600160c81b031990941661ffff9092169190911760109290921b62010000600160c01b03169190911791151590931b60ff60c01b16178255915b51815460ff60c81b191690151560c81b60ff60c81b16179055516004909101556107a990876124a8565b868552600d6020526040852098895463ffffffff166107c790611c14565b63ffffffff1663ffffffff198b5416178a5560018a01858154906107ea91611c07565b90558660178b019a8b5460ff1690600301906108059161226d565b61081f929082549060031b91821b915f19901b1916179055565b895460ff1692601384145f149a60ff7f2796ecbf0b0464407570c503af31d0a181d0c00ac867a6c3d3c330267e93fa40986108909660209e61089b57505b1660ff19825416179055610872600a5461225f565b600a5561088186600b54611c07565b600b556040519586958661227c565b0390a3604051908152f35b8291506001011661085d565b63f99d560d60e01b8752600487fd5b636e15e3d960e11b8752600487fd5b905089115f61065a565b63ef4c8b3560e01b8852600488fd5b631d8730d160e31b8552600485fd5b632f9107b560e01b8252600482fd5b637046c88d60e01b8252600482fd5b50346101d35760403660031901126101d35760043560ff8116908181036104dd57506024359061ffff8216908183036104ce5760409250825191602083019182528383015282825261095e606083611b29565b8251938492602084525180928160208601528585015e828201840152601f01601f19168101030190f35b50346101d35760203660031901126101d3576109a26123f5565b60043560035580f35b50346101d35760603660031901126101d3576109c56119ed565b602435906044356001600160a01b03811691908290036104ce576109e76123f5565b6040516370a0823160e01b8152306004820152602081602481865afa908115610ad8578591610aa2575b508311610a935760405163a9059cbb60e01b81526001600160a01b0391909116600482015260248101929092526020908290604490829086905af180156104d257610a5a575080f35b6020813d602011610a8b575b81610a7360209383611b29565b81010312610a875751801515036101d35780f35b5080fd5b3d9150610a66565b631e9acf1760e31b8452600484fd5b90506020813d602011610ad0575b81610abd60209383611b29565b81010312610acc57515f610a11565b8480fd5b3d9150610ab0565b6040513d87823e3d90fd5b50346101d35760203660031901126101d3576040610100916004358152600c6020522060018060a01b038154169060ff60018060a01b0360018301541691600281015460046003830154920154936040519586526020860152604085015261ffff8116606085015260018060b01b038160101c166080850152818160c01c16151560a085015260c81c16151560c083015260e0820152f35b50346101d357806003193601126101d357610b946123f5565b60045460ff80821615169060ff19161760045580f35b50346101d35760403660031901126101d357610bc46119ed565b60243580151581036104dd576104b691610bdc6123f5565b60018060a01b031683526005602052604083209060ff801983541691151516179055565b50346101d357806003193601126101d3576020600954604051908152f35b50346101d357806003193601126101d357546040516001600160a01b039091168152602090f35b50346101d35760203660031901126101d357610c5f6119ed565b610c676123f5565b60018060a01b03166001600160601b0360a01b600254161760025580f35b50346101d357806003193601126101d3576020600354604051908152f35b50346101d35760203660031901126101d35760209060ff906040906001600160a01b03610cce6119ed565b168152600584522054166040519015158152f35b50346101d357610cf136611a64565b949091939294338252600560205260ff604083205416156108fc5760ff60045416156108ed5760018060a01b0383169283835260066020526040832054948560801c9687156108de57610d44818a61241b565b909261ffff8416998a156108cf576001600160801b03610d648c8961206c565b9a168a10908115610ec8575b506108b6576001600160a01b0316808752600760205260408720549098906108a757610d9b8261247a565b866009549a8b809a610dac8261225f565b6009558c8452600760205281604085205560405194610dca86611ac0565b8d86526020860191825260408601908152606086019384526080860190600160b01b600190034316825260a087019286845260c08801946001865260e0890197808952528d600c6020526040902097600160a01b6001900390600160a01b60019003905116166001600160601b0360a01b895416178855600160a01b600190039051166001880190600160a01b60019003166001600160601b0360a01b82541617905551600287015560038601935161ffff16845491600160c01b620100009003905160101b169167ffffffffffffffff60c01b161717835551151561077f90839081549060ff60c01b90151560c01b169060ff60c01b1916179055565b905089115f610d70565b50346101d357806003193601126101d357610eeb6123f5565b80546001600160a01b03198116825581906001600160a01b03167f8be0079c531659141344cd1fd0a4f28419497f9722a3daafe3b4186f6b6457e08280a380f35b50346101d35760803660031901126101d35760043567ffffffffffffffff8111610a8757610f5e903690600401611a03565b906024356001600160a01b03811681036104ce57610f849350606435926044359261208a565b90610fa16040519283928352604060208401526040830190611a31565b0390f35b50346101d357806003193601126101d3576001546040516001600160a01b039091168152602090f35b50346101d35760203660031901126101d35760ff60406020926004358152600e84522054166040519015158152f35b50346101d35760203660031901126101d3576110176119ed565b8160a060405161102681611b0d565b8281528260208201528260408201528260608201526102806040519061104c8183611b29565b368237608082015201526001600160a01b03168152600d60205260408082209051909161107882611b0d565b82549263ffffffff8416835263ffffffff602084019460201c1684526001810154604084019081526002820154906060850191825263ffffffff60ff60176110c260038701611b4b565b95608089019687520154169660a087019788528160405197511687525116602086015251604085015251606084015251608083019091905b60148210611113576103208460ff875116610300820152f35b60208060019285518152019301910190916110fa565b50346101d35760603660031901126101d3576111436119ed565b602435906001600160801b0382168092036104dd57604435906001600160801b0382168092036104ce576111756123f5565b604051926040840184811067ffffffffffffffff8211176111d05760405283526020830191825260018060a01b0316835260066020526001600160801b0360408420925116906001600160801b0319905160801b1617905580f35b634e487b7160e01b86526041600452602486fd5b50346101d35760203660031901126101d35760a0906040906001600160a01b0361120c6119ed565b168152600d6020522080549060018101549060ff60176002830154920154169163ffffffff60405194818116865260201c166020850152604084015260608301526080820152f35b50346101d357806003193601126101d3576002546040516001600160a01b039091168152602090f35b50346101d35760203660031901126101d3573381526008602052600435604082205580f35b50346101d357806003193601126101d3576020600a54604051908152f35b50346101d35760403660031901126101d357338152600560205260ff604082205416156112f5576104b6602435600435611c59565b637046c88d60e01b8152600490fd5b50346101d35760203660031901126101d357604081602092825161132781611af1565b526004358152600e83522060ff6040519161134183611af1565b54161515809152604051908152f35b50346101d35760203660031901126101d35761136a6119ed565b610280908160405161137c8282611b29565b3690376001600160a01b03168252600d60205260408220601781015460ff16906113a890600301611b4b565b9160405192839094905b601482106113c65750506102a09350820152f35b60208060019288518152019601910190946113b2565b346118695760203660031901126118695760043567ffffffffffffffff81116118695736819003906004810160c060031984011261186957335f52600560205260ff60405f205416156119de5760ff60045416156119cf5760448201926001600160a01b0361144a856122c0565b165f52600660205260405f2054918260801c9182156119c057602485013590602219018112156118695784019360048501359467ffffffffffffffff86116118695760240185360381136118695761ffff956114a59161241b565b95169081156119b1576064810135936001600160801b036114c6848761206c565b961686109081156119a7575b50611998576114e08661247a565b600954956114ed8761225f565b6009556114f9846122c0565b90611503896122c0565b916084840135928315158094036118695789600491611625956040519461152986611ac0565b6001600160a01b039081168652918216602080870191825260408088018f8152606089018d8152436001600160b01b031660808b01908152600160a08c0181815260c0808e01998a525f60e08f018181529c8152600c909852959096209b518c546001600160a01b0319908116918b16919091178d559651908c0180549097169816979097179094555160028901559151600388018054955192516001600160c81b031990961661ffff929092169190911760109290921b62010000600160c01b03169190911793151590911b60ff60c01b1692909217825551815460ff60c81b191690151560c81b60ff60c81b1617905551910155876124a8565b5f905f1943014381116118c9576040519060a46020830193013583524260408301524460608301524060808201526080815261166260a082611b29565b51902060035490919060648306116118dd575050845f5160206124f45f395f51905f5261168e826122d4565b5f965b5f848152600c6020526040902080546001909101546001600160a01b03918216969116916116d0916116c291611b82565b928960405194859485611c2b565b0390a36116dd8385612345565b5f848152600c602052604090206004018390556001600160a01b03611701826122c0565b165f52600d60205260405f2063ffffffff61171e81835416611c14565b1663ffffffff198254161781556001810161173a848254611c07565b90556009545f1981019081116118c95761177b601783019161176360ff8454166003860161226d565b90919082549060031b91821b915f19901b1916179055565b805460ff16601381036118bc575060ff5f5b1660ff19825416179055831515908161186d575b506117d4575b604084846117c5856117ba600a5461225f565b600a55600b54611c07565b600b5582519182526020820152f35b6001546001600160a01b0316946117f4906117ee906122c0565b916122c0565b853b1561186957604051639bc5c50960e01b81526001600160a01b0392831660048201526024810185905291166044820152935f908590606490829084905af190811561185e576040946117c59261184e575b50906117a7565b5f61185891611b29565b5f611847565b6040513d5f823e3d90fd5b5f80fd5b806118a861188663ffffffff6002945460201c16611c14565b825467ffffffff00000000191660209190911b67ffffffff0000000016178255565b016118b4858254611c07565b9055866117a1565b60ff60018192011661178d565b634e487b7160e01b5f52601160045260245ffd5b966118ed83949693979297611bad565b945f5b61ffff81168681101561197a5761ffff9160019161196b61196461195e8e9f8b9c9d9e9f6119589060405161194d8161193f8b60208301958690929161ffff6020916040840195845216910152565b03601f198101835282611b29565b519020809d8d6123a2565b90611c07565b996123df565b918c611bdf565b520116979695949398976118f0565b5050948297505f5160206124f45f395f51905f529198969493611691565b636e15e3d960e11b5f5260045ffd5b90508511886114d2565b63ef4c8b3560e01b5f5260045ffd5b631d8730d160e31b5f5260045ffd5b632f9107b560e01b5f5260045ffd5b637046c88d60e01b5f5260045ffd5b600435906001600160a01b038216820361186957565b9181601f840112156118695782359167ffffffffffffffff8311611869576020838186019501011161186957565b90602080835192838152019201905f5b818110611a4e5750505090565b8251845260209384019390920191600101611a41565b906080600319830112611869576004356001600160a01b038116810361186957916024359067ffffffffffffffff821161186957611aa491600401611a03565b90916044356001600160a01b0381168103611869579060643590565b610100810190811067ffffffffffffffff821117611add57604052565b634e487b7160e01b5f52604160045260245ffd5b6020810190811067ffffffffffffffff821117611add57604052565b60c0810190811067ffffffffffffffff821117611add57604052565b90601f8019910116810190811067ffffffffffffffff821117611add57604052565b60405191905f835b60148210611b6c57505050611b6a61028083611b29565b565b6001602081928554815201930191019091611b53565b818102929181159184041417156118c957565b67ffffffffffffffff8111611add5760051b60200190565b90611bb782611b95565b611bc46040519182611b29565b8281528092611bd5601f1991611b95565b0190602036910137565b8051821015611bf35760209160051b010190565b634e487b7160e01b5f52603260045260245ffd5b919082018092116118c957565b63ffffffff1663ffffffff81146118c95760010190565b9092608092611c56959460018060a01b03168352602083015260408201528160608201520190611a31565b90565b9190825f52600c60205260405f20926002840193845415801561205b575b61204c578054600382018054949092916001600160a01b031690601086901c6001600160b01b031661010081018082116118c957431161200857825f52600860205260405f2054908115612000575b604051916020830193845260408301524260608301524460808301524060a082015260a08152611cf760c082611b29565b51902094600354606487061115611f0a5750508154955f959094869461ffff891693909290611d2585611bad565b955f9854995b61ffff8a1687811015611dad57611da38c611d9d8161ffff958f611d978f9197611d918f8f90611d8b9161193f611d8060019e60405192839160208301958690929161ffff6020916040840195845216910152565b5190209788916123a2565b956123df565b92611bdf565b52611c07565b9b611c07565b9a01169897611d2b565b5060ff60c01b19909b16600160c01b179055600481018a905580546001600160a01b03165f90815260076020526040812055909894975093955090939150849050611e37575b5f5160206124f45f395f51905f528391611b6a96611e2f60018060a01b03865416956001808060a01b0391015416918860405194859485611c2b565b0390a3612345565b60018060a01b038254165f52600d602052600260405f20611e6461188663ffffffff835460201c16611c14565b01611e70858254611c07565b9055600180549083015483546001600160a01b0392831693929182169116833b1561186957604051639bc5c50960e01b81526001600160a01b0392831660048201526024810188905291166044820152915f908390606490829084905af190811561185e57611b6a9685935f5160206124f45f395f51905f5293611efa575b509650915050611df3565b5f611f0491611b29565b5f611eef565b60ff60c01b1916600160c01b1783555f600483018190559081526007602052604081205593949193925083915f5160206124f45f395f51905f529190611fa0611f7b611f55866122d4565b9361ffff60018060a01b03895416986001808060a01b0391015416945491541690611b82565b92604051938493845260208401525f6040840152608060608401526080830190611a31565b0390a35f52600c60205260405f2060018060a01b03815416906001808060a01b0391015416906040519064e8d4a50fff82525f60208301527f4018fd83a0e35efa249d6a65521926b6d539972216ff5ff37c83f1309b7c24fb60403093a4565b839150611cc6565b606460405162461bcd60e51b815260206004820152602060248201527f426c6f636b6861736820657870697265642c2075736520726566756e644265746044820152fd5b63433835b360e11b5f5260045ffd5b5060ff600382015460c01c16611c77565b8115612076570490565b634e487b7160e01b5f52601260045260245ffd5b94939290925f9260018060a01b03165f52600660205260405f2054958660801c9081156119c05761ffff956120be9161241b565b95169283156119b1576120d9846001600160801b039261206c565b97168710908115612255575b50611998576120f38461247a565b604051602081019182526020815261210c604082611b29565b519020946003546064870611156121eb5761212682611bad565b955f935b61ffff8516848110156121e05788879160405160208101906121628161193f8c8a8690929161ffff6020916040840195845216910152565b51902060326064600160ff6121815f9860208082518301019101612461565b16149206108091036121c0575b936121af92611d976001959361ffff975f146121b85760ff5f5b1692611bdf565b9501169361212a565b60ff876121a8565b915091508460011b90858204600214861517156118c95790918a9161218e565b509695945050505050565b5093505060ff61220682602080600195518301019101612461565b160361224c5760ff5f5b1661221a83611bad565b925f5b61ffff8116828110156122435761ffff918461223b60019389611bdf565b52011661221d565b505050505f9190565b60ff6001612210565b905086115f6120e5565b5f1981146118c95760010190565b6014821015611bf35701905f90565b9390859360a0969361ffff926001808a1b03168752602087015216604085015260806060850152816080850152848401375f828201840152601f01601f1916010190565b356001600160a01b03811681036118695790565b90815f52600e60205260405f20915f52600c60205261ffff600360405f2001541660ff61230082611bad565b9354161561233c5760ff5f5b16905f5b61ffff8116828110156123365761ffff918461232e60019389611bdf565b520116612310565b50505050565b60ff600161230c565b5f52600c60205260405f209060018060a01b03825416916001808060a01b0391015416916040519164e8d4a50fff835260208301527f4018fd83a0e35efa249d6a65521926b6d539972216ff5ff37c83f1309b7c24fb60403093a4565b929160646032915f955f52600e602052061060ff60405f2054161515036123c65750565b8091925060011b90808204600214901517156118c95790565b606460329106105f146123f0575f90565b600190565b5f546001600160a01b0316330361240857565b63118cdaa760e01b5f523360045260245ffd5b9190826040918101031261186957813560ff8116928382036118695760209150013561ffff81168103611869579160405190602082015260208152611c56604082611b29565b90816020910312611869575160ff811681036118695790565b60ff61249160019260208082518301019101612461565b161161249957565b6306fd144d60e11b5f5260045ffd5b600160ff6124c2611b6a9460208082518301019101612461565b161490604051916124d283611af1565b82525f52600e60205260405f209051151560ff80198354169115151617905556fe7b2b1318c7e6cfd4bbeac6266cea2762a843a90f923acf58b837c8dbe846af08a26469706673582212200529e968c21bd7f0d449de4aaa450d6f6835890784dbf32ac3f75b85ce6c2c0264736f6c634300081c0033",
  "linkReferences": {},
  "deployedLinkReferences": {},
  "immutableReferences": {},
  "inputSourceName": "project/contracts/flip/FlipGame.sol",
  "buildInfoId": "solc-0_8_28-9f339717e33f0d48e14ec649ba841d3d686ed930"
}