{
  "_format": "hh3-artifact-1",
  "contractName": "GameCredits",
  "sourceName": "contracts/base/GameCredits.sol",
  "abi": [
    {
      "inputs": [
        {
          "internalType": "address",
          "name": "_wildToken",
          "type": "address"
        }
      ],
      "stateMutability": "nonpayable",
      "type": "constructor"
    },
    {
      "inputs": [],
      "name": "InsufficientCredits",
      "type": "error"
    },
    {
      "inputs": [],
      "name": "NotAuthorizedGifter",
      "type": "error"
    },
    {
      "inputs": [],
      "name": "NotAuthorizedSpender",
      "type": "error"
    },
    {
      "inputs": [
        {
          "internalType": "address",
          "name": "owner",
          "type": "address"
        }
      ],
      "name": "OwnableInvalidOwner",
      "type": "error"
    },
    {
      "inputs": [
        {
          "internalType": "address",
          "name": "account",
          "type": "address"
        }
      ],
      "name": "OwnableUnauthorizedAccount",
      "type": "error"
    },
    {
      "inputs": [],
      "name": "TokenNotAllowed",
      "type": "error"
    },
    {
      "inputs": [],
      "name": "ZeroAmount",
      "type": "error"
    },
    {
      "anonymous": false,
      "inputs": [
        {
          "indexed": true,
          "internalType": "address",
          "name": "user",
          "type": "address"
        },
        {
          "indexed": false,
          "internalType": "uint256",
          "name": "amount",
          "type": "uint256"
        }
      ],
      "name": "CreditsGifted",
      "type": "event"
    },
    {
      "anonymous": false,
      "inputs": [
        {
          "indexed": true,
          "internalType": "address",
          "name": "user",
          "type": "address"
        },
        {
          "indexed": true,
          "internalType": "address",
          "name": "token",
          "type": "address"
        },
        {
          "indexed": false,
          "internalType": "uint256",
          "name": "tokenAmount",
          "type": "uint256"
        },
        {
          "indexed": false,
          "internalType": "uint256",
          "name": "creditsReceived",
          "type": "uint256"
        }
      ],
      "name": "CreditsPurchased",
      "type": "event"
    },
    {
      "anonymous": false,
      "inputs": [
        {
          "indexed": true,
          "internalType": "address",
          "name": "user",
          "type": "address"
        },
        {
          "indexed": false,
          "internalType": "uint256",
          "name": "amount",
          "type": "uint256"
        }
      ],
      "name": "CreditsSpent",
      "type": "event"
    },
    {
      "anonymous": false,
      "inputs": [
        {
          "indexed": true,
          "internalType": "address",
          "name": "gifter",
          "type": "address"
        },
        {
          "indexed": false,
          "internalType": "bool",
          "name": "allowed",
          "type": "bool"
        }
      ],
      "name": "GifterSet",
      "type": "event"
    },
    {
      "anonymous": false,
      "inputs": [
        {
          "indexed": true,
          "internalType": "address",
          "name": "previousOwner",
          "type": "address"
        },
        {
          "indexed": true,
          "internalType": "address",
          "name": "newOwner",
          "type": "address"
        }
      ],
      "name": "OwnershipTransferred",
      "type": "event"
    },
    {
      "anonymous": false,
      "inputs": [
        {
          "indexed": true,
          "internalType": "address",
          "name": "spender",
          "type": "address"
        },
        {
          "indexed": false,
          "internalType": "bool",
          "name": "allowed",
          "type": "bool"
        }
      ],
      "name": "SpenderSet",
      "type": "event"
    },
    {
      "anonymous": false,
      "inputs": [
        {
          "indexed": true,
          "internalType": "address",
          "name": "token",
          "type": "address"
        },
        {
          "indexed": false,
          "internalType": "uint256",
          "name": "ratio",
          "type": "uint256"
        },
        {
          "indexed": false,
          "internalType": "bool",
          "name": "allowed",
          "type": "bool"
        }
      ],
      "name": "TokenRatioSet",
      "type": "event"
    },
    {
      "inputs": [
        {
          "internalType": "address",
          "name": "",
          "type": "address"
        }
      ],
      "name": "allowedToken",
      "outputs": [
        {
          "internalType": "bool",
          "name": "",
          "type": "bool"
        }
      ],
      "stateMutability": "view",
      "type": "function"
    },
    {
      "inputs": [
        {
          "internalType": "address",
          "name": "",
          "type": "address"
        }
      ],
      "name": "authorizedGifters",
      "outputs": [
        {
          "internalType": "bool",
          "name": "",
          "type": "bool"
        }
      ],
      "stateMutability": "view",
      "type": "function"
    },
    {
      "inputs": [
        {
          "internalType": "address",
          "name": "",
          "type": "address"
        }
      ],
      "name": "authorizedSpenders",
      "outputs": [
        {
          "internalType": "bool",
          "name": "",
          "type": "bool"
        }
      ],
      "stateMutability": "view",
      "type": "function"
    },
    {
      "inputs": [
        {
          "internalType": "address",
          "name": "",
          "type": "address"
        }
      ],
      "name": "balanceOf",
      "outputs": [
        {
          "internalType": "uint256",
          "name": "",
          "type": "uint256"
        }
      ],
      "stateMutability": "view",
      "type": "function"
    },
    {
      "inputs": [
        {
          "internalType": "address[]",
          "name": "users",
          "type": "address[]"
        },
        {
          "internalType": "uint256[]",
          "name": "amounts",
          "type": "uint256[]"
        }
      ],
      "name": "batchGiftCredits",
      "outputs": [],
      "stateMutability": "nonpayable",
      "type": "function"
    },
    {
      "inputs": [
        {
          "internalType": "address",
          "name": "user",
          "type": "address"
        },
        {
          "internalType": "uint256",
          "name": "amount",
          "type": "uint256"
        }
      ],
      "name": "giftCredits",
      "outputs": [],
      "stateMutability": "nonpayable",
      "type": "function"
    },
    {
      "inputs": [],
      "name": "owner",
      "outputs": [
        {
          "internalType": "address",
          "name": "",
          "type": "address"
        }
      ],
      "stateMutability": "view",
      "type": "function"
    },
    {
      "inputs": [
        {
          "internalType": "address",
          "name": "token",
          "type": "address"
        },
        {
          "internalType": "uint256",
          "name": "amount",
          "type": "uint256"
        }
      ],
      "name": "purchaseCredits",
      "outputs": [],
      "stateMutability": "nonpayable",
      "type": "function"
    },
    {
      "inputs": [],
      "name": "renounceOwnership",
      "outputs": [],
      "stateMutability": "nonpayable",
      "type": "function"
    },
    {
      "inputs": [
        {
          "internalType": "address",
          "name": "gifter",
          "type": "address"
        },
        {
          "internalType": "bool",
          "name": "allowed",
          "type": "bool"
        }
      ],
      "name": "setGifter",
      "outputs": [],
      "stateMutability": "nonpayable",
      "type": "function"
    },
    {
      "inputs": [
        {
          "internalType": "address",
          "name": "spender",
          "type": "address"
        },
        {
          "internalType": "bool",
          "name": "allowed",
          "type": "bool"
        }
      ],
      "name": "setSpender",
      "outputs": [],
      "stateMutability": "nonpayable",
      "type": "function"
    },
    {
      "inputs": [
        {
          "internalType": "address",
          "name": "token",
          "type": "address"
        },
        {
          "internalType": "uint256",
          "name": "ratio",
          "type": "uint256"
        },
        {
          "internalType": "bool",
          "name": "allowed",
          "type": "bool"
        }
      ],
      "name": "setTokenRatio",
      "outputs": [],
      "stateMutability": "nonpayable",
      "type": "function"
    },
    {
      "inputs": [
        {
          "internalType": "address",
          "name": "_wildToken",
          "type": "address"
        }
      ],
      "name": "setWildToken",
      "outputs": [],
      "stateMutability": "nonpayable",
      "type": "function"
    },
    {
      "inputs": [
        {
          "internalType": "address",
          "name": "user",
          "type": "address"
        },
        {
          "internalType": "uint256",
          "name": "amount",
          "type": "uint256"
        }
      ],
      "name": "spendCredits",
      "outputs": [],
      "stateMutability": "nonpayable",
      "type": "function"
    },
    {
      "inputs": [
        {
          "internalType": "address",
          "name": "",
          "type": "address"
        }
      ],
      "name": "tokenRatio",
      "outputs": [
        {
          "internalType": "uint256",
          "name": "",
          "type": "uint256"
        }
      ],
      "stateMutability": "view",
      "type": "function"
    },
    {
      "inputs": [],
      "name": "totalCreditsGifted",
      "outputs": [
        {
          "internalType": "uint256",
          "name": "",
          "type": "uint256"
        }
      ],
      "stateMutability": "view",
      "type": "function"
    },
    {
      "inputs": [],
      "name": "totalCreditsPurchased",
      "outputs": [
        {
          "internalType": "uint256",
          "name": "",
          "type": "uint256"
        }
      ],
      "stateMutability": "view",
      "type": "function"
    },
    {
      "inputs": [
        {
          "internalType": "address",
          "name": "newOwner",
          "type": "address"
        }
      ],
      "name": "transferOwnership",
      "outputs": [],
      "stateMutability": "nonpayable",
      "type": "function"
    },
    {
      "inputs": [],
      "name": "wildToken",
      "outputs": [
        {
          "internalType": "contract IERC20",
          "name": "",
          "type": "address"
        }
      ],
      "stateMutability": "view",
      "type": "function"
    },
    {
      "inputs": [
        {
          "internalType": "address",
          "name": "token",
          "type": "address"
        },
        {
          "internalType": "uint256",
          "name": "amount",
          "type": "uint256"
        },
        {
          "internalType": "address",
          "name": "to",
          "type": "address"
        }
      ],
      "name": "withdrawTokens",
      "outputs": [],
      "stateMutability": "nonpayable",
      "type": "function"
    }
  ],
  "bytecode": "0x6080346100fd57601f610c8f38819003918201601f19168301916001600160401b03831184841017610101578084926020946040528339810103126100fd57516001600160a01b038116908190036100fd5733156100ea575f8054336001600160a01b0319821681178355604051939290916001600160a01b0316907f8be0079c531659141344cd1fd0a4f28419497f9722a3daafe3b4186f6b6457e09080a3600180546001600160a01b031916821781555f918252600460209081526040808420805460ff1916909317909255600390529020670de0b6b3a76400009055610b7990816101168239f35b631e4fbdf760e01b5f525f60045260245ffd5b5f80fd5b634e487b7160e01b5f52604160045260245ffdfe6080806040526004361015610012575f80fd5b5f3560e01c908163139e0aa714610911575080631434d2a2146108d95780632614d4a41461081157806330634bb8146107ce57806354b5f996146107915780635f370187146107745780636be3f3e0146106fd57806370a08231146106c5578063715018a61461066e578063756742f8146106315780638da5cb5b1461060a5780639aa94564146105e25780639bc5c50914610536578063a382e366146103bf578063be5b7b1a14610341578063c8b692bc14610324578063d2454e8d146102e7578063e38161f81461024d578063ee13434e146101815763f2fde38b146100f8575f80fd5b3461017d57602036600319011261017d57610111610a34565b610119610b1d565b6001600160a01b0316801561016a575f80546001600160a01b03198116831782556001600160a01b0316907f8be0079c531659141344cd1fd0a4f28419497f9722a3daafe3b4186f6b6457e09080a3005b631e4fbdf760e01b5f525f60045260245ffd5b5f80fd5b3461017d57604036600319011261017d5761019a610a34565b6024359060018060a01b035f541633141580610236575b6102275781156102185760207f21b49caf53975aea477c49da7b25ea243be8b4f91c6842306f61bcbcb0abcb2d9160018060a01b031692835f526002825260405f206101fe828254610ad8565b905561020c81600854610ad8565b600855604051908152a2005b631f2a200560e01b5f5260045ffd5b630fe0519b60e41b5f5260045ffd5b50335f52600660205260ff60405f205416156101b1565b3461017d57606036600319011261017d57610266610a34565b602435604435918215159182840361017d577f0e7d7341d1c81d4a714f13dd1e30cdb9c3b80058841d3ee8eb42ea25fc6e72c6926102da6040936102a8610b1d565b60018060a01b031695865f52600360205283855f2055865f526004602052845f209060ff801983541691151516179055565b82519182526020820152a2005b3461017d57602036600319011261017d576001600160a01b03610308610a34565b165f526005602052602060ff60405f2054166040519015158152f35b3461017d575f36600319011261017d576020600854604051908152f35b3461017d57604036600319011261017d5761035a610a34565b7fc6b0ff7458fe3269aca1e1e56815d335ac326cdef832137c3a9124716d2312776020610385610a4a565b9261038e610b1d565b6001600160a01b03165f8181526006835260409020805460ff191660ff86151516179055925b6040519015158152a2005b3461017d57604036600319011261017d5760043567ffffffffffffffff811161017d576103f0903690600401610a59565b60243567ffffffffffffffff811161017d57610410903690600401610a59565b9160018060a01b035f54163314158061051f575b610227578281036104e8575f5b81811061043a57005b806104486001928686610ae5565b35828060a01b0361046261045d84878b610ae5565b610b09565b165f52600260205261047960405f20918254610ad8565b9055610492610489828787610ae5565b35600854610ad8565b6008556104a361045d828589610ae5565b7f21b49caf53975aea477c49da7b25ea243be8b4f91c6842306f61bcbcb0abcb2d60206104d1848989610ae5565b3592604051938452858060a01b031692a201610431565b60405162461bcd60e51b815260206004820152600f60248201526e098cadccee8d040dad2e6dac2e8c6d608b1b6044820152606490fd5b50335f52600660205260ff60405f20541615610424565b3461017d57606036600319011261017d5761054f610a34565b6044356001600160a01b0381169081900361017d575f916044602092610573610b1d565b60405163a9059cbb60e01b8152600481019190915260248035908201529384928391906001600160a01b03165af180156105d7576105ad57005b6105ce9060203d6020116105d0575b6105c68183610a8a565b810190610ac0565b005b503d6105bc565b6040513d5f823e3d90fd5b3461017d575f36600319011261017d576001546040516001600160a01b039091168152602090f35b3461017d575f36600319011261017d575f546040516001600160a01b039091168152602090f35b3461017d57602036600319011261017d576001600160a01b03610652610a34565b165f526004602052602060ff60405f2054166040519015158152f35b3461017d575f36600319011261017d57610686610b1d565b5f80546001600160a01b0319811682556001600160a01b03167f8be0079c531659141344cd1fd0a4f28419497f9722a3daafe3b4186f6b6457e08280a3005b3461017d57602036600319011261017d576001600160a01b036106e6610a34565b165f526002602052602060405f2054604051908152f35b3461017d57604036600319011261017d57610716610a34565b7f6b14c1ca4e9dc885e4ff9df7d4cbed706210fcf77d063dae3780b8f5738333916020610741610a4a565b9261074a610b1d565b6001600160a01b03165f8181526005835260409020805460ff191660ff86151516179055926103b4565b3461017d575f36600319011261017d576020600754604051908152f35b3461017d57602036600319011261017d576001600160a01b036107b2610a34565b165f526006602052602060ff60405f2054166040519015158152f35b3461017d57602036600319011261017d576107e7610a34565b6107ef610b1d565b600180546001600160a01b0319166001600160a01b0392909216919091179055005b3461017d57604036600319011261017d5761082a610a34565b60243590335f52600560205260ff60405f205416156108ca5760018060a01b031690815f5260026020528060405f2054106108bb57815f52600260205260405f208054918083039283116108a7577fe86a822750c517391c8a6fbcc4aa4449d826751726a91720b700e837cd229ee69260209255604051908152a2005b634e487b7160e01b5f52601160045260245ffd5b6343fb945360e01b5f5260045ffd5b63410a762960e01b5f5260045ffd5b3461017d57602036600319011261017d576001600160a01b036108fa610a34565b165f526003602052602060405f2054604051908152f35b3461017d57604036600319011261017d5761092a610a34565b602435908115610218576001600160a01b03165f8181526004602052604090205490929060ff1615610a25576323b872dd60e01b8152336004820152306024820152604481018290526020816064815f875af180156105d757610a08575b50815f52600360205260405f205480820290828204036108a757670de0b6b3a76400009004335f52600260205260405f206109c4828254610ad8565b90556109d281600754610ad8565b60075560405191825260208201527fbac467b78f7491915861e842b67c54a3ab8a4d66cbb1c8cbf8bae4814f00e62260403392a3005b610a209060203d6020116105d0576105c68183610a8a565b610988565b63514e24c360e11b5f5260045ffd5b600435906001600160a01b038216820361017d57565b60243590811515820361017d57565b9181601f8401121561017d5782359167ffffffffffffffff831161017d576020808501948460051b01011161017d57565b90601f8019910116810190811067ffffffffffffffff821117610aac57604052565b634e487b7160e01b5f52604160045260245ffd5b9081602091031261017d5751801515810361017d5790565b919082018092116108a757565b9190811015610af55760051b0190565b634e487b7160e01b5f52603260045260245ffd5b356001600160a01b038116810361017d5790565b5f546001600160a01b03163303610b3057565b63118cdaa760e01b5f523360045260245ffdfea2646970667358221220b58bace785a482343cd2245a86ffcc10c010c63c53be138c42af7046edf554fb64736f6c634300081c0033",
  "linkReferences": {},
  "deployedLinkReferences": {},
  "immutableReferences": {},
  "inputSourceName": "project/contracts/base/GameCredits.sol",
  "buildInfoId": "solc-0_8_28-9d2f36296e2651f830a0645dbca7fac36ada935f"
}