{
  "_format": "hh3-artifact-1",
  "contractName": "GameRouter",
  "sourceName": "contracts/base/GameRouter.sol",
  "abi": [
    {
      "inputs": [
        {
          "internalType": "address",
          "name": "_treasury",
          "type": "address"
        },
        {
          "internalType": "address",
          "name": "_gameCredits",
          "type": "address"
        },
        {
          "internalType": "address",
          "name": "_wildToken",
          "type": "address"
        }
      ],
      "stateMutability": "nonpayable",
      "type": "constructor"
    },
    {
      "inputs": [],
      "name": "GameNotRegistered",
      "type": "error"
    },
    {
      "inputs": [],
      "name": "NoAuthorizedPlays",
      "type": "error"
    },
    {
      "inputs": [],
      "name": "NotAuthorizedCaller",
      "type": "error"
    },
    {
      "inputs": [
        {
          "internalType": "address",
          "name": "owner",
          "type": "address"
        }
      ],
      "name": "OwnableInvalidOwner",
      "type": "error"
    },
    {
      "inputs": [
        {
          "internalType": "address",
          "name": "account",
          "type": "address"
        }
      ],
      "name": "OwnableUnauthorizedAccount",
      "type": "error"
    },
    {
      "inputs": [],
      "name": "TokenNotAccepted",
      "type": "error"
    },
    {
      "inputs": [],
      "name": "ZeroAmount",
      "type": "error"
    },
    {
      "anonymous": false,
      "inputs": [
        {
          "indexed": true,
          "internalType": "address",
          "name": "game",
          "type": "address"
        },
        {
          "indexed": true,
          "internalType": "address",
          "name": "player",
          "type": "address"
        },
        {
          "indexed": false,
          "internalType": "address",
          "name": "token",
          "type": "address"
        },
        {
          "indexed": false,
          "internalType": "uint256",
          "name": "amount",
          "type": "uint256"
        },
        {
          "indexed": false,
          "internalType": "uint256",
          "name": "betId",
          "type": "uint256"
        }
      ],
      "name": "GamePlayed",
      "type": "event"
    },
    {
      "anonymous": false,
      "inputs": [
        {
          "indexed": true,
          "internalType": "address",
          "name": "game",
          "type": "address"
        },
        {
          "indexed": true,
          "internalType": "address",
          "name": "player",
          "type": "address"
        },
        {
          "indexed": false,
          "internalType": "address",
          "name": "token",
          "type": "address"
        },
        {
          "indexed": false,
          "internalType": "uint256",
          "name": "amount",
          "type": "uint256"
        },
        {
          "indexed": false,
          "internalType": "uint256",
          "name": "betId",
          "type": "uint256"
        },
        {
          "indexed": false,
          "internalType": "uint256",
          "name": "payout",
          "type": "uint256"
        }
      ],
      "name": "GamePlayedDelegated",
      "type": "event"
    },
    {
      "anonymous": false,
      "inputs": [
        {
          "indexed": true,
          "internalType": "address",
          "name": "game",
          "type": "address"
        },
        {
          "indexed": true,
          "internalType": "address",
          "name": "player",
          "type": "address"
        },
        {
          "indexed": false,
          "internalType": "uint256",
          "name": "creditAmount",
          "type": "uint256"
        },
        {
          "indexed": false,
          "internalType": "uint256",
          "name": "betId",
          "type": "uint256"
        }
      ],
      "name": "GamePlayedWithCredits",
      "type": "event"
    },
    {
      "anonymous": false,
      "inputs": [
        {
          "indexed": true,
          "internalType": "address",
          "name": "previousOwner",
          "type": "address"
        },
        {
          "indexed": true,
          "internalType": "address",
          "name": "newOwner",
          "type": "address"
        }
      ],
      "name": "OwnershipTransferred",
      "type": "event"
    },
    {
      "anonymous": false,
      "inputs": [
        {
          "indexed": true,
          "internalType": "address",
          "name": "player",
          "type": "address"
        },
        {
          "indexed": false,
          "internalType": "uint256",
          "name": "plays",
          "type": "uint256"
        }
      ],
      "name": "PlaysAuthorized",
      "type": "event"
    },
    {
      "anonymous": false,
      "inputs": [
        {
          "indexed": true,
          "internalType": "address",
          "name": "player",
          "type": "address"
        }
      ],
      "name": "PlaysRevoked",
      "type": "event"
    },
    {
      "anonymous": false,
      "inputs": [
        {
          "indexed": true,
          "internalType": "address",
          "name": "token",
          "type": "address"
        },
        {
          "indexed": false,
          "internalType": "bool",
          "name": "status",
          "type": "bool"
        }
      ],
      "name": "TokenAccepted",
      "type": "event"
    },
    {
      "inputs": [
        {
          "internalType": "address",
          "name": "",
          "type": "address"
        }
      ],
      "name": "acceptedTokens",
      "outputs": [
        {
          "internalType": "bool",
          "name": "",
          "type": "bool"
        }
      ],
      "stateMutability": "view",
      "type": "function"
    },
    {
      "inputs": [
        {
          "internalType": "uint256",
          "name": "plays",
          "type": "uint256"
        }
      ],
      "name": "authorizePlays",
      "outputs": [],
      "stateMutability": "nonpayable",
      "type": "function"
    },
    {
      "inputs": [
        {
          "internalType": "address",
          "name": "",
          "type": "address"
        }
      ],
      "name": "authorizedPlays",
      "outputs": [
        {
          "internalType": "uint256",
          "name": "",
          "type": "uint256"
        }
      ],
      "stateMutability": "view",
      "type": "function"
    },
    {
      "inputs": [
        {
          "internalType": "address",
          "name": "",
          "type": "address"
        }
      ],
      "name": "callers",
      "outputs": [
        {
          "internalType": "bool",
          "name": "",
          "type": "bool"
        }
      ],
      "stateMutability": "view",
      "type": "function"
    },
    {
      "inputs": [],
      "name": "gameCredits",
      "outputs": [
        {
          "internalType": "contract GameCredits",
          "name": "",
          "type": "address"
        }
      ],
      "stateMutability": "view",
      "type": "function"
    },
    {
      "inputs": [],
      "name": "owner",
      "outputs": [
        {
          "internalType": "address",
          "name": "",
          "type": "address"
        }
      ],
      "stateMutability": "view",
      "type": "function"
    },
    {
      "inputs": [
        {
          "internalType": "address",
          "name": "game",
          "type": "address"
        },
        {
          "internalType": "bytes",
          "name": "gameChoice",
          "type": "bytes"
        },
        {
          "internalType": "address",
          "name": "token",
          "type": "address"
        },
        {
          "internalType": "uint256",
          "name": "amount",
          "type": "uint256"
        }
      ],
      "name": "playGame",
      "outputs": [],
      "stateMutability": "nonpayable",
      "type": "function"
    },
    {
      "inputs": [
        {
          "internalType": "address",
          "name": "game",
          "type": "address"
        },
        {
          "internalType": "address",
          "name": "player",
          "type": "address"
        },
        {
          "internalType": "address",
          "name": "token",
          "type": "address"
        },
        {
          "internalType": "uint256",
          "name": "amount",
          "type": "uint256"
        },
        {
          "internalType": "bytes",
          "name": "gameChoice",
          "type": "bytes"
        },
        {
          "internalType": "uint256",
          "name": "seed",
          "type": "uint256"
        },
        {
          "internalType": "bool",
          "name": "useCredits",
          "type": "bool"
        }
      ],
      "name": "playGameDelegated",
      "outputs": [],
      "stateMutability": "nonpayable",
      "type": "function"
    },
    {
      "inputs": [
        {
          "internalType": "address",
          "name": "game",
          "type": "address"
        },
        {
          "internalType": "bytes",
          "name": "gameChoice",
          "type": "bytes"
        },
        {
          "internalType": "uint256",
          "name": "creditAmount",
          "type": "uint256"
        }
      ],
      "name": "playGameWithCredits",
      "outputs": [],
      "stateMutability": "nonpayable",
      "type": "function"
    },
    {
      "inputs": [
        {
          "internalType": "address",
          "name": "",
          "type": "address"
        }
      ],
      "name": "registeredGames",
      "outputs": [
        {
          "internalType": "bool",
          "name": "",
          "type": "bool"
        }
      ],
      "stateMutability": "view",
      "type": "function"
    },
    {
      "inputs": [],
      "name": "renounceOwnership",
      "outputs": [],
      "stateMutability": "nonpayable",
      "type": "function"
    },
    {
      "inputs": [],
      "name": "revokePlays",
      "outputs": [],
      "stateMutability": "nonpayable",
      "type": "function"
    },
    {
      "inputs": [
        {
          "internalType": "address",
          "name": "token",
          "type": "address"
        },
        {
          "internalType": "bool",
          "name": "status",
          "type": "bool"
        }
      ],
      "name": "setAcceptedToken",
      "outputs": [],
      "stateMutability": "nonpayable",
      "type": "function"
    },
    {
      "inputs": [
        {
          "internalType": "address",
          "name": "_caller",
          "type": "address"
        },
        {
          "internalType": "bool",
          "name": "_allowed",
          "type": "bool"
        }
      ],
      "name": "setCaller",
      "outputs": [],
      "stateMutability": "nonpayable",
      "type": "function"
    },
    {
      "inputs": [
        {
          "internalType": "address",
          "name": "game",
          "type": "address"
        },
        {
          "internalType": "bool",
          "name": "allowed",
          "type": "bool"
        }
      ],
      "name": "setGame",
      "outputs": [],
      "stateMutability": "nonpayable",
      "type": "function"
    },
    {
      "inputs": [
        {
          "internalType": "address",
          "name": "_gameCredits",
          "type": "address"
        }
      ],
      "name": "setGameCredits",
      "outputs": [],
      "stateMutability": "nonpayable",
      "type": "function"
    },
    {
      "inputs": [
        {
          "internalType": "address",
          "name": "_treasury",
          "type": "address"
        }
      ],
      "name": "setTreasury",
      "outputs": [],
      "stateMutability": "nonpayable",
      "type": "function"
    },
    {
      "inputs": [
        {
          "internalType": "address",
          "name": "_wildToken",
          "type": "address"
        }
      ],
      "name": "setWildToken",
      "outputs": [],
      "stateMutability": "nonpayable",
      "type": "function"
    },
    {
      "inputs": [
        {
          "internalType": "address",
          "name": "newOwner",
          "type": "address"
        }
      ],
      "name": "transferOwnership",
      "outputs": [],
      "stateMutability": "nonpayable",
      "type": "function"
    },
    {
      "inputs": [],
      "name": "treasury",
      "outputs": [
        {
          "internalType": "contract ITreasury",
          "name": "",
          "type": "address"
        }
      ],
      "stateMutability": "view",
      "type": "function"
    },
    {
      "inputs": [],
      "name": "wildToken",
      "outputs": [
        {
          "internalType": "address",
          "name": "",
          "type": "address"
        }
      ],
      "stateMutability": "view",
      "type": "function"
    }
  ],
  "bytecode": "0x60803461010c57601f6111df38819003918201601f19168301916001600160401b038311848410176101105780849260609460405283398101031261010c5761004781610124565b90610060604061005960208401610124565b9201610124565b9033156100f9575f8054336001600160a01b0319821681178355604051959290916001600160a01b0316907f8be0079c531659141344cd1fd0a4f28419497f9722a3daafe3b4186f6b6457e09080a3600180546001600160a01b03199081166001600160a01b0393841617909155600280548216938316939093179092556003805490921692169190911790556110a690816101398239f35b631e4fbdf760e01b5f525f60045260245ffd5b5f80fd5b634e487b7160e01b5f52604160045260245ffd5b51906001600160a01b038216820361010c5756fe6080806040526004361015610012575f80fd5b5f905f3560e01c9081631d18dee814610efd575080632668760e14610cc35780632a69bf1d14610c9a57806330634bb814610c5a578063330b27ba1461079657806361d027b31461076d57806367abfd8e146105c55780636a8354a4146105865780636f6fc28b1461054d578063715018a6146104f35780637bbf4a3f146104b457806382dc4a05146104755780638d0b42d8146104355780638da5cb5b1461040e5780638e92c664146103c75780639aa945641461039e5780639cae6eae1461034c578063b0836e2e146102f7578063c997dbca146101cd578063f0f442601461018d5763f2fde38b14610105575f80fd5b3461018a57602036600319011261018a5761011e610f49565b61012661104a565b6001600160a01b031680156101765781546001600160a01b03198116821783556001600160a01b03167f8be0079c531659141344cd1fd0a4f28419497f9722a3daafe3b4186f6b6457e08380a380f35b631e4fbdf760e01b82526004829052602482fd5b80fd5b503461018a57602036600319011261018a576101a7610f49565b6101af61104a565b60018060a01b03166001600160601b0360a01b600154161760015580f35b503461018a57604036600319011261018a576101e7610f49565b6101ef610fa3565b906101f861104a565b6001600160a01b0316808352600660205260408320805460ff191660ff841515161790559080610253575b60207f4830f50c82a3c08b91bf3770bf51afe49fb5fac668efd79737a514ba1a77d8ff916040519015158152a280f35b60015460405163095ea7b360e01b81526001600160a01b0390911660048201525f1960248201529060208260448187875af19081156102ec577f4830f50c82a3c08b91bf3770bf51afe49fb5fac668efd79737a514ba1a77d8ff926020926102bf575b50915050610223565b6102de90833d85116102e5575b6102d68183610fb2565b810190610fe8565b505f6102b6565b503d6102cc565b6040513d86823e3d90fd5b503461018a57604036600319011261018a57610349610314610f49565b61031c610fa3565b9061032561104a565b60018060a01b031683526004602052604083209060ff801983541691151516179055565b80f35b503461018a57604036600319011261018a57610349610369610f49565b610371610fa3565b9061037a61104a565b60018060a01b031683526005602052604083209060ff801983541691151516179055565b503461018a578060031936011261018a576003546040516001600160a01b039091168152602090f35b503461018a578060031936011261018a573381526007602052806040812055337ff7ee4dd374c85a300400cc16483bdb6c26196af2effd48c30fe1610da5a252b88280a280f35b503461018a578060031936011261018a57546040516001600160a01b039091168152602090f35b503461018a57602036600319011261018a5761044f610f49565b61045761104a565b60018060a01b03166001600160601b0360a01b600254161760025580f35b503461018a57602036600319011261018a5760209060ff906040906001600160a01b036104a0610f49565b168152600684522054166040519015158152f35b503461018a57602036600319011261018a5760209060ff906040906001600160a01b036104df610f49565b168152600584522054166040519015158152f35b503461018a578060031936011261018a5761050c61104a565b80546001600160a01b03198116825581906001600160a01b03167f8be0079c531659141344cd1fd0a4f28419497f9722a3daafe3b4186f6b6457e08280a380f35b503461018a57602036600319011261018a576020906040906001600160a01b03610575610f49565b168152600783522054604051908152f35b503461018a57602036600319011261018a5760209060ff906040906001600160a01b036105b1610f49565b168152600484522054166040519015158152f35b503461018a57606036600319011261018a576105df610f49565b60243567ffffffffffffffff8111610769576105ff903690600401610f75565b906044359260018060a01b031691828552600460205260ff6040862054161561075a57831561074b5760025485906001600160a01b0316803b1561074757604051630985352960e21b8152336004820152602481018790529082908290604490829084905af1801561073c57610723575b505060035460405163781355bf60e01b815292602092849283926106a49289926001600160a01b0316913360048701611000565b038187865af19081156102ec5784916106ed575b5060405192835260208301527f8277c87d23c3a59bd6498e7a0f3f9194378c8f8f70e8ce85442f6afa90bf4a0160403393a380f35b90506020813d60201161071b575b8161070860209383610fb2565b8101031261071757515f6106b8565b5f80fd5b3d91506106fb565b8161072d91610fb2565b61073857845f610670565b8480fd5b6040513d84823e3d90fd5b5080fd5b631f2a200560e01b8552600485fd5b63e1ed333d60e01b8552600485fd5b8280fd5b503461018a578060031936011261018a576001546040516001600160a01b039091168152602090f35b503461018a5760e036600319011261018a576107b0610f49565b6024356001600160a01b03811691828203610c56576107cd610f5f565b906064359160843567ffffffffffffffff8111610c52576107f2903690600401610f75565b9160c435801596871595868303610c4e57338b52600560205260ff60408c20541615610c3f576001600160a01b0316808b52600460205260408b205490989060ff1615610c30578715610c2157898b52600760205260408b205415610c1257898b52600760205260408b2080548015610bfe575f190190558a9015610b8f57506001600160a01b038316808b52600660205260408b205490919060ff1615610b80576040516323b872dd60e01b81526001600160a01b039190911660048201523060248201526044810188905290602090829060649082908e905af18015610b7557610b58575b5060015489906001600160a01b0316803b15610747576040516366168bd760e01b81526001600160a01b0385166004820152602481018990529082908290604490829084905af1801561073c57610b3f575b50505b15610b3957506003546001600160a01b0316915b60405160c0810181811067ffffffffffffffff821117610b255760405287815267ffffffffffffffff8211610b115790889392916040519261098e6020601f19601f8601160185610fb2565b8284523683820111610afa5760409486602085610104968295838a0137870101528183019485528583019060018060a01b031697888252606084018a81526080850191825260a085019260a43584528851998a9889976303abf75f60e01b89528760048a015260018060a01b0390511660248901525160c0604489015280519687918260e48b0152018989015e868601880152516001600160a01b0316606486015251608485015251151560a48401525160c4830152601f01601f1916810103018189885af1908115610b065786908792610aa5575b5090608092917fc0cacfa22ca07f1427f825a8f235ccbb3d73529105225b45a695d5026acb600f94604051938452602084015260408301526060820152a380f35b929150506040823d604011610afe575b81610ac260409383610fb2565b81010312610afa57815160209092015190917fc0cacfa22ca07f1427f825a8f235ccbb3d73529105225b45a695d5026acb600f610a64565b8580fd5b3d9150610ab5565b6040513d88823e3d90fd5b634e487b7160e01b89526041600452602489fd5b634e487b7160e01b8a52604160045260248afd5b91610942565b81610b4991610fb2565b610b5457885f61092b565b8880fd5b610b709060203d6020116102e5576102d68183610fb2565b6108d9565b6040513d8c823e3d90fd5b63e51cf7bf60e01b8b5260048bfd5b6002549091906001600160a01b0316803b1561076957604051630985352960e21b81526001600160a01b039290921660048301526024820189905282908290604490829084905af1801561073c57610be9575b505061092e565b81610bf391610fb2565b610b5457885f610be2565b634e487b7160e01b8d52601160045260248dfd5b633d79daab60e11b8b5260048bfd5b631f2a200560e01b8b5260048bfd5b63e1ed333d60e01b8b5260048bfd5b637046c88d60e01b8b5260048bfd5b8a80fd5b8680fd5b8380fd5b503461018a57602036600319011261018a57610c74610f49565b610c7c61104a565b60018060a01b03166001600160601b0360a01b600354161760035580f35b503461018a578060031936011261018a576002546040516001600160a01b039091168152602090f35b503461071757608036600319011261071757610cdd610f49565b60243567ffffffffffffffff811161071757610cfd903690600401610f75565b9091610d07610f5f565b6001600160a01b039091165f8181526004602052604090205490926064359160ff1615610eee576001600160a01b0383165f8181526006602052604090205490959060ff1615610edf578215610ed0576040516323b872dd60e01b8152336004820152306024820152604481018490526020816064815f8b5af18015610ea857610eb3575b506001546001600160a01b0316803b15610717576040516366168bd760e01b81526001600160a01b038616600482015260248101859052905f908290604490829084905af18015610ea857610e8f575b5060405163d1f156d760e01b81529360209285928392610e029287923360048701611000565b038188875af1918215610e84578592610e50575b50604051938452602084015260408301527fe1b222a868e63b681a8f671c88788facf4f1e47e66961134db77aa380a18ceab60603393a380f35b9091506020813d602011610e7c575b81610e6c60209383610fb2565b810103126107175751905f610e16565b3d9150610e5f565b6040513d87823e3d90fd5b6020929197505f610e9f91610fb2565b5f969091610ddc565b6040513d5f823e3d90fd5b610ecb9060203d6020116102e5576102d68183610fb2565b610d8c565b631f2a200560e01b5f5260045ffd5b63e51cf7bf60e01b5f5260045ffd5b63e1ed333d60e01b5f5260045ffd5b3461071757602036600319011261071757600435335f5260076020528060405f205581527f821b2d2a4a1e8c4cde9616ffebf0f23fa1024ec2b7cd5bf1bcd0a45e8449600360203392a2005b600435906001600160a01b038216820361071757565b604435906001600160a01b038216820361071757565b9181601f840112156107175782359167ffffffffffffffff8311610717576020838186019501011161071757565b60243590811515820361071757565b90601f8019910116810190811067ffffffffffffffff821117610fd457604052565b634e487b7160e01b5f52604160045260245ffd5b90816020910312610717575180151581036107175790565b91928060609460a09398979698600180861b0316855260806020860152816080860152838501375f828285010152601f80199101168201019460018060a01b031660408201520152565b5f546001600160a01b0316330361105d57565b63118cdaa760e01b5f523360045260245ffdfea2646970667358221220c6a92b34420b192487d67a6721d4bd3a76bd635bf582799cd955f9ea54bf9a1d64736f6c634300081c0033",
  "linkReferences": {},
  "deployedLinkReferences": {},
  "immutableReferences": {},
  "inputSourceName": "project/contracts/base/GameRouter.sol",
  "buildInfoId": "solc-0_8_28-2f564910bb6e363fcead372b74b19a98494e34d6"
}