{
  "_format": "hh3-artifact-1",
  "contractName": "GameRouter",
  "sourceName": "contracts/base/GameRouter.sol",
  "abi": [
    {
      "inputs": [
        {
          "internalType": "address",
          "name": "_treasury",
          "type": "address"
        },
        {
          "internalType": "address",
          "name": "_gameCredits",
          "type": "address"
        },
        {
          "internalType": "address",
          "name": "_wildToken",
          "type": "address"
        }
      ],
      "stateMutability": "nonpayable",
      "type": "constructor"
    },
    {
      "inputs": [],
      "name": "GameNotRegistered",
      "type": "error"
    },
    {
      "inputs": [],
      "name": "NoAuthorizedPlays",
      "type": "error"
    },
    {
      "inputs": [],
      "name": "NotAuthorizedCaller",
      "type": "error"
    },
    {
      "inputs": [
        {
          "internalType": "address",
          "name": "owner",
          "type": "address"
        }
      ],
      "name": "OwnableInvalidOwner",
      "type": "error"
    },
    {
      "inputs": [
        {
          "internalType": "address",
          "name": "account",
          "type": "address"
        }
      ],
      "name": "OwnableUnauthorizedAccount",
      "type": "error"
    },
    {
      "inputs": [],
      "name": "TokenNotAccepted",
      "type": "error"
    },
    {
      "inputs": [],
      "name": "ZeroAmount",
      "type": "error"
    },
    {
      "anonymous": false,
      "inputs": [
        {
          "indexed": true,
          "internalType": "address",
          "name": "game",
          "type": "address"
        },
        {
          "indexed": true,
          "internalType": "address",
          "name": "player",
          "type": "address"
        },
        {
          "indexed": false,
          "internalType": "address",
          "name": "token",
          "type": "address"
        },
        {
          "indexed": false,
          "internalType": "uint256",
          "name": "amount",
          "type": "uint256"
        },
        {
          "indexed": false,
          "internalType": "uint256",
          "name": "betId",
          "type": "uint256"
        }
      ],
      "name": "GamePlayed",
      "type": "event"
    },
    {
      "anonymous": false,
      "inputs": [
        {
          "indexed": true,
          "internalType": "bytes32",
          "name": "playCode",
          "type": "bytes32"
        },
        {
          "indexed": true,
          "internalType": "address",
          "name": "game",
          "type": "address"
        },
        {
          "indexed": true,
          "internalType": "address",
          "name": "player",
          "type": "address"
        },
        {
          "indexed": false,
          "internalType": "address",
          "name": "token",
          "type": "address"
        },
        {
          "indexed": false,
          "internalType": "uint256",
          "name": "amount",
          "type": "uint256"
        },
        {
          "indexed": false,
          "internalType": "uint256",
          "name": "betId",
          "type": "uint256"
        },
        {
          "indexed": false,
          "internalType": "uint256",
          "name": "payout",
          "type": "uint256"
        }
      ],
      "name": "GamePlayedDelegated",
      "type": "event"
    },
    {
      "anonymous": false,
      "inputs": [
        {
          "indexed": true,
          "internalType": "address",
          "name": "game",
          "type": "address"
        },
        {
          "indexed": true,
          "internalType": "address",
          "name": "player",
          "type": "address"
        },
        {
          "indexed": false,
          "internalType": "uint256",
          "name": "creditAmount",
          "type": "uint256"
        },
        {
          "indexed": false,
          "internalType": "uint256",
          "name": "betId",
          "type": "uint256"
        }
      ],
      "name": "GamePlayedWithCredits",
      "type": "event"
    },
    {
      "anonymous": false,
      "inputs": [
        {
          "indexed": true,
          "internalType": "address",
          "name": "previousOwner",
          "type": "address"
        },
        {
          "indexed": true,
          "internalType": "address",
          "name": "newOwner",
          "type": "address"
        }
      ],
      "name": "OwnershipTransferred",
      "type": "event"
    },
    {
      "anonymous": false,
      "inputs": [
        {
          "indexed": true,
          "internalType": "address",
          "name": "player",
          "type": "address"
        },
        {
          "indexed": false,
          "internalType": "uint256",
          "name": "plays",
          "type": "uint256"
        }
      ],
      "name": "PlaysAuthorized",
      "type": "event"
    },
    {
      "anonymous": false,
      "inputs": [
        {
          "indexed": true,
          "internalType": "address",
          "name": "player",
          "type": "address"
        }
      ],
      "name": "PlaysRevoked",
      "type": "event"
    },
    {
      "anonymous": false,
      "inputs": [
        {
          "indexed": true,
          "internalType": "address",
          "name": "token",
          "type": "address"
        },
        {
          "indexed": false,
          "internalType": "bool",
          "name": "status",
          "type": "bool"
        }
      ],
      "name": "TokenAccepted",
      "type": "event"
    },
    {
      "inputs": [
        {
          "internalType": "address",
          "name": "",
          "type": "address"
        }
      ],
      "name": "acceptedTokens",
      "outputs": [
        {
          "internalType": "bool",
          "name": "",
          "type": "bool"
        }
      ],
      "stateMutability": "view",
      "type": "function"
    },
    {
      "inputs": [
        {
          "internalType": "uint256",
          "name": "plays",
          "type": "uint256"
        }
      ],
      "name": "authorizePlays",
      "outputs": [],
      "stateMutability": "nonpayable",
      "type": "function"
    },
    {
      "inputs": [
        {
          "internalType": "address",
          "name": "",
          "type": "address"
        }
      ],
      "name": "authorizedPlays",
      "outputs": [
        {
          "internalType": "uint256",
          "name": "",
          "type": "uint256"
        }
      ],
      "stateMutability": "view",
      "type": "function"
    },
    {
      "inputs": [
        {
          "internalType": "address",
          "name": "",
          "type": "address"
        }
      ],
      "name": "callers",
      "outputs": [
        {
          "internalType": "bool",
          "name": "",
          "type": "bool"
        }
      ],
      "stateMutability": "view",
      "type": "function"
    },
    {
      "inputs": [],
      "name": "gameCredits",
      "outputs": [
        {
          "internalType": "contract GameCredits",
          "name": "",
          "type": "address"
        }
      ],
      "stateMutability": "view",
      "type": "function"
    },
    {
      "inputs": [],
      "name": "jackpotVault",
      "outputs": [
        {
          "internalType": "contract IJackpotVault",
          "name": "",
          "type": "address"
        }
      ],
      "stateMutability": "view",
      "type": "function"
    },
    {
      "inputs": [],
      "name": "owner",
      "outputs": [
        {
          "internalType": "address",
          "name": "",
          "type": "address"
        }
      ],
      "stateMutability": "view",
      "type": "function"
    },
    {
      "inputs": [
        {
          "internalType": "address",
          "name": "game",
          "type": "address"
        },
        {
          "internalType": "bytes",
          "name": "gameChoice",
          "type": "bytes"
        },
        {
          "internalType": "address",
          "name": "token",
          "type": "address"
        },
        {
          "internalType": "uint256",
          "name": "amount",
          "type": "uint256"
        },
        {
          "internalType": "address",
          "name": "referrer",
          "type": "address"
        }
      ],
      "name": "playGame",
      "outputs": [],
      "stateMutability": "nonpayable",
      "type": "function"
    },
    {
      "inputs": [
        {
          "internalType": "address",
          "name": "game",
          "type": "address"
        },
        {
          "internalType": "address",
          "name": "player",
          "type": "address"
        },
        {
          "internalType": "address",
          "name": "token",
          "type": "address"
        },
        {
          "internalType": "uint256",
          "name": "amount",
          "type": "uint256"
        },
        {
          "internalType": "bytes",
          "name": "gameChoice",
          "type": "bytes"
        },
        {
          "internalType": "uint256",
          "name": "seed",
          "type": "uint256"
        },
        {
          "internalType": "bool",
          "name": "useCredits",
          "type": "bool"
        },
        {
          "internalType": "bytes32",
          "name": "playCode",
          "type": "bytes32"
        },
        {
          "internalType": "address",
          "name": "referrer",
          "type": "address"
        }
      ],
      "name": "playGameDelegated",
      "outputs": [],
      "stateMutability": "nonpayable",
      "type": "function"
    },
    {
      "inputs": [
        {
          "internalType": "address",
          "name": "game",
          "type": "address"
        },
        {
          "internalType": "bytes",
          "name": "gameChoice",
          "type": "bytes"
        },
        {
          "internalType": "uint256",
          "name": "creditAmount",
          "type": "uint256"
        },
        {
          "internalType": "address",
          "name": "referrer",
          "type": "address"
        }
      ],
      "name": "playGameWithCredits",
      "outputs": [],
      "stateMutability": "nonpayable",
      "type": "function"
    },
    {
      "inputs": [
        {
          "internalType": "address",
          "name": "game",
          "type": "address"
        },
        {
          "internalType": "bytes",
          "name": "gameChoice",
          "type": "bytes"
        },
        {
          "internalType": "address",
          "name": "token",
          "type": "address"
        },
        {
          "internalType": "uint256",
          "name": "amount",
          "type": "uint256"
        },
        {
          "internalType": "uint256",
          "name": "seed",
          "type": "uint256"
        },
        {
          "internalType": "bool",
          "name": "useCredits",
          "type": "bool"
        }
      ],
      "name": "previewGame",
      "outputs": [
        {
          "internalType": "uint256",
          "name": "payout",
          "type": "uint256"
        },
        {
          "internalType": "uint256[]",
          "name": "outcomes",
          "type": "uint256[]"
        }
      ],
      "stateMutability": "view",
      "type": "function"
    },
    {
      "inputs": [],
      "name": "referalLogic",
      "outputs": [
        {
          "internalType": "contract IReferalLogic",
          "name": "",
          "type": "address"
        }
      ],
      "stateMutability": "view",
      "type": "function"
    },
    {
      "inputs": [
        {
          "internalType": "address",
          "name": "",
          "type": "address"
        }
      ],
      "name": "registeredGames",
      "outputs": [
        {
          "internalType": "bool",
          "name": "",
          "type": "bool"
        }
      ],
      "stateMutability": "view",
      "type": "function"
    },
    {
      "inputs": [],
      "name": "renounceOwnership",
      "outputs": [],
      "stateMutability": "nonpayable",
      "type": "function"
    },
    {
      "inputs": [],
      "name": "revokePlays",
      "outputs": [],
      "stateMutability": "nonpayable",
      "type": "function"
    },
    {
      "inputs": [
        {
          "internalType": "address",
          "name": "token",
          "type": "address"
        },
        {
          "internalType": "bool",
          "name": "status",
          "type": "bool"
        }
      ],
      "name": "setAcceptedToken",
      "outputs": [],
      "stateMutability": "nonpayable",
      "type": "function"
    },
    {
      "inputs": [
        {
          "internalType": "address",
          "name": "_caller",
          "type": "address"
        },
        {
          "internalType": "bool",
          "name": "_allowed",
          "type": "bool"
        }
      ],
      "name": "setCaller",
      "outputs": [],
      "stateMutability": "nonpayable",
      "type": "function"
    },
    {
      "inputs": [
        {
          "internalType": "address",
          "name": "game",
          "type": "address"
        },
        {
          "internalType": "bool",
          "name": "allowed",
          "type": "bool"
        }
      ],
      "name": "setGame",
      "outputs": [],
      "stateMutability": "nonpayable",
      "type": "function"
    },
    {
      "inputs": [
        {
          "internalType": "address",
          "name": "_gameCredits",
          "type": "address"
        }
      ],
      "name": "setGameCredits",
      "outputs": [],
      "stateMutability": "nonpayable",
      "type": "function"
    },
    {
      "inputs": [
        {
          "internalType": "address",
          "name": "_jackpotVault",
          "type": "address"
        }
      ],
      "name": "setJackpotVault",
      "outputs": [],
      "stateMutability": "nonpayable",
      "type": "function"
    },
    {
      "inputs": [
        {
          "internalType": "address",
          "name": "_referalLogic",
          "type": "address"
        }
      ],
      "name": "setReferalLogic",
      "outputs": [],
      "stateMutability": "nonpayable",
      "type": "function"
    },
    {
      "inputs": [
        {
          "internalType": "address",
          "name": "_treasury",
          "type": "address"
        }
      ],
      "name": "setTreasury",
      "outputs": [],
      "stateMutability": "nonpayable",
      "type": "function"
    },
    {
      "inputs": [
        {
          "internalType": "address",
          "name": "_wildToken",
          "type": "address"
        }
      ],
      "name": "setWildToken",
      "outputs": [],
      "stateMutability": "nonpayable",
      "type": "function"
    },
    {
      "inputs": [
        {
          "internalType": "address",
          "name": "newOwner",
          "type": "address"
        }
      ],
      "name": "transferOwnership",
      "outputs": [],
      "stateMutability": "nonpayable",
      "type": "function"
    },
    {
      "inputs": [],
      "name": "treasury",
      "outputs": [
        {
          "internalType": "contract ITreasury",
          "name": "",
          "type": "address"
        }
      ],
      "stateMutability": "view",
      "type": "function"
    },
    {
      "inputs": [],
      "name": "wildToken",
      "outputs": [
        {
          "internalType": "address",
          "name": "",
          "type": "address"
        }
      ],
      "stateMutability": "view",
      "type": "function"
    }
  ],
  "bytecode": "0x60803461010c57601f6116e638819003918201601f19168301916001600160401b038311848410176101105780849260609460405283398101031261010c5761004781610124565b90610060604061005960208401610124565b9201610124565b9033156100f9575f8054336001600160a01b0319821681178355604051959290916001600160a01b0316907f8be0079c531659141344cd1fd0a4f28419497f9722a3daafe3b4186f6b6457e09080a3600180546001600160a01b03199081166001600160a01b0393841617909155600280548216938316939093179092556005805490921692169190911790556115ad90816101398239f35b631e4fbdf760e01b5f525f60045260245ffd5b5f80fd5b634e487b7160e01b5f52604160045260245ffd5b51906001600160a01b038216820361010c5756fe6080806040526004361015610012575f80fd5b5f905f3560e01c9081631a95ea0b14611152575080631d18dee8146111025780632a69bf1d146110da57806330634bb8146110975780634454a9b11461106f578063454530011461102c57806345f421cd14610e3d57806361d027b314610e145780636a8354a414610dd55780636f6fc28b14610d9c578063715018a614610d425780637bbf4a3f14610d0357806382dc4a0514610cc45780638d0b42d814610c845780638da5cb5b14610c5d5780638e92c66414610c165780639aa9456414610bed5780639cae6eae14610b9b578063a8bdc66214610b72578063b0836e2e14610b1d578063c20b7c9114610655578063c997dbca146104e0578063ef17f00614610244578063f0f4426014610204578063f2fde38b1461017e5763fd284c4a1461013c575f80fd5b3461017b57602036600319011261017b57610155611382565b61015d611480565b60018060a01b03166001600160601b0360a01b600354161760035580f35b80fd5b503461017b57602036600319011261017b57610198611382565b6101a0611480565b6001600160a01b031680156101f05781546001600160a01b03198116821783556001600160a01b03167f8be0079c531659141344cd1fd0a4f28419497f9722a3daafe3b4186f6b6457e08380a380f35b631e4fbdf760e01b82526004829052602482fd5b503461017b57602036600319011261017b5761021e611382565b610226611480565b60018060a01b03166001600160601b0360a01b600154161760015580f35b503461017b5760a036600319011261017b5761025e611382565b60243567ffffffffffffffff81116104dc5761027e9036906004016113ae565b9190610288611398565b608435929091606435916001600160a01b03851685036104d8576001600160a01b03168087526006602052604087205490949060ff16156104c9576001600160a01b0384168088526008602052604088205490969060ff16156104ba5783156104ab576040516323b872dd60e01b8152336004820152306024820152604481018590526020816064818c8c5af180156104a057610473575b506001546001600160a01b03169288843b1561017b576040516366168bd760e01b81526001600160a01b0388166004820152602481018790529481908690604490829084905af1948515610466578795610445575b505060405163d1f156d760e01b8152956020928792839261039c928992336004870161142d565b03818a895af193841561043a578794610400575b50816103c28492836103c795336114a6565b611520565b604051938452602084015260408301527fe1b222a868e63b681a8f671c88788facf4f1e47e66961134db77aa380a18ceab60603393a380f35b9093506020813d602011610432575b8161041c602093836113eb565b8101031261042e5751926103c76103b0565b5f80fd5b3d915061040f565b6040513d89823e3d90fd5b819293955090610454916113eb565b61046257918492885f610375565b8780fd5b50604051903d90823e3d90fd5b6104949060203d602011610499575b61048c81836113eb565b810190611468565b610320565b503d610482565b6040513d8b823e3d90fd5b631f2a200560e01b8852600488fd5b63e51cf7bf60e01b8852600488fd5b63e1ed333d60e01b8752600487fd5b8680fd5b8280fd5b503461017b57604036600319011261017b576104fa611382565b6105026113dc565b9061050b611480565b6001600160a01b0316808352600860205260408320805460ff191660ff841515161790559080156105cf5760015460405163095ea7b360e01b81526001600160a01b0390911660048201525f1960248201529060208260448187875af19081156105c4577f4830f50c82a3c08b91bf3770bf51afe49fb5fac668efd79737a514ba1a77d8ff926020926105a7575b505b6040519015158152a280f35b6105bd90833d85116104995761048c81836113eb565b505f610599565b6040513d86823e3d90fd5b60015460405163095ea7b360e01b81526001600160a01b039091166004820152602481018490529060208260448187875af19081156105c4577f4830f50c82a3c08b91bf3770bf51afe49fb5fac668efd79737a514ba1a77d8ff92602092610638575b5061059b565b61064e90833d85116104995761048c81836113eb565b505f610632565b503461017b5761012036600319011261017b57610670611382565b6024356001600160a01b03811691828203610b195761068d611398565b9160643560843567ffffffffffffffff81116104d8576106b19036906004016113ae565b9360c43594851596871596878103610a0e5761010435936001600160a01b0385168503610b1557338c52600760205260ff60408d20541615610b06576001600160a01b0316808c52600660205260408c205490999060ff1615610af7578615610ae8578a8c52600960205260408c205415610ad9578a8c52600960205260408c2080548015610ac5575f1901905515610a58576001600160a01b038216808c52600860205260408c205460ff1615610a49576040516323b872dd60e01b81526001600160a01b038916600482015230602482015260448101889052906020908290818f816064810103925af18015610a3e57610a21575b506001548b906001600160a01b0316803b15610a1d576040516366168bd760e01b81526001600160a01b0385166004820152602481018990529082908290604490829084905af18015610a12576109f9575b50505b156109f357506005546001600160a01b0316925b6040519060c0820182811067ffffffffffffffff8211176109df5760405289825267ffffffffffffffff83116109cb57908a9594939291604051916108606020601f19601f87011601846113eb565b8383523684830111610462578760208560409661010495838801378501015260208101928352602084820160018060a01b0388169b8c8252606084018a81526080850191825260a085019260a435845288519c8d9889976303abf75f60e01b89528760048a015260018060a01b0390511660248901525160c0604489015280519687918260e48b0152018989015e868601880152516001600160a01b0316606486015251608485015251151560a48401525160c4830152601f01601f191681010301818c8b5af19485156104a05789948a96610989575b50916103c284928383610949966114a6565b6040519384526020840152604083015260608201527f2e14fb682695209cbd7b6bb2a95a7aedbb286ba05df112668e1ca2e10bc0fd2e608060e43592a480f35b945094506040843d6040116109c3575b816109a6604093836113eb565b810103126109bf578351602090940151946103c2610937565b8880fd5b3d9150610999565b634e487b7160e01b8b52604160045260248bfd5b634e487b7160e01b8c52604160045260248cfd5b92610811565b81610a03916113eb565b610a0e578a5f6107fa565b8a80fd5b6040513d84823e3d90fd5b5080fd5b610a399060203d6020116104995761048c81836113eb565b6107a8565b6040513d8e823e3d90fd5b63e51cf7bf60e01b8c5260048cfd5b6002548b906001600160a01b0316803b15610a1d57604051630985352960e21b81526001600160a01b038a166004820152602481018990529082908290604490829084905af18015610a1257610ab0575b50506107fd565b81610aba916113eb565b610a0e578a5f610aa9565b634e487b7160e01b8e52601160045260248efd5b633d79daab60e11b8c5260048cfd5b631f2a200560e01b8c5260048cfd5b63e1ed333d60e01b8c5260048cfd5b637046c88d60e01b8c5260048cfd5b8b80fd5b8380fd5b503461017b57604036600319011261017b57610b6f610b3a611382565b610b426113dc565b90610b4b611480565b60018060a01b031683526006602052604083209060ff801983541691151516179055565b80f35b503461017b578060031936011261017b576003546040516001600160a01b039091168152602090f35b503461017b57604036600319011261017b57610b6f610bb8611382565b610bc06113dc565b90610bc9611480565b60018060a01b031683526007602052604083209060ff801983541691151516179055565b503461017b578060031936011261017b576005546040516001600160a01b039091168152602090f35b503461017b578060031936011261017b573381526009602052806040812055337ff7ee4dd374c85a300400cc16483bdb6c26196af2effd48c30fe1610da5a252b88280a280f35b503461017b578060031936011261017b57546040516001600160a01b039091168152602090f35b503461017b57602036600319011261017b57610c9e611382565b610ca6611480565b60018060a01b03166001600160601b0360a01b600254161760025580f35b503461017b57602036600319011261017b5760209060ff906040906001600160a01b03610cef611382565b168152600884522054166040519015158152f35b503461017b57602036600319011261017b5760209060ff906040906001600160a01b03610d2e611382565b168152600784522054166040519015158152f35b503461017b578060031936011261017b57610d5b611480565b80546001600160a01b03198116825581906001600160a01b03167f8be0079c531659141344cd1fd0a4f28419497f9722a3daafe3b4186f6b6457e08280a380f35b503461017b57602036600319011261017b576020906040906001600160a01b03610dc4611382565b168152600983522054604051908152f35b503461017b57602036600319011261017b5760209060ff906040906001600160a01b03610e00611382565b168152600684522054166040519015158152f35b503461017b578060031936011261017b576001546040516001600160a01b039091168152602090f35b503461042e57608036600319011261042e57610e57611382565b60243567ffffffffffffffff811161042e57610e779036906004016113ae565b60443592909190606435906001600160a01b038216820361042e576001600160a01b03165f8181526006602052604090205490939060ff161561101d57841561100e576002546001600160a01b0316803b1561042e57604051630985352960e21b815233600482015260248101879052905f908290604490829084905af1801561100357610fed575b5060055460405163781355bf60e01b81529360209285928392610f33928a926001600160a01b031691336004870161142d565b038188875af1918215610fe2578592610fac575b50600554610f61919085906001600160a01b0316336114a6565b600554610f789084906001600160a01b0316611520565b60405192835260208301527f8277c87d23c3a59bd6498e7a0f3f9194378c8f8f70e8ce85442f6afa90bf4a0160403393a380f35b9091506020813d602011610fda575b81610fc8602093836113eb565b8101031261042e575190610f61610f47565b3d9150610fbb565b6040513d87823e3d90fd5b610ffa9196505f906113eb565b5f946020610f00565b6040513d5f823e3d90fd5b631f2a200560e01b5f5260045ffd5b63e1ed333d60e01b5f5260045ffd5b3461042e57602036600319011261042e57611045611382565b61104d611480565b600480546001600160a01b0319166001600160a01b0392909216919091179055005b3461042e575f36600319011261042e576004546040516001600160a01b039091168152602090f35b3461042e57602036600319011261042e576110b0611382565b6110b8611480565b600580546001600160a01b0319166001600160a01b0392909216919091179055005b3461042e575f36600319011261042e576002546040516001600160a01b039091168152602090f35b3461042e57602036600319011261042e57600435335f5260096020528060405f20556040519081527f821b2d2a4a1e8c4cde9616ffebf0f23fa1024ec2b7cd5bf1bcd0a45e8449600360203392a2005b3461042e5760c036600319011261042e5761116b611382565b60243567ffffffffffffffff811161042e5761118b9036906004016113ae565b9091611195611398565b926064359360a435938415938415860361042e576001600160a01b03165f8181526006602052604090205490949060ff161561101d57861561100e5780611360575b611351575f95879586948594611216921561134b57506005546001600160a01b0316935b636e156a3b60e01b865260806004870152608486019161140d565b6001600160a01b0390921660248401526044830152608435606483015203915afa8015611003575f915f91611293575b5090604051918291604083019083526040602084015281518091526020606084019201905f5b81811061127a575050500390f35b825184528594506020938401939092019160010161126c565b9150503d805f833e6112a581836113eb565b81019060408183031261042e5780519060208101519067ffffffffffffffff821161042e57019180601f8401121561042e5782519267ffffffffffffffff8411611337578360051b90604051946112ff60208401876113eb565b855260208086019282010192831161042e57602001905b828210611327575050509082611246565b8151815260209182019101611316565b634e487b7160e01b5f52604160045260245ffd5b936111fb565b63e51cf7bf60e01b5f5260045ffd5b506001600160a01b0382165f9081526008602052604090205460ff16156111d7565b600435906001600160a01b038216820361042e57565b604435906001600160a01b038216820361042e57565b9181601f8401121561042e5782359167ffffffffffffffff831161042e576020838186019501011161042e57565b60243590811515820361042e57565b90601f8019910116810190811067ffffffffffffffff82111761133757604052565b908060209392818452848401375f828201840152601f01601f1916010190565b91606093611454929796959760018060a01b0316845260806020850152608084019161140d565b6001600160a01b0390951660408201520152565b9081602091031261042e5751801515810361042e5790565b5f546001600160a01b0316330361149357565b63118cdaa760e01b5f523360045260245ffd5b6003549293926001600160a01b031690811561151957813b1561042e576040516333719a1560e11b81526001600160a01b039182166004820152928116602484015260448301949094529190921660648301525f908290608490829084905af161150d5750565b5f611517916113eb565b565b5050505050565b6004546001600160a01b031691821561157257823b1561042e57604051638418cd9960e01b81526001600160a01b039290921660048301526024820152905f908290604490829084905af161150d5750565b50505056fea26469706673582212208f0a677469cd56ee45292852150883510c7c8c2b11ca50da14792a01305a299e64736f6c634300081c0033",
  "linkReferences": {},
  "deployedLinkReferences": {},
  "immutableReferences": {},
  "inputSourceName": "project/contracts/base/GameRouter.sol",
  "buildInfoId": "solc-0_8_28-9d2f36296e2651f830a0645dbca7fac36ada935f"
}