{
    "_format": "hh3-artifact-1",
    "contractName": "ReferalLogicV1",
    "sourceName": "contracts/referals/ReferalLogic.sol",
    "abi": [
        {
            "inputs": [
                {
                    "internalType": "address",
                    "name": "_registry",
                    "type": "address"
                },
                {
                    "internalType": "uint256",
                    "name": "_baseUSD",
                    "type": "uint256"
                }
            ],
            "stateMutability": "nonpayable",
            "type": "constructor"
        },
        {
            "inputs": [],
            "name": "BaseUSDZero",
            "type": "error"
        },
        {
            "inputs": [],
            "name": "NotAuthorizedCaller",
            "type": "error"
        },
        {
            "inputs": [
                {
                    "internalType": "address",
                    "name": "owner",
                    "type": "address"
                }
            ],
            "name": "OwnableInvalidOwner",
            "type": "error"
        },
        {
            "inputs": [
                {
                    "internalType": "address",
                    "name": "account",
                    "type": "address"
                }
            ],
            "name": "OwnableUnauthorizedAccount",
            "type": "error"
        },
        {
            "anonymous": false,
            "inputs": [
                {
                    "indexed": false,
                    "internalType": "uint256",
                    "name": "baseUSD",
                    "type": "uint256"
                }
            ],
            "name": "BaseUSDSet",
            "type": "event"
        },
        {
            "anonymous": false,
            "inputs": [
                {
                    "indexed": true,
                    "internalType": "address",
                    "name": "player",
                    "type": "address"
                },
                {
                    "indexed": true,
                    "internalType": "address",
                    "name": "referrer",
                    "type": "address"
                },
                {
                    "indexed": true,
                    "internalType": "address",
                    "name": "token",
                    "type": "address"
                },
                {
                    "indexed": false,
                    "internalType": "uint256",
                    "name": "betAmount",
                    "type": "uint256"
                },
                {
                    "indexed": false,
                    "internalType": "uint256",
                    "name": "rewardAmount",
                    "type": "uint256"
                }
            ],
            "name": "BetRecorded",
            "type": "event"
        },
        {
            "anonymous": false,
            "inputs": [
                {
                    "indexed": true,
                    "internalType": "address",
                    "name": "caller",
                    "type": "address"
                },
                {
                    "indexed": false,
                    "internalType": "bool",
                    "name": "allowed",
                    "type": "bool"
                }
            ],
            "name": "CallerSet",
            "type": "event"
        },
        {
            "anonymous": false,
            "inputs": [
                {
                    "indexed": true,
                    "internalType": "address",
                    "name": "referrer",
                    "type": "address"
                },
                {
                    "indexed": false,
                    "internalType": "uint8",
                    "name": "newLevel",
                    "type": "uint8"
                },
                {
                    "indexed": false,
                    "internalType": "uint256",
                    "name": "weekVolume",
                    "type": "uint256"
                }
            ],
            "name": "LevelUpdated",
            "type": "event"
        },
        {
            "anonymous": false,
            "inputs": [
                {
                    "indexed": true,
                    "internalType": "address",
                    "name": "previousOwner",
                    "type": "address"
                },
                {
                    "indexed": true,
                    "internalType": "address",
                    "name": "newOwner",
                    "type": "address"
                }
            ],
            "name": "OwnershipTransferred",
            "type": "event"
        },
        {
            "anonymous": false,
            "inputs": [
                {
                    "indexed": true,
                    "internalType": "address",
                    "name": "referrer",
                    "type": "address"
                },
                {
                    "indexed": false,
                    "internalType": "uint8",
                    "name": "level",
                    "type": "uint8"
                }
            ],
            "name": "ReferrerInitialized",
            "type": "event"
        },
        {
            "anonymous": false,
            "inputs": [
                {
                    "indexed": true,
                    "internalType": "address",
                    "name": "token",
                    "type": "address"
                },
                {
                    "indexed": false,
                    "internalType": "uint256",
                    "name": "priceUSD",
                    "type": "uint256"
                }
            ],
            "name": "TokenPriceSet",
            "type": "event"
        },
        {
            "inputs": [],
            "name": "BPS_DENOMINATOR",
            "outputs": [
                {
                    "internalType": "uint256",
                    "name": "",
                    "type": "uint256"
                }
            ],
            "stateMutability": "view",
            "type": "function"
        },
        {
            "inputs": [],
            "name": "BPS_PER_LEVEL",
            "outputs": [
                {
                    "internalType": "uint256",
                    "name": "",
                    "type": "uint256"
                }
            ],
            "stateMutability": "view",
            "type": "function"
        },
        {
            "inputs": [],
            "name": "MAX_LEVEL",
            "outputs": [
                {
                    "internalType": "uint8",
                    "name": "",
                    "type": "uint8"
                }
            ],
            "stateMutability": "view",
            "type": "function"
        },
        {
            "inputs": [],
            "name": "MIN_LEVEL",
            "outputs": [
                {
                    "internalType": "uint8",
                    "name": "",
                    "type": "uint8"
                }
            ],
            "stateMutability": "view",
            "type": "function"
        },
        {
            "inputs": [],
            "name": "PRICE_DECIMALS",
            "outputs": [
                {
                    "internalType": "uint256",
                    "name": "",
                    "type": "uint256"
                }
            ],
            "stateMutability": "view",
            "type": "function"
        },
        {
            "inputs": [],
            "name": "WEEK",
            "outputs": [
                {
                    "internalType": "uint256",
                    "name": "",
                    "type": "uint256"
                }
            ],
            "stateMutability": "view",
            "type": "function"
        },
        {
            "inputs": [
                {
                    "internalType": "address",
                    "name": "",
                    "type": "address"
                }
            ],
            "name": "authorizedCallers",
            "outputs": [
                {
                    "internalType": "bool",
                    "name": "",
                    "type": "bool"
                }
            ],
            "stateMutability": "view",
            "type": "function"
        },
        {
            "inputs": [],
            "name": "baseUSD",
            "outputs": [
                {
                    "internalType": "uint256",
                    "name": "",
                    "type": "uint256"
                }
            ],
            "stateMutability": "view",
            "type": "function"
        },
        {
            "inputs": [
                {
                    "internalType": "address",
                    "name": "",
                    "type": "address"
                }
            ],
            "name": "currentWeekVolume",
            "outputs": [
                {
                    "internalType": "uint256",
                    "name": "",
                    "type": "uint256"
                }
            ],
            "stateMutability": "view",
            "type": "function"
        },
        {
            "inputs": [
                {
                    "internalType": "address",
                    "name": "",
                    "type": "address"
                }
            ],
            "name": "lastEvaluationWeek",
            "outputs": [
                {
                    "internalType": "uint256",
                    "name": "",
                    "type": "uint256"
                }
            ],
            "stateMutability": "view",
            "type": "function"
        },
        {
            "inputs": [
                {
                    "internalType": "uint8",
                    "name": "level",
                    "type": "uint8"
                }
            ],
            "name": "levelThreshold",
            "outputs": [
                {
                    "internalType": "uint256",
                    "name": "",
                    "type": "uint256"
                }
            ],
            "stateMutability": "view",
            "type": "function"
        },
        {
            "inputs": [
                {
                    "internalType": "uint8",
                    "name": "level",
                    "type": "uint8"
                }
            ],
            "name": "levelToBps",
            "outputs": [
                {
                    "internalType": "uint256",
                    "name": "",
                    "type": "uint256"
                }
            ],
            "stateMutability": "pure",
            "type": "function"
        },
        {
            "inputs": [
                {
                    "internalType": "address",
                    "name": "player",
                    "type": "address"
                },
                {
                    "internalType": "address",
                    "name": "token",
                    "type": "address"
                },
                {
                    "internalType": "uint256",
                    "name": "betAmount",
                    "type": "uint256"
                },
                {
                    "internalType": "address",
                    "name": "referrer",
                    "type": "address"
                }
            ],
            "name": "onBet",
            "outputs": [],
            "stateMutability": "nonpayable",
            "type": "function"
        },
        {
            "inputs": [],
            "name": "owner",
            "outputs": [
                {
                    "internalType": "address",
                    "name": "",
                    "type": "address"
                }
            ],
            "stateMutability": "view",
            "type": "function"
        },
        {
            "inputs": [
                {
                    "internalType": "address",
                    "name": "",
                    "type": "address"
                }
            ],
            "name": "referrerLevel",
            "outputs": [
                {
                    "internalType": "uint8",
                    "name": "",
                    "type": "uint8"
                }
            ],
            "stateMutability": "view",
            "type": "function"
        },
        {
            "inputs": [],
            "name": "registry",
            "outputs": [
                {
                    "internalType": "contract IReferalRegistry",
                    "name": "",
                    "type": "address"
                }
            ],
            "stateMutability": "view",
            "type": "function"
        },
        {
            "inputs": [],
            "name": "renounceOwnership",
            "outputs": [],
            "stateMutability": "nonpayable",
            "type": "function"
        },
        {
            "inputs": [
                {
                    "internalType": "uint256",
                    "name": "_baseUSD",
                    "type": "uint256"
                }
            ],
            "name": "setBaseUSD",
            "outputs": [],
            "stateMutability": "nonpayable",
            "type": "function"
        },
        {
            "inputs": [
                {
                    "internalType": "address",
                    "name": "caller",
                    "type": "address"
                },
                {
                    "internalType": "bool",
                    "name": "allowed",
                    "type": "bool"
                }
            ],
            "name": "setCaller",
            "outputs": [],
            "stateMutability": "nonpayable",
            "type": "function"
        },
        {
            "inputs": [
                {
                    "internalType": "address",
                    "name": "_registry",
                    "type": "address"
                }
            ],
            "name": "setRegistry",
            "outputs": [],
            "stateMutability": "nonpayable",
            "type": "function"
        },
        {
            "inputs": [
                {
                    "internalType": "address",
                    "name": "token",
                    "type": "address"
                },
                {
                    "internalType": "uint256",
                    "name": "priceUSD",
                    "type": "uint256"
                }
            ],
            "name": "setTokenPrice",
            "outputs": [],
            "stateMutability": "nonpayable",
            "type": "function"
        },
        {
            "inputs": [
                {
                    "internalType": "address[]",
                    "name": "tokens",
                    "type": "address[]"
                },
                {
                    "internalType": "uint256[]",
                    "name": "prices",
                    "type": "uint256[]"
                }
            ],
            "name": "setTokenPrices",
            "outputs": [],
            "stateMutability": "nonpayable",
            "type": "function"
        },
        {
            "inputs": [
                {
                    "internalType": "address",
                    "name": "",
                    "type": "address"
                }
            ],
            "name": "tokenPriceUSD",
            "outputs": [
                {
                    "internalType": "uint256",
                    "name": "",
                    "type": "uint256"
                }
            ],
            "stateMutability": "view",
            "type": "function"
        },
        {
            "inputs": [
                {
                    "internalType": "address",
                    "name": "newOwner",
                    "type": "address"
                }
            ],
            "name": "transferOwnership",
            "outputs": [],
            "stateMutability": "nonpayable",
            "type": "function"
        }
    ],
    "bytecode": "0x6080346100ef57601f610f5738819003918201601f19168301916001600160401b038311848410176100f35780849260409485528339810103126100ef5780516001600160a01b03811691908290036100ef576020015133156100dc575f8054336001600160a01b0319821681178355604051949290916001600160a01b0316907f8be0079c531659141344cd1fd0a4f28419497f9722a3daafe3b4186f6b6457e09080a381156100cd57600180546001600160a01b031916919091179055600255610e4f90816101088239f35b6302848c6f60e51b5f5260045ffd5b631e4fbdf760e01b5f525f60045260245ffd5b5f80fd5b634e487b7160e01b5f52604160045260245ffdfe6080806040526004361015610012575f80fd5b5f3560e01c908163178c180e146107b55750806330a069af1461078057806334bfd2ea1461071e578063431f63c9146106b4578063536fff6c14610677578063603b5d321461054c57806366e3342a146104d8578063715018a6146104815780637b103999146104595780637f5ba2451461043e578063876b4787146104035780638a985b02146103cb5780638da5cb5b146103a45780639cae6eae14610327578063a49062d41461030c578063a5c2d01b146102d4578063a91ee0dc14610291578063bd60b83f14610276578063be590d8614610225578063e1a4521814610209578063f1a640f8146101e7578063f2fde38b14610162578063f4359ce5146101455763f73c62dc14610124575f80fd5b34610141575f366003190112610141576020600254604051908152f35b5f80fd5b34610141575f36600319011261014157602060405162093a808152f35b346101415760203660031901126101415761017b6107e9565b610183610dd3565b6001600160a01b031680156101d4575f80546001600160a01b03198116831782556001600160a01b0316907f8be0079c531659141344cd1fd0a4f28419497f9722a3daafe3b4186f6b6457e09080a3005b631e4fbdf760e01b5f525f60045260245ffd5b34610141575f366003190112610141576020604051670de0b6b3a76400008152f35b34610141575f3660031901126101415760206040516127108152f35b346101415760203660031901126101415760043560ff811680910361014157600a810290808204600a149015171561026257602090604051908152f35b634e487b7160e01b5f52601160045260245ffd5b34610141575f36600319011261014157602060405160018152f35b34610141576020366003190112610141576102aa6107e9565b6102b2610dd3565b600180546001600160a01b0319166001600160a01b0392909216919091179055005b34610141576020366003190112610141576001600160a01b036102f56107e9565b165f526005602052602060405f2054604051908152f35b34610141575f36600319011261014157602060405160058152f35b34610141576040366003190112610141576103406107e9565b602435908115158092036101415760207fa49dcb99ff1593e316d0955614d970424bf97f34f406b6b75297ddb7e315b7db9161037a610dd3565b60018060a01b031692835f526007825260405f2060ff1981541660ff8316179055604051908152a2005b34610141575f366003190112610141575f546040516001600160a01b039091168152602090f35b34610141576020366003190112610141576001600160a01b036103ec6107e9565b165f526006602052602060405f2054604051908152f35b34610141576020366003190112610141576001600160a01b036104246107e9565b165f526004602052602060ff60405f205416604051908152f35b34610141575f366003190112610141576020604051600a8152f35b34610141575f366003190112610141576001546040516001600160a01b039091168152602090f35b34610141575f36600319011261014157610499610dd3565b5f80546001600160a01b0319811682556001600160a01b03167f8be0079c531659141344cd1fd0a4f28419497f9722a3daafe3b4186f6b6457e08280a3005b34610141576080366003190112610141576104f16107e9565b602435906001600160a01b038216820361014157606435906001600160a01b038216820361014157335f52600760205260ff60405f2054161561053d5761053b92604435916108b1565b005b637046c88d60e01b5f5260045ffd5b346101415760403660031901126101415760043567ffffffffffffffff81116101415761057d9036906004016107ff565b60243567ffffffffffffffff81116101415761059d9036906004016107ff565b916105a6610dd3565b828103610640575f5b8181106105b857005b806105c66001928686610843565b35828060a01b036105e06105db84878b610843565b610867565b165f52600360205260405f20556105fb6105db828589610843565b7f7fa0e112e5801d5b0fbd79c812915f0ab2461b234234b9c64a7efd9a25c6abb66020610629848989610843565b3592604051938452858060a01b031692a2016105af565b60405162461bcd60e51b815260206004820152600f60248201526e0d8cadccee8d040dad2e6dac2e8c6d608b1b6044820152606490fd5b34610141576020366003190112610141576001600160a01b036106986107e9565b165f526007602052602060ff60405f2054166040519015158152f35b34610141576040366003190112610141576106cd6107e9565b7f7fa0e112e5801d5b0fbd79c812915f0ab2461b234234b9c64a7efd9a25c6abb66020602435926106fc610dd3565b6001600160a01b03165f818152600383526040908190208590555193845292a2005b346101415760203660031901126101415760043561073a610dd3565b8015610771576020817f7952ece6ded5245285364c1d730afed842037f7ae8e854fee8df06a783d731e292600255604051908152a1005b6302848c6f60e51b5f5260045ffd5b346101415760203660031901126101415760043560ff8116809103610141576107ad602091600254610830565b604051908152f35b34610141576020366003190112610141576020906001600160a01b036107d96107e9565b165f526003825260405f20548152f35b600435906001600160a01b038216820361014157565b9181601f840112156101415782359167ffffffffffffffff8311610141576020808501948460051b01011161014157565b8181029291811591840414171561026257565b91908110156108535760051b0190565b634e487b7160e01b5f52603260045260245ffd5b356001600160a01b03811681036101415790565b90601f8019910116810190811067ffffffffffffffff82111761089d57604052565b634e487b7160e01b5f52604160045260245ffd5b60015460405163c2eb5dfb60e01b81526001600160a01b03928316600482018190525f969495909490939092169190602081602481865afa908115610d8d575f91610d98575b5015610ca2575b505060015460405163d21cacdf60e01b81526004810184905290602090829060249082906001600160a01b03165afa908115610c97578591610c51575b506001600160a01b0316928315610c4a5762093a804204848652600660205260408620548111610ae1575b506001600160a01b03168085526003602052604085205490949080610a9a575b50838152600460205260ff6040822054168015610a92575b60ff6109ab911683610830565b600a810290808204600a1490151715610a7e57612710900490816109d2575b505050505050565b6001546001600160a01b0316803b15610a7a57818091606460405180948193630654861d60e11b83528b60048401528c60248401528860448401525af18015610a6f57610a57575b50507fef23e27a4b9dd956dc8622f12944d8a04057cfe1d412cddf6fa635095873a4be9160409182519182526020820152a45f80808080806109ca565b610a6282809261087b565b610a6c5780610a1a565b80fd5b6040513d84823e3d90fd5b5080fd5b634e487b7160e01b82526011600452602482fd5b50600161099e565b610aad670de0b6b3a76400009184610830565b048482526005602052604082208054918201809211610acd57555f610986565b634e487b7160e01b83526011600452602483fd5b8486526005602052604086205460025460058102811590828104600514821715610c365788939291908310610b6d57505060405f516020610dfa5f395f51905f52916005905b848b52600460205260ff838c209216918260ff1982541617905582519182526020820152a28486526005602052856040812055848652600660205260408620555f610966565b908092935060021b828104600414821715610c365788939291908310610ba857505060405f516020610dfa5f395f51905f5291600490610b27565b9091925060038202828104600314821715610c365788939291908310610be357505060405f516020610dfa5f395f51905f5291600390610b27565b908092935060011b9182046002141715610c225786915f516020610dfa5f395f51905f5291604091908110610c1a57600290610b27565b600190610b27565b634e487b7160e01b88526011600452602488fd5b634e487b7160e01b8a52601160045260248afd5b5050505050565b90506020813d602011610c8f575b81610c6c6020938361087b565b81010312610c8b57516001600160a01b0381168103610c8b575f61093b565b8480fd5b3d9150610c5f565b6040513d87823e3d90fd5b813b15610141575f8091604460405180948193632cf4b31560e01b835289600484015260018060a01b0316968760248401525af18015610d8d57610d78575b5080151580610d6e575b80610d57575b610cfc575b806108fe565b808552600460205260408520600560ff1982541617905562093a804204818652600660205260408620557fd3e3a4787f7daa680f41961fd0f80206440683720f6d9a84e819e058915f5715602060405160058152a25f610cf6565b50808552600460205260ff60408620541615610cf1565b5082811415610ceb565b610d859195505f9061087b565b5f935f610ce1565b6040513d5f823e3d90fd5b90506020813d602011610dcb575b81610db36020938361087b565b8101031261014157518015158103610141575f6108f7565b3d9150610da6565b5f546001600160a01b03163303610de657565b63118cdaa760e01b5f523360045260245ffdfedc2b59d4c0c43d33ce304234792bf0bb65f800769ddabd542aabbe5f248359a5a2646970667358221220f8b8845d316c3d445cf0f0923c487f0fddd09f2da627f70d5beeffd6ef579cd364736f6c634300081c0033",
    "linkReferences": {},
    "deployedLinkReferences": {},
    "immutableReferences": {},
    "inputSourceName": "project/contracts/referals/ReferalLogic.sol",
    "buildInfoId": "solc-0_8_28-9d2f36296e2651f830a0645dbca7fac36ada935f"
}