{
  "_format": "hh3-artifact-1",
  "contractName": "RPSGame",
  "sourceName": "contracts/rps/RPSGame.sol",
  "abi": [
    {
      "inputs": [
        {
          "internalType": "address",
          "name": "_treasury",
          "type": "address"
        }
      ],
      "stateMutability": "nonpayable",
      "type": "constructor"
    },
    {
      "inputs": [],
      "name": "BetAmountOutOfRange",
      "type": "error"
    },
    {
      "inputs": [],
      "name": "BetDoesNotExist",
      "type": "error"
    },
    {
      "inputs": [],
      "name": "BetNotPending",
      "type": "error"
    },
    {
      "inputs": [],
      "name": "GameNotLive",
      "type": "error"
    },
    {
      "inputs": [],
      "name": "InvalidBetCount",
      "type": "error"
    },
    {
      "inputs": [],
      "name": "NotAuthorizedCaller",
      "type": "error"
    },
    {
      "inputs": [
        {
          "internalType": "address",
          "name": "owner",
          "type": "address"
        }
      ],
      "name": "OwnableInvalidOwner",
      "type": "error"
    },
    {
      "inputs": [
        {
          "internalType": "address",
          "name": "account",
          "type": "address"
        }
      ],
      "name": "OwnableUnauthorizedAccount",
      "type": "error"
    },
    {
      "inputs": [],
      "name": "PlayerHasPendingBet",
      "type": "error"
    },
    {
      "inputs": [],
      "name": "RefundTooEarly",
      "type": "error"
    },
    {
      "inputs": [],
      "name": "TokenNotConfigured",
      "type": "error"
    },
    {
      "anonymous": false,
      "inputs": [
        {
          "indexed": true,
          "internalType": "uint256",
          "name": "betId",
          "type": "uint256"
        },
        {
          "indexed": true,
          "internalType": "address",
          "name": "player",
          "type": "address"
        },
        {
          "indexed": false,
          "internalType": "address",
          "name": "token",
          "type": "address"
        },
        {
          "indexed": false,
          "internalType": "uint256",
          "name": "amount",
          "type": "uint256"
        },
        {
          "indexed": false,
          "internalType": "uint16",
          "name": "betCount",
          "type": "uint16"
        },
        {
          "indexed": false,
          "internalType": "bytes",
          "name": "gameChoice",
          "type": "bytes"
        }
      ],
      "name": "BetPlaced",
      "type": "event"
    },
    {
      "anonymous": false,
      "inputs": [
        {
          "indexed": true,
          "internalType": "uint256",
          "name": "betId",
          "type": "uint256"
        },
        {
          "indexed": true,
          "internalType": "address",
          "name": "player",
          "type": "address"
        },
        {
          "indexed": false,
          "internalType": "uint256",
          "name": "amount",
          "type": "uint256"
        },
        {
          "indexed": false,
          "internalType": "address",
          "name": "token",
          "type": "address"
        }
      ],
      "name": "BetRefunded",
      "type": "event"
    },
    {
      "anonymous": false,
      "inputs": [
        {
          "indexed": true,
          "internalType": "uint256",
          "name": "betId",
          "type": "uint256"
        },
        {
          "indexed": true,
          "internalType": "address",
          "name": "player",
          "type": "address"
        },
        {
          "indexed": false,
          "internalType": "address",
          "name": "token",
          "type": "address"
        },
        {
          "indexed": false,
          "internalType": "uint256",
          "name": "totalBetAmount",
          "type": "uint256"
        },
        {
          "indexed": false,
          "internalType": "uint256",
          "name": "payout",
          "type": "uint256"
        },
        {
          "indexed": false,
          "internalType": "uint256[]",
          "name": "outcomes",
          "type": "uint256[]"
        }
      ],
      "name": "BetSettled",
      "type": "event"
    },
    {
      "anonymous": false,
      "inputs": [
        {
          "indexed": true,
          "internalType": "address",
          "name": "previousOwner",
          "type": "address"
        },
        {
          "indexed": true,
          "internalType": "address",
          "name": "newOwner",
          "type": "address"
        }
      ],
      "name": "OwnershipTransferred",
      "type": "event"
    },
    {
      "anonymous": false,
      "inputs": [
        {
          "indexed": true,
          "internalType": "uint256",
          "name": "betId",
          "type": "uint256"
        },
        {
          "indexed": false,
          "internalType": "uint8",
          "name": "choice",
          "type": "uint8"
        },
        {
          "indexed": false,
          "internalType": "uint256[]",
          "name": "outcomes",
          "type": "uint256[]"
        },
        {
          "indexed": false,
          "internalType": "uint256",
          "name": "payout",
          "type": "uint256"
        }
      ],
      "name": "RPSRoll",
      "type": "event"
    },
    {
      "inputs": [
        {
          "internalType": "uint256",
          "name": "",
          "type": "uint256"
        }
      ],
      "name": "baseBets",
      "outputs": [
        {
          "internalType": "address",
          "name": "player",
          "type": "address"
        },
        {
          "internalType": "address",
          "name": "token",
          "type": "address"
        },
        {
          "internalType": "uint256",
          "name": "amount",
          "type": "uint256"
        },
        {
          "internalType": "uint16",
          "name": "betCount",
          "type": "uint16"
        },
        {
          "internalType": "uint176",
          "name": "placeBlockNumber",
          "type": "uint176"
        },
        {
          "internalType": "bool",
          "name": "resolved",
          "type": "bool"
        },
        {
          "internalType": "bool",
          "name": "isCreditBet",
          "type": "bool"
        },
        {
          "internalType": "uint256",
          "name": "payout",
          "type": "uint256"
        }
      ],
      "stateMutability": "view",
      "type": "function"
    },
    {
      "inputs": [
        {
          "internalType": "address",
          "name": "",
          "type": "address"
        }
      ],
      "name": "callers",
      "outputs": [
        {
          "internalType": "bool",
          "name": "",
          "type": "bool"
        }
      ],
      "stateMutability": "view",
      "type": "function"
    },
    {
      "inputs": [
        {
          "internalType": "uint8",
          "name": "side",
          "type": "uint8"
        },
        {
          "internalType": "uint16",
          "name": "betCount",
          "type": "uint16"
        }
      ],
      "name": "encodeGameChoice",
      "outputs": [
        {
          "internalType": "bytes",
          "name": "",
          "type": "bytes"
        }
      ],
      "stateMutability": "pure",
      "type": "function"
    },
    {
      "inputs": [],
      "name": "explosionRate",
      "outputs": [
        {
          "internalType": "uint256",
          "name": "",
          "type": "uint256"
        }
      ],
      "stateMutability": "view",
      "type": "function"
    },
    {
      "inputs": [],
      "name": "gameCredits",
      "outputs": [
        {
          "internalType": "contract GameCredits",
          "name": "",
          "type": "address"
        }
      ],
      "stateMutability": "view",
      "type": "function"
    },
    {
      "inputs": [],
      "name": "gameIsLive",
      "outputs": [
        {
          "internalType": "bool",
          "name": "",
          "type": "bool"
        }
      ],
      "stateMutability": "view",
      "type": "function"
    },
    {
      "inputs": [
        {
          "internalType": "address",
          "name": "player",
          "type": "address"
        }
      ],
      "name": "getPlayerInfo",
      "outputs": [
        {
          "components": [
            {
              "internalType": "uint32",
              "name": "totalBets",
              "type": "uint32"
            },
            {
              "internalType": "uint32",
              "name": "totalWins",
              "type": "uint32"
            },
            {
              "internalType": "uint256",
              "name": "totalInValue",
              "type": "uint256"
            },
            {
              "internalType": "uint256",
              "name": "totalOutValue",
              "type": "uint256"
            },
            {
              "internalType": "uint256[20]",
              "name": "lastBetIds",
              "type": "uint256[20]"
            },
            {
              "internalType": "uint8",
              "name": "lastBetIdx",
              "type": "uint8"
            }
          ],
          "internalType": "struct BaseGame.PlayerInfo",
          "name": "",
          "type": "tuple"
        }
      ],
      "stateMutability": "view",
      "type": "function"
    },
    {
      "inputs": [
        {
          "internalType": "uint256",
          "name": "betId",
          "type": "uint256"
        }
      ],
      "name": "getRPSBet",
      "outputs": [
        {
          "components": [
            {
              "internalType": "uint8",
              "name": "choice",
              "type": "uint8"
            }
          ],
          "internalType": "struct RPSGame.RPSBet",
          "name": "",
          "type": "tuple"
        }
      ],
      "stateMutability": "view",
      "type": "function"
    },
    {
      "inputs": [
        {
          "internalType": "address",
          "name": "player",
          "type": "address"
        }
      ],
      "name": "lastBets",
      "outputs": [
        {
          "internalType": "uint256[20]",
          "name": "ids",
          "type": "uint256[20]"
        },
        {
          "internalType": "uint8",
          "name": "idx",
          "type": "uint8"
        }
      ],
      "stateMutability": "view",
      "type": "function"
    },
    {
      "inputs": [],
      "name": "nextBetId",
      "outputs": [
        {
          "internalType": "uint256",
          "name": "",
          "type": "uint256"
        }
      ],
      "stateMutability": "view",
      "type": "function"
    },
    {
      "inputs": [],
      "name": "owner",
      "outputs": [
        {
          "internalType": "address",
          "name": "",
          "type": "address"
        }
      ],
      "stateMutability": "view",
      "type": "function"
    },
    {
      "inputs": [
        {
          "internalType": "address",
          "name": "",
          "type": "address"
        }
      ],
      "name": "pendingBetId",
      "outputs": [
        {
          "internalType": "uint256",
          "name": "",
          "type": "uint256"
        }
      ],
      "stateMutability": "view",
      "type": "function"
    },
    {
      "inputs": [
        {
          "components": [
            {
              "internalType": "address",
              "name": "player",
              "type": "address"
            },
            {
              "internalType": "bytes",
              "name": "gameChoice",
              "type": "bytes"
            },
            {
              "internalType": "address",
              "name": "token",
              "type": "address"
            },
            {
              "internalType": "uint256",
              "name": "amount",
              "type": "uint256"
            },
            {
              "internalType": "bool",
              "name": "isCreditBet",
              "type": "bool"
            },
            {
              "internalType": "uint256",
              "name": "seed",
              "type": "uint256"
            }
          ],
          "internalType": "struct IBaseGame.PlayParams",
          "name": "params",
          "type": "tuple"
        }
      ],
      "name": "playAndSettle",
      "outputs": [
        {
          "internalType": "uint256",
          "name": "betId",
          "type": "uint256"
        },
        {
          "internalType": "uint256",
          "name": "payout",
          "type": "uint256"
        }
      ],
      "stateMutability": "nonpayable",
      "type": "function"
    },
    {
      "inputs": [
        {
          "internalType": "address",
          "name": "player",
          "type": "address"
        },
        {
          "internalType": "bytes",
          "name": "gameChoice",
          "type": "bytes"
        },
        {
          "internalType": "address",
          "name": "token",
          "type": "address"
        },
        {
          "internalType": "uint256",
          "name": "amount",
          "type": "uint256"
        }
      ],
      "name": "playFromRouter",
      "outputs": [
        {
          "internalType": "uint256",
          "name": "betId",
          "type": "uint256"
        }
      ],
      "stateMutability": "nonpayable",
      "type": "function"
    },
    {
      "inputs": [
        {
          "internalType": "address",
          "name": "player",
          "type": "address"
        },
        {
          "internalType": "bytes",
          "name": "gameChoice",
          "type": "bytes"
        },
        {
          "internalType": "address",
          "name": "token",
          "type": "address"
        },
        {
          "internalType": "uint256",
          "name": "amount",
          "type": "uint256"
        }
      ],
      "name": "playFromRouterWithCredits",
      "outputs": [
        {
          "internalType": "uint256",
          "name": "betId",
          "type": "uint256"
        }
      ],
      "stateMutability": "nonpayable",
      "type": "function"
    },
    {
      "inputs": [
        {
          "internalType": "address",
          "name": "",
          "type": "address"
        }
      ],
      "name": "playerInfo",
      "outputs": [
        {
          "internalType": "uint32",
          "name": "totalBets",
          "type": "uint32"
        },
        {
          "internalType": "uint32",
          "name": "totalWins",
          "type": "uint32"
        },
        {
          "internalType": "uint256",
          "name": "totalInValue",
          "type": "uint256"
        },
        {
          "internalType": "uint256",
          "name": "totalOutValue",
          "type": "uint256"
        },
        {
          "internalType": "uint8",
          "name": "lastBetIdx",
          "type": "uint8"
        }
      ],
      "stateMutability": "view",
      "type": "function"
    },
    {
      "inputs": [
        {
          "internalType": "uint256",
          "name": "betId",
          "type": "uint256"
        }
      ],
      "name": "refundBet",
      "outputs": [],
      "stateMutability": "nonpayable",
      "type": "function"
    },
    {
      "inputs": [],
      "name": "renounceOwnership",
      "outputs": [],
      "stateMutability": "nonpayable",
      "type": "function"
    },
    {
      "inputs": [
        {
          "internalType": "uint256",
          "name": "",
          "type": "uint256"
        }
      ],
      "name": "rpsBets",
      "outputs": [
        {
          "internalType": "uint8",
          "name": "choice",
          "type": "uint8"
        }
      ],
      "stateMutability": "view",
      "type": "function"
    },
    {
      "inputs": [
        {
          "internalType": "address",
          "name": "_caller",
          "type": "address"
        },
        {
          "internalType": "bool",
          "name": "_allowed",
          "type": "bool"
        }
      ],
      "name": "setCaller",
      "outputs": [],
      "stateMutability": "nonpayable",
      "type": "function"
    },
    {
      "inputs": [
        {
          "internalType": "uint256",
          "name": "_explosionRate",
          "type": "uint256"
        }
      ],
      "name": "setExplosionRate",
      "outputs": [],
      "stateMutability": "nonpayable",
      "type": "function"
    },
    {
      "inputs": [
        {
          "internalType": "address",
          "name": "_gameCredits",
          "type": "address"
        }
      ],
      "name": "setGameCredits",
      "outputs": [],
      "stateMutability": "nonpayable",
      "type": "function"
    },
    {
      "inputs": [
        {
          "internalType": "address",
          "name": "token",
          "type": "address"
        },
        {
          "internalType": "uint128",
          "name": "minBet",
          "type": "uint128"
        },
        {
          "internalType": "uint128",
          "name": "maxBet",
          "type": "uint128"
        }
      ],
      "name": "setTokenConfig",
      "outputs": [],
      "stateMutability": "nonpayable",
      "type": "function"
    },
    {
      "inputs": [
        {
          "internalType": "address",
          "name": "_treasury",
          "type": "address"
        }
      ],
      "name": "setTreasury",
      "outputs": [],
      "stateMutability": "nonpayable",
      "type": "function"
    },
    {
      "inputs": [
        {
          "internalType": "uint256",
          "name": "betId",
          "type": "uint256"
        },
        {
          "internalType": "uint256",
          "name": "seed",
          "type": "uint256"
        }
      ],
      "name": "settleBet",
      "outputs": [],
      "stateMutability": "nonpayable",
      "type": "function"
    },
    {
      "inputs": [
        {
          "internalType": "address",
          "name": "",
          "type": "address"
        }
      ],
      "name": "supportedTokenInfo",
      "outputs": [
        {
          "internalType": "uint128",
          "name": "minBetAmount",
          "type": "uint128"
        },
        {
          "internalType": "uint128",
          "name": "maxBetAmount",
          "type": "uint128"
        }
      ],
      "stateMutability": "view",
      "type": "function"
    },
    {
      "inputs": [],
      "name": "toggleGameIsLive",
      "outputs": [],
      "stateMutability": "nonpayable",
      "type": "function"
    },
    {
      "inputs": [],
      "name": "totalBetsGlobal",
      "outputs": [
        {
          "internalType": "uint256",
          "name": "",
          "type": "uint256"
        }
      ],
      "stateMutability": "view",
      "type": "function"
    },
    {
      "inputs": [],
      "name": "totalValueGlobal",
      "outputs": [
        {
          "internalType": "uint256",
          "name": "",
          "type": "uint256"
        }
      ],
      "stateMutability": "view",
      "type": "function"
    },
    {
      "inputs": [
        {
          "internalType": "address",
          "name": "newOwner",
          "type": "address"
        }
      ],
      "name": "transferOwnership",
      "outputs": [],
      "stateMutability": "nonpayable",
      "type": "function"
    },
    {
      "inputs": [],
      "name": "treasury",
      "outputs": [
        {
          "internalType": "contract ITreasury",
          "name": "",
          "type": "address"
        }
      ],
      "stateMutability": "view",
      "type": "function"
    },
    {
      "inputs": [
        {
          "internalType": "address",
          "name": "beneficiary",
          "type": "address"
        },
        {
          "internalType": "uint256",
          "name": "amount",
          "type": "uint256"
        },
        {
          "internalType": "address",
          "name": "token",
          "type": "address"
        }
      ],
      "name": "withdrawCustomTokenFunds",
      "outputs": [],
      "stateMutability": "nonpayable",
      "type": "function"
    }
  ],
  "bytecode": "0x60803460d557601f6122e638819003918201601f19168301916001600160401b0383118484101760d95780849260209460405283398101031260d557516001600160a01b0381169081900360d557331560c2575f8054336001600160a01b0319821681178355604051939290916001600160a01b0316907f8be0079c531659141344cd1fd0a4f28419497f9722a3daafe3b4186f6b6457e09080a3600180546001600160a01b03191691909117815560085560046003556121f890816100ee8239f35b631e4fbdf760e01b5f525f60045260245ffd5b5f80fd5b634e487b7160e01b5f52604160045260245ffdfe60806040526004361015610011575f80fd5b5f5f3560e01c806303abf75f1461132057806307106f27146112945780630d2cbe131461124d578063145287d61461122f5780632a69bf1d146112065780634b114691146111965780634ea6321c1461114c57806358ee9c43146110915780635932840114610f6557806361d027b314610f3c578063715018a614610ee2578063781355bf14610cf25780637bbf4a3f14610cb357806381c8ec1b14610c9557806382364ae014610c685780638d0b42d814610c285780638da5cb5b14610c015780639aca279214610be35780639cae6eae14610b90578063a045a6fc14610b61578063a385cd4114610ac9578063b14c80091461096b578063b7dc575214610948578063c61a153f146108cb578063d1f156d71461058c578063d414d0c214610569578063e1fdb4b4146102e3578063e695c253146102c5578063e71381431461027b578063f0f442601461023b578063f2fde38b146101b55763f4efd8811461017a575f80fd5b346101b25760203660031901126101b2576020906040906001600160a01b036101a1611926565b168152600783522054604051908152f35b80fd5b50346101b25760203660031901126101b2576101cf611926565b6101d7612086565b6001600160a01b031680156102275781546001600160a01b03198116821783556001600160a01b03167f8be0079c531659141344cd1fd0a4f28419497f9722a3daafe3b4186f6b6457e08380a380f35b631e4fbdf760e01b82526004829052602482fd5b50346101b25760203660031901126101b257610255611926565b61025d612086565b60018060a01b03166001600160601b0360a01b600154161760015580f35b50346101b25760203660031901126101b25760409081906001600160a01b036102a2611926565b168152600660205220548151906001600160801b038116825260801c6020820152f35b50346101b257806003193601126101b2576020600a54604051908152f35b50346101b25760203660031901126101b257600435610300612086565b808252600b602052604082209060028201541561055a576003820180549060ff8260c01c1661054b57601082901c6001600160b01b0390811661546001908111610537576001600160b01b03164311156105285760ff90838652600b60205261037a6040872061ffff600360028301549201541690611a7a565b60c083901b19909316600160c01b1781556004850183905584546001600160a01b031686526007602052604086208690555460c81c161561048157600254835485916001600160a01b039182169116803b1561047d57604051637709a1a760e11b81526001600160a01b039290921660048301526024820184905282908290604490829084905af1801561047257610459575b505060407fb27522330a91a6a320aeeac4733cad91c61b5384667c37acb1855ace8dc34e50915b845460019095015482519182526001600160a01b03908116602083015290941693a380f35b8161046391611a21565b61046e57835f61040d565b8380fd5b6040513d84823e3d90fd5b8280fd5b6001805490840154845486926001600160a01b039081169281169116823b1561046e57604051639bc5c50960e01b81526001600160a01b03928316600482015260248101869052911660448201529082908290606490829084905af1801561047257610513575b505060407fb27522330a91a6a320aeeac4733cad91c61b5384667c37acb1855ace8dc34e5091610434565b8161051d91611a21565b61046e57835f6104e8565b634a01daaf60e11b8552600485fd5b634e487b7160e01b86526011600452602486fd5b63433835b360e11b8552600485fd5b633f9b7dd560e11b8352600483fd5b50346101b257806003193601126101b257602060ff600454166040519015158152f35b50346101b25761059b3661193c565b949091939294338252600560205260ff604083205416156108bc5760ff60045416156108ad5760018060a01b0383169283835260066020526040832054948560801c96871561089e576105ee818a6120ac565b909261ffff8416998a1561088f576001600160801b0361060e8c89611ead565b9a168a10908115610885575b50610876576001600160a01b031680875260076020526040872054909890610867576106458261210b565b866008549a8b809a61065682611ecb565b6008558c8452600760205281604085205560405194610674866119b8565b8d86526020808701928352604080880192835260608801958652436001600160b01b03166080890190815260a0890188815260c0808b018a815260e08c018b815298909a52600b909452918f20985189546001600160a01b03199081166001600160a01b03928316178b55955160018b018054909716911617909455915160028801559351600387018054935192516001600160c81b031990941661ffff9092169190911760109290921b62010000600160c01b03169190911791151590931b60ff60c01b16178255915b51815460ff60c81b191690151560c81b60ff60c81b1617905551600490910155610769908761215e565b868552600c6020526040852098895463ffffffff1661078790611b3f565b63ffffffff1663ffffffff198b5416178a5560018a01858154906107aa91611b32565b90558660178b019a8b5460ff1690600301906107c591611ed9565b6107df929082549060031b91821b915f19901b1916179055565b895460ff1692601384145f149a60ff7f2796ecbf0b0464407570c503af31d0a181d0c00ac867a6c3d3c330267e93fa40986108509660209e61085b57505b1660ff19825416179055610832600954611ecb565b60095561084186600a54611b32565b600a5560405195869586611ee8565b0390a3604051908152f35b8291506001011661081d565b63f99d560d60e01b8752600487fd5b636e15e3d960e11b8752600487fd5b905089115f61061a565b63ef4c8b3560e01b8852600488fd5b631d8730d160e31b8552600485fd5b632f9107b560e01b8252600482fd5b637046c88d60e01b8252600482fd5b50346101b25760403660031901126101b25760043560ff81169081810361047d57506024359061ffff82169081830361046e5760409250825191602083019182528383015282825261091e606083611a21565b8251938492602084525180928160208601528585015e828201840152601f01601f19168101030190f35b50346101b25760203660031901126101b257610962612086565b60043560035580f35b50346101b25760603660031901126101b257610985611926565b6044356001600160a01b03811691906024359083900361046e576109a7612086565b6040516370a0823160e01b8152306004820152602081602481875afa908115610abe578591610a88575b508111610a515760405163a9059cbb60e01b81526001600160a01b039290921660048301526024820152906020908290604490829086905af1801561047257610a18575080f35b6020813d602011610a49575b81610a3160209383611a21565b81010312610a455751801515036101b25780f35b5080fd5b3d9150610a24565b60405162461bcd60e51b815260206004820152600f60248201526e457863656564732062616c616e636560881b6044820152606490fd5b90506020813d602011610ab6575b81610aa360209383611a21565b81010312610ab257515f6109d1565b8480fd5b3d9150610a96565b6040513d87823e3d90fd5b50346101b25760203660031901126101b2576040610100916004358152600b6020522060018060a01b038154169060ff60018060a01b0360018301541691600281015460046003830154920154936040519586526020860152604085015261ffff8116606085015260018060b01b038160101c166080850152818160c01c16151560a085015260c81c16151560c083015260e0820152f35b50346101b257806003193601126101b257610b7a612086565b60045460ff80821615169060ff19161760045580f35b50346101b25760403660031901126101b257610baa611926565b6024359081151580920361047d57610bc0612086565b60018060a01b031682526005602052604082209060ff8019835416911617905580f35b50346101b257806003193601126101b2576020600854604051908152f35b50346101b257806003193601126101b257546040516001600160a01b039091168152602090f35b50346101b25760203660031901126101b257610c42611926565b610c4a612086565b60018060a01b03166001600160601b0360a01b600254161760025580f35b50346101b25760203660031901126101b25760ff60406020926004358152600d8452205416604051908152f35b50346101b257806003193601126101b2576020600354604051908152f35b50346101b25760203660031901126101b25760209060ff906040906001600160a01b03610cde611926565b168152600584522054166040519015158152f35b50346101b257610d013661193c565b949091939294338252600560205260ff604083205416156108bc5760ff60045416156108ad5760018060a01b0383169283835260066020526040832054948560801c96871561089e57610d54818a6120ac565b909261ffff8416998a1561088f576001600160801b03610d748c89611ead565b9a168a10908115610ed8575b50610876576001600160a01b03168087526007602052604087205490989061086757610dab8261210b565b866008549a8b809a610dbc82611ecb565b6008558c8452600760205281604085205560405194610dda866119b8565b8d86526020860191825260408601908152606086019384526080860190600160b01b600190034316825260a087019286845260c08801946001865260e0890197808952528d600b6020526040902097600160a01b6001900390600160a01b60019003905116166001600160601b0360a01b895416178855600160a01b600190039051166001880190600160a01b60019003166001600160601b0360a01b82541617905551600287015560038601935161ffff16845491600160c01b620100009003905160101b169167ffffffffffffffff60c01b161717835551151561073f90839081549060ff60c01b90151560c01b169060ff60c01b1916179055565b905089115f610d80565b50346101b257806003193601126101b257610efb612086565b80546001600160a01b03198116825581906001600160a01b03167f8be0079c531659141344cd1fd0a4f28419497f9722a3daafe3b4186f6b6457e08280a380f35b50346101b257806003193601126101b2576001546040516001600160a01b039091168152602090f35b50346101b25760203660031901126101b257610f7f611926565b8160a0604051610f8e81611a05565b82815282602082015282604082015282606082015261028060405190610fb48183611a21565b368237608082015201526001600160a01b03168152600c602052604080822090519091610fe082611a05565b82549263ffffffff8416835263ffffffff602084019460201c1684526001810154604084019081526002820154906060850191825263ffffffff60ff601761102a60038701611a43565b95608089019687520154169660a087019788528160405197511687525116602086015251604085015251606084015251608083019091905b6014821061107b576103208460ff875116610300820152f35b6020806001928551815201930191019091611062565b50346101b25760603660031901126101b2576110ab611926565b602435906001600160801b03821680920361047d57604435906001600160801b03821680920361046e576110dd612086565b604051926040840184811067ffffffffffffffff8211176111385760405283526020830191825260018060a01b0316835260066020526001600160801b0360408420925116906001600160801b0319905160801b1617905580f35b634e487b7160e01b86526041600452602486fd5b50346101b25760203660031901126101b257604081602092825161116f816119e9565b526004358152600d83522060ff60405191611189836119e9565b5416809152604051908152f35b50346101b25760203660031901126101b25760a0906040906001600160a01b036111be611926565b168152600c6020522080549060018101549060ff60176002830154920154169163ffffffff60405194818116865260201c166020850152604084015260608301526080820152f35b50346101b257806003193601126101b2576002546040516001600160a01b039091168152602090f35b50346101b257806003193601126101b2576020600954604051908152f35b50346101b25760403660031901126101b257338152600560205260ff6040822054161561128557611282602435600435611b84565b80f35b637046c88d60e01b8152600490fd5b50346101b25760203660031901126101b2576112ae611926565b61028090816040516112c08282611a21565b3690376001600160a01b03168252600c60205260408220601781015460ff16906112ec90600301611a43565b9160405192839094905b6014821061130a5750506102a09350820152f35b60208060019288518152019601910190946112f6565b346117ae5760203660031901126117ae5760043567ffffffffffffffff81116117ae5736819003906004810160c06003198401126117ae57335f52600560205260ff60405f205416156119175760ff60045416156119085760448201926001600160a01b0361138e85611f2c565b165f52600660205260405f2054918260801c9182156118f957602485013590602219018112156117ae5784019360048501359467ffffffffffffffff86116117ae5760240185360381136117ae5761ffff956113e9916120ac565b95169081156118ea576064810135936001600160801b0361140a8487611ead565b961686109081156118e0575b506118d1576114248661210b565b6008549561143187611ecb565b60085561143d84611f2c565b9061144789611f2c565b916084840135928315158094036117ae5789600491611569956040519461146d866119b8565b6001600160a01b039081168652918216602080870191825260408088018f8152606089018d8152436001600160b01b031660808b01908152600160a08c0181815260c0808e01998a525f60e08f018181529c8152600b909852959096209b518c546001600160a01b0319908116918b16919091178d559651908c0180549097169816979097179094555160028901559151600388018054955192516001600160c81b031990961661ffff929092169190911760109290921b62010000600160c01b03169190911793151590911b60ff60c01b1692909217825551815460ff60c81b191690151560c81b60ff60c81b16179055519101558761215e565b5f905f1943019043821161180e576040805160a490920135602083019081524291830191909152446060830152914060808201526115b48160a081015b03601f198101835282611a21565b5190206003546064820611611822575050845f5160206121a35f395f51905f526115dd82611f40565b5f965b5f848152600b6020526040902080546001909101546001600160a01b039182169691169161161f9161161191611a7a565b928960405194859485611b56565b0390a35f848152600b602052604090206004018390556001600160a01b0361164682611f2c565b165f52600c60205260405f2063ffffffff61166381835416611b3f565b1663ffffffff198254161781556001810161167f848254611b32565b90556008545f19810190811161180e576116c060178301916116a860ff84541660038601611ed9565b90919082549060031b91821b915f19901b1916179055565b805460ff1660138103611801575060ff5f5b1660ff1982541617905583151590816117b2575b50611719575b6040848461170a856116ff600954611ecb565b600955600a54611b32565b600a5582519182526020820152f35b6001546001600160a01b0316946117399061173390611f2c565b91611f2c565b853b156117ae57604051639bc5c50960e01b81526001600160a01b0392831660048201526024810185905291166044820152935f908590606490829084905af19081156117a35760409461170a92611793575b50906116ec565b5f61179d91611a21565b5f61178c565b6040513d5f823e3d90fd5b5f80fd5b806117ed6117cb63ffffffff6002945460201c16611b3f565b825467ffffffff00000000191660209190911b67ffffffff0000000016178255565b016117f9858254611b32565b9055866116e6565b60ff6001819201166116d2565b634e487b7160e01b5f52601160045260245ffd5b919493611833869892979498611ad8565b965f905b61ffff821690888210156118b1578594939261ffff926118a561189e6118976001956118918d8f9d604051611886816115a68c60208301958690929161ffff6020916040840195845216910152565b5190209d8e91611fbe565b90611b32565b998b612064565b918d611b0a565b52011690919293611837565b97945050509383965f5160206121a35f395f51905f5291989492986115e0565b636e15e3d960e11b5f5260045ffd5b9050851188611416565b63ef4c8b3560e01b5f5260045ffd5b631d8730d160e31b5f5260045ffd5b632f9107b560e01b5f5260045ffd5b637046c88d60e01b5f5260045ffd5b600435906001600160a01b03821682036117ae57565b60806003198201126117ae576004356001600160a01b03811681036117ae579160243567ffffffffffffffff81116117ae57826023820112156117ae5780600401359267ffffffffffffffff84116117ae57602484830101116117ae5760240191906044356001600160a01b03811681036117ae579060643590565b610100810190811067ffffffffffffffff8211176119d557604052565b634e487b7160e01b5f52604160045260245ffd5b6020810190811067ffffffffffffffff8211176119d557604052565b60c0810190811067ffffffffffffffff8211176119d557604052565b90601f8019910116810190811067ffffffffffffffff8211176119d557604052565b60405191905f835b60148210611a6457505050611a6261028083611a21565b565b6001602081928554815201930191019091611a4b565b8181029291811591840414171561180e57565b90602080835192838152019201905f5b818110611aaa5750505090565b8251845260209384019390920191600101611a9d565b67ffffffffffffffff81116119d55760051b60200190565b90611ae282611ac0565b611aef6040519182611a21565b8281528092611b00601f1991611ac0565b0190602036910137565b8051821015611b1e5760209160051b010190565b634e487b7160e01b5f52603260045260245ffd5b9190820180921161180e57565b63ffffffff1663ffffffff811461180e5760010190565b9092608092611b81959460018060a01b03168352602083015260408201528160608201520190611a8d565b90565b9091815f52600b60205260405f209260028401928354158015611e9c575b611e8d5760038501805460408051602081019586524291810191909152446060820152601082901c6001600160b01b0316406080820152919690939091611bec8160a081016115a6565b51902092600354606485061115611dee57509293915f935f9187549661ffff881692611c1784611ad8565b995f9754985b61ffff891686811015611c9c57611c928b611c8c8f61ffff958d918f600197611c808e6115a6611c6c611c869560405192839160208301958690929161ffff6020916040840195845216910152565b519020611c7a818a89611fbe565b96612064565b92611b0a565b52611b32565b99611b32565b9901169795611c1d565b5060ff60c01b19909a16600160c01b1790556004810189905580546001600160a01b03165f9081526007602052604081205590989097949650945091929150819050611d1f575b84546001909501546040516001600160a01b03968716965f5160206121a35f395f51905f529591948594611d1a9490921685611b56565b0390a3565b60018060a01b038554165f52600c602052600260405f20611d4c6117cb63ffffffff835460201c16611b3f565b01611d58828254611b32565b9055600180549086015486546001600160a01b0392831695929182169116853b156117ae57604051639bc5c50960e01b81526001600160a01b0392831660048201526024810185905291166044820152935f908590606490829084905af19081156117a3575f5160206121a35f395f51905f5294611d1a92611dde575b50935050611ce3565b5f611de891611a21565b5f611dd5565b60ff60c01b1916600160c01b1786555f6004820181905581546001600160a01b03168152600760205260408120559294929390925f5160206121a35f395f51905f52925090611d1a611e68611e4286611f40565b9361ffff60018060a01b03895416986001808060a01b0391015416945491541690611a7a565b92604051938493845260208401525f6040840152608060608401526080830190611a8d565b63433835b360e11b5f5260045ffd5b5060ff600386015460c01c16611ba2565b8115611eb7570490565b634e487b7160e01b5f52601260045260245ffd5b5f19811461180e5760010190565b6014821015611b1e5701905f90565b9390859360a0969361ffff926001808a1b03168752602087015216604085015260806060850152816080850152848401375f828201840152601f01601f1916010190565b356001600160a01b03811681036117ae5790565b90815f52600d60205260405f20915f52600b60205261ffff600360405f2001541660ff611f6c82611ad8565b93541680611faa575060015b5f5b61ffff811683811015611fa45761ffff91600191611f9c60ff86169189611b0a565b520116611f7a565b50505050565b600103611fb8576002611f78565b5f611f78565b92915f935f52600d602052600360ff60405f20541691068082145f14611fe5575090925050565b60ff1681159182612059575b821561203f575b8215612021575b50506120085750565b8091925060011b908082046002149015171561180e5790565b600214915081612034575b505f80611fff565b60019150145f61202c565b91506001821480612051575b91611ff8565b50801561204b565b600282149250611ff1565b5f52600d602052600360ff60405f20541691068091145f14611b815750600390565b5f546001600160a01b0316330361209957565b63118cdaa760e01b5f523360045260245ffd5b919082604091810103126117ae57813560ff8116928382036117ae5760209150013561ffff811681036117ae579160405190602082015260208152611b81604082611a21565b908160209103126117ae575160ff811681036117ae5790565b60ff612122600292602080825183010191016120f2565b161161212a57565b60405162461bcd60e51b815260206004820152600c60248201526b496e76616c6964207369646560a01b6044820152606490fd5b9061217290602080825183010191016120f2565b9060ff60405192612182846119e9565b1682525f52600d60205260ff8060405f209251161660ff1982541617905556fe7b2b1318c7e6cfd4bbeac6266cea2762a843a90f923acf58b837c8dbe846af08a26469706673582212202a19a59c813b84ba252c2f18433d6e3308c4e1ea94359596b085f2ab753892ca64736f6c634300081c0033",
  "linkReferences": {},
  "deployedLinkReferences": {},
  "immutableReferences": {},
  "inputSourceName": "project/contracts/rps/RPSGame.sol",
  "buildInfoId": "solc-0_8_28-2f564910bb6e363fcead372b74b19a98494e34d6"
}