{
  "_format": "hh3-artifact-1",
  "contractName": "RPSGame",
  "sourceName": "contracts/rps/RPSGame.sol",
  "abi": [
    {
      "inputs": [
        {
          "internalType": "address",
          "name": "_treasury",
          "type": "address"
        }
      ],
      "stateMutability": "nonpayable",
      "type": "constructor"
    },
    {
      "inputs": [],
      "name": "BetAmountOutOfRange",
      "type": "error"
    },
    {
      "inputs": [],
      "name": "BetDoesNotExist",
      "type": "error"
    },
    {
      "inputs": [],
      "name": "BetNotPending",
      "type": "error"
    },
    {
      "inputs": [],
      "name": "GameNotLive",
      "type": "error"
    },
    {
      "inputs": [],
      "name": "InsufficientBalance",
      "type": "error"
    },
    {
      "inputs": [],
      "name": "InvalidBetCount",
      "type": "error"
    },
    {
      "inputs": [],
      "name": "InvalidSide",
      "type": "error"
    },
    {
      "inputs": [],
      "name": "NotAuthorizedCaller",
      "type": "error"
    },
    {
      "inputs": [
        {
          "internalType": "address",
          "name": "owner",
          "type": "address"
        }
      ],
      "name": "OwnableInvalidOwner",
      "type": "error"
    },
    {
      "inputs": [
        {
          "internalType": "address",
          "name": "account",
          "type": "address"
        }
      ],
      "name": "OwnableUnauthorizedAccount",
      "type": "error"
    },
    {
      "inputs": [],
      "name": "PlayerHasPendingBet",
      "type": "error"
    },
    {
      "inputs": [],
      "name": "RefundTooEarly",
      "type": "error"
    },
    {
      "inputs": [],
      "name": "TokenNotConfigured",
      "type": "error"
    },
    {
      "anonymous": false,
      "inputs": [
        {
          "indexed": true,
          "internalType": "uint256",
          "name": "betId",
          "type": "uint256"
        },
        {
          "indexed": true,
          "internalType": "address",
          "name": "player",
          "type": "address"
        },
        {
          "indexed": false,
          "internalType": "address",
          "name": "token",
          "type": "address"
        },
        {
          "indexed": false,
          "internalType": "uint256",
          "name": "amount",
          "type": "uint256"
        },
        {
          "indexed": false,
          "internalType": "uint16",
          "name": "betCount",
          "type": "uint16"
        },
        {
          "indexed": false,
          "internalType": "bytes",
          "name": "gameChoice",
          "type": "bytes"
        }
      ],
      "name": "BetPlaced",
      "type": "event"
    },
    {
      "anonymous": false,
      "inputs": [
        {
          "indexed": true,
          "internalType": "uint256",
          "name": "betId",
          "type": "uint256"
        },
        {
          "indexed": true,
          "internalType": "address",
          "name": "player",
          "type": "address"
        },
        {
          "indexed": false,
          "internalType": "uint256",
          "name": "amount",
          "type": "uint256"
        },
        {
          "indexed": false,
          "internalType": "address",
          "name": "token",
          "type": "address"
        }
      ],
      "name": "BetRefunded",
      "type": "event"
    },
    {
      "anonymous": false,
      "inputs": [
        {
          "indexed": true,
          "internalType": "uint256",
          "name": "betId",
          "type": "uint256"
        },
        {
          "indexed": true,
          "internalType": "address",
          "name": "player",
          "type": "address"
        },
        {
          "indexed": false,
          "internalType": "address",
          "name": "token",
          "type": "address"
        },
        {
          "indexed": false,
          "internalType": "uint256",
          "name": "totalBetAmount",
          "type": "uint256"
        },
        {
          "indexed": false,
          "internalType": "uint256",
          "name": "payout",
          "type": "uint256"
        },
        {
          "indexed": false,
          "internalType": "uint256[]",
          "name": "outcomes",
          "type": "uint256[]"
        }
      ],
      "name": "BetSettled",
      "type": "event"
    },
    {
      "anonymous": false,
      "inputs": [
        {
          "indexed": true,
          "internalType": "address",
          "name": "player",
          "type": "address"
        },
        {
          "indexed": true,
          "internalType": "address",
          "name": "game",
          "type": "address"
        },
        {
          "indexed": true,
          "internalType": "address",
          "name": "currency",
          "type": "address"
        },
        {
          "indexed": false,
          "internalType": "uint256",
          "name": "gameIdentifier",
          "type": "uint256"
        },
        {
          "indexed": false,
          "internalType": "uint256",
          "name": "payout",
          "type": "uint256"
        }
      ],
      "name": "LivePayout",
      "type": "event"
    },
    {
      "anonymous": false,
      "inputs": [
        {
          "indexed": true,
          "internalType": "address",
          "name": "previousOwner",
          "type": "address"
        },
        {
          "indexed": true,
          "internalType": "address",
          "name": "newOwner",
          "type": "address"
        }
      ],
      "name": "OwnershipTransferred",
      "type": "event"
    },
    {
      "anonymous": false,
      "inputs": [
        {
          "indexed": true,
          "internalType": "uint256",
          "name": "betId",
          "type": "uint256"
        },
        {
          "indexed": false,
          "internalType": "uint8",
          "name": "choice",
          "type": "uint8"
        },
        {
          "indexed": false,
          "internalType": "uint256[]",
          "name": "outcomes",
          "type": "uint256[]"
        },
        {
          "indexed": false,
          "internalType": "uint256",
          "name": "payout",
          "type": "uint256"
        }
      ],
      "name": "RPSRoll",
      "type": "event"
    },
    {
      "inputs": [
        {
          "internalType": "uint256",
          "name": "",
          "type": "uint256"
        }
      ],
      "name": "baseBets",
      "outputs": [
        {
          "internalType": "address",
          "name": "player",
          "type": "address"
        },
        {
          "internalType": "address",
          "name": "token",
          "type": "address"
        },
        {
          "internalType": "uint256",
          "name": "amount",
          "type": "uint256"
        },
        {
          "internalType": "uint16",
          "name": "betCount",
          "type": "uint16"
        },
        {
          "internalType": "uint176",
          "name": "placeBlockNumber",
          "type": "uint176"
        },
        {
          "internalType": "bool",
          "name": "resolved",
          "type": "bool"
        },
        {
          "internalType": "bool",
          "name": "isCreditBet",
          "type": "bool"
        },
        {
          "internalType": "uint256",
          "name": "payout",
          "type": "uint256"
        }
      ],
      "stateMutability": "view",
      "type": "function"
    },
    {
      "inputs": [
        {
          "internalType": "address",
          "name": "",
          "type": "address"
        }
      ],
      "name": "callers",
      "outputs": [
        {
          "internalType": "bool",
          "name": "",
          "type": "bool"
        }
      ],
      "stateMutability": "view",
      "type": "function"
    },
    {
      "inputs": [
        {
          "internalType": "uint8",
          "name": "side",
          "type": "uint8"
        },
        {
          "internalType": "uint16",
          "name": "betCount",
          "type": "uint16"
        }
      ],
      "name": "encodeGameChoice",
      "outputs": [
        {
          "internalType": "bytes",
          "name": "",
          "type": "bytes"
        }
      ],
      "stateMutability": "pure",
      "type": "function"
    },
    {
      "inputs": [],
      "name": "explosionRate",
      "outputs": [
        {
          "internalType": "uint256",
          "name": "",
          "type": "uint256"
        }
      ],
      "stateMutability": "view",
      "type": "function"
    },
    {
      "inputs": [],
      "name": "gameCredits",
      "outputs": [
        {
          "internalType": "contract GameCredits",
          "name": "",
          "type": "address"
        }
      ],
      "stateMutability": "view",
      "type": "function"
    },
    {
      "inputs": [],
      "name": "gameIsLive",
      "outputs": [
        {
          "internalType": "bool",
          "name": "",
          "type": "bool"
        }
      ],
      "stateMutability": "view",
      "type": "function"
    },
    {
      "inputs": [
        {
          "internalType": "address",
          "name": "player",
          "type": "address"
        }
      ],
      "name": "getPlayerInfo",
      "outputs": [
        {
          "components": [
            {
              "internalType": "uint32",
              "name": "totalBets",
              "type": "uint32"
            },
            {
              "internalType": "uint32",
              "name": "totalWins",
              "type": "uint32"
            },
            {
              "internalType": "uint256",
              "name": "totalInValue",
              "type": "uint256"
            },
            {
              "internalType": "uint256",
              "name": "totalOutValue",
              "type": "uint256"
            },
            {
              "internalType": "uint256[20]",
              "name": "lastBetIds",
              "type": "uint256[20]"
            },
            {
              "internalType": "uint8",
              "name": "lastBetIdx",
              "type": "uint8"
            }
          ],
          "internalType": "struct BaseGame.PlayerInfo",
          "name": "",
          "type": "tuple"
        }
      ],
      "stateMutability": "view",
      "type": "function"
    },
    {
      "inputs": [
        {
          "internalType": "uint256",
          "name": "betId",
          "type": "uint256"
        }
      ],
      "name": "getRPSBet",
      "outputs": [
        {
          "components": [
            {
              "internalType": "uint8",
              "name": "choice",
              "type": "uint8"
            }
          ],
          "internalType": "struct RPSGame.RPSBet",
          "name": "",
          "type": "tuple"
        }
      ],
      "stateMutability": "view",
      "type": "function"
    },
    {
      "inputs": [
        {
          "internalType": "address",
          "name": "player",
          "type": "address"
        }
      ],
      "name": "lastBets",
      "outputs": [
        {
          "internalType": "uint256[20]",
          "name": "ids",
          "type": "uint256[20]"
        },
        {
          "internalType": "uint8",
          "name": "idx",
          "type": "uint8"
        }
      ],
      "stateMutability": "view",
      "type": "function"
    },
    {
      "inputs": [],
      "name": "nextBetId",
      "outputs": [
        {
          "internalType": "uint256",
          "name": "",
          "type": "uint256"
        }
      ],
      "stateMutability": "view",
      "type": "function"
    },
    {
      "inputs": [],
      "name": "owner",
      "outputs": [
        {
          "internalType": "address",
          "name": "",
          "type": "address"
        }
      ],
      "stateMutability": "view",
      "type": "function"
    },
    {
      "inputs": [
        {
          "internalType": "address",
          "name": "",
          "type": "address"
        }
      ],
      "name": "pendingBetId",
      "outputs": [
        {
          "internalType": "uint256",
          "name": "",
          "type": "uint256"
        }
      ],
      "stateMutability": "view",
      "type": "function"
    },
    {
      "inputs": [
        {
          "components": [
            {
              "internalType": "address",
              "name": "player",
              "type": "address"
            },
            {
              "internalType": "bytes",
              "name": "gameChoice",
              "type": "bytes"
            },
            {
              "internalType": "address",
              "name": "token",
              "type": "address"
            },
            {
              "internalType": "uint256",
              "name": "amount",
              "type": "uint256"
            },
            {
              "internalType": "bool",
              "name": "isCreditBet",
              "type": "bool"
            },
            {
              "internalType": "uint256",
              "name": "seed",
              "type": "uint256"
            }
          ],
          "internalType": "struct IBaseGame.PlayParams",
          "name": "params",
          "type": "tuple"
        }
      ],
      "name": "playAndSettle",
      "outputs": [
        {
          "internalType": "uint256",
          "name": "betId",
          "type": "uint256"
        },
        {
          "internalType": "uint256",
          "name": "payout",
          "type": "uint256"
        }
      ],
      "stateMutability": "nonpayable",
      "type": "function"
    },
    {
      "inputs": [
        {
          "internalType": "address",
          "name": "player",
          "type": "address"
        },
        {
          "internalType": "bytes",
          "name": "gameChoice",
          "type": "bytes"
        },
        {
          "internalType": "address",
          "name": "token",
          "type": "address"
        },
        {
          "internalType": "uint256",
          "name": "amount",
          "type": "uint256"
        }
      ],
      "name": "playFromRouter",
      "outputs": [
        {
          "internalType": "uint256",
          "name": "betId",
          "type": "uint256"
        }
      ],
      "stateMutability": "nonpayable",
      "type": "function"
    },
    {
      "inputs": [
        {
          "internalType": "address",
          "name": "player",
          "type": "address"
        },
        {
          "internalType": "bytes",
          "name": "gameChoice",
          "type": "bytes"
        },
        {
          "internalType": "address",
          "name": "token",
          "type": "address"
        },
        {
          "internalType": "uint256",
          "name": "amount",
          "type": "uint256"
        }
      ],
      "name": "playFromRouterWithCredits",
      "outputs": [
        {
          "internalType": "uint256",
          "name": "betId",
          "type": "uint256"
        }
      ],
      "stateMutability": "nonpayable",
      "type": "function"
    },
    {
      "inputs": [
        {
          "internalType": "address",
          "name": "",
          "type": "address"
        }
      ],
      "name": "playerInfo",
      "outputs": [
        {
          "internalType": "uint32",
          "name": "totalBets",
          "type": "uint32"
        },
        {
          "internalType": "uint32",
          "name": "totalWins",
          "type": "uint32"
        },
        {
          "internalType": "uint256",
          "name": "totalInValue",
          "type": "uint256"
        },
        {
          "internalType": "uint256",
          "name": "totalOutValue",
          "type": "uint256"
        },
        {
          "internalType": "uint8",
          "name": "lastBetIdx",
          "type": "uint8"
        }
      ],
      "stateMutability": "view",
      "type": "function"
    },
    {
      "inputs": [
        {
          "internalType": "address",
          "name": "",
          "type": "address"
        }
      ],
      "name": "playerSeeds",
      "outputs": [
        {
          "internalType": "uint256",
          "name": "",
          "type": "uint256"
        }
      ],
      "stateMutability": "view",
      "type": "function"
    },
    {
      "inputs": [
        {
          "internalType": "bytes",
          "name": "gameChoice",
          "type": "bytes"
        },
        {
          "internalType": "address",
          "name": "token",
          "type": "address"
        },
        {
          "internalType": "uint256",
          "name": "amount",
          "type": "uint256"
        },
        {
          "internalType": "uint256",
          "name": "seed",
          "type": "uint256"
        }
      ],
      "name": "previewPlay",
      "outputs": [
        {
          "internalType": "uint256",
          "name": "payout",
          "type": "uint256"
        },
        {
          "internalType": "uint256[]",
          "name": "outcomes",
          "type": "uint256[]"
        }
      ],
      "stateMutability": "view",
      "type": "function"
    },
    {
      "inputs": [
        {
          "internalType": "uint256",
          "name": "betId",
          "type": "uint256"
        }
      ],
      "name": "refundBet",
      "outputs": [],
      "stateMutability": "nonpayable",
      "type": "function"
    },
    {
      "inputs": [],
      "name": "renounceOwnership",
      "outputs": [],
      "stateMutability": "nonpayable",
      "type": "function"
    },
    {
      "inputs": [
        {
          "internalType": "uint256",
          "name": "",
          "type": "uint256"
        }
      ],
      "name": "rpsBets",
      "outputs": [
        {
          "internalType": "uint8",
          "name": "choice",
          "type": "uint8"
        }
      ],
      "stateMutability": "view",
      "type": "function"
    },
    {
      "inputs": [
        {
          "internalType": "address",
          "name": "_caller",
          "type": "address"
        },
        {
          "internalType": "bool",
          "name": "_allowed",
          "type": "bool"
        }
      ],
      "name": "setCaller",
      "outputs": [],
      "stateMutability": "nonpayable",
      "type": "function"
    },
    {
      "inputs": [
        {
          "internalType": "uint256",
          "name": "_explosionRate",
          "type": "uint256"
        }
      ],
      "name": "setExplosionRate",
      "outputs": [],
      "stateMutability": "nonpayable",
      "type": "function"
    },
    {
      "inputs": [
        {
          "internalType": "address",
          "name": "_gameCredits",
          "type": "address"
        }
      ],
      "name": "setGameCredits",
      "outputs": [],
      "stateMutability": "nonpayable",
      "type": "function"
    },
    {
      "inputs": [
        {
          "internalType": "uint256",
          "name": "newSeed",
          "type": "uint256"
        }
      ],
      "name": "setPlayerSeed",
      "outputs": [],
      "stateMutability": "nonpayable",
      "type": "function"
    },
    {
      "inputs": [
        {
          "internalType": "address",
          "name": "token",
          "type": "address"
        },
        {
          "internalType": "uint128",
          "name": "minBet",
          "type": "uint128"
        },
        {
          "internalType": "uint128",
          "name": "maxBet",
          "type": "uint128"
        }
      ],
      "name": "setTokenConfig",
      "outputs": [],
      "stateMutability": "nonpayable",
      "type": "function"
    },
    {
      "inputs": [
        {
          "internalType": "address",
          "name": "_treasury",
          "type": "address"
        }
      ],
      "name": "setTreasury",
      "outputs": [],
      "stateMutability": "nonpayable",
      "type": "function"
    },
    {
      "inputs": [
        {
          "internalType": "uint256",
          "name": "betId",
          "type": "uint256"
        },
        {
          "internalType": "uint256",
          "name": "seed",
          "type": "uint256"
        }
      ],
      "name": "settleBet",
      "outputs": [],
      "stateMutability": "nonpayable",
      "type": "function"
    },
    {
      "inputs": [
        {
          "internalType": "address",
          "name": "",
          "type": "address"
        }
      ],
      "name": "supportedTokenInfo",
      "outputs": [
        {
          "internalType": "uint128",
          "name": "minBetAmount",
          "type": "uint128"
        },
        {
          "internalType": "uint128",
          "name": "maxBetAmount",
          "type": "uint128"
        }
      ],
      "stateMutability": "view",
      "type": "function"
    },
    {
      "inputs": [],
      "name": "toggleGameIsLive",
      "outputs": [],
      "stateMutability": "nonpayable",
      "type": "function"
    },
    {
      "inputs": [],
      "name": "totalBetsGlobal",
      "outputs": [
        {
          "internalType": "uint256",
          "name": "",
          "type": "uint256"
        }
      ],
      "stateMutability": "view",
      "type": "function"
    },
    {
      "inputs": [],
      "name": "totalValueGlobal",
      "outputs": [
        {
          "internalType": "uint256",
          "name": "",
          "type": "uint256"
        }
      ],
      "stateMutability": "view",
      "type": "function"
    },
    {
      "inputs": [
        {
          "internalType": "address",
          "name": "newOwner",
          "type": "address"
        }
      ],
      "name": "transferOwnership",
      "outputs": [],
      "stateMutability": "nonpayable",
      "type": "function"
    },
    {
      "inputs": [],
      "name": "treasury",
      "outputs": [
        {
          "internalType": "contract ITreasury",
          "name": "",
          "type": "address"
        }
      ],
      "stateMutability": "view",
      "type": "function"
    },
    {
      "inputs": [
        {
          "internalType": "address",
          "name": "beneficiary",
          "type": "address"
        },
        {
          "internalType": "uint256",
          "name": "amount",
          "type": "uint256"
        },
        {
          "internalType": "address",
          "name": "token",
          "type": "address"
        }
      ],
      "name": "withdrawCustomTokenFunds",
      "outputs": [],
      "stateMutability": "nonpayable",
      "type": "function"
    }
  ],
  "bytecode": "0x60803460d557601f6126d438819003918201601f19168301916001600160401b0383118484101760d95780849260209460405283398101031260d557516001600160a01b0381169081900360d557331560c2575f8054336001600160a01b0319821681178355604051939290916001600160a01b0316907f8be0079c531659141344cd1fd0a4f28419497f9722a3daafe3b4186f6b6457e09080a3600180546001600160a01b03191691909117815560095560046003556125e690816100ee8239f35b631e4fbdf760e01b5f525f60045260245ffd5b5f80fd5b634e487b7160e01b5f52604160045260245ffdfe60806040526004361015610011575f80fd5b5f5f3560e01c806303abf75f146113d557806307106f27146113495780630d2cbe1314611305578063145287d6146112e75780631aa60a3e146112c25780632a69bf1d146112995780634b114691146112295780634ea6321c146111df57806358ee9c43146111245780635932840114610ff857806361d027b314610fcf5780636e156a3b14610f56578063715018a614610efc578063781355bf14610d0c5780637bbf4a3f14610ccd57806381c8ec1b14610caf57806382364ae014610c825780638d0b42d814610c425780638da5cb5b14610c1b5780639aca279214610bfd5780639cae6eae14610baa578063a045a6fc14610b7b578063a385cd4114610ae3578063b14c8009146109ab578063b7dc575214610988578063c61a153f1461090b578063d1f156d7146105cc578063d414d0c2146105a9578063e1fdb4b41461033d578063e695c2531461031f578063e7138143146102d5578063ee33f9c41461029c578063f0f442601461025c578063f2fde38b146101d65763f4efd8811461019b575f80fd5b346101d35760203660031901126101d3576020906040906001600160a01b036101c26119e5565b168152600783522054604051908152f35b80fd5b50346101d35760203660031901126101d3576101f06119e5565b6101f86123d7565b6001600160a01b031680156102485781546001600160a01b03198116821783556001600160a01b03167f8be0079c531659141344cd1fd0a4f28419497f9722a3daafe3b4186f6b6457e08380a380f35b631e4fbdf760e01b82526004829052602482fd5b50346101d35760203660031901126101d3576102766119e5565b61027e6123d7565b60018060a01b03166001600160601b0360a01b600154161760015580f35b50346101d35760203660031901126101d3576020906040906001600160a01b036102c46119e5565b168152600883522054604051908152f35b50346101d35760203660031901126101d35760409081906001600160a01b036102fc6119e5565b168152600660205220548151906001600160801b038116825260801c6020820152f35b50346101d357806003193601126101d3576020600b54604051908152f35b50346101d35760203660031901126101d357600435808252600c602052604082209060028201541561059a57600382019081549160ff8360c01c1661058b57601083901c6001600160b01b0390811661010001908111610577576001600160b01b03164311156105685760ff90828652600c6020526103cd6040872061ffff600360028301549201541690611b7a565b60c083901b19909416600160c01b1781556004850184905584546001600160a01b031686526007602052604086208690555460c81c16156104e157600254835485916001600160a01b039182169116803b156104dd57604051637709a1a760e11b81526001600160a01b039290921660048301526024820185905282908290604490829084905af180156104d2576104b9575b50506104b6925b805460019190910154604080518581526001600160a01b039283166020820152929091169183917fb27522330a91a6a320aeeac4733cad91c61b5384667c37acb1855ace8dc34e5091a3612303565b80f35b816104c391611b21565b6104ce57835f610460565b8380fd5b6040513d84823e3d90fd5b8280fd5b6001805490840154845486926001600160a01b039081169281169116823b156104ce57604051639bc5c50960e01b81526001600160a01b03928316600482015260248101879052911660448201529082908290606490829084905af180156104d257610553575b50506104b692610467565b8161055d91611b21565b6104ce57835f610548565b634a01daaf60e11b8552600485fd5b634e487b7160e01b86526011600452602486fd5b63433835b360e11b8552600485fd5b633f9b7dd560e11b8352600483fd5b50346101d357806003193601126101d357602060ff600454166040519015158152f35b50346101d3576105db36611a5c565b949091939294338252600560205260ff604083205416156108fc5760ff60045416156108ed5760018060a01b0383169283835260066020526040832054948560801c9687156108de5761062e818a6123fd565b909261ffff8416998a156108cf576001600160801b0361064e8c8961205f565b9a168a109081156108c5575b506108b6576001600160a01b0316808752600760205260408720549098906108a7576106858261245c565b866009549a8b809a61069682612210565b6009558c84526007602052816040852055604051946106b486611ab8565b8d86526020808701928352604080880192835260608801958652436001600160b01b03166080890190815260a0890188815260c0808b018a815260e08c018b815298909a52600c909452918f20985189546001600160a01b03199081166001600160a01b03928316178b55955160018b018054909716911617909455915160028801559351600387018054935192516001600160c81b031990941661ffff9092169190911760109290921b62010000600160c01b03169190911791151590931b60ff60c01b16178255915b51815460ff60c81b191690151560c81b60ff60c81b16179055516004909101556107a990876124e9565b868552600d6020526040852098895463ffffffff166107c790611c0c565b63ffffffff1663ffffffff198b5416178a5560018a01858154906107ea91611bff565b90558660178b019a8b5460ff1690600301906108059161221e565b61081f929082549060031b91821b915f19901b1916179055565b895460ff1692601384145f149a60ff7f2796ecbf0b0464407570c503af31d0a181d0c00ac867a6c3d3c330267e93fa40986108909660209e61089b57505b1660ff19825416179055610872600a54612210565b600a5561088186600b54611bff565b600b556040519586958661222d565b0390a3604051908152f35b8291506001011661085d565b63f99d560d60e01b8752600487fd5b636e15e3d960e11b8752600487fd5b905089115f61065a565b63ef4c8b3560e01b8852600488fd5b631d8730d160e31b8552600485fd5b632f9107b560e01b8252600482fd5b637046c88d60e01b8252600482fd5b50346101d35760403660031901126101d35760043560ff8116908181036104dd57506024359061ffff8216908183036104ce5760409250825191602083019182528383015282825261095e606083611b21565b8251938492602084525180928160208601528585015e828201840152601f01601f19168101030190f35b50346101d35760203660031901126101d3576109a26123d7565b60043560035580f35b50346101d35760603660031901126101d3576109c56119e5565b602435906044356001600160a01b03811691908290036104ce576109e76123d7565b6040516370a0823160e01b8152306004820152602081602481865afa908115610ad8578591610aa2575b508311610a935760405163a9059cbb60e01b81526001600160a01b0391909116600482015260248101929092526020908290604490829086905af180156104d257610a5a575080f35b6020813d602011610a8b575b81610a7360209383611b21565b81010312610a875751801515036101d35780f35b5080fd5b3d9150610a66565b631e9acf1760e31b8452600484fd5b90506020813d602011610ad0575b81610abd60209383611b21565b81010312610acc57515f610a11565b8480fd5b3d9150610ab0565b6040513d87823e3d90fd5b50346101d35760203660031901126101d3576040610100916004358152600c6020522060018060a01b038154169060ff60018060a01b0360018301541691600281015460046003830154920154936040519586526020860152604085015261ffff8116606085015260018060b01b038160101c166080850152818160c01c16151560a085015260c81c16151560c083015260e0820152f35b50346101d357806003193601126101d357610b946123d7565b60045460ff80821615169060ff19161760045580f35b50346101d35760403660031901126101d357610bc46119e5565b602435908115158092036104dd57610bda6123d7565b60018060a01b031682526005602052604082209060ff8019835416911617905580f35b50346101d357806003193601126101d3576020600954604051908152f35b50346101d357806003193601126101d357546040516001600160a01b039091168152602090f35b50346101d35760203660031901126101d357610c5c6119e5565b610c646123d7565b60018060a01b03166001600160601b0360a01b600254161760025580f35b50346101d35760203660031901126101d35760ff60406020926004358152600e8452205416604051908152f35b50346101d357806003193601126101d3576020600354604051908152f35b50346101d35760203660031901126101d35760209060ff906040906001600160a01b03610cf86119e5565b168152600584522054166040519015158152f35b50346101d357610d1b36611a5c565b949091939294338252600560205260ff604083205416156108fc5760ff60045416156108ed5760018060a01b0383169283835260066020526040832054948560801c9687156108de57610d6e818a6123fd565b909261ffff8416998a156108cf576001600160801b03610d8e8c8961205f565b9a168a10908115610ef2575b506108b6576001600160a01b0316808752600760205260408720549098906108a757610dc58261245c565b866009549a8b809a610dd682612210565b6009558c8452600760205281604085205560405194610df486611ab8565b8d86526020860191825260408601908152606086019384526080860190600160b01b600190034316825260a087019286845260c08801946001865260e0890197808952528d600c6020526040902097600160a01b6001900390600160a01b60019003905116166001600160601b0360a01b895416178855600160a01b600190039051166001880190600160a01b60019003166001600160601b0360a01b82541617905551600287015560038601935161ffff16845491600160c01b620100009003905160101b169167ffffffffffffffff60c01b161717835551151561077f90839081549060ff60c01b90151560c01b169060ff60c01b1916179055565b905089115f610d9a565b50346101d357806003193601126101d357610f156123d7565b80546001600160a01b03198116825581906001600160a01b03167f8be0079c531659141344cd1fd0a4f28419497f9722a3daafe3b4186f6b6457e08280a380f35b50346101d35760803660031901126101d35760043567ffffffffffffffff8111610a8757610f889036906004016119fb565b906024356001600160a01b03811681036104ce57610fae9350606435926044359261207d565b90610fcb6040519283928352604060208401526040830190611a29565b0390f35b50346101d357806003193601126101d3576001546040516001600160a01b039091168152602090f35b50346101d35760203660031901126101d3576110126119e5565b8160a060405161102181611b05565b828152826020820152826040820152826060820152610280604051906110478183611b21565b368237608082015201526001600160a01b03168152600d60205260408082209051909161107382611b05565b82549263ffffffff8416835263ffffffff602084019460201c1684526001810154604084019081526002820154906060850191825263ffffffff60ff60176110bd60038701611b43565b95608089019687520154169660a087019788528160405197511687525116602086015251604085015251606084015251608083019091905b6014821061110e576103208460ff875116610300820152f35b60208060019285518152019301910190916110f5565b50346101d35760603660031901126101d35761113e6119e5565b602435906001600160801b0382168092036104dd57604435906001600160801b0382168092036104ce576111706123d7565b604051926040840184811067ffffffffffffffff8211176111cb5760405283526020830191825260018060a01b0316835260066020526001600160801b0360408420925116906001600160801b0319905160801b1617905580f35b634e487b7160e01b86526041600452602486fd5b50346101d35760203660031901126101d357604081602092825161120281611ae9565b526004358152600e83522060ff6040519161121c83611ae9565b5416809152604051908152f35b50346101d35760203660031901126101d35760a0906040906001600160a01b036112516119e5565b168152600d6020522080549060018101549060ff60176002830154920154169163ffffffff60405194818116865260201c166020850152604084015260608301526080820152f35b50346101d357806003193601126101d3576002546040516001600160a01b039091168152602090f35b50346101d35760203660031901126101d3573381526008602052600435604082205580f35b50346101d357806003193601126101d3576020600a54604051908152f35b50346101d35760403660031901126101d357338152600560205260ff6040822054161561133a576104b6602435600435611c51565b637046c88d60e01b8152600490fd5b50346101d35760203660031901126101d3576113636119e5565b61028090816040516113758282611b21565b3690376001600160a01b03168252600d60205260408220601781015460ff16906113a190600301611b43565b9160405192839094905b601482106113bf5750506102a09350820152f35b60208060019288518152019601910190946113ab565b3461185f57602036600319011261185f5760043567ffffffffffffffff811161185f5736819003906004810160c060031984011261185f57335f52600560205260ff60405f205416156119d65760ff60045416156119c75760448201926001600160a01b0361144385612271565b165f52600660205260405f2054918260801c9182156119b8576024850135906022190181121561185f5784019360048501359467ffffffffffffffff861161185f57602401853603811361185f5761ffff9561149e916123fd565b95169081156119a9576064810135936001600160801b036114bf848761205f565b9616861090811561199f575b50611990576114d98661245c565b600954956114e687612210565b6009556114f284612271565b906114fc89612271565b9160848401359283151580940361185f578960049161161e956040519461152286611ab8565b6001600160a01b039081168652918216602080870191825260408088018f8152606089018d8152436001600160b01b031660808b01908152600160a08c0181815260c0808e01998a525f60e08f018181529c8152600c909852959096209b518c546001600160a01b0319908116918b16919091178d559651908c0180549097169816979097179094555160028901559151600388018054955192516001600160c81b031990961661ffff929092169190911760109290921b62010000600160c01b03169190911793151590911b60ff60c01b1692909217825551815460ff60c81b191690151560c81b60ff60c81b1617905551910155876124e9565b5f905f1943014381116118bf576040519060a46020830193013583524260408301524460608301524060808201526080815261165b60a082611b21565b51902060035460648206116118d3575050845f5160206125915f395f51905f5261168482612285565b5f965b5f848152600c6020526040902080546001909101546001600160a01b03918216969116916116c6916116b891611b7a565b928960405194859485611c23565b0390a36116d38385612303565b5f848152600c602052604090206004018390556001600160a01b036116f782612271565b165f52600d60205260405f2063ffffffff61171481835416611c0c565b1663ffffffff1982541617815560018101611730848254611bff565b90556009545f1981019081116118bf57611771601783019161175960ff8454166003860161221e565b90919082549060031b91821b915f19901b1916179055565b805460ff16601381036118b2575060ff5f5b1660ff198254161790558315159081611863575b506117ca575b604084846117bb856117b0600a54612210565b600a55600b54611bff565b600b5582519182526020820152f35b6001546001600160a01b0316946117ea906117e490612271565b91612271565b853b1561185f57604051639bc5c50960e01b81526001600160a01b0392831660048201526024810185905291166044820152935f908590606490829084905af1908115611854576040946117bb92611844575b509061179d565b5f61184e91611b21565b5f61183d565b6040513d5f823e3d90fd5b5f80fd5b8061189e61187c63ffffffff6002945460201c16611c0c565b825467ffffffff00000000191660209190911b67ffffffff0000000016178255565b016118aa858254611bff565b905586611797565b60ff600181920116611783565b634e487b7160e01b5f52601160045260245ffd5b9194936118e4869892979498611ba5565b965f905b61ffff82169088821015611970578594939261ffff9261196461195d6119566001956119508d8f9d604051611945816119378c60208301958690929161ffff6020916040840195845216910152565b03601f198101835282611b21565b5190209d8e91612360565b90611bff565b998b6123b5565b918d611bd7565b520116909192936118e8565b97945050509383965f5160206125915f395f51905f529198949298611687565b636e15e3d960e11b5f5260045ffd5b90508511886114cb565b63ef4c8b3560e01b5f5260045ffd5b631d8730d160e31b5f5260045ffd5b632f9107b560e01b5f5260045ffd5b637046c88d60e01b5f5260045ffd5b600435906001600160a01b038216820361185f57565b9181601f8401121561185f5782359167ffffffffffffffff831161185f576020838186019501011161185f57565b90602080835192838152019201905f5b818110611a465750505090565b8251845260209384019390920191600101611a39565b90608060031983011261185f576004356001600160a01b038116810361185f57916024359067ffffffffffffffff821161185f57611a9c916004016119fb565b90916044356001600160a01b038116810361185f579060643590565b610100810190811067ffffffffffffffff821117611ad557604052565b634e487b7160e01b5f52604160045260245ffd5b6020810190811067ffffffffffffffff821117611ad557604052565b60c0810190811067ffffffffffffffff821117611ad557604052565b90601f8019910116810190811067ffffffffffffffff821117611ad557604052565b60405191905f835b60148210611b6457505050611b6261028083611b21565b565b6001602081928554815201930191019091611b4b565b818102929181159184041417156118bf57565b67ffffffffffffffff8111611ad55760051b60200190565b90611baf82611b8d565b611bbc6040519182611b21565b8281528092611bcd601f1991611b8d565b0190602036910137565b8051821015611beb5760209160051b010190565b634e487b7160e01b5f52603260045260245ffd5b919082018092116118bf57565b63ffffffff1663ffffffff81146118bf5760010190565b9092608092611c4e959460018060a01b03168352602083015260408201528160608201520190611a29565b90565b9190825f52600c60205260405f20926002840193845415801561204e575b61203f5780546003820180549490916001600160a01b031690601086901c6001600160b01b031661010081018082116118bf574311611ffb57825f52600860205260405f2054908115611ff3575b604051916020830193845260408301524260608301524460808301524060a082015260a08152611cee60c082611b21565b51902094600354606487061115611efc5750508054955f959094869361ffff89169290611d1a84611ba5565b945f9854995b61ffff8a1686811015611d9f57611d958c611d8f8c61ffff958f611d896001978f928e611937611d6f611d839360405192839160208301958690929161ffff6020916040840195845216910152565b519020611d7d818a89612360565b966123b5565b92611bd7565b52611bff565b9a611bff565b9a01169896611d20565b5060ff60c01b19909b16600160c01b179055600481018a905580546001600160a01b03165f90815260076020526040812055909893975092955091929150849050611e29575b5f5160206125915f395f51905f528391611b6296611e2160018060a01b03865416956001808060a01b0391015416918860405194859485611c23565b0390a3612303565b60018060a01b038254165f52600d602052600260405f20611e5661187c63ffffffff835460201c16611c0c565b01611e62858254611bff565b9055600180549083015483546001600160a01b0392831693929182169116833b1561185f57604051639bc5c50960e01b81526001600160a01b0392831660048201526024810188905291166044820152915f908390606490829084905af190811561185457611b629685935f5160206125915f395f51905f5293611eec575b509650915050611de5565b5f611ef691611b21565b5f611ee1565b60ff60c01b1916600160c01b1782555f60048401819055908152600760205260408120559394919390925083915f5160206125915f395f51905f529190611f93611f6e611f4886612285565b9361ffff60018060a01b03895416986001808060a01b0391015416945491541690611b7a565b92604051938493845260208401525f6040840152608060608401526080830190611a29565b0390a35f52600c60205260405f2060018060a01b03815416906001808060a01b0391015416906040519064e8d4a50fff82525f60208301527f4018fd83a0e35efa249d6a65521926b6d539972216ff5ff37c83f1309b7c24fb60403093a4565b839150611cbd565b606460405162461bcd60e51b815260206004820152602060248201527f426c6f636b6861736820657870697265642c2075736520726566756e644265746044820152fd5b63433835b360e11b5f5260045ffd5b5060ff600382015460c01c16611c6f565b8115612069570490565b634e487b7160e01b5f52601260045260245ffd5b6001600160a01b039092165f9081526006602052604081205494909392608086901c9081156119b85761ffff936120b3916123fd565b93169384156119a9576120ce856001600160801b039261205f565b96168610908115612206575b50611990576120e88261245c565b6040516020810191825260208152612101604082611b21565b5190209360035460648606111561218b5761211b83611ba5565b945f945b61ffff861690858210156121815761217861ffff92600192611d8961216f8b6040516121658161193760208201948d8690929161ffff6020916040840195845216910152565b519020898b61248a565b9190938d611bd7565b9601169461211f565b9795505050505050565b506121a69194935060ff925060208082518301019101612443565b16806121f057506001915b6121ba81611ba5565b925f5b61ffff8116838110156121e75761ffff916001916121df60ff86169189611bd7565b5201166121bd565b505050505f9190565b6001036121ff576002916121b1565b5f916121b1565b905085115f6120da565b5f1981146118bf5760010190565b6014821015611beb5701905f90565b9390859360a0969361ffff926001808a1b03168752602087015216604085015260806060850152816080850152848401375f828201840152601f01601f1916010190565b356001600160a01b038116810361185f5790565b90815f52600e60205260405f20915f52600c60205261ffff600360405f2001541660ff6122b182611ba5565b935416806122ef575060015b5f5b61ffff8116838110156122e95761ffff916001916122e160ff86169189611bd7565b5201166122bf565b50505050565b6001036122fd5760026122bd565b5f6122bd565b5f52600c60205260405f209060018060a01b03825416916001808060a01b0391015416916040519164e8d4a50fff835260208301527f4018fd83a0e35efa249d6a65521926b6d539972216ff5ff37c83f1309b7c24fb60403093a4565b92915f935f52600e602052600360ff60405f20541691068082145f14612387575090925050565b9060ff61239592169061252d565b61239c5750565b8091925060011b90808204600214901517156118bf5790565b5f52600e602052600360ff60405f20541691068091145f14611c4e5750600390565b5f546001600160a01b031633036123ea57565b63118cdaa760e01b5f523360045260245ffd5b9190826040918101031261185f57813560ff81169283820361185f5760209150013561ffff8116810361185f579160405190602082015260208152611c4e604082611b21565b9081602091031261185f575160ff8116810361185f5790565b60ff61247360029260208082518301019101612443565b161161247b57565b6306fd144d60e11b5f5260045ffd5b92919060ff60036124a55f9660208082518301019101612443565b930616918260ff8216146124df57826124bd9161252d565b6124c5575090565b8091935060011b90808204600214901517156118bf579190565b5092506003919050565b906124fd9060208082518301019101612443565b9060ff6040519261250d84611ae9565b1682525f52600e60205260ff8060405f209251161660ff19825416179055565b60ff169081159182612582575b8215612565575b821561254c57505090565b60021491508161255a575090565b6001915060ff161490565b91506001821480612577575b91612541565b5060ff811615612571565b60ff8216600214925061253a56fe7b2b1318c7e6cfd4bbeac6266cea2762a843a90f923acf58b837c8dbe846af08a264697066735822122005621652e5f7d625e00a5c66a772b940094f7935b1a80bbe99f7686fabff086c64736f6c634300081c0033",
  "linkReferences": {},
  "deployedLinkReferences": {},
  "immutableReferences": {},
  "inputSourceName": "project/contracts/rps/RPSGame.sol",
  "buildInfoId": "solc-0_8_28-9f339717e33f0d48e14ec649ba841d3d686ed930"
}