{
  "_format": "hh3-artifact-1",
  "contractName": "WheelGame",
  "sourceName": "contracts/pvh/WheelGame.sol",
  "abi": [
    {
      "inputs": [
        {
          "internalType": "address",
          "name": "_treasury",
          "type": "address"
        }
      ],
      "stateMutability": "nonpayable",
      "type": "constructor"
    },
    {
      "inputs": [],
      "name": "BetAmountOutOfRange",
      "type": "error"
    },
    {
      "inputs": [],
      "name": "BetDoesNotExist",
      "type": "error"
    },
    {
      "inputs": [],
      "name": "BetNotPending",
      "type": "error"
    },
    {
      "inputs": [
        {
          "internalType": "uint32",
          "name": "configId",
          "type": "uint32"
        }
      ],
      "name": "ConfigNotExists",
      "type": "error"
    },
    {
      "inputs": [],
      "name": "GameNotLive",
      "type": "error"
    },
    {
      "inputs": [],
      "name": "InsufficientBalance",
      "type": "error"
    },
    {
      "inputs": [],
      "name": "InvalidBetCount",
      "type": "error"
    },
    {
      "inputs": [],
      "name": "InvalidConfig",
      "type": "error"
    },
    {
      "inputs": [],
      "name": "NotAuthorizedCaller",
      "type": "error"
    },
    {
      "inputs": [
        {
          "internalType": "address",
          "name": "owner",
          "type": "address"
        }
      ],
      "name": "OwnableInvalidOwner",
      "type": "error"
    },
    {
      "inputs": [
        {
          "internalType": "address",
          "name": "account",
          "type": "address"
        }
      ],
      "name": "OwnableUnauthorizedAccount",
      "type": "error"
    },
    {
      "inputs": [],
      "name": "PlayerHasPendingBet",
      "type": "error"
    },
    {
      "inputs": [],
      "name": "RefundTooEarly",
      "type": "error"
    },
    {
      "inputs": [],
      "name": "TokenNotConfigured",
      "type": "error"
    },
    {
      "anonymous": false,
      "inputs": [
        {
          "indexed": true,
          "internalType": "uint256",
          "name": "betId",
          "type": "uint256"
        },
        {
          "indexed": true,
          "internalType": "address",
          "name": "player",
          "type": "address"
        },
        {
          "indexed": false,
          "internalType": "address",
          "name": "token",
          "type": "address"
        },
        {
          "indexed": false,
          "internalType": "uint256",
          "name": "amount",
          "type": "uint256"
        },
        {
          "indexed": false,
          "internalType": "uint16",
          "name": "betCount",
          "type": "uint16"
        },
        {
          "indexed": false,
          "internalType": "bytes",
          "name": "gameChoice",
          "type": "bytes"
        }
      ],
      "name": "BetPlaced",
      "type": "event"
    },
    {
      "anonymous": false,
      "inputs": [
        {
          "indexed": true,
          "internalType": "uint256",
          "name": "betId",
          "type": "uint256"
        },
        {
          "indexed": true,
          "internalType": "address",
          "name": "player",
          "type": "address"
        },
        {
          "indexed": false,
          "internalType": "uint256",
          "name": "amount",
          "type": "uint256"
        },
        {
          "indexed": false,
          "internalType": "address",
          "name": "token",
          "type": "address"
        }
      ],
      "name": "BetRefunded",
      "type": "event"
    },
    {
      "anonymous": false,
      "inputs": [
        {
          "indexed": true,
          "internalType": "uint256",
          "name": "betId",
          "type": "uint256"
        },
        {
          "indexed": true,
          "internalType": "address",
          "name": "player",
          "type": "address"
        },
        {
          "indexed": false,
          "internalType": "address",
          "name": "token",
          "type": "address"
        },
        {
          "indexed": false,
          "internalType": "uint256",
          "name": "totalBetAmount",
          "type": "uint256"
        },
        {
          "indexed": false,
          "internalType": "uint256",
          "name": "payout",
          "type": "uint256"
        },
        {
          "indexed": false,
          "internalType": "uint256[]",
          "name": "outcomes",
          "type": "uint256[]"
        }
      ],
      "name": "BetSettled",
      "type": "event"
    },
    {
      "anonymous": false,
      "inputs": [
        {
          "indexed": false,
          "internalType": "uint32",
          "name": "configId",
          "type": "uint32"
        },
        {
          "indexed": false,
          "internalType": "uint64[]",
          "name": "weights",
          "type": "uint64[]"
        },
        {
          "indexed": false,
          "internalType": "uint64[]",
          "name": "multipliers",
          "type": "uint64[]"
        },
        {
          "indexed": false,
          "internalType": "uint32",
          "name": "gameId",
          "type": "uint32"
        }
      ],
      "name": "GameConfigAdded",
      "type": "event"
    },
    {
      "anonymous": false,
      "inputs": [
        {
          "indexed": true,
          "internalType": "address",
          "name": "player",
          "type": "address"
        },
        {
          "indexed": true,
          "internalType": "address",
          "name": "game",
          "type": "address"
        },
        {
          "indexed": true,
          "internalType": "address",
          "name": "currency",
          "type": "address"
        },
        {
          "indexed": false,
          "internalType": "uint256",
          "name": "gameIdentifier",
          "type": "uint256"
        },
        {
          "indexed": false,
          "internalType": "uint256",
          "name": "payout",
          "type": "uint256"
        }
      ],
      "name": "LivePayout",
      "type": "event"
    },
    {
      "anonymous": false,
      "inputs": [
        {
          "indexed": true,
          "internalType": "address",
          "name": "previousOwner",
          "type": "address"
        },
        {
          "indexed": true,
          "internalType": "address",
          "name": "newOwner",
          "type": "address"
        }
      ],
      "name": "OwnershipTransferred",
      "type": "event"
    },
    {
      "anonymous": false,
      "inputs": [
        {
          "indexed": false,
          "internalType": "uint256",
          "name": "id",
          "type": "uint256"
        },
        {
          "indexed": true,
          "internalType": "address",
          "name": "receiver",
          "type": "address"
        },
        {
          "indexed": true,
          "internalType": "address",
          "name": "token",
          "type": "address"
        },
        {
          "indexed": false,
          "internalType": "uint256",
          "name": "amount",
          "type": "uint256"
        },
        {
          "indexed": false,
          "internalType": "uint32",
          "name": "configId",
          "type": "uint32"
        },
        {
          "indexed": false,
          "internalType": "uint16",
          "name": "betCount",
          "type": "uint16"
        },
        {
          "indexed": false,
          "internalType": "uint256",
          "name": "stopGain",
          "type": "uint256"
        },
        {
          "indexed": false,
          "internalType": "uint256",
          "name": "stopLoss",
          "type": "uint256"
        }
      ],
      "name": "PlaceBet",
      "type": "event"
    },
    {
      "anonymous": false,
      "inputs": [
        {
          "indexed": true,
          "internalType": "uint256",
          "name": "id",
          "type": "uint256"
        },
        {
          "indexed": true,
          "internalType": "address",
          "name": "receiver",
          "type": "address"
        },
        {
          "indexed": true,
          "internalType": "address",
          "name": "token",
          "type": "address"
        },
        {
          "indexed": false,
          "internalType": "uint256",
          "name": "totalBetAmount",
          "type": "uint256"
        },
        {
          "indexed": false,
          "internalType": "uint32",
          "name": "configId",
          "type": "uint32"
        },
        {
          "indexed": false,
          "internalType": "uint8[]",
          "name": "rolled",
          "type": "uint8[]"
        },
        {
          "indexed": false,
          "internalType": "uint256",
          "name": "payout",
          "type": "uint256"
        }
      ],
      "name": "Roll",
      "type": "event"
    },
    {
      "anonymous": false,
      "inputs": [
        {
          "indexed": false,
          "internalType": "uint8",
          "name": "previousMaxColors",
          "type": "uint8"
        },
        {
          "indexed": false,
          "internalType": "uint8",
          "name": "maxColors",
          "type": "uint8"
        }
      ],
      "name": "SetMaxColors",
      "type": "event"
    },
    {
      "inputs": [
        {
          "internalType": "uint64[]",
          "name": "weights_",
          "type": "uint64[]"
        },
        {
          "internalType": "uint64[]",
          "name": "multipliers_",
          "type": "uint64[]"
        },
        {
          "internalType": "uint32",
          "name": "gameId",
          "type": "uint32"
        }
      ],
      "name": "addGameConfig",
      "outputs": [
        {
          "internalType": "uint32",
          "name": "configId",
          "type": "uint32"
        }
      ],
      "stateMutability": "nonpayable",
      "type": "function"
    },
    {
      "inputs": [
        {
          "internalType": "uint256",
          "name": "",
          "type": "uint256"
        }
      ],
      "name": "baseBets",
      "outputs": [
        {
          "internalType": "address",
          "name": "player",
          "type": "address"
        },
        {
          "internalType": "address",
          "name": "token",
          "type": "address"
        },
        {
          "internalType": "uint256",
          "name": "amount",
          "type": "uint256"
        },
        {
          "internalType": "uint16",
          "name": "betCount",
          "type": "uint16"
        },
        {
          "internalType": "uint176",
          "name": "placeBlockNumber",
          "type": "uint176"
        },
        {
          "internalType": "bool",
          "name": "resolved",
          "type": "bool"
        },
        {
          "internalType": "bool",
          "name": "isCreditBet",
          "type": "bool"
        },
        {
          "internalType": "uint256",
          "name": "payout",
          "type": "uint256"
        }
      ],
      "stateMutability": "view",
      "type": "function"
    },
    {
      "inputs": [
        {
          "internalType": "address",
          "name": "",
          "type": "address"
        }
      ],
      "name": "callers",
      "outputs": [
        {
          "internalType": "bool",
          "name": "",
          "type": "bool"
        }
      ],
      "stateMutability": "view",
      "type": "function"
    },
    {
      "inputs": [],
      "name": "configsCount",
      "outputs": [
        {
          "internalType": "uint32",
          "name": "",
          "type": "uint32"
        }
      ],
      "stateMutability": "view",
      "type": "function"
    },
    {
      "inputs": [
        {
          "internalType": "bytes",
          "name": "gameChoice",
          "type": "bytes"
        }
      ],
      "name": "decodeGameChoice",
      "outputs": [
        {
          "internalType": "uint32",
          "name": "configId",
          "type": "uint32"
        },
        {
          "internalType": "uint16",
          "name": "betCount",
          "type": "uint16"
        },
        {
          "internalType": "uint256",
          "name": "stopGain",
          "type": "uint256"
        },
        {
          "internalType": "uint256",
          "name": "stopLoss",
          "type": "uint256"
        }
      ],
      "stateMutability": "pure",
      "type": "function"
    },
    {
      "inputs": [
        {
          "internalType": "uint32",
          "name": "configId",
          "type": "uint32"
        },
        {
          "internalType": "uint16",
          "name": "betCount",
          "type": "uint16"
        },
        {
          "internalType": "uint256",
          "name": "stopGain",
          "type": "uint256"
        },
        {
          "internalType": "uint256",
          "name": "stopLoss",
          "type": "uint256"
        }
      ],
      "name": "encodeGameChoice",
      "outputs": [
        {
          "internalType": "bytes",
          "name": "",
          "type": "bytes"
        }
      ],
      "stateMutability": "pure",
      "type": "function"
    },
    {
      "inputs": [],
      "name": "explosionRate",
      "outputs": [
        {
          "internalType": "uint256",
          "name": "",
          "type": "uint256"
        }
      ],
      "stateMutability": "view",
      "type": "function"
    },
    {
      "inputs": [
        {
          "internalType": "uint32",
          "name": "configId",
          "type": "uint32"
        }
      ],
      "name": "gameConfigs",
      "outputs": [
        {
          "components": [
            {
              "internalType": "uint72[]",
              "name": "weightRanges",
              "type": "uint72[]"
            },
            {
              "internalType": "uint64[]",
              "name": "multipliers",
              "type": "uint64[]"
            },
            {
              "internalType": "uint64",
              "name": "maxMultiplier",
              "type": "uint64"
            },
            {
              "internalType": "uint32",
              "name": "gameId",
              "type": "uint32"
            }
          ],
          "internalType": "struct WheelGame.GameConfig",
          "name": "",
          "type": "tuple"
        }
      ],
      "stateMutability": "view",
      "type": "function"
    },
    {
      "inputs": [],
      "name": "gameCredits",
      "outputs": [
        {
          "internalType": "contract GameCredits",
          "name": "",
          "type": "address"
        }
      ],
      "stateMutability": "view",
      "type": "function"
    },
    {
      "inputs": [],
      "name": "gameIsLive",
      "outputs": [
        {
          "internalType": "bool",
          "name": "",
          "type": "bool"
        }
      ],
      "stateMutability": "view",
      "type": "function"
    },
    {
      "inputs": [
        {
          "internalType": "address",
          "name": "player",
          "type": "address"
        }
      ],
      "name": "getPlayerInfo",
      "outputs": [
        {
          "components": [
            {
              "internalType": "uint32",
              "name": "totalBets",
              "type": "uint32"
            },
            {
              "internalType": "uint32",
              "name": "totalWins",
              "type": "uint32"
            },
            {
              "internalType": "uint256",
              "name": "totalInValue",
              "type": "uint256"
            },
            {
              "internalType": "uint256",
              "name": "totalOutValue",
              "type": "uint256"
            },
            {
              "internalType": "uint256[20]",
              "name": "lastBetIds",
              "type": "uint256[20]"
            },
            {
              "internalType": "uint8",
              "name": "lastBetIdx",
              "type": "uint8"
            }
          ],
          "internalType": "struct BaseGame.PlayerInfo",
          "name": "",
          "type": "tuple"
        }
      ],
      "stateMutability": "view",
      "type": "function"
    },
    {
      "inputs": [
        {
          "internalType": "address",
          "name": "player",
          "type": "address"
        }
      ],
      "name": "lastBets",
      "outputs": [
        {
          "internalType": "uint256[20]",
          "name": "ids",
          "type": "uint256[20]"
        },
        {
          "internalType": "uint8",
          "name": "idx",
          "type": "uint8"
        }
      ],
      "stateMutability": "view",
      "type": "function"
    },
    {
      "inputs": [],
      "name": "maxColors",
      "outputs": [
        {
          "internalType": "uint8",
          "name": "",
          "type": "uint8"
        }
      ],
      "stateMutability": "view",
      "type": "function"
    },
    {
      "inputs": [],
      "name": "nextBetId",
      "outputs": [
        {
          "internalType": "uint256",
          "name": "",
          "type": "uint256"
        }
      ],
      "stateMutability": "view",
      "type": "function"
    },
    {
      "inputs": [],
      "name": "owner",
      "outputs": [
        {
          "internalType": "address",
          "name": "",
          "type": "address"
        }
      ],
      "stateMutability": "view",
      "type": "function"
    },
    {
      "inputs": [
        {
          "internalType": "address",
          "name": "",
          "type": "address"
        }
      ],
      "name": "pendingBetId",
      "outputs": [
        {
          "internalType": "uint256",
          "name": "",
          "type": "uint256"
        }
      ],
      "stateMutability": "view",
      "type": "function"
    },
    {
      "inputs": [
        {
          "components": [
            {
              "internalType": "address",
              "name": "player",
              "type": "address"
            },
            {
              "internalType": "bytes",
              "name": "gameChoice",
              "type": "bytes"
            },
            {
              "internalType": "address",
              "name": "token",
              "type": "address"
            },
            {
              "internalType": "uint256",
              "name": "amount",
              "type": "uint256"
            },
            {
              "internalType": "bool",
              "name": "isCreditBet",
              "type": "bool"
            },
            {
              "internalType": "uint256",
              "name": "seed",
              "type": "uint256"
            }
          ],
          "internalType": "struct IBaseGame.PlayParams",
          "name": "params",
          "type": "tuple"
        }
      ],
      "name": "playAndSettle",
      "outputs": [
        {
          "internalType": "uint256",
          "name": "betId",
          "type": "uint256"
        },
        {
          "internalType": "uint256",
          "name": "payout",
          "type": "uint256"
        }
      ],
      "stateMutability": "nonpayable",
      "type": "function"
    },
    {
      "inputs": [
        {
          "internalType": "address",
          "name": "player",
          "type": "address"
        },
        {
          "internalType": "bytes",
          "name": "gameChoice",
          "type": "bytes"
        },
        {
          "internalType": "address",
          "name": "token",
          "type": "address"
        },
        {
          "internalType": "uint256",
          "name": "amount",
          "type": "uint256"
        }
      ],
      "name": "playFromRouter",
      "outputs": [
        {
          "internalType": "uint256",
          "name": "betId",
          "type": "uint256"
        }
      ],
      "stateMutability": "nonpayable",
      "type": "function"
    },
    {
      "inputs": [
        {
          "internalType": "address",
          "name": "player",
          "type": "address"
        },
        {
          "internalType": "bytes",
          "name": "gameChoice",
          "type": "bytes"
        },
        {
          "internalType": "address",
          "name": "token",
          "type": "address"
        },
        {
          "internalType": "uint256",
          "name": "amount",
          "type": "uint256"
        }
      ],
      "name": "playFromRouterWithCredits",
      "outputs": [
        {
          "internalType": "uint256",
          "name": "betId",
          "type": "uint256"
        }
      ],
      "stateMutability": "nonpayable",
      "type": "function"
    },
    {
      "inputs": [
        {
          "internalType": "address",
          "name": "",
          "type": "address"
        }
      ],
      "name": "playerInfo",
      "outputs": [
        {
          "internalType": "uint32",
          "name": "totalBets",
          "type": "uint32"
        },
        {
          "internalType": "uint32",
          "name": "totalWins",
          "type": "uint32"
        },
        {
          "internalType": "uint256",
          "name": "totalInValue",
          "type": "uint256"
        },
        {
          "internalType": "uint256",
          "name": "totalOutValue",
          "type": "uint256"
        },
        {
          "internalType": "uint8",
          "name": "lastBetIdx",
          "type": "uint8"
        }
      ],
      "stateMutability": "view",
      "type": "function"
    },
    {
      "inputs": [
        {
          "internalType": "address",
          "name": "",
          "type": "address"
        }
      ],
      "name": "playerSeeds",
      "outputs": [
        {
          "internalType": "uint256",
          "name": "",
          "type": "uint256"
        }
      ],
      "stateMutability": "view",
      "type": "function"
    },
    {
      "inputs": [
        {
          "internalType": "uint32",
          "name": "",
          "type": "uint32"
        }
      ],
      "name": "playsPerConfigId",
      "outputs": [
        {
          "internalType": "uint256",
          "name": "",
          "type": "uint256"
        }
      ],
      "stateMutability": "view",
      "type": "function"
    },
    {
      "inputs": [
        {
          "internalType": "uint32[]",
          "name": "configIds",
          "type": "uint32[]"
        }
      ],
      "name": "playsPerConfigIds",
      "outputs": [
        {
          "internalType": "uint256[]",
          "name": "counts",
          "type": "uint256[]"
        }
      ],
      "stateMutability": "view",
      "type": "function"
    },
    {
      "inputs": [
        {
          "internalType": "bytes",
          "name": "gameChoice",
          "type": "bytes"
        },
        {
          "internalType": "address",
          "name": "token",
          "type": "address"
        },
        {
          "internalType": "uint256",
          "name": "amount",
          "type": "uint256"
        },
        {
          "internalType": "uint256",
          "name": "seed",
          "type": "uint256"
        }
      ],
      "name": "previewPlay",
      "outputs": [
        {
          "internalType": "uint256",
          "name": "payout",
          "type": "uint256"
        },
        {
          "internalType": "uint256[]",
          "name": "outcomes",
          "type": "uint256[]"
        }
      ],
      "stateMutability": "view",
      "type": "function"
    },
    {
      "inputs": [
        {
          "internalType": "uint256",
          "name": "betId",
          "type": "uint256"
        }
      ],
      "name": "refundBet",
      "outputs": [],
      "stateMutability": "nonpayable",
      "type": "function"
    },
    {
      "inputs": [],
      "name": "renounceOwnership",
      "outputs": [],
      "stateMutability": "nonpayable",
      "type": "function"
    },
    {
      "inputs": [
        {
          "internalType": "address",
          "name": "_caller",
          "type": "address"
        },
        {
          "internalType": "bool",
          "name": "_allowed",
          "type": "bool"
        }
      ],
      "name": "setCaller",
      "outputs": [],
      "stateMutability": "nonpayable",
      "type": "function"
    },
    {
      "inputs": [
        {
          "internalType": "uint256",
          "name": "_explosionRate",
          "type": "uint256"
        }
      ],
      "name": "setExplosionRate",
      "outputs": [],
      "stateMutability": "nonpayable",
      "type": "function"
    },
    {
      "inputs": [
        {
          "internalType": "address",
          "name": "_gameCredits",
          "type": "address"
        }
      ],
      "name": "setGameCredits",
      "outputs": [],
      "stateMutability": "nonpayable",
      "type": "function"
    },
    {
      "inputs": [
        {
          "internalType": "uint8",
          "name": "maxColors_",
          "type": "uint8"
        }
      ],
      "name": "setMaxColors",
      "outputs": [],
      "stateMutability": "nonpayable",
      "type": "function"
    },
    {
      "inputs": [
        {
          "internalType": "uint256",
          "name": "newSeed",
          "type": "uint256"
        }
      ],
      "name": "setPlayerSeed",
      "outputs": [],
      "stateMutability": "nonpayable",
      "type": "function"
    },
    {
      "inputs": [
        {
          "internalType": "address",
          "name": "token",
          "type": "address"
        },
        {
          "internalType": "uint128",
          "name": "minBet",
          "type": "uint128"
        },
        {
          "internalType": "uint128",
          "name": "maxBet",
          "type": "uint128"
        }
      ],
      "name": "setTokenConfig",
      "outputs": [],
      "stateMutability": "nonpayable",
      "type": "function"
    },
    {
      "inputs": [
        {
          "internalType": "address",
          "name": "_treasury",
          "type": "address"
        }
      ],
      "name": "setTreasury",
      "outputs": [],
      "stateMutability": "nonpayable",
      "type": "function"
    },
    {
      "inputs": [
        {
          "internalType": "uint256",
          "name": "betId",
          "type": "uint256"
        },
        {
          "internalType": "uint256",
          "name": "seed",
          "type": "uint256"
        }
      ],
      "name": "settleBet",
      "outputs": [],
      "stateMutability": "nonpayable",
      "type": "function"
    },
    {
      "inputs": [
        {
          "internalType": "address",
          "name": "",
          "type": "address"
        }
      ],
      "name": "supportedTokenInfo",
      "outputs": [
        {
          "internalType": "uint128",
          "name": "minBetAmount",
          "type": "uint128"
        },
        {
          "internalType": "uint128",
          "name": "maxBetAmount",
          "type": "uint128"
        }
      ],
      "stateMutability": "view",
      "type": "function"
    },
    {
      "inputs": [],
      "name": "toggleGameIsLive",
      "outputs": [],
      "stateMutability": "nonpayable",
      "type": "function"
    },
    {
      "inputs": [],
      "name": "totalBetsGlobal",
      "outputs": [
        {
          "internalType": "uint256",
          "name": "",
          "type": "uint256"
        }
      ],
      "stateMutability": "view",
      "type": "function"
    },
    {
      "inputs": [],
      "name": "totalValueGlobal",
      "outputs": [
        {
          "internalType": "uint256",
          "name": "",
          "type": "uint256"
        }
      ],
      "stateMutability": "view",
      "type": "function"
    },
    {
      "inputs": [
        {
          "internalType": "address",
          "name": "newOwner",
          "type": "address"
        }
      ],
      "name": "transferOwnership",
      "outputs": [],
      "stateMutability": "nonpayable",
      "type": "function"
    },
    {
      "inputs": [],
      "name": "treasury",
      "outputs": [
        {
          "internalType": "contract ITreasury",
          "name": "",
          "type": "address"
        }
      ],
      "stateMutability": "view",
      "type": "function"
    },
    {
      "inputs": [
        {
          "internalType": "uint32",
          "name": "configId",
          "type": "uint32"
        },
        {
          "internalType": "uint64[]",
          "name": "weights_",
          "type": "uint64[]"
        },
        {
          "internalType": "uint64[]",
          "name": "multipliers_",
          "type": "uint64[]"
        },
        {
          "internalType": "uint32",
          "name": "gameId",
          "type": "uint32"
        }
      ],
      "name": "updateGameConfig",
      "outputs": [],
      "stateMutability": "nonpayable",
      "type": "function"
    },
    {
      "inputs": [
        {
          "internalType": "uint256",
          "name": "betId",
          "type": "uint256"
        }
      ],
      "name": "wheelBets",
      "outputs": [
        {
          "components": [
            {
              "internalType": "uint32",
              "name": "configId",
              "type": "uint32"
            },
            {
              "internalType": "uint256",
              "name": "stopGain",
              "type": "uint256"
            },
            {
              "internalType": "uint256",
              "name": "stopLoss",
              "type": "uint256"
            },
            {
              "internalType": "uint8[]",
              "name": "rolled",
              "type": "uint8[]"
            }
          ],
          "internalType": "struct WheelGame.WheelBet",
          "name": "",
          "type": "tuple"
        }
      ],
      "stateMutability": "view",
      "type": "function"
    },
    {
      "inputs": [
        {
          "internalType": "address",
          "name": "beneficiary",
          "type": "address"
        },
        {
          "internalType": "uint256",
          "name": "amount",
          "type": "uint256"
        },
        {
          "internalType": "address",
          "name": "token",
          "type": "address"
        }
      ],
      "name": "withdrawCustomTokenFunds",
      "outputs": [],
      "stateMutability": "nonpayable",
      "type": "function"
    }
  ],
  "bytecode": "0x60803460d557601f614df938819003918201601f19168301916001600160401b0383118484101760d95780849260209460405283398101031260d557516001600160a01b0381169081900360d557331560c2575f8054336001600160a01b0319821681178355604051939290916001600160a01b0316907f8be0079c531659141344cd1fd0a4f28419497f9722a3daafe3b4186f6b6457e09080a3600180546001600160a01b0319169190911781556009556004600355614d0b90816100ee8239f35b631e4fbdf760e01b5f525f60045260245ffd5b5f80fd5b634e487b7160e01b5f52604160045260245ffdfe60a06040526004361015610011575f80fd5b5f5f3560e01c80630123db5f14612a0357806303abf75f1461253257806306c924bb146124b657806307106f271461242a5780630d2cbe13146123e6578063145287d6146123c85780631aa60a3e146123a35780632a69bf1d1461237a57806339e79e7914611ce65780633a05b68a14611c4c578063483bdeec1461192c5780634b114691146118bc57806358ee9c431461180257806359328401146116d65780635ce444c4146111275780635d4d5bb81461108b57806361d027b3146110625780636e156a3b14610fee578063715018a614610f94578063781355bf14610da5578063789a6b6714610d705780637bbf4a3f14610d3157806381c8ec1b14610d135780638d0b42d814610cd35780638da5cb5b14610cac5780639aca279214610c8e5780639cae6eae14610c3b578063a045a6fc14610c0c578063a385cd4114610b74578063b14c800914610a3c578063b42caef914610a19578063b7dc5752146109f6578063bf65cf6214610987578063c2a8c47014610963578063d1f156d714610624578063d414d0c214610601578063e1fdb4b414610395578063e695c25314610377578063e71381431461032d578063ee33f9c4146102f4578063f0f44260146102b4578063f2fde38b1461022e5763f4efd881146101f3575f80fd5b3461022b57602036600319011261022b576020906040906001600160a01b0361021a612f3b565b168152600783522054604051908152f35b80fd5b503461022b57602036600319011261022b57610248612f3b565b610250613fd1565b6001600160a01b031680156102a05781546001600160a01b03198116821783556001600160a01b03167f8be0079c531659141344cd1fd0a4f28419497f9722a3daafe3b4186f6b6457e08380a380f35b631e4fbdf760e01b82526004829052602482fd5b503461022b57602036600319011261022b576102ce612f3b565b6102d6613fd1565b60018060a01b03166001600160601b0360a01b600154161760015580f35b503461022b57602036600319011261022b576020906040906001600160a01b0361031c612f3b565b168152600883522054604051908152f35b503461022b57602036600319011261022b5760409081906001600160a01b03610354612f3b565b168152600660205220548151906001600160801b038116825260801c6020820152f35b503461022b578060031936011261022b576020600b54604051908152f35b503461022b57602036600319011261022b57600435808252600c60205260408220906002820154156105f257600382019081549160ff8360c01c166105e357601083901c6001600160b01b03908116610100019081116105cf576001600160b01b03164311156105c05760ff90828652600c6020526104256040872061ffff60036002830154920154169061315a565b60c083901b19909416600160c01b1781556004850184905584546001600160a01b031686526007602052604086208690555460c81c161561053957600254835485916001600160a01b039182169116803b1561053557604051637709a1a760e11b81526001600160a01b039290921660048301526024820185905282908290604490829084905af1801561052a57610511575b505061050e925b805460019190910154604080518581526001600160a01b039283166020820152929091169183917fb27522330a91a6a320aeeac4733cad91c61b5384667c37acb1855ace8dc34e5091a36146ed565b80f35b8161051b91613098565b61052657835f6104b8565b8380fd5b6040513d84823e3d90fd5b8280fd5b6001805490840154845486926001600160a01b039081169281169116823b1561052657604051639bc5c50960e01b81526001600160a01b03928316600482015260248101879052911660448201529082908290606490829084905af1801561052a576105ab575b505061050e926104bf565b816105b591613098565b61052657835f6105a0565b634a01daaf60e11b8552600485fd5b634e487b7160e01b86526011600452602486fd5b63433835b360e11b8552600485fd5b633f9b7dd560e11b8352600483fd5b503461022b578060031936011261022b57602060ff600454166040519015158152f35b503461022b5761063336612feb565b949091939294338252600560205260ff604083205416156109545760ff60045416156109455760018060a01b0383169283835260066020526040832054948560801c96871561093657610686818a613ff7565b909261ffff8416998a15610927576001600160801b036106a68c896131a0565b9a168a1090811561091d575b5061090e576001600160a01b0316808752600760205260408720549098906108ff576106dd82614030565b866009549a8b809a6106ee826132f3565b6009558c845260076020528160408520556040519461070c86613046565b8d86526020808701928352604080880192835260608801958652436001600160b01b03166080890190815260a0890188815260c0808b018a815260e08c018b815298909a52600c909452918f20985189546001600160a01b03199081166001600160a01b03928316178b55955160018b018054909716911617909455915160028801559351600387018054935192516001600160c81b031990941661ffff9092169190911760109290921b62010000600160c01b03169190911791151590931b60ff60c01b16178255915b51815460ff60c81b191690151560c81b60ff60c81b16179055516004909101556108019087614070565b868552600d6020526040852098895463ffffffff1661081f90613363565b63ffffffff1663ffffffff198b5416178a5560018a01858154906108429161316d565b90558660178b019a8b5460ff16906003019061085d91613f7e565b610877929082549060031b91821b915f19901b1916179055565b895460ff1692601384145f149a60ff7f2796ecbf0b0464407570c503af31d0a181d0c00ac867a6c3d3c330267e93fa40986108e89660209e6108f357505b1660ff198254161790556108ca600a546132f3565b600a556108d986600b5461316d565b600b5560405195869586613f8d565b0390a3604051908152f35b829150600101166108b5565b63f99d560d60e01b8752600487fd5b636e15e3d960e11b8752600487fd5b905089115f6106b2565b63ef4c8b3560e01b8852600488fd5b631d8730d160e31b8552600485fd5b632f9107b560e01b8252600482fd5b637046c88d60e01b8252600482fd5b503461022b578060031936011261022b57602063ffffffff600e5416604051908152f35b503461022b57602036600319011261022b57600435906001600160401b03821161022b576109f26109c66109be3660048601612fbe565b810190612f84565b6040805163ffffffff909516855261ffff90931660208501529183015260608201529081906080820190565b0390f35b503461022b57602036600319011261022b57610a10613fd1565b60043560035580f35b503461022b578060031936011261022b57602060ff600e54821c16604051908152f35b503461022b57606036600319011261022b57610a56612f3b565b602435906044356001600160a01b038116919082900361052657610a78613fd1565b6040516370a0823160e01b8152306004820152602081602481865afa908115610b69578591610b33575b508311610b245760405163a9059cbb60e01b81526001600160a01b0391909116600482015260248101929092526020908290604490829086905af1801561052a57610aeb575080f35b6020813d602011610b1c575b81610b0460209383613098565b81010312610b1857518015150361022b5780f35b5080fd5b3d9150610af7565b631e9acf1760e31b8452600484fd5b90506020813d602011610b61575b81610b4e60209383613098565b81010312610b5d57515f610aa2565b8480fd5b3d9150610b41565b6040513d87823e3d90fd5b503461022b57602036600319011261022b576040610100916004358152600c6020522060018060a01b038154169060ff60018060a01b0360018301541691600281015460046003830154920154936040519586526020860152604085015261ffff8116606085015260018060b01b038160101c166080850152818160c01c16151560a085015260c81c16151560c083015260e0820152f35b503461022b578060031936011261022b57610c25613fd1565b60045460ff80821615169060ff19161760045580f35b503461022b57604036600319011261022b57610c55612f3b565b6024359081151580920361053557610c6b613fd1565b60018060a01b031682526005602052604082209060ff8019835416911617905580f35b503461022b578060031936011261022b576020600954604051908152f35b503461022b578060031936011261022b57546040516001600160a01b039091168152602090f35b503461022b57602036600319011261022b57610ced612f3b565b610cf5613fd1565b60018060a01b03166001600160601b0360a01b600254161760025580f35b503461022b578060031936011261022b576020600354604051908152f35b503461022b57602036600319011261022b5760209060ff906040906001600160a01b03610d5c612f3b565b168152600584522054166040519015158152f35b503461022b57602036600319011261022b57604060209163ffffffff610d94612ef8565b168152601183522054604051908152f35b503461022b57610db436612feb565b949091939294338252600560205260ff604083205416156109545760ff60045416156109455760018060a01b0383169283835260066020526040832054948560801c96871561093657610e07818a613ff7565b909261ffff8416998a15610927576001600160801b03610e278c896131a0565b9a168a10908115610f8a575b5061090e576001600160a01b0316808752600760205260408720549098906108ff57610e5e82614030565b866009549a8b809a610e6f826132f3565b6009558c8452600760205281604085205560405194610e8d86613046565b8d86526020860191825260408601908152606086019384526080860190600160b01b600190034316825260a087019286845260c08801946001865260e0890197808952528d600c6020526040902097600160a01b6001900390600160a01b60019003905116166001600160601b0360a01b895416178855600160a01b600190039051166001880190600160a01b60019003166001600160601b0360a01b82541617905551600287015560038601935161ffff16845491600160c01b620100009003905160101b16916001600160401b0360c01b16171783555115156107d790839081549060ff60c01b90151560c01b169060ff60c01b1916179055565b905089115f610e33565b503461022b578060031936011261022b57610fad613fd1565b80546001600160a01b03198116825581906001600160a01b03167f8be0079c531659141344cd1fd0a4f28419497f9722a3daafe3b4186f6b6457e08280a380f35b503461022b57608036600319011261022b576004356001600160401b038111610b185761101f903690600401612fbe565b906024356001600160a01b038116810361052657611045935060643592604435926139b1565b906109f26040519283928352604060208401526040830190612f51565b503461022b578060031936011261022b576001546040516001600160a01b039091168152602090f35b503461022b57608036600319011261022b5760043563ffffffff81168103610b185760243561ffff81168103610535576040805163ffffffff939093166020840190815261ffff92909216838201526044356060840152606435608080850191909152835291906110fd60a083613098565b8251938492602084525180928160208601528585015e828201840152601f01601f19168101030190f35b503461022b57606036600319011261022b576004356001600160401b038111610b1857611158903690600401612f0b565b6024356001600160401b03811161052657611177903690600401612f0b565b60443593919263ffffffff851692908386036116d257611195613fd1565b801580156116c1575b80156116b7575b6116a8578692879188916111b8826130d0565b978a5b60ff8116848110156112a5576111da6111d5828686613102565b613126565b986001600160401b036111f16111d584898d613102565b1690811561129657908e611207828f959461313a565b9b6112266001600160401b0382169b6112208d8661315a565b9061316d565b9a6001600160401b038b161061128c575b5061125b60ff9593600195936001600160481b03935081155f14611266579361318c565b9116905201166111bb565b611286908461127f8a6112788a61317a565b168861318c565b511661313a565b9361318c565b985061125b611237565b6306b7c75960e31b8f5260048ffd5b5050878996948b94966001600160481b038e9a166112c381836131a0565b612710811161169957612710149182611686575b5050611677576001600160401b0316906127108211156116775763ffffffff600e5416976040519061130882613062565b8152611313856130b9565b6113206040519182613098565b858152602081018660051b8601903682116116735786905b82821061165b57505050602082019081526040820193845260608201928352898b52601060205260408b2091518051906001600160401b03821161154c57600160401b821161154c579060208d928554838755808410611608575b50019084835260208320906003810492845b8481106115b75750600384028083039203611560575b50505050506001820190518051906001600160401b03821161154c576020906113e483856131de565b01918c5260208c20908060021c928d805b858210611507575050600319821690910390816114af575b50508451600284018054865163ffffffff60401b60409190911b166001600160401b039093166bffffffffffffffffffffffff199091161791909117905560208b7ffb491f1f2a3d2611f4994df2b3a23b0ee97dfb2d6183216bcb5769f1f9870b1f8c8c6114a48d8d8d600e5463ffffffff61148a818316613363565b169063ffffffff191617600e5560405195869589876132a0565b0390a1604051908152f35b908d949d945b8181106114d85750505001556020988263ffffffff836001600160401b0361140d565b82516001600160401b03908116600683901b90811b91901b1990961695909517946020909201916001016114b5565b805b6004811061151f5750848201556001018e6113f5565b83519093916001916020916001600160401b03600688901b81811b199092169216901b1792019301611509565b634e487b7160e01b8d52604160045260248dfd5b90845b8181106115795750505001558a8c8080806113bb565b90919460206115ad6001926001600160481b0389511690856009026001600160481b03809160031b9316831b921b19161790565b9601929101611563565b9091929394805b600381106115d95750848201558f94939291906001016113a5565b83519093916001916020916001600160481b036009880260031b81811b199092169216901b17920193016115be565b611634908786528386206003600281818901048301936009838a06028061163a575b50010401906131c8565b8f611393565b611655905f198701908154905f199060200360031b1c169055565b5f61162a565b602080916116688461324b565b815201910190611338565b8c80fd5b6306b7c75960e31b8952600489fd5b61169092506131be565b15158a806112d7565b6306b7c75960e31b8c5260048cfd5b6306b7c75960e31b8752600487fd5b50828114156111a5565b5060ff600e5460201c16811161119e565b8680fd5b503461022b57602036600319011261022b576116f0612f3b565b8160a06040516116ff8161307d565b828152826020820152826040820152826060820152610280604051906117258183613098565b368237608082015201526001600160a01b03168152600d6020526040808220905190916117518261307d565b82549263ffffffff8416835263ffffffff602084019460201c1684526001810154604084019081526002820154906060850191825263ffffffff60ff601761179b60038701613301565b95608089019687520154169660a087019788528160405197511687525116602086015251604085015251606084015251608083019091905b601482106117ec576103208460ff875116610300820152f35b60208060019285518152019301910190916117d3565b503461022b57606036600319011261022b5761181c612f3b565b602435906001600160801b03821680920361053557604435906001600160801b0382168092036105265761184e613fd1565b60405192604084018481106001600160401b038211176118a85760405283526020830191825260018060a01b0316835260066020526001600160801b0360408420925116906001600160801b0319905160801b1617905580f35b634e487b7160e01b86526041600452602486fd5b503461022b57602036600319011261022b5760a0906040906001600160a01b036118e4612f3b565b168152600d6020522080549060018101549060ff60176002830154920154169163ffffffff60405194818116865260201c166020850152604084015260608301526080820152f35b503461022b57602036600319011261022b5763ffffffff61194b612ef8565b82606060405161195a81613062565b81815281602082015282604082015201521681526010602052604081206040519161198483613062565b6040518081602085549283815201858552602085209285905b806002830110611c10576119cb945491818110611bf6575b818110611bd9575b10611bc2575b500382613098565b8352600182019160405180938491602082549182815201918552602085209085915b816003840110611b705791611a2d939160029695935491818110611b56575b818110611b39575b818110611b1c575b10611b0e575b509694960385613098565b6020830193845201549260408201906001600160401b038516825263ffffffff606084019560401c168552604051936020855260a08501935193608060208701528451809152602060c08701950190835b818110611aef575050505192601f19858203016040860152602080855192838152019401915b818110611ad05750505082936001600160401b0363ffffffff9251166060850152511660808301520390f35b82516001600160401b0316855260209485019490920191600101611aa4565b82516001600160481b0316875260209687019690920191600101611a7e565b60c01c81526020015f611a22565b9260206001916001600160401b038560801c168152019301611a1c565b9260206001916001600160401b038560401c168152019301611a14565b9260206001916001600160401b0385168152019301611a0c565b935090916001608060049286546001600160401b03811682526001600160401b038160401c1660208301526001600160401b0381841c16604083015260c01c60608201520194019201908693926119ed565b60901c6001600160481b031681526020015f6119c3565b9260206001916001600160481b038560481c1681520193016119bd565b9260206001916001600160481b03851681520193016119b5565b91600391935060606001916001600160481b0387548181168352818160481c16602084015260901c16604082015201940192018492939161199d565b503461022b57602036600319011261022b576004356001600160401b038111610b1857611c7d903690600401612f0b565b90611c87826130d0565b91835b818110611ca757604051602080825281906109f290820187612f51565b611cb2818385613102565b359063ffffffff8216809203611ce257600191865260116020526040862054611cdb828761318c565b5201611c8a565b8580fd5b503461022b57602036600319011261022b57606080604051611d0781613062565b83815283602082015283604082015201526004358152600f6020526040812090604051611d3381613062565b63ffffffff8354168152600183015492602082019384526003600282015491604084019283520190604051808360208295549384815201908752602087209287905b80601f8301106121d257611e909454918181106121be575b8181106121a7575b818110612190575b818110612179575b818110612163575b81811061214c575b818110612135575b81811061211e575b818110612107575b8181106120f0575b8181106120d9575b8181106120c2575b8181106120ab575b818110612094575b81811061207d575b818110612066575b81811061204f575b818110612038575b818110612021575b81811061200a575b818110611ff3575b818110611fdc575b818110611fc5575b818110611fae575b818110611f97575b818110611f80575b818110611f69575b818110611f52575b818110611f3b575b818110611f24575b818110611f0d575b10611eff575b5096959392960382613098565b606083019081526040519485946020865263ffffffff60a08701955116602087015251604086015251606085015251916080808501528251809152602060c085019301915b818110611ee3575050500390f35b825160ff16845285945060209384019390920191600101611ed5565b60f81c81526020015f611e83565b92602060019160ff8560f01c168152019301611e7d565b92602060019160ff8560e81c168152019301611e75565b92602060019160ff8560e01c168152019301611e6d565b92602060019160ff8560d81c168152019301611e65565b92602060019160ff8560d01c168152019301611e5d565b92602060019160ff8560c81c168152019301611e55565b92602060019160ff8560c01c168152019301611e4d565b92602060019160ff8560b81c168152019301611e45565b92602060019160ff8560b01c168152019301611e3d565b92602060019160ff8560a81c168152019301611e35565b92602060019160ff8560a01c168152019301611e2d565b92602060019160ff8560981c168152019301611e25565b92602060019160ff8560901c168152019301611e1d565b92602060019160ff8560881c168152019301611e15565b92602060019160ff8560801c168152019301611e0d565b92602060019160ff8560781c168152019301611e05565b92602060019160ff8560701c168152019301611dfd565b92602060019160ff8560681c168152019301611df5565b92602060019160ff8560601c168152019301611ded565b92602060019160ff8560581c168152019301611de5565b92602060019160ff8560501c168152019301611ddd565b92602060019160ff8560481c168152019301611dd5565b92602060019160ff8560401c168152019301611dcd565b92602060019160ff8560381c168152019301611dc5565b92602060019160ff8560301c168152019301611dbd565b92602060019160ff8560281c168152019301611db5565b92602060019160ff85831c168152019301611dad565b92602060019160ff8560181c168152019301611da5565b92602060019160ff8560101c168152019301611d9d565b92602060019160ff8560081c168152019301611d95565b92602060019160ff85168152019301611d8d565b916020919350610400600191865460ff8116825260ff8160081c168583015260ff8160101c16604083015260ff8160181c16606083015260ff81861c16608083015260ff8160281c1660a083015260ff8160301c1660c083015260ff8160381c1660e083015260ff8160401c1661010083015260ff8160481c1661012083015260ff8160501c1661014083015260ff8160581c1661016083015260ff8160601c1661018083015260ff8160681c166101a083015260ff8160701c166101c083015260ff8160781c166101e083015260ff8160801c1661020083015260ff8160881c1661022083015260ff8160901c1661024083015260ff8160981c1661026083015260ff8160a01c1661028083015260ff8160a81c166102a083015260ff8160b01c166102c083015260ff8160b81c166102e083015260ff8160c01c1661030083015260ff8160c81c1661032083015260ff8160d01c1661034083015260ff8160d81c1661036083015260ff8160e01c1661038083015260ff8160e81c166103a083015260ff8160f01c166103c083015260f81c6103e0820152019401920185929391611d75565b503461022b578060031936011261022b576002546040516001600160a01b039091168152602090f35b503461022b57602036600319011261022b573381526008602052600435604082205580f35b503461022b578060031936011261022b576020600a54604051908152f35b503461022b57604036600319011261022b57338152600560205260ff6040822054161561241b5761050e60243560043561337a565b637046c88d60e01b8152600490fd5b503461022b57602036600319011261022b57612444612f3b565b61028090816040516124568282613098565b3690376001600160a01b03168252600d60205260408220601781015460ff169061248290600301613301565b9160405192839094905b601482106124a05750506102a09350820152f35b602080600192885181520196019101909461248c565b503461022b57602036600319011261022b5760043560ff8116808203610535577f69dacb1c4ccb4192f11b288c7250036506cccd09c1c33c3a5bc3902c5182682691604091612503613fd1565b64ff00000000600e549260201b1664ff0000000019831617600e5560ff83519260201c1682526020820152a180f35b3461293a57602036600319011261293a576004356001600160401b03811161293a5736819003906004810160c060031984011261293a57335f52600560205260ff60405f205416156129f45760ff60045416156129e55760448201926001600160a01b0361259f856132df565b165f52600660205260405f20548060801c9182156129d6576024850135906022190181121561293a5784016004810135906001600160401b03821161293a5760240190803603821361293a576125f491613ff7565b9161ffff82169283156129c7576064870135946001600160801b0361261986886131a0565b931683109081156129bd575b506129ae5761263381614030565b60095496612640886132f3565b60095561264c876132df565b946126568a6132df565b9260848301359687151580980361293a5760048b6127a4946127ad9a61278160a4996040519661268588613046565b60018060a01b03168752602087019060018060a01b03168152604087018c815260608801948552608088019060018060b01b034316825260a08901926001845260c08a0195865260e08a01975f89525f52600c60205260405f209960018060a01b039060018060a01b03905116166001600160601b0360a01b8b5416178a5560018060a01b0390511660018a019060018060a01b03166001600160601b0360a01b82541617905551600289015561ffff6003890195511685549162010000600160c01b03905160101b16916001600160401b0360c01b1617178455511515839081549060ff60c01b90151560c01b169060ff60c01b1916179055565b51815460ff60c81b191690151560c81b60ff60c81b161790555191015589614070565b01359186614150565b5f848152600c60205260409020600401819055916001600160a01b036127d2826132df565b165f52600d60205260405f2063ffffffff6127ef81835416613363565b1663ffffffff198254161781556001810161280b84825461316d565b90556009545f19810190811161299a5761284c601783019161283460ff84541660038601613f7e565b90919082549060031b91821b915f19901b1916179055565b805460ff166013810361298d575060ff5f5b1660ff19825416179055831515908161293e575b506128a5575b604084846128968561288b600a546132f3565b600a55600b5461316d565b600b5582519182526020820152f35b6001546001600160a01b0316946128c5906128bf906132df565b916132df565b853b1561293a57604051639bc5c50960e01b81526001600160a01b0392831660048201526024810185905291166044820152935f908590606490829084905af190811561292f576040946128969261291f575b5090612878565b5f61292991613098565b5f612918565b6040513d5f823e3d90fd5b5f80fd5b8061297961295763ffffffff6002945460201c16613363565b825467ffffffff00000000191660209190911b67ffffffff0000000016178255565b0161298585825461316d565b905586612872565b60ff60018192011661285e565b634e487b7160e01b5f52601160045260245ffd5b636e15e3d960e11b5f5260045ffd5b9050821189612625565b63ef4c8b3560e01b5f5260045ffd5b631d8730d160e31b5f5260045ffd5b632f9107b560e01b5f5260045ffd5b637046c88d60e01b5f5260045ffd5b3461293a57608036600319011261293a57612a1c612ef8565b6024356001600160401b03811161293a57612a3b903690600401612f0b565b91906044356001600160401b03811161293a57612a5c903690600401612f0b565b9092606435919063ffffffff8316830361293a57612a78613fd1565b85158015612ee7575b8015612edd575b612ba45763ffffffff811693845f52601060205260405f20958654958615612ecb57505f9796889695948794909190612ac08a6130d0565b965f5b8b60ff82161015612bb3578b9c6001600160401b03612b006111d59d9e9b9c9d612af46111d560ff87168b8d613102565b9c60ff8616908c613102565b168015612ba457612b12818d9361313a565b9a6001600160401b0381169e8f612b29908461315a565b612b329161316d565b9e6001600160401b038c1610612b9b575b50916001916001600160481b03612b6b60ff95868516155f14612b7c57925b8685169061318c565b9116905201169998979b9a99612ac3565b612b95908361127f89612b8e8961317a565b168761318c565b92612b62565b99506001612b43565b6306b7c75960e31b5f5260045ffd5b50939196958a919596898b6001600160481b038f16612bd281836131a0565b6127108111612ba457612710149182612eb8575b5050612ba4576127106001600160401b0384161115612ba4578151916001600160401b038311612dd457600160401b8311612dd457602091838c55808410612e87575b500190895f5260205f2060038204915f5b838110612e40575060038302900380612de8575b5050505060018801976001600160401b038511612dd457612c6f858a6131de565b83985f5260205f208560021c905f5b828110612d8257506003198716870380612d00575b506002830180546bffffffffffffffffffffffff19166001600160401b0386161760408a901b63ffffffff60401b161790557ffb491f1f2a3d2611f4994df2b3a23b0ee97dfb2d6183216bcb5769f1f9870b1f8a8a612cfb8b8b8b8b604051968796876132a0565b0390a1005b9a5f9b5f5b818110612d455750505001989098557ffb491f1f2a3d2611f4994df2b3a23b0ee97dfb2d6183216bcb5769f1f9870b1f9785826001600160401b03612c93565b90919c6020612d788f92612d5a600194613126565b908560031b6001600160401b03809160031b9316831b921b19161790565b9e01929101612d05565b5f5f5b60048110612d9a575082820155600101612c7e565b9c906020612dcb8f600193612dae86613126565b9160031b6001600160401b03809160031b9316831b921b19161790565b92019d01612d85565b634e487b7160e01b5f52604160045260245ffd5b925f935f5b818110612e0257505050015588808080612c4e565b9091946020612e366001926001600160481b0389511690856009026001600160481b03809160031b9316831b921b19161790565b9601929101612ded565b5f5f5b60038110612e58575083820155600101612c3a565b86519096916001916020916001600160481b0360098b0260031b81811b199092169216901b1792019601612e43565b612eb2908c5f52835f206003600281818901048301936009838a06028061163a5750010401906131c8565b8b612c29565b612ec292506131be565b15158b80612be6565b635f8b04b560e11b5f5260045260245ffd5b5081861415612a88565b5060ff600e5460201c168611612a81565b6004359063ffffffff8216820361293a57565b9181601f8401121561293a578235916001600160401b03831161293a576020808501948460051b01011161293a57565b600435906001600160a01b038216820361293a57565b90602080835192838152019201905f5b818110612f6e5750505090565b8251845260209384019390920191600101612f61565b919082608091031261293a57813563ffffffff8116810361293a5791602081013561ffff8116810361293a57916060604083013592013590565b9181601f8401121561293a578235916001600160401b03831161293a576020838186019501011161293a57565b90608060031983011261293a576004356001600160a01b038116810361293a5791602435906001600160401b03821161293a5761302a91600401612fbe565b90916044356001600160a01b038116810361293a579060643590565b61010081019081106001600160401b03821117612dd457604052565b608081019081106001600160401b03821117612dd457604052565b60c081019081106001600160401b03821117612dd457604052565b90601f801991011681019081106001600160401b03821117612dd457604052565b6001600160401b038111612dd45760051b60200190565b906130da826130b9565b6130e76040519182613098565b82815280926130f8601f19916130b9565b0190602036910137565b91908110156131125760051b0190565b634e487b7160e01b5f52603260045260245ffd5b356001600160401b038116810361293a5790565b906001600160481b03809116911601906001600160481b03821161299a57565b8181029291811591840414171561299a57565b9190820180921161299a57565b60ff5f199116019060ff821161299a57565b80518210156131125760209160051b010190565b81156131aa570490565b634e487b7160e01b5f52601260045260245ffd5b81156131aa570690565b8181106131d3575050565b5f81556001016131c8565b90600160401b8111612dd45781548183558082106131fb57505050565b613228925f52600360205f2091601882850160021c840194831b168061322a575b500160021c01906131c8565b565b613245905f198601908154905f199060200360031b1c169055565b5f61321c565b35906001600160401b038216820361293a57565b916020908281520191905f5b8181106132785750505090565b9091926020806001926001600160401b036132928861324b565b16815201940192910161326b565b946132ca6132d89363ffffffff9586606098959b9a9b168952608060208a0152608089019161325f565b91868303604088015261325f565b9416910152565b356001600160a01b038116810361293a5790565b5f19811461299a5760010190565b60405191905f835b601482106133205750505061322861028083613098565b6001602081928554815201930191019091613309565b613360939260809260018060a01b0316825260208201525f60408201528160608201520190612f51565b90565b63ffffffff1663ffffffff811461299a5760010190565b91825f52600c60205260405f209260028401805415801561396b575b61395c5784546003860154946001600160a01b03909116906001600160b01b03601087901c16610100810180821161299a57431161391857825f52600860205260405f2054908115613910575b604051916020830193845260408301524260608301524460808301524060a082015260a0815261341460c082613098565b5190209460035460648706111561386f57505050805f52600c60205260405f2092815f52600f60205260405f209260018401549460028501549461ffff600383015416926002830154608052613469846130d0565b985f945f985f9a60015b156134f8575b899a9b8d5f9d60805161348b9161316d565b60408051602081018e815261ffff861682840152918152919b916134b0606082613098565b5190209d8e6080516134c192614866565b6134ca9161316d565b9c6134d5908d614abd565b60ff169061ffff83166134e79161318c565b5260010161ffff169b9a979a613473565b8261ffff8d161080613828575b6134795750508896509761353561353a949961122093979499969b8161ffff821610613820575b5060805161315a565b6139a4565b926003860188516001600160401b038111612dd457600160401b8111612dd45781548183558082106137ce575b5060208a01915f5260205f208160051c915f5b83811061378f5750601f198116900380613745575b5050505061359d88516130d0565b955f5b89518110156135cb578060ff6135b86001938d61318c565b51166135c4828b61318c565b52016135a0565b50906136578563ffffffff61363b989b947f3e72f8f1b3dd1d1d4bfc06c895f25e9b90ebd06b7d693971b83a37144d013a1896979a989b885f516020614cb65f395f51905f528760018060a01b038454169c8d946001808060a01b03910154169e8f9189604051948594856140cb565b0390a361364883896146ed565b541693604051948594856140f6565b0390a460038101805460ff60c01b1916600160c01b1790556004810182905580546001600160a01b03165f9081526007602052604081205581613698575050565b60018060a01b038154165f52600d602052600260405f206136c561295763ffffffff835460201c16613363565b016136d183825461316d565b9055600180549082015491546001600160a01b03928316929081169116803b1561293a57604051639bc5c50960e01b81526001600160a01b0393841660048201526024810194909452911660448301525f908290606490829084905af1801561292f5761373b5750565b5f61322891613098565b925f935f5b81811061375f5750505001555f80808061358f565b90919460206137856001928460ff8a5116919060ff809160031b9316831b921b19161790565b960192910161374a565b5f5f5b602081106137a757508382015560010161357a565b865190969160019160209160ff60038b901b81811b199092169216901b1792019601613792565b6137f990835f5260205f20601f80850160051c820192818616806137ff575b500160051c01906131c8565b5f613567565b61381a905f198601908154905f199060200360031b1c169055565b5f6137ed565b8d525f61352c565b508015158061385c575b801561383f575b15613505565b5081151580156138395750613854888361316d565b8b1015613839565b506138678b8261316d565b881015613832565b6132289550915f516020614cb65f395f51905f52918495979493600160c01b9060ff60c01b19161760038601555f60048601555f5260076020525f6040812055825f52600c6020526138cb61ffff600360405f200154166130d0565b906139086138fb60018060a01b038754169661ffff600360018060a01b036001840154169554920154169061315a565b9260405193849384613336565b0390a3614682565b8391506133e3565b606460405162461bcd60e51b815260206004820152602060248201527f426c6f636b6861736820657870697265642c2075736520726566756e644265746044820152fd5b63433835b360e11b5f5260045ffd5b5060ff600386015460c01c16613396565b9081606091031261293a57805163ffffffff8116810361293a57916040602083015192015190565b9190820391821161299a57565b92919493909460018060a01b03165f52600660205260405f2054928360801c9081156129d65761ffff966139e491613ff7565b96169283156129c7576139ff846001600160801b03926131a0565b94168410908115613f74575b506129ae57613a1985614030565b6040516020810191825260208152613a32604082613098565b51902093600354606486061115613f6257613a5781602080869451830101910161397c565b9691949093613a65816130d0565b965f915f995f9760015b15613e8b575b613a80865f9d61316d565b60408051602081018a815261ffff8d1682840152918152919691613aa5606082613098565b5190209963ffffffff8c169a8b5f52601060205260405f206001600160481b03613aef60ff8354169382613ae1613adb8761317a565b86614811565b90549060031b1c16906131be565b169160098111613dd8575090816001600160481b03613b0f8c9594614758565b90549060031b1c1682105f14613b865750508d5f9c60ff613b6f8f96612710613b686001986001600160401b03613b5a61ffff9c613b7b995b5f5260106020528c60405f2001614845565b90549060031b1c169061315a565b049061316d565b9e16918584169061318c565b52011698949b613a6f565b6001600160481b03613b978261476a565b90549060031b1c1682105f14613bd55750508d60019c60ff613b6f8f96612710613b686001986001600160401b03613b5a61ffff9c613b7b99613b48565b6001600160481b03613be682614780565b90549060031b1c1682105f14613c245750508d60029c60ff613b6f8f96612710613b686001986001600160401b03613b5a61ffff9c613b7b99613b48565b6001600160481b03613c3582614796565b90549060031b1c1682105f14613c735750508d60039c60ff613b6f8f96612710613b686001986001600160401b03613b5a61ffff9c613b7b99613b48565b6001600160481b03613c84826147ae565b90549060031b1c1682105f14613cc25750508d60049c60ff613b6f8f96612710613b686001986001600160401b03613b5a61ffff9c613b7b99613b48565b6001600160481b03613cd3826147c7565b90549060031b1c1682105f14613d115750508d60059c60ff613b6f8f96612710613b686001986001600160401b03613b5a61ffff9c613b7b99613b48565b6001600160481b03613d22826147e0565b90549060031b1c1682105f14613d605750508d60069c60ff613b6f8f96612710613b686001986001600160401b03613b5a61ffff9c613b7b99613b48565b613d716001600160481b03916147f8565b90549060031b1c16115f14613dac578d60079c60ff613b6f8f96612710613b686001986001600160401b03613b5a61ffff9c613b7b99613b48565b8d60089c60ff613b6f8f96612710613b686001986001600160401b03613b5a61ffff9c613b7b99613b48565b90918f92613de65f9361317a565b905b60ff821660ff851610613e28575050509060ff8a9392169c60ff613b6f8f96612710613b686001986001600160401b03613b5a61ffff9c613b7b99613b48565b92919495969798999a9b509250607f613e418483614831565b60011c16906001600160481b03613e588385614811565b905460039190911b1c168510613e82575060010160ff16925b8f928d9b9a99989796959492613de8565b93925091613e71565b9091809394955061ffff89161080613f1b575b15613eae57908694939291613a75565b50509096979250613ed595506112209361353592958261ffff821610613f13575b5061315a565b613edf83516130d0565b905f5b8451811015613f0d578060ff613efa6001938861318c565b5116613f06828661318c565b5201613ee2565b50925090565b89525f613ecf565b5080151580613f4f575b8015613f32575b15613e9e565b508115158015613f2c5750613f47858361316d565b8b1015613f2c565b50613f5a8b8261316d565b851015613f25565b509050613f709192506130d0565b5f91565b905083115f613a0b565b60148210156131125701905f90565b9390859360a0969361ffff926001808a1b03168752602087015216604085015260806060850152816080850152848401375f828201840152601f01601f1916010190565b5f546001600160a01b03163303613fe457565b63118cdaa760e01b5f523360045260245ffd5b61400391810190612f84565b909392919363ffffffff604051931660208401526040830152606082015260608152613360608082613098565b61404863ffffffff916020808251830101910161397c565b505016805f52601060205260405f2054908115612ecb575060ff600e5460201c1610612ba457565b61408863ffffffff926020808251830101910161397c565b5f938452600f6020908152604080862080548819169790951696871785556001808601949094556002909401919091559383526011909352902080549091019055565b9092608092613360959460018060a01b03168352602083015260408201528160608201520190612f51565b949392909163ffffffff9060808701938752166020860152608060408601528051809252602060a086019101915f5b81811061413757505060609150930152565b835160ff16835260209384019390920191600101614125565b90925f19430143811161299a5760405190602082019283524260408301524460608301524060808201526080815261418960a082613098565b519020815f52600f60205260405f20906003546064820611156144e257600182015461ffff60028401549616926141bf846130d0565b975f945f985f9460015b15614244575b899a5f9b6141dc9161316d565b60408051602081018a815261ffff8a1682840152918152919791614201606082613098565b519020986142108a8d8d614866565b6142199161316d565b98614224908b614abd565b60ff1661423561ffff83168f61318c565b5260010161ffff16959a6141c9565b8261ffff8716108061449b575b6141cf57505061427c945061353590899861122094989a9397958261ffff821610614493575061315a565b916003810186516001600160401b038111612dd457600160401b8111612dd4578154818355808210614463575b5060208801915f5260205f208160051c915f5b8381106144245750601f1981169003806143da575b505050506142df86516130d0565b935f5b875181101561430d578060ff6142fa6001938b61318c565b5116614306828961318c565b52016142e2565b5092957f3e72f8f1b3dd1d1d4bfc06c895f25e9b90ebd06b7d693971b83a37144d013a189194959295835f52600c602052835f516020614cb65f395f51905f528660018060a01b0360405f20541693835f52600c60205261438560018060a01b03600160405f20015416918d604051948594856140cb565b0390a361439287846146ed565b5f838152600c6020526040908190208054600190910154965491516001600160a01b039788169790911695909283926143d5928b929163ffffffff1690856140f6565b0390a4565b925f935f5b8181106143f45750505001555f8080806142d1565b909194602061441a6001928460ff8a5116919060ff809160031b9316831b921b19161790565b96019291016143df565b5f5f5b6020811061443c5750838201556001016142bc565b865190969160019160209160ff60038b901b81811b199092169216901b1792019601614427565b61448d90835f5260205f20601f80850160051c820192818616806137ff57500160051c01906131c8565b5f6142a9565b8c525f613ecf565b50801515806144cf575b80156144b2575b15614251565b5081151580156144ac57506144c7888361316d565b8b10156144ac565b506144da8b8261316d565b8810156144a5565b50939290919061ffff1660036144f7826130d0565b9501948051906001600160401b038211612dd457600160401b8211612dd4576020908754838955808410614653575b5001955f5260205f208160051c915f5b8381106146145750601f1981169003806145b4575b5050505f838152600c6020526040902080546001909101549495506145b0946001600160a01b039182169385935f516020614cb65f395f51905f529390921690613908906145a49061459e90859061315a565b936130d0565b60405193849384613336565b5f90565b965f975f5b8181106145e457505050916145b095965f516020614cb65f395f51905f52928694015591869561454b565b909198602061460a6001928460ff8e5116919060ff809160031b9316831b921b19161790565b9a019291016145b9565b5f5f5b6020811061462c575083820155600101614536565b8a51909a9160019160209160ff60038f901b81811b199092169216901b1792019a01614617565b61467c90895f52835f20601f80870160051c820192818816806137ff57500160051c01906131c8565b5f614526565b805f52600c60205260405f2060018060a01b03815416906001808060a01b0391015416915f52600f60205263ffffffff60405f205416906040519182525f60208301527f4018fd83a0e35efa249d6a65521926b6d539972216ff5ff37c83f1309b7c24fb60403093a4565b90815f52600c60205260405f2060018060a01b03815416906001808060a01b0391015416925f52600f60205263ffffffff60405f2054169160405192835260208301527f4018fd83a0e35efa249d6a65521926b6d539972216ff5ff37c83f1309b7c24fb60403093a4565b805415613112575f5260205f20905f90565b805460011015613112575f5260205f2090600990565b805460021015613112575f5260205f2090601290565b805460031015613112575f52600160205f2001905f90565b805460041015613112575f52600160205f200190600990565b805460051015613112575f52600160205f200190601290565b805460061015613112575f52600260205f2001905f90565b805460071015613112575f52600260205f200190600990565b9190918054831015613112575f526009600360205f208185040193060290565b9060ff8091169116019060ff821161299a57565b9190918054831015613112575f52601860205f208360021c019260031b1690565b9190915f52600f60205263ffffffff60405f20541690815f52601060205260405f206001600160481b036148a660ff8354169382613ae1613adb8761317a565b169160098111614a355750613b5a6148ff936127109593836001600160481b036148d76001600160401b0396614758565b90549060031b1c1682105f146149035750505f905b5f526010602052600160405f2001614845565b0490565b6001600160481b036149148261476a565b90549060031b1c1682105f1461492e5750506001906148ec565b6001600160481b0361493f82614780565b90549060031b1c1682105f146149595750506002906148ec565b6001600160481b0361496a82614796565b90549060031b1c1682105f146149845750506003906148ec565b6001600160481b03614995826147ae565b90549060031b1c1682105f146149af5750506004906148ec565b6001600160481b036149c0826147c7565b90549060031b1c1682105f146149da5750506005906148ec565b6001600160481b036149eb826147e0565b90549060031b1c1682105f14614a055750506006906148ec565b614a166001600160481b03916147f8565b90549060031b1c16115f14614a2d576007906148ec565b6008906148ec565b9190614a415f9361317a565b915b60ff831660ff851610614a7057505050916001600160401b03613b5a6148ff9360ff6127109616906148ec565b909192607f614a7f8583614831565b60011c16906001600160481b03614a968386614811565b905460039190911b1c168310614ab6575060010160ff16925b9190614a43565b9350614aaf565b5f52600f60205263ffffffff60405f2054165f52601060205260405f206001600160481b03614af860ff8354169382613ae1613adb8761317a565b169160098111614c4457506001600160481b03614b1482614758565b90549060031b1c1682105f14614b2a5750505f90565b6001600160481b03614b3b8261476a565b90549060031b1c1682105f14614b52575050600190565b6001600160481b03614b6382614780565b90549060031b1c1682105f14614b7a575050600290565b6001600160481b03614b8b82614796565b90549060031b1c1682105f14614ba2575050600390565b6001600160481b03614bb3826147ae565b90549060031b1c1682105f14614bca575050600490565b6001600160481b03614bdb826147c7565b90549060031b1c1682105f14614bf2575050600590565b6001600160481b03614c03826147e0565b90549060031b1c1682105f14614c1a575050600690565b614c2b6001600160481b03916147f8565b90549060031b1c16115f14614c3f57600790565b600890565b90614c4f5f9261317a565b925b60ff841660ff841610614c6857505060ff91501690565b9091607f614c768583614831565b60011c16906001600160481b03614c8d8386614811565b905460039190911b1c168310614cae575060010160ff16925b929190614c51565b9350614ca656fe7b2b1318c7e6cfd4bbeac6266cea2762a843a90f923acf58b837c8dbe846af08a26469706673582212200d02472bd22da10a424172ce4075476ab0b87685b17de2a8968334dd75b65f7464736f6c634300081c0033",
  "linkReferences": {},
  "deployedLinkReferences": {},
  "immutableReferences": {},
  "inputSourceName": "project/contracts/pvh/WheelGame.sol",
  "buildInfoId": "solc-0_8_28-9f339717e33f0d48e14ec649ba841d3d686ed930"
}