{
  "_format": "hh3-artifact-1",
  "contractName": "WheelGame",
  "sourceName": "contracts/pvh/WheelGame.sol",
  "abi": [
    {
      "inputs": [
        {
          "internalType": "address",
          "name": "_treasury",
          "type": "address"
        }
      ],
      "stateMutability": "nonpayable",
      "type": "constructor"
    },
    {
      "inputs": [],
      "name": "BetAmountOutOfRange",
      "type": "error"
    },
    {
      "inputs": [],
      "name": "BetDoesNotExist",
      "type": "error"
    },
    {
      "inputs": [],
      "name": "BetNotPending",
      "type": "error"
    },
    {
      "inputs": [
        {
          "internalType": "uint32",
          "name": "configId",
          "type": "uint32"
        }
      ],
      "name": "ConfigNotExists",
      "type": "error"
    },
    {
      "inputs": [],
      "name": "GameNotLive",
      "type": "error"
    },
    {
      "inputs": [],
      "name": "InvalidBetCount",
      "type": "error"
    },
    {
      "inputs": [],
      "name": "InvalidConfig",
      "type": "error"
    },
    {
      "inputs": [],
      "name": "NotAuthorizedCaller",
      "type": "error"
    },
    {
      "inputs": [
        {
          "internalType": "address",
          "name": "owner",
          "type": "address"
        }
      ],
      "name": "OwnableInvalidOwner",
      "type": "error"
    },
    {
      "inputs": [
        {
          "internalType": "address",
          "name": "account",
          "type": "address"
        }
      ],
      "name": "OwnableUnauthorizedAccount",
      "type": "error"
    },
    {
      "inputs": [],
      "name": "PlayerHasPendingBet",
      "type": "error"
    },
    {
      "inputs": [],
      "name": "RefundTooEarly",
      "type": "error"
    },
    {
      "inputs": [],
      "name": "TokenNotConfigured",
      "type": "error"
    },
    {
      "anonymous": false,
      "inputs": [
        {
          "indexed": true,
          "internalType": "uint256",
          "name": "betId",
          "type": "uint256"
        },
        {
          "indexed": true,
          "internalType": "address",
          "name": "player",
          "type": "address"
        },
        {
          "indexed": false,
          "internalType": "address",
          "name": "token",
          "type": "address"
        },
        {
          "indexed": false,
          "internalType": "uint256",
          "name": "amount",
          "type": "uint256"
        },
        {
          "indexed": false,
          "internalType": "uint16",
          "name": "betCount",
          "type": "uint16"
        },
        {
          "indexed": false,
          "internalType": "bytes",
          "name": "gameChoice",
          "type": "bytes"
        }
      ],
      "name": "BetPlaced",
      "type": "event"
    },
    {
      "anonymous": false,
      "inputs": [
        {
          "indexed": true,
          "internalType": "uint256",
          "name": "betId",
          "type": "uint256"
        },
        {
          "indexed": true,
          "internalType": "address",
          "name": "player",
          "type": "address"
        },
        {
          "indexed": false,
          "internalType": "uint256",
          "name": "amount",
          "type": "uint256"
        },
        {
          "indexed": false,
          "internalType": "address",
          "name": "token",
          "type": "address"
        }
      ],
      "name": "BetRefunded",
      "type": "event"
    },
    {
      "anonymous": false,
      "inputs": [
        {
          "indexed": true,
          "internalType": "uint256",
          "name": "betId",
          "type": "uint256"
        },
        {
          "indexed": true,
          "internalType": "address",
          "name": "player",
          "type": "address"
        },
        {
          "indexed": false,
          "internalType": "address",
          "name": "token",
          "type": "address"
        },
        {
          "indexed": false,
          "internalType": "uint256",
          "name": "totalBetAmount",
          "type": "uint256"
        },
        {
          "indexed": false,
          "internalType": "uint256",
          "name": "payout",
          "type": "uint256"
        },
        {
          "indexed": false,
          "internalType": "uint256[]",
          "name": "outcomes",
          "type": "uint256[]"
        }
      ],
      "name": "BetSettled",
      "type": "event"
    },
    {
      "anonymous": false,
      "inputs": [
        {
          "indexed": false,
          "internalType": "uint32",
          "name": "configId",
          "type": "uint32"
        },
        {
          "indexed": false,
          "internalType": "uint64[]",
          "name": "weights",
          "type": "uint64[]"
        },
        {
          "indexed": false,
          "internalType": "uint64[]",
          "name": "multipliers",
          "type": "uint64[]"
        },
        {
          "indexed": false,
          "internalType": "uint32",
          "name": "gameId",
          "type": "uint32"
        }
      ],
      "name": "GameConfigAdded",
      "type": "event"
    },
    {
      "anonymous": false,
      "inputs": [
        {
          "indexed": true,
          "internalType": "address",
          "name": "previousOwner",
          "type": "address"
        },
        {
          "indexed": true,
          "internalType": "address",
          "name": "newOwner",
          "type": "address"
        }
      ],
      "name": "OwnershipTransferred",
      "type": "event"
    },
    {
      "anonymous": false,
      "inputs": [
        {
          "indexed": false,
          "internalType": "uint256",
          "name": "id",
          "type": "uint256"
        },
        {
          "indexed": true,
          "internalType": "address",
          "name": "receiver",
          "type": "address"
        },
        {
          "indexed": true,
          "internalType": "address",
          "name": "token",
          "type": "address"
        },
        {
          "indexed": false,
          "internalType": "uint256",
          "name": "amount",
          "type": "uint256"
        },
        {
          "indexed": false,
          "internalType": "uint32",
          "name": "configId",
          "type": "uint32"
        },
        {
          "indexed": false,
          "internalType": "uint16",
          "name": "betCount",
          "type": "uint16"
        },
        {
          "indexed": false,
          "internalType": "uint256",
          "name": "stopGain",
          "type": "uint256"
        },
        {
          "indexed": false,
          "internalType": "uint256",
          "name": "stopLoss",
          "type": "uint256"
        }
      ],
      "name": "PlaceBet",
      "type": "event"
    },
    {
      "anonymous": false,
      "inputs": [
        {
          "indexed": true,
          "internalType": "uint256",
          "name": "id",
          "type": "uint256"
        },
        {
          "indexed": true,
          "internalType": "address",
          "name": "receiver",
          "type": "address"
        },
        {
          "indexed": true,
          "internalType": "address",
          "name": "token",
          "type": "address"
        },
        {
          "indexed": false,
          "internalType": "uint256",
          "name": "totalBetAmount",
          "type": "uint256"
        },
        {
          "indexed": false,
          "internalType": "uint32",
          "name": "configId",
          "type": "uint32"
        },
        {
          "indexed": false,
          "internalType": "uint8[]",
          "name": "rolled",
          "type": "uint8[]"
        },
        {
          "indexed": false,
          "internalType": "uint256",
          "name": "payout",
          "type": "uint256"
        }
      ],
      "name": "Roll",
      "type": "event"
    },
    {
      "anonymous": false,
      "inputs": [
        {
          "indexed": false,
          "internalType": "uint8",
          "name": "previousMaxColors",
          "type": "uint8"
        },
        {
          "indexed": false,
          "internalType": "uint8",
          "name": "maxColors",
          "type": "uint8"
        }
      ],
      "name": "SetMaxColors",
      "type": "event"
    },
    {
      "inputs": [
        {
          "internalType": "uint64[]",
          "name": "weights_",
          "type": "uint64[]"
        },
        {
          "internalType": "uint64[]",
          "name": "multipliers_",
          "type": "uint64[]"
        },
        {
          "internalType": "uint32",
          "name": "gameId",
          "type": "uint32"
        }
      ],
      "name": "addGameConfig",
      "outputs": [
        {
          "internalType": "uint32",
          "name": "configId",
          "type": "uint32"
        }
      ],
      "stateMutability": "nonpayable",
      "type": "function"
    },
    {
      "inputs": [
        {
          "internalType": "uint256",
          "name": "",
          "type": "uint256"
        }
      ],
      "name": "baseBets",
      "outputs": [
        {
          "internalType": "address",
          "name": "player",
          "type": "address"
        },
        {
          "internalType": "address",
          "name": "token",
          "type": "address"
        },
        {
          "internalType": "uint256",
          "name": "amount",
          "type": "uint256"
        },
        {
          "internalType": "uint16",
          "name": "betCount",
          "type": "uint16"
        },
        {
          "internalType": "uint176",
          "name": "placeBlockNumber",
          "type": "uint176"
        },
        {
          "internalType": "bool",
          "name": "resolved",
          "type": "bool"
        },
        {
          "internalType": "bool",
          "name": "isCreditBet",
          "type": "bool"
        },
        {
          "internalType": "uint256",
          "name": "payout",
          "type": "uint256"
        }
      ],
      "stateMutability": "view",
      "type": "function"
    },
    {
      "inputs": [
        {
          "internalType": "address",
          "name": "",
          "type": "address"
        }
      ],
      "name": "callers",
      "outputs": [
        {
          "internalType": "bool",
          "name": "",
          "type": "bool"
        }
      ],
      "stateMutability": "view",
      "type": "function"
    },
    {
      "inputs": [],
      "name": "configsCount",
      "outputs": [
        {
          "internalType": "uint32",
          "name": "",
          "type": "uint32"
        }
      ],
      "stateMutability": "view",
      "type": "function"
    },
    {
      "inputs": [
        {
          "internalType": "bytes",
          "name": "gameChoice",
          "type": "bytes"
        }
      ],
      "name": "decodeGameChoice",
      "outputs": [
        {
          "internalType": "uint32",
          "name": "configId",
          "type": "uint32"
        },
        {
          "internalType": "uint16",
          "name": "betCount",
          "type": "uint16"
        },
        {
          "internalType": "uint256",
          "name": "stopGain",
          "type": "uint256"
        },
        {
          "internalType": "uint256",
          "name": "stopLoss",
          "type": "uint256"
        }
      ],
      "stateMutability": "pure",
      "type": "function"
    },
    {
      "inputs": [
        {
          "internalType": "uint32",
          "name": "configId",
          "type": "uint32"
        },
        {
          "internalType": "uint16",
          "name": "betCount",
          "type": "uint16"
        },
        {
          "internalType": "uint256",
          "name": "stopGain",
          "type": "uint256"
        },
        {
          "internalType": "uint256",
          "name": "stopLoss",
          "type": "uint256"
        }
      ],
      "name": "encodeGameChoice",
      "outputs": [
        {
          "internalType": "bytes",
          "name": "",
          "type": "bytes"
        }
      ],
      "stateMutability": "pure",
      "type": "function"
    },
    {
      "inputs": [],
      "name": "explosionRate",
      "outputs": [
        {
          "internalType": "uint256",
          "name": "",
          "type": "uint256"
        }
      ],
      "stateMutability": "view",
      "type": "function"
    },
    {
      "inputs": [
        {
          "internalType": "uint32",
          "name": "configId",
          "type": "uint32"
        }
      ],
      "name": "gameConfigs",
      "outputs": [
        {
          "components": [
            {
              "internalType": "uint72[]",
              "name": "weightRanges",
              "type": "uint72[]"
            },
            {
              "internalType": "uint64[]",
              "name": "multipliers",
              "type": "uint64[]"
            },
            {
              "internalType": "uint64",
              "name": "maxMultiplier",
              "type": "uint64"
            },
            {
              "internalType": "uint32",
              "name": "gameId",
              "type": "uint32"
            }
          ],
          "internalType": "struct WheelGame.GameConfig",
          "name": "",
          "type": "tuple"
        }
      ],
      "stateMutability": "view",
      "type": "function"
    },
    {
      "inputs": [],
      "name": "gameCredits",
      "outputs": [
        {
          "internalType": "contract GameCredits",
          "name": "",
          "type": "address"
        }
      ],
      "stateMutability": "view",
      "type": "function"
    },
    {
      "inputs": [],
      "name": "gameIsLive",
      "outputs": [
        {
          "internalType": "bool",
          "name": "",
          "type": "bool"
        }
      ],
      "stateMutability": "view",
      "type": "function"
    },
    {
      "inputs": [
        {
          "internalType": "address",
          "name": "player",
          "type": "address"
        }
      ],
      "name": "getPlayerInfo",
      "outputs": [
        {
          "components": [
            {
              "internalType": "uint32",
              "name": "totalBets",
              "type": "uint32"
            },
            {
              "internalType": "uint32",
              "name": "totalWins",
              "type": "uint32"
            },
            {
              "internalType": "uint256",
              "name": "totalInValue",
              "type": "uint256"
            },
            {
              "internalType": "uint256",
              "name": "totalOutValue",
              "type": "uint256"
            },
            {
              "internalType": "uint256[20]",
              "name": "lastBetIds",
              "type": "uint256[20]"
            },
            {
              "internalType": "uint8",
              "name": "lastBetIdx",
              "type": "uint8"
            }
          ],
          "internalType": "struct BaseGame.PlayerInfo",
          "name": "",
          "type": "tuple"
        }
      ],
      "stateMutability": "view",
      "type": "function"
    },
    {
      "inputs": [
        {
          "internalType": "address",
          "name": "player",
          "type": "address"
        }
      ],
      "name": "lastBets",
      "outputs": [
        {
          "internalType": "uint256[20]",
          "name": "ids",
          "type": "uint256[20]"
        },
        {
          "internalType": "uint8",
          "name": "idx",
          "type": "uint8"
        }
      ],
      "stateMutability": "view",
      "type": "function"
    },
    {
      "inputs": [],
      "name": "maxColors",
      "outputs": [
        {
          "internalType": "uint8",
          "name": "",
          "type": "uint8"
        }
      ],
      "stateMutability": "view",
      "type": "function"
    },
    {
      "inputs": [],
      "name": "nextBetId",
      "outputs": [
        {
          "internalType": "uint256",
          "name": "",
          "type": "uint256"
        }
      ],
      "stateMutability": "view",
      "type": "function"
    },
    {
      "inputs": [],
      "name": "owner",
      "outputs": [
        {
          "internalType": "address",
          "name": "",
          "type": "address"
        }
      ],
      "stateMutability": "view",
      "type": "function"
    },
    {
      "inputs": [
        {
          "internalType": "address",
          "name": "",
          "type": "address"
        }
      ],
      "name": "pendingBetId",
      "outputs": [
        {
          "internalType": "uint256",
          "name": "",
          "type": "uint256"
        }
      ],
      "stateMutability": "view",
      "type": "function"
    },
    {
      "inputs": [
        {
          "components": [
            {
              "internalType": "address",
              "name": "player",
              "type": "address"
            },
            {
              "internalType": "bytes",
              "name": "gameChoice",
              "type": "bytes"
            },
            {
              "internalType": "address",
              "name": "token",
              "type": "address"
            },
            {
              "internalType": "uint256",
              "name": "amount",
              "type": "uint256"
            },
            {
              "internalType": "bool",
              "name": "isCreditBet",
              "type": "bool"
            },
            {
              "internalType": "uint256",
              "name": "seed",
              "type": "uint256"
            }
          ],
          "internalType": "struct IBaseGame.PlayParams",
          "name": "params",
          "type": "tuple"
        }
      ],
      "name": "playAndSettle",
      "outputs": [
        {
          "internalType": "uint256",
          "name": "betId",
          "type": "uint256"
        },
        {
          "internalType": "uint256",
          "name": "payout",
          "type": "uint256"
        }
      ],
      "stateMutability": "nonpayable",
      "type": "function"
    },
    {
      "inputs": [
        {
          "internalType": "address",
          "name": "player",
          "type": "address"
        },
        {
          "internalType": "bytes",
          "name": "gameChoice",
          "type": "bytes"
        },
        {
          "internalType": "address",
          "name": "token",
          "type": "address"
        },
        {
          "internalType": "uint256",
          "name": "amount",
          "type": "uint256"
        }
      ],
      "name": "playFromRouter",
      "outputs": [
        {
          "internalType": "uint256",
          "name": "betId",
          "type": "uint256"
        }
      ],
      "stateMutability": "nonpayable",
      "type": "function"
    },
    {
      "inputs": [
        {
          "internalType": "address",
          "name": "player",
          "type": "address"
        },
        {
          "internalType": "bytes",
          "name": "gameChoice",
          "type": "bytes"
        },
        {
          "internalType": "address",
          "name": "token",
          "type": "address"
        },
        {
          "internalType": "uint256",
          "name": "amount",
          "type": "uint256"
        }
      ],
      "name": "playFromRouterWithCredits",
      "outputs": [
        {
          "internalType": "uint256",
          "name": "betId",
          "type": "uint256"
        }
      ],
      "stateMutability": "nonpayable",
      "type": "function"
    },
    {
      "inputs": [
        {
          "internalType": "address",
          "name": "",
          "type": "address"
        }
      ],
      "name": "playerInfo",
      "outputs": [
        {
          "internalType": "uint32",
          "name": "totalBets",
          "type": "uint32"
        },
        {
          "internalType": "uint32",
          "name": "totalWins",
          "type": "uint32"
        },
        {
          "internalType": "uint256",
          "name": "totalInValue",
          "type": "uint256"
        },
        {
          "internalType": "uint256",
          "name": "totalOutValue",
          "type": "uint256"
        },
        {
          "internalType": "uint8",
          "name": "lastBetIdx",
          "type": "uint8"
        }
      ],
      "stateMutability": "view",
      "type": "function"
    },
    {
      "inputs": [
        {
          "internalType": "uint32",
          "name": "",
          "type": "uint32"
        }
      ],
      "name": "playsPerConfigId",
      "outputs": [
        {
          "internalType": "uint256",
          "name": "",
          "type": "uint256"
        }
      ],
      "stateMutability": "view",
      "type": "function"
    },
    {
      "inputs": [
        {
          "internalType": "uint32[]",
          "name": "configIds",
          "type": "uint32[]"
        }
      ],
      "name": "playsPerConfigIds",
      "outputs": [
        {
          "internalType": "uint256[]",
          "name": "counts",
          "type": "uint256[]"
        }
      ],
      "stateMutability": "view",
      "type": "function"
    },
    {
      "inputs": [
        {
          "internalType": "uint256",
          "name": "betId",
          "type": "uint256"
        }
      ],
      "name": "refundBet",
      "outputs": [],
      "stateMutability": "nonpayable",
      "type": "function"
    },
    {
      "inputs": [],
      "name": "renounceOwnership",
      "outputs": [],
      "stateMutability": "nonpayable",
      "type": "function"
    },
    {
      "inputs": [
        {
          "internalType": "address",
          "name": "_caller",
          "type": "address"
        },
        {
          "internalType": "bool",
          "name": "_allowed",
          "type": "bool"
        }
      ],
      "name": "setCaller",
      "outputs": [],
      "stateMutability": "nonpayable",
      "type": "function"
    },
    {
      "inputs": [
        {
          "internalType": "uint256",
          "name": "_explosionRate",
          "type": "uint256"
        }
      ],
      "name": "setExplosionRate",
      "outputs": [],
      "stateMutability": "nonpayable",
      "type": "function"
    },
    {
      "inputs": [
        {
          "internalType": "address",
          "name": "_gameCredits",
          "type": "address"
        }
      ],
      "name": "setGameCredits",
      "outputs": [],
      "stateMutability": "nonpayable",
      "type": "function"
    },
    {
      "inputs": [
        {
          "internalType": "uint8",
          "name": "maxColors_",
          "type": "uint8"
        }
      ],
      "name": "setMaxColors",
      "outputs": [],
      "stateMutability": "nonpayable",
      "type": "function"
    },
    {
      "inputs": [
        {
          "internalType": "address",
          "name": "token",
          "type": "address"
        },
        {
          "internalType": "uint128",
          "name": "minBet",
          "type": "uint128"
        },
        {
          "internalType": "uint128",
          "name": "maxBet",
          "type": "uint128"
        }
      ],
      "name": "setTokenConfig",
      "outputs": [],
      "stateMutability": "nonpayable",
      "type": "function"
    },
    {
      "inputs": [
        {
          "internalType": "address",
          "name": "_treasury",
          "type": "address"
        }
      ],
      "name": "setTreasury",
      "outputs": [],
      "stateMutability": "nonpayable",
      "type": "function"
    },
    {
      "inputs": [
        {
          "internalType": "uint256",
          "name": "betId",
          "type": "uint256"
        },
        {
          "internalType": "uint256",
          "name": "seed",
          "type": "uint256"
        }
      ],
      "name": "settleBet",
      "outputs": [],
      "stateMutability": "nonpayable",
      "type": "function"
    },
    {
      "inputs": [
        {
          "internalType": "address",
          "name": "",
          "type": "address"
        }
      ],
      "name": "supportedTokenInfo",
      "outputs": [
        {
          "internalType": "uint128",
          "name": "minBetAmount",
          "type": "uint128"
        },
        {
          "internalType": "uint128",
          "name": "maxBetAmount",
          "type": "uint128"
        }
      ],
      "stateMutability": "view",
      "type": "function"
    },
    {
      "inputs": [],
      "name": "toggleGameIsLive",
      "outputs": [],
      "stateMutability": "nonpayable",
      "type": "function"
    },
    {
      "inputs": [],
      "name": "totalBetsGlobal",
      "outputs": [
        {
          "internalType": "uint256",
          "name": "",
          "type": "uint256"
        }
      ],
      "stateMutability": "view",
      "type": "function"
    },
    {
      "inputs": [],
      "name": "totalValueGlobal",
      "outputs": [
        {
          "internalType": "uint256",
          "name": "",
          "type": "uint256"
        }
      ],
      "stateMutability": "view",
      "type": "function"
    },
    {
      "inputs": [
        {
          "internalType": "address",
          "name": "newOwner",
          "type": "address"
        }
      ],
      "name": "transferOwnership",
      "outputs": [],
      "stateMutability": "nonpayable",
      "type": "function"
    },
    {
      "inputs": [],
      "name": "treasury",
      "outputs": [
        {
          "internalType": "contract ITreasury",
          "name": "",
          "type": "address"
        }
      ],
      "stateMutability": "view",
      "type": "function"
    },
    {
      "inputs": [
        {
          "internalType": "uint32",
          "name": "configId",
          "type": "uint32"
        },
        {
          "internalType": "uint64[]",
          "name": "weights_",
          "type": "uint64[]"
        },
        {
          "internalType": "uint64[]",
          "name": "multipliers_",
          "type": "uint64[]"
        },
        {
          "internalType": "uint32",
          "name": "gameId",
          "type": "uint32"
        }
      ],
      "name": "updateGameConfig",
      "outputs": [],
      "stateMutability": "nonpayable",
      "type": "function"
    },
    {
      "inputs": [
        {
          "internalType": "uint256",
          "name": "betId",
          "type": "uint256"
        }
      ],
      "name": "wheelBets",
      "outputs": [
        {
          "components": [
            {
              "internalType": "uint32",
              "name": "configId",
              "type": "uint32"
            },
            {
              "internalType": "uint256",
              "name": "stopGain",
              "type": "uint256"
            },
            {
              "internalType": "uint256",
              "name": "stopLoss",
              "type": "uint256"
            },
            {
              "internalType": "uint8[]",
              "name": "rolled",
              "type": "uint8[]"
            }
          ],
          "internalType": "struct WheelGame.WheelBet",
          "name": "",
          "type": "tuple"
        }
      ],
      "stateMutability": "view",
      "type": "function"
    },
    {
      "inputs": [
        {
          "internalType": "address",
          "name": "beneficiary",
          "type": "address"
        },
        {
          "internalType": "uint256",
          "name": "amount",
          "type": "uint256"
        },
        {
          "internalType": "address",
          "name": "token",
          "type": "address"
        }
      ],
      "name": "withdrawCustomTokenFunds",
      "outputs": [],
      "stateMutability": "nonpayable",
      "type": "function"
    }
  ],
  "bytecode": "0x60803460d557601f61460638819003918201601f19168301916001600160401b0383118484101760d95780849260209460405283398101031260d557516001600160a01b0381169081900360d557331560c2575f8054336001600160a01b0319821681178355604051939290916001600160a01b0316907f8be0079c531659141344cd1fd0a4f28419497f9722a3daafe3b4186f6b6457e09080a3600180546001600160a01b031916919091178155600855600460035561451890816100ee8239f35b631e4fbdf760e01b5f525f60045260245ffd5b5f80fd5b634e487b7160e01b5f52604160045260245ffdfe60a06040526004361015610011575f80fd5b5f5f3560e01c80630123db5f1461295357806303abf75f1461248257806306c924bb1461240657806307106f271461237a5780630d2cbe1314612333578063145287d6146123155780632a69bf1d146122ec57806339e79e7914611c585780633a05b68a14611bbe578063483bdeec1461189e5780634b1146911461182e57806358ee9c431461177457806359328401146116485780635ce444c4146110995780635d4d5bb814610ffd57806361d027b314610fd4578063715018a614610f7a578063781355bf14610d8b578063789a6b6714610d565780637bbf4a3f14610d1757806381c8ec1b14610cf95780638d0b42d814610cb95780638da5cb5b14610c925780639aca279214610c745780639cae6eae14610c21578063a045a6fc14610bf2578063a385cd4114610b5a578063b14c8009146109fc578063b42caef9146109d9578063b7dc5752146109b6578063bf65cf6214610947578063c2a8c47014610923578063d1f156d7146105e4578063d414d0c2146105c1578063e1fdb4b41461033b578063e695c2531461031d578063e7138143146102d3578063f0f4426014610293578063f2fde38b1461020d5763f4efd881146101d2575f80fd5b3461020a57602036600319011261020a576020906040906001600160a01b036101f9612e8b565b168152600783522054604051908152f35b80fd5b503461020a57602036600319011261020a57610227612e8b565b61022f61389a565b6001600160a01b0316801561027f5781546001600160a01b03198116821783556001600160a01b03167f8be0079c531659141344cd1fd0a4f28419497f9722a3daafe3b4186f6b6457e08380a380f35b631e4fbdf760e01b82526004829052602482fd5b503461020a57602036600319011261020a576102ad612e8b565b6102b561389a565b60018060a01b03166001600160601b0360a01b600154161760015580f35b503461020a57602036600319011261020a5760409081906001600160a01b036102fa612e8b565b168152600660205220548151906001600160801b038116825260801c6020820152f35b503461020a578060031936011261020a576020600a54604051908152f35b503461020a57602036600319011261020a5760043561035861389a565b808252600b60205260408220906002820154156105b2576003820180549060ff8260c01c166105a357601082901c6001600160b01b039081166154600190811161058f576001600160b01b03164311156105805760ff90838652600b6020526103d26040872061ffff6003600283015492015416906130aa565b60c083901b19909316600160c01b1781556004850183905584546001600160a01b031686526007602052604086208690555460c81c16156104d957600254835485916001600160a01b039182169116803b156104d557604051637709a1a760e11b81526001600160a01b039290921660048301526024820184905282908290604490829084905af180156104ca576104b1575b505060407fb27522330a91a6a320aeeac4733cad91c61b5384667c37acb1855ace8dc34e50915b845460019095015482519182526001600160a01b03908116602083015290941693a380f35b816104bb91612fe8565b6104c657835f610465565b8380fd5b6040513d84823e3d90fd5b8280fd5b6001805490840154845486926001600160a01b039081169281169116823b156104c657604051639bc5c50960e01b81526001600160a01b03928316600482015260248101869052911660448201529082908290606490829084905af180156104ca5761056b575b505060407fb27522330a91a6a320aeeac4733cad91c61b5384667c37acb1855ace8dc34e509161048c565b8161057591612fe8565b6104c657835f610540565b634a01daaf60e11b8552600485fd5b634e487b7160e01b86526011600452602486fd5b63433835b360e11b8552600485fd5b633f9b7dd560e11b8352600483fd5b503461020a578060031936011261020a57602060ff600454166040519015158152f35b503461020a576105f336612f3b565b949091939294338252600560205260ff604083205416156109145760ff60045416156109055760018060a01b0383169283835260066020526040832054948560801c9687156108f657610646818a6138c0565b909261ffff8416998a156108e7576001600160801b036106668c896130f0565b9a168a109081156108dd575b506108ce576001600160a01b0316808752600760205260408720549098906108bf5761069d82613921565b866008549a8b809a6106ae82613243565b6008558c84526007602052816040852055604051946106cc86612f96565b8d86526020808701928352604080880192835260608801958652436001600160b01b03166080890190815260a0890188815260c0808b018a815260e08c018b815298909a52600b909452918f20985189546001600160a01b03199081166001600160a01b03928316178b55955160018b018054909716911617909455915160028801559351600387018054935192516001600160c81b031990941661ffff9092169190911760109290921b62010000600160c01b03169190911791151590931b60ff60c01b16178255915b51815460ff60c81b191690151560c81b60ff60c81b16179055516004909101556107c19087613961565b868552600c6020526040852098895463ffffffff166107df906132b3565b63ffffffff1663ffffffff198b5416178a5560018a0185815490610802916130bd565b90558660178b019a8b5460ff16906003019061081d91613847565b610837929082549060031b91821b915f19901b1916179055565b895460ff1692601384145f149a60ff7f2796ecbf0b0464407570c503af31d0a181d0c00ac867a6c3d3c330267e93fa40986108a89660209e6108b357505b1660ff1982541617905561088a600954613243565b60095561089986600a546130bd565b600a5560405195869586613856565b0390a3604051908152f35b82915060010116610875565b63f99d560d60e01b8752600487fd5b636e15e3d960e11b8752600487fd5b905089115f610672565b63ef4c8b3560e01b8852600488fd5b631d8730d160e31b8552600485fd5b632f9107b560e01b8252600482fd5b637046c88d60e01b8252600482fd5b503461020a578060031936011261020a57602063ffffffff600d5416604051908152f35b503461020a57602036600319011261020a57600435906001600160401b03821161020a576109b261098661097e3660048601612f0e565b810190612ed4565b6040805163ffffffff909516855261ffff90931660208501529183015260608201529081906080820190565b0390f35b503461020a57602036600319011261020a576109d061389a565b60043560035580f35b503461020a578060031936011261020a57602060ff600d54821c16604051908152f35b503461020a57606036600319011261020a57610a16612e8b565b6044356001600160a01b0381169190602435908390036104c657610a3861389a565b6040516370a0823160e01b8152306004820152602081602481875afa908115610b4f578591610b19575b508111610ae25760405163a9059cbb60e01b81526001600160a01b039290921660048301526024820152906020908290604490829086905af180156104ca57610aa9575080f35b6020813d602011610ada575b81610ac260209383612fe8565b81010312610ad657518015150361020a5780f35b5080fd5b3d9150610ab5565b60405162461bcd60e51b815260206004820152600f60248201526e457863656564732062616c616e636560881b6044820152606490fd5b90506020813d602011610b47575b81610b3460209383612fe8565b81010312610b4357515f610a62565b8480fd5b3d9150610b27565b6040513d87823e3d90fd5b503461020a57602036600319011261020a576040610100916004358152600b6020522060018060a01b038154169060ff60018060a01b0360018301541691600281015460046003830154920154936040519586526020860152604085015261ffff8116606085015260018060b01b038160101c166080850152818160c01c16151560a085015260c81c16151560c083015260e0820152f35b503461020a578060031936011261020a57610c0b61389a565b60045460ff80821615169060ff19161760045580f35b503461020a57604036600319011261020a57610c3b612e8b565b602435908115158092036104d557610c5161389a565b60018060a01b031682526005602052604082209060ff8019835416911617905580f35b503461020a578060031936011261020a576020600854604051908152f35b503461020a578060031936011261020a57546040516001600160a01b039091168152602090f35b503461020a57602036600319011261020a57610cd3612e8b565b610cdb61389a565b60018060a01b03166001600160601b0360a01b600254161760025580f35b503461020a578060031936011261020a576020600354604051908152f35b503461020a57602036600319011261020a5760209060ff906040906001600160a01b03610d42612e8b565b168152600584522054166040519015158152f35b503461020a57602036600319011261020a57604060209163ffffffff610d7a612e48565b168152601083522054604051908152f35b503461020a57610d9a36612f3b565b949091939294338252600560205260ff604083205416156109145760ff60045416156109055760018060a01b0383169283835260066020526040832054948560801c9687156108f657610ded818a6138c0565b909261ffff8416998a156108e7576001600160801b03610e0d8c896130f0565b9a168a10908115610f70575b506108ce576001600160a01b0316808752600760205260408720549098906108bf57610e4482613921565b866008549a8b809a610e5582613243565b6008558c8452600760205281604085205560405194610e7386612f96565b8d86526020860191825260408601908152606086019384526080860190600160b01b600190034316825260a087019286845260c08801946001865260e0890197808952528d600b6020526040902097600160a01b6001900390600160a01b60019003905116166001600160601b0360a01b895416178855600160a01b600190039051166001880190600160a01b60019003166001600160601b0360a01b82541617905551600287015560038601935161ffff16845491600160c01b620100009003905160101b16916001600160401b0360c01b161717835551151561079790839081549060ff60c01b90151560c01b169060ff60c01b1916179055565b905089115f610e19565b503461020a578060031936011261020a57610f9361389a565b80546001600160a01b03198116825581906001600160a01b03167f8be0079c531659141344cd1fd0a4f28419497f9722a3daafe3b4186f6b6457e08280a380f35b503461020a578060031936011261020a576001546040516001600160a01b039091168152602090f35b503461020a57608036600319011261020a5760043563ffffffff81168103610ad65760243561ffff811681036104d5576040805163ffffffff939093166020840190815261ffff929092168382015260443560608401526064356080808501919091528352919061106f60a083612fe8565b8251938492602084525180928160208601528585015e828201840152601f01601f19168101030190f35b503461020a57606036600319011261020a576004356001600160401b038111610ad6576110ca903690600401612e5b565b6024356001600160401b0381116104c6576110e9903690600401612e5b565b60443593919263ffffffff851692908386036116445761110761389a565b80158015611633575b8015611629575b61161a5786928791889161112a82613020565b978a5b60ff8116848110156112175761114c611147828686613052565b613076565b986001600160401b0361116361114784898d613052565b1690811561120857908e611179828f959461308a565b9b6111986001600160401b0382169b6111928d866130aa565b906130bd565b9a6001600160401b038b16106111fe575b506111cd60ff9593600195936001600160481b03935081155f146111d857936130dc565b91169052011661112d565b6111f890846111f18a6111ea8a6130ca565b16886130dc565b511661308a565b936130dc565b98506111cd6111a9565b6306b7c75960e31b8f5260048ffd5b5050878996948b94966001600160481b038e9a1661123581836130f0565b612710811161160b576127101491826115f8575b50506115e9576001600160401b0316906127108211156115e95763ffffffff600d5416976040519061127a82612fb2565b815261128585613009565b6112926040519182612fe8565b858152602081018660051b8601903682116115e55786905b8282106115cd57505050602082019081526040820193845260608201928352898b52600f60205260408b2091518051906001600160401b0382116114be57600160401b82116114be579060208d92855483875580841061157a575b50019084835260208320906003810492845b84811061152957506003840280830392036114d2575b50505050506001820190518051906001600160401b0382116114be57602090611356838561312e565b01918c5260208c20908060021c928d805b85821061147957505060031982169091039081611421575b50508451600284018054865163ffffffff60401b60409190911b166001600160401b039093166bffffffffffffffffffffffff199091161791909117905560208b7ffb491f1f2a3d2611f4994df2b3a23b0ee97dfb2d6183216bcb5769f1f9870b1f8c8c6114168d8d8d600d5463ffffffff6113fc8183166132b3565b169063ffffffff191617600d5560405195869589876131f0565b0390a1604051908152f35b908d949d945b81811061144a5750505001556020988263ffffffff836001600160401b0361137f565b82516001600160401b03908116600683901b90811b91901b199096169590951794602090920191600101611427565b805b600481106114915750848201556001018e611367565b83519093916001916020916001600160401b03600688901b81811b199092169216901b179201930161147b565b634e487b7160e01b8d52604160045260248dfd5b90845b8181106114eb5750505001558a8c80808061132d565b909194602061151f6001926001600160481b0389511690856009026001600160481b03809160031b9316831b921b19161790565b96019291016114d5565b9091929394805b6003811061154b5750848201558f9493929190600101611317565b83519093916001916020916001600160481b036009880260031b81811b199092169216901b1792019301611530565b6115a6908786528386206003600281818901048301936009838a0602806115ac575b5001040190613118565b8f611305565b6115c7905f198701908154905f199060200360031b1c169055565b5f61159c565b602080916115da8461319b565b8152019101906112aa565b8c80fd5b6306b7c75960e31b8952600489fd5b611602925061310e565b15158a80611249565b6306b7c75960e31b8c5260048cfd5b6306b7c75960e31b8752600487fd5b5082811415611117565b5060ff600d5460201c168111611110565b8680fd5b503461020a57602036600319011261020a57611662612e8b565b8160a060405161167181612fcd565b828152826020820152826040820152826060820152610280604051906116978183612fe8565b368237608082015201526001600160a01b03168152600c6020526040808220905190916116c382612fcd565b82549263ffffffff8416835263ffffffff602084019460201c1684526001810154604084019081526002820154906060850191825263ffffffff60ff601761170d60038701613251565b95608089019687520154169660a087019788528160405197511687525116602086015251604085015251606084015251608083019091905b6014821061175e576103208460ff875116610300820152f35b6020806001928551815201930191019091611745565b503461020a57606036600319011261020a5761178e612e8b565b602435906001600160801b0382168092036104d557604435906001600160801b0382168092036104c6576117c061389a565b60405192604084018481106001600160401b0382111761181a5760405283526020830191825260018060a01b0316835260066020526001600160801b0360408420925116906001600160801b0319905160801b1617905580f35b634e487b7160e01b86526041600452602486fd5b503461020a57602036600319011261020a5760a0906040906001600160a01b03611856612e8b565b168152600c6020522080549060018101549060ff60176002830154920154169163ffffffff60405194818116865260201c166020850152604084015260608301526080820152f35b503461020a57602036600319011261020a5763ffffffff6118bd612e48565b8260606040516118cc81612fb2565b8181528160208201528260408201520152168152600f60205260408120604051916118f683612fb2565b6040518081602085549283815201858552602085209285905b806002830110611b825761193d945491818110611b68575b818110611b4b575b10611b34575b500382612fe8565b8352600182019160405180938491602082549182815201918552602085209085915b816003840110611ae2579161199f939160029695935491818110611ac8575b818110611aab575b818110611a8e575b10611a80575b509694960385612fe8565b6020830193845201549260408201906001600160401b038516825263ffffffff606084019560401c168552604051936020855260a08501935193608060208701528451809152602060c08701950190835b818110611a61575050505192601f19858203016040860152602080855192838152019401915b818110611a425750505082936001600160401b0363ffffffff9251166060850152511660808301520390f35b82516001600160401b0316855260209485019490920191600101611a16565b82516001600160481b03168752602096870196909201916001016119f0565b60c01c81526020015f611994565b9260206001916001600160401b038560801c16815201930161198e565b9260206001916001600160401b038560401c168152019301611986565b9260206001916001600160401b038516815201930161197e565b935090916001608060049286546001600160401b03811682526001600160401b038160401c1660208301526001600160401b0381841c16604083015260c01c606082015201940192019086939261195f565b60901c6001600160481b031681526020015f611935565b9260206001916001600160481b038560481c16815201930161192f565b9260206001916001600160481b0385168152019301611927565b91600391935060606001916001600160481b0387548181168352818160481c16602084015260901c16604082015201940192018492939161190f565b503461020a57602036600319011261020a576004356001600160401b038111610ad657611bef903690600401612e5b565b90611bf982613020565b91835b818110611c1957604051602080825281906109b290820187612ea1565b611c24818385613052565b359063ffffffff8216809203611c5457600191865260106020526040862054611c4d82876130dc565b5201611bfc565b8580fd5b503461020a57602036600319011261020a57606080604051611c7981612fb2565b83815283602082015283604082015201526004358152600e6020526040812090604051611ca581612fb2565b63ffffffff8354168152600183015492602082019384526003600282015491604084019283520190604051808360208295549384815201908752602087209287905b80601f83011061214457611e02945491818110612130575b818110612119575b818110612102575b8181106120eb575b8181106120d5575b8181106120be575b8181106120a7575b818110612090575b818110612079575b818110612062575b81811061204b575b818110612034575b81811061201d575b818110612006575b818110611fef575b818110611fd8575b818110611fc1575b818110611faa575b818110611f93575b818110611f7c575b818110611f65575b818110611f4e575b818110611f37575b818110611f20575b818110611f09575b818110611ef2575b818110611edb575b818110611ec4575b818110611ead575b818110611e96575b818110611e7f575b10611e71575b5096959392960382612fe8565b606083019081526040519485946020865263ffffffff60a08701955116602087015251604086015251606085015251916080808501528251809152602060c085019301915b818110611e55575050500390f35b825160ff16845285945060209384019390920191600101611e47565b60f81c81526020015f611df5565b92602060019160ff8560f01c168152019301611def565b92602060019160ff8560e81c168152019301611de7565b92602060019160ff8560e01c168152019301611ddf565b92602060019160ff8560d81c168152019301611dd7565b92602060019160ff8560d01c168152019301611dcf565b92602060019160ff8560c81c168152019301611dc7565b92602060019160ff8560c01c168152019301611dbf565b92602060019160ff8560b81c168152019301611db7565b92602060019160ff8560b01c168152019301611daf565b92602060019160ff8560a81c168152019301611da7565b92602060019160ff8560a01c168152019301611d9f565b92602060019160ff8560981c168152019301611d97565b92602060019160ff8560901c168152019301611d8f565b92602060019160ff8560881c168152019301611d87565b92602060019160ff8560801c168152019301611d7f565b92602060019160ff8560781c168152019301611d77565b92602060019160ff8560701c168152019301611d6f565b92602060019160ff8560681c168152019301611d67565b92602060019160ff8560601c168152019301611d5f565b92602060019160ff8560581c168152019301611d57565b92602060019160ff8560501c168152019301611d4f565b92602060019160ff8560481c168152019301611d47565b92602060019160ff8560401c168152019301611d3f565b92602060019160ff8560381c168152019301611d37565b92602060019160ff8560301c168152019301611d2f565b92602060019160ff8560281c168152019301611d27565b92602060019160ff85831c168152019301611d1f565b92602060019160ff8560181c168152019301611d17565b92602060019160ff8560101c168152019301611d0f565b92602060019160ff8560081c168152019301611d07565b92602060019160ff85168152019301611cff565b916020919350610400600191865460ff8116825260ff8160081c168583015260ff8160101c16604083015260ff8160181c16606083015260ff81861c16608083015260ff8160281c1660a083015260ff8160301c1660c083015260ff8160381c1660e083015260ff8160401c1661010083015260ff8160481c1661012083015260ff8160501c1661014083015260ff8160581c1661016083015260ff8160601c1661018083015260ff8160681c166101a083015260ff8160701c166101c083015260ff8160781c166101e083015260ff8160801c1661020083015260ff8160881c1661022083015260ff8160901c1661024083015260ff8160981c1661026083015260ff8160a01c1661028083015260ff8160a81c166102a083015260ff8160b01c166102c083015260ff8160b81c166102e083015260ff8160c01c1661030083015260ff8160c81c1661032083015260ff8160d01c1661034083015260ff8160d81c1661036083015260ff8160e01c1661038083015260ff8160e81c166103a083015260ff8160f01c166103c083015260f81c6103e0820152019401920185929391611ce7565b503461020a578060031936011261020a576002546040516001600160a01b039091168152602090f35b503461020a578060031936011261020a576020600954604051908152f35b503461020a57604036600319011261020a57338152600560205260ff6040822054161561236b576123686024356004356132ca565b80f35b637046c88d60e01b8152600490fd5b503461020a57602036600319011261020a57612394612e8b565b61028090816040516123a68282612fe8565b3690376001600160a01b03168252600c60205260408220601781015460ff16906123d290600301613251565b9160405192839094905b601482106123f05750506102a09350820152f35b60208060019288518152019601910190946123dc565b503461020a57602036600319011261020a5760043560ff81168082036104d5577f69dacb1c4ccb4192f11b288c7250036506cccd09c1c33c3a5bc3902c518268269160409161245361389a565b64ff00000000600d549260201b1664ff0000000019831617600d5560ff83519260201c1682526020820152a180f35b3461288a57602036600319011261288a576004356001600160401b03811161288a5736819003906004810160c060031984011261288a57335f52600560205260ff60405f205416156129445760ff60045416156129355760448201926001600160a01b036124ef8561322f565b165f52600660205260405f20548060801c918215612926576024850135906022190181121561288a5784016004810135906001600160401b03821161288a5760240190803603821361288a57612544916138c0565b9161ffff8216928315612917576064870135946001600160801b0361256986886130f0565b9316831090811561290d575b506128fe5761258381613921565b6008549661259088613243565b60085561259c8761322f565b946125a68a61322f565b9260848301359687151580980361288a5760048b6126f4946126fd9a6126d160a499604051966125d588612f96565b60018060a01b03168752602087019060018060a01b03168152604087018c815260608801948552608088019060018060b01b034316825260a08901926001845260c08a0195865260e08a01975f89525f52600b60205260405f209960018060a01b039060018060a01b03905116166001600160601b0360a01b8b5416178a5560018060a01b0390511660018a019060018060a01b03166001600160601b0360a01b82541617905551600289015561ffff6003890195511685549162010000600160c01b03905160101b16916001600160401b0360c01b1617178455511515839081549060ff60c01b90151560c01b169060ff60c01b1916179055565b51815460ff60c81b191690151560c81b60ff60c81b161790555191015589613961565b01359186613a4e565b5f848152600b60205260409020600401819055916001600160a01b036127228261322f565b165f52600c60205260405f2063ffffffff61273f818354166132b3565b1663ffffffff198254161781556001810161275b8482546130bd565b90556008545f1981019081116128ea5761279c601783019161278460ff84541660038601613847565b90919082549060031b91821b915f19901b1916179055565b805460ff16601381036128dd575060ff5f5b1660ff19825416179055831515908161288e575b506127f5575b604084846127e6856127db600954613243565b600955600a546130bd565b600a5582519182526020820152f35b6001546001600160a01b0316946128159061280f9061322f565b9161322f565b853b1561288a57604051639bc5c50960e01b81526001600160a01b0392831660048201526024810185905291166044820152935f908590606490829084905af190811561287f576040946127e69261286f575b50906127c8565b5f61287991612fe8565b5f612868565b6040513d5f823e3d90fd5b5f80fd5b806128c96128a763ffffffff6002945460201c166132b3565b825467ffffffff00000000191660209190911b67ffffffff0000000016178255565b016128d58582546130bd565b9055866127c2565b60ff6001819201166127ae565b634e487b7160e01b5f52601160045260245ffd5b636e15e3d960e11b5f5260045ffd5b9050821189612575565b63ef4c8b3560e01b5f5260045ffd5b631d8730d160e31b5f5260045ffd5b632f9107b560e01b5f5260045ffd5b637046c88d60e01b5f5260045ffd5b3461288a57608036600319011261288a5761296c612e48565b6024356001600160401b03811161288a5761298b903690600401612e5b565b91906044356001600160401b03811161288a576129ac903690600401612e5b565b9092606435919063ffffffff8316830361288a576129c861389a565b85158015612e37575b8015612e2d575b612af45763ffffffff811693845f52600f60205260405f20958654958615612e1b57505f9796889695948794909190612a108a613020565b965f5b8b60ff82161015612b03578b9c6001600160401b03612a506111479d9e9b9c9d612a4461114760ff87168b8d613052565b9c60ff8616908c613052565b168015612af457612a62818d9361308a565b9a6001600160401b0381169e8f612a7990846130aa565b612a82916130bd565b9e6001600160401b038c1610612aeb575b50916001916001600160481b03612abb60ff95868516155f14612acc57925b868516906130dc565b9116905201169998979b9a99612a13565b612ae590836111f189612ade896130ca565b16876130dc565b92612ab2565b99506001612a93565b6306b7c75960e31b5f5260045ffd5b50939196958a919596898b6001600160481b038f16612b2281836130f0565b6127108111612af457612710149182612e08575b5050612af4576127106001600160401b0384161115612af4578151916001600160401b038311612d2457600160401b8311612d2457602091838c55808410612dd7575b500190895f5260205f2060038204915f5b838110612d90575060038302900380612d38575b5050505060018801976001600160401b038511612d2457612bbf858a61312e565b83985f5260205f208560021c905f5b828110612cd257506003198716870380612c50575b506002830180546bffffffffffffffffffffffff19166001600160401b0386161760408a901b63ffffffff60401b161790557ffb491f1f2a3d2611f4994df2b3a23b0ee97dfb2d6183216bcb5769f1f9870b1f8a8a612c4b8b8b8b8b604051968796876131f0565b0390a1005b9a5f9b5f5b818110612c955750505001989098557ffb491f1f2a3d2611f4994df2b3a23b0ee97dfb2d6183216bcb5769f1f9870b1f9785826001600160401b03612be3565b90919c6020612cc88f92612caa600194613076565b908560031b6001600160401b03809160031b9316831b921b19161790565b9e01929101612c55565b5f5f5b60048110612cea575082820155600101612bce565b9c906020612d1b8f600193612cfe86613076565b9160031b6001600160401b03809160031b9316831b921b19161790565b92019d01612cd5565b634e487b7160e01b5f52604160045260245ffd5b925f935f5b818110612d5257505050015588808080612b9e565b9091946020612d866001926001600160481b0389511690856009026001600160481b03809160031b9316831b921b19161790565b9601929101612d3d565b5f5f5b60038110612da8575083820155600101612b8a565b86519096916001916020916001600160481b0360098b0260031b81811b199092169216901b1792019601612d93565b612e02908c5f52835f206003600281818901048301936009838a0602806115ac575001040190613118565b8b612b79565b612e12925061310e565b15158b80612b36565b635f8b04b560e11b5f5260045260245ffd5b50818614156129d8565b5060ff600d5460201c1686116129d1565b6004359063ffffffff8216820361288a57565b9181601f8401121561288a578235916001600160401b03831161288a576020808501948460051b01011161288a57565b600435906001600160a01b038216820361288a57565b90602080835192838152019201905f5b818110612ebe5750505090565b8251845260209384019390920191600101612eb1565b919082608091031261288a57813563ffffffff8116810361288a5791602081013561ffff8116810361288a57916060604083013592013590565b9181601f8401121561288a578235916001600160401b03831161288a576020838186019501011161288a57565b90608060031983011261288a576004356001600160a01b038116810361288a5791602435906001600160401b03821161288a57612f7a91600401612f0e565b90916044356001600160a01b038116810361288a579060643590565b61010081019081106001600160401b03821117612d2457604052565b608081019081106001600160401b03821117612d2457604052565b60c081019081106001600160401b03821117612d2457604052565b90601f801991011681019081106001600160401b03821117612d2457604052565b6001600160401b038111612d245760051b60200190565b9061302a82613009565b6130376040519182612fe8565b8281528092613048601f1991613009565b0190602036910137565b91908110156130625760051b0190565b634e487b7160e01b5f52603260045260245ffd5b356001600160401b038116810361288a5790565b906001600160481b03809116911601906001600160481b0382116128ea57565b818102929181159184041417156128ea57565b919082018092116128ea57565b60ff5f199116019060ff82116128ea57565b80518210156130625760209160051b010190565b81156130fa570490565b634e487b7160e01b5f52601260045260245ffd5b81156130fa570690565b818110613123575050565b5f8155600101613118565b90600160401b8111612d2457815481835580821061314b57505050565b613178925f52600360205f2091601882850160021c840194831b168061317a575b500160021c0190613118565b565b613195905f198601908154905f199060200360031b1c169055565b5f61316c565b35906001600160401b038216820361288a57565b916020908281520191905f5b8181106131c85750505090565b9091926020806001926001600160401b036131e28861319b565b1681520194019291016131bb565b9461321a6132289363ffffffff9586606098959b9a9b168952608060208a015260808901916131af565b9186830360408801526131af565b9416910152565b356001600160a01b038116810361288a5790565b5f1981146128ea5760010190565b60405191905f835b601482106132705750505061317861028083612fe8565b6001602081928554815201930191019091613259565b6132b0939260809260018060a01b0316825260208201525f60408201528160608201520190612ea1565b90565b63ffffffff1663ffffffff81146128ea5760010190565b91825f52600b60205260405f2092600284018054158015613836575b61382757600385015460408051602081019687524291810191909152446060820152601082901c6001600160b01b03164060808201529094906133368160a081015b03601f198101835282612fe8565b51902093600354606486061115613786575050805f52600b60205260405f2092815f52600e60205260405f209260018401549460028501549461ffff60038301541692600283015460805261338a84613020565b985f945f985f9a60015b15613419575b899a9b8d5f9d6080516133ac916130bd565b60408051602081018e815261ffff861682840152918152919b916133d1606082612fe8565b5190209d8e6080516133e292614058565b6133eb916130bd565b9c6133f6908d6142ca565b60ff169061ffff8316613408916130dc565b5260010161ffff169b9a979a613394565b8261ffff8d16108061373f575b61339a5750508896509761345661345b949961119293979499969b8161ffff821610613737575b506080516130aa565b6139bc565b926003860188516001600160401b038111612d2457600160401b8111612d245781548183558082106136e5575b5060208a01915f5260205f208160051c915f5b8381106136a65750601f19811690038061365c575b505050506134be8851613020565b955f5b89518110156134ec578060ff6134d96001938d6130dc565b51166134e5828b6130dc565b52016134c1565b509061356e8563ffffffff61355c989b947f3e72f8f1b3dd1d1d4bfc06c895f25e9b90ebd06b7d693971b83a37144d013a1896979a989b885f5160206144c35f395f51905f528760018060a01b038454169c8d946001808060a01b03910154169e8f9189604051948594856139c9565b0390a3541693604051948594856139f4565b0390a460038101805460ff60c01b1916600160c01b1790556004810182905580546001600160a01b03165f90815260076020526040812055816135af575050565b60018060a01b038154165f52600c602052600260405f206135dc6128a763ffffffff835460201c166132b3565b016135e88382546130bd565b9055600180549082015491546001600160a01b03928316929081169116803b1561288a57604051639bc5c50960e01b81526001600160a01b0393841660048201526024810194909452911660448301525f908290606490829084905af1801561287f576136525750565b5f61317891612fe8565b925f935f5b8181106136765750505001555f8080806134b0565b909194602061369c6001928460ff8a5116919060ff809160031b9316831b921b19161790565b9601929101613661565b5f5f5b602081106136be57508382015560010161349b565b865190969160019160209160ff60038b901b81811b199092169216901b17920196016136a9565b61371090835f5260205f20601f80850160051c82019281861680613716575b500160051c0190613118565b5f613488565b613731905f198601908154905f199060200360031b1c169055565b5f613704565b8d525f61344d565b5080151580613773575b8015613756575b15613426565b508115158015613750575061376b88836130bd565b8b1015613750565b5061377e8b826130bd565b881015613749565b5f5160206144c35f395f51905f529293959450600160c01b9060ff60c01b19161760038501555f600485015560018060a01b038454165f5260076020525f6040812055825f52600b6020526137e561ffff600360405f20015416613020565b9061382261381560018060a01b038754169661ffff600360018060a01b03600184015416955492015416906130aa565b9260405193849384613286565b0390a3565b63433835b360e11b5f5260045ffd5b5060ff600386015460c01c166132e6565b60148210156130625701905f90565b9390859360a0969361ffff926001808a1b03168752602087015216604085015260806060850152816080850152848401375f828201840152601f01601f1916010190565b5f546001600160a01b031633036138ad57565b63118cdaa760e01b5f523360045260245ffd5b6138cc91810190612ed4565b909392919363ffffffff6040519316602084015260408301526060820152606081526132b0608082612fe8565b9081606091031261288a57805163ffffffff8116810361288a57916040602083015192015190565b61393963ffffffff91602080825183010191016138f9565b505016805f52600f60205260405f2054908115612e1b575060ff600d5460201c1610612af457565b61397963ffffffff92602080825183010191016138f9565b5f938452600e6020908152604080862080548819169790951696871785556001808601949094556002909401919091559383526010909352902080549091019055565b919082039182116128ea57565b90926080926132b0959460018060a01b03168352602083015260408201528160608201520190612ea1565b949392909163ffffffff9060808701938752166020860152608060408601528051809252602060a086019101915f5b818110613a3557505060609150930152565b835160ff16835260209384019390920191600101613a23565b90925f194301904382116128ea57604080516020810192835242918101919091524460608201529140608083015290613a8a8160a08101613328565b519020815f52600e60205260405f2090600354606482061115613dda57600182015461ffff6002840154961692613ac084613020565b975f945f985f9460015b15613b45575b899a5f9b613add916130bd565b60408051602081018a815261ffff8a1682840152918152919791613b02606082612fe8565b51902098613b118a8d8d614058565b613b1a916130bd565b98613b25908b6142ca565b60ff16613b3661ffff83168f6130dc565b5260010161ffff16959a613aca565b8261ffff87161080613d93575b613ad0575050613b7e945061345690899861119294989a9397958261ffff821610613d8b575b506130aa565b916003810186516001600160401b038111612d2457600160401b8111612d24578154818355808210613d5b575b5060208801915f5260205f208160051c915f5b838110613d1c5750601f198116900380613cd2575b50505050613be18651613020565b935f5b8751811015613c0f578060ff613bfc6001938b6130dc565b5116613c0882896130dc565b5201613be4565b5092957f3e72f8f1b3dd1d1d4bfc06c895f25e9b90ebd06b7d693971b83a37144d013a189194959295835f52600b602052835f5160206144c35f395f51905f528660018060a01b0360405f20541693835f52600b602052613c8760018060a01b03600160405f20015416918d604051948594856139c9565b0390a35f838152600b6020526040908190208054600190910154965491516001600160a01b03978816979091169590928392613ccd928b929163ffffffff1690856139f4565b0390a4565b925f935f5b818110613cec5750505001555f808080613bd3565b9091946020613d126001928460ff8a5116919060ff809160031b9316831b921b19161790565b9601929101613cd7565b5f5f5b60208110613d34575083820155600101613bbe565b865190969160019160209160ff60038b901b81811b199092169216901b1792019601613d1f565b613d8590835f5260205f20601f80850160051c8201928186168061371657500160051c0190613118565b5f613bab565b8c525f613b78565b5080151580613dc7575b8015613daa575b15613b52565b508115158015613da45750613dbf88836130bd565b8b1015613da4565b50613dd28b826130bd565b881015613d9d565b5090919261ffff16906003613dee83613020565b9101908051906001600160401b038211612d2457600160401b8211612d24576020908354838555808410613f3c575b5001915f5260205f208160051c915f5b838110613efd5750601f198116900380613ea6575b5050505f838152600b6020526040902080546001909101546001600160a01b03918216955f5160206144c35f395f51905f52949350911690613e9f90613e9390613e8d9085906130aa565b93613020565b60405193849384613286565b0390a35f90565b925f935f5b818110613ecd5750505001555f5160206144c35f395f51905f525f8080613e42565b9091946020613ef36001928460ff8a5116919060ff809160031b9316831b921b19161790565b9601929101613eab565b5f5f5b60208110613f15575083820155600101613e2d565b865190969160019160209160ff60038b901b81811b199092169216901b1792019601613f00565b613f6590855f52835f20601f80870160051c8201928188168061371657500160051c0190613118565b5f613e1d565b805415613062575f5260205f20905f90565b805460011015613062575f5260205f2090600990565b805460021015613062575f5260205f2090601290565b805460031015613062575f52600160205f2001905f90565b805460041015613062575f52600160205f200190600990565b805460051015613062575f52600160205f200190601290565b805460061015613062575f52600260205f2001905f90565b805460071015613062575f52600260205f200190600990565b9190918054831015613062575f526009600360205f208185040193060290565b9060ff8091169116019060ff82116128ea57565b9190915f52600e60205263ffffffff60405f20541690815f52600f60205260405f206001600160481b036140ac60ff835416938261409e614098876130ca565b86614024565b90549060031b1c169061310e565b16916009811161425657506001600160481b036140c882613f6b565b90549060031b1c1682105f146141245750505f905b5f52600f602052600160405f2001918254821015613062576001600160401b0361412092612710945f5260c060205f208260021c01549160061b161c16906130aa565b0490565b6001600160481b0361413582613f7d565b90549060031b1c1682105f1461414f5750506001906140dd565b6001600160481b0361416082613f93565b90549060031b1c1682105f1461417a5750506002906140dd565b6001600160481b0361418b82613fa9565b90549060031b1c1682105f146141a55750506003906140dd565b6001600160481b036141b682613fc1565b90549060031b1c1682105f146141d05750506004906140dd565b6001600160481b036141e182613fda565b90549060031b1c1682105f146141fb5750506005906140dd565b6001600160481b0361420c82613ff3565b90549060031b1c1682105f146142265750506006906140dd565b6142376001600160481b039161400b565b90549060031b1c16115f1461424e576007906140dd565b6008906140dd565b906142615f926130ca565b925b60ff841660ff84161061427d57505060ff915016906140dd565b9091607f61428b8583614044565b60011c16906001600160481b036142a28386614024565b905460039190911b1c1683106142c3575060010160ff16925b929190614263565b93506142bb565b5f52600e60205263ffffffff60405f2054165f52600f60205260405f206001600160481b0361430560ff835416938261409e614098876130ca565b16916009811161445157506001600160481b0361432182613f6b565b90549060031b1c1682105f146143375750505f90565b6001600160481b0361434882613f7d565b90549060031b1c1682105f1461435f575050600190565b6001600160481b0361437082613f93565b90549060031b1c1682105f14614387575050600290565b6001600160481b0361439882613fa9565b90549060031b1c1682105f146143af575050600390565b6001600160481b036143c082613fc1565b90549060031b1c1682105f146143d7575050600490565b6001600160481b036143e882613fda565b90549060031b1c1682105f146143ff575050600590565b6001600160481b0361441082613ff3565b90549060031b1c1682105f14614427575050600690565b6144386001600160481b039161400b565b90549060031b1c16115f1461444c57600790565b600890565b9061445c5f926130ca565b925b60ff841660ff84161061447557505060ff91501690565b9091607f6144838583614044565b60011c16906001600160481b0361449a8386614024565b905460039190911b1c1683106144bb575060010160ff16925b92919061445e565b93506144b356fe7b2b1318c7e6cfd4bbeac6266cea2762a843a90f923acf58b837c8dbe846af08a2646970667358221220f82566bcd800cda1b42aa9a7de184b6e19aa25a47e5798a2b888dab4d6fabbc764736f6c634300081c0033",
  "linkReferences": {},
  "deployedLinkReferences": {},
  "immutableReferences": {},
  "inputSourceName": "project/contracts/pvh/WheelGame.sol",
  "buildInfoId": "solc-0_8_28-2f564910bb6e363fcead372b74b19a98494e34d6"
}